:020000040800F2
:1000000000500020DD1F0008752000087520000842
:10001000752000087520000875200008752000086C
:10002000752000087520000875200008752000085C
:100030007520000875200008752000082D42000872
:10004000752000087520000875200008752000083C
:10005000752000087520000875200008752000082C
:10006000752000087520000875200008752000081C
:10007000752000087520000875200008752000080C
:1000800075200008752000087520000875200008FC
:1000900075200008752000087520000875200008EC
:1000A00075200008752000087520000875200008DC
:1000B00075200008752000087520000875200008CC
:1000C00075200008752000087520000875200008BC
:1000D00075200008752000083536000875200008D6
:1000E000752000087520000875200008752000089C
:1000F000752000087520000875200008752000088C
:10010000752000087520000875200008752000087B
:10011000752000087520000875200008752000086B
:10012000752000087520000875200008752000085B
:10013000B0B5E4B004AF0423C7F87C310023C7F89E
:100140007831052387F87731012387F8753101234A
:1001500087F8743107F120040A23019318230093D0
:1001600014230322C249204603F09AFB10340A23C9
:1001700001931823009314231B22BD49204603F04A
:100180008FFB10340A230193182300931423332286
:10019000B749204603F084FB10340A230193182347
:1001A000009314234B22B249204603F079FB10340C
:1001B0000A2301931823009314236322AC49204699
:1001C00003F06EFB10340A230193182300931423C9
:1001D0007B22A749204603F063FB10340A230193D6
:1001E0001823009314239322A149204603F058FBBF
:1001F00010340A230193182300931E2303229D49E0
:10020000204603F04DFB10340A230193182300937A
:100210001E231B229749204603F042FB10340A2379
:100220000193182300931E2333229249204603F0A2
:1002300037FB10340A230193182300931E234B220B
:100240008C49204603F02CFB10340A230193182319
:1002500000931E2363228749204603F021FB1034BC
:100260000A230193182300931E237B2281492046F1
:1002700003F016FB10340A230193182300931E2366
:1002800093227C49204603F00BFB10340A23019390
:1002900018230093282303227749204603F000FB0C
:1002A00010340A2301931823009328231B22724938
:1002B000204603F0F5FA10340A2301931823009323
:1002C000282333226C49204603F0EAFA10340A232B
:1002D00001931823009328234B226749204603F0FB
:1002E000DFFA10340A230193182300932823632292
:1002F0006149204603F0D4FA10340A2301931823ED
:10030000009328237B225C49204603F0C9FA04F1BC
:1003100010000A230193182300932823932256499F
:1003200003F0BEFA07F11000032301931423009396
:10033000C8230022514903F0B3FA3846032301933E
:10034000032300936E2378224D4903F0A9FA00237A
:100350000193DC230093B02300220021494800F0E0
:10036000A3FB002302934FF6FF730193282300930E
:100370000A2305224449434800F0B8FE4FF4FA71BD
:10038000404803F03CFFD7F87C31002B40F3128348
:10039000A6220A213B4800F0B9FF034699B23B462A
:1003A0006E22184603F004FB02220021354800F0BB
:1003B000ADFF0346002B14BF01230023DBB2002B4B
:1003C00003D0012387F8753102E0FF2387F87531E8
:1003D0000023C7F87831FF2387F874310023019395
:1003E000B0230093B02300220021264800F05CFBDC
:1003F00097F8773187F8763197F87631002B18DD4A
:1004000097F876319BB21A461B01D31A9BB2B033D0
:1004100099B24FF6610301930A2300930A23D22273
:10042000184800F041FB97F87631013B87F87631A8
:10043000E2E7002387F8763197F87631142B25DC34
:1004400097F8763107F120021B011344184603F098
:100450008DFA97F8763107F120021B0113441846F4
:1004600003F041FA97F87631013387F87631E3E704
:100470007C4200085C4400083C4600081C48000818
:100480009448000804000020A84800083B4618468D
:1004900003F029FA07F11003184603F024FA0023A9
:1004A00002934FF6FF730193D22300930523052295
:1004B000C949CA4800F01AFED7F87C319BB2C3F193
:1004C000050399B2002301934FF6FF730093D223E3
:1004D0003C22C24800F096FED7F87831002B7FF41A
:1004E00052AFBF4801F07EF8034603F00203002B31
:1004F00014BF01230023DBB2002B2AD007F1100325
:10050000184605F0A6FC03461C4607F110031846E2
:1005100005F0B5FC0346C3F1B0039C42B4BF012310
:100520000023DBB2002B14D007F11003184605F0AE
:1005300090FC034602339CB207F11003184605F005
:1005400093FC03461A4607F110032146184603F0B0
:100550002FFAA34801F046F8034603F00103002BED
:1005600014BF01230023DBB2002B21D007F11003BD
:10057000184605F06EFC0346002BCCBF0123002378
:10058000DBB2002B14D007F11003184605F061FC14
:100590000346023B9CB207F11003184605F064FCC9
:1005A00003461A4607F110032146184603F000FAE5
:1005B0003B46184605F04DFC03461C463B46184694
:1005C00005F05DFC03465B08DBB29BB223449CB2A2
:1005D0003B46184605F048FC03461D463B46184678
:1005E00005F059FC03465B08DBB29BB22B449AB280
:1005F00007F110032146184603F04EFA0346002B7C
:1006000014BF01230023DBB2002B0AD097F874310A
:100610005B42DBB287F874311422C821714803F0C1
:100620008BF807F11003184603F080F93B46184693
:1006300005F00FFC03461A4697F975319BB2134437
:100640009CB23B46184605F00FFC03461A4697F944
:1006500074319BB213449AB23B462146184603F0CC
:10066000A7F93B46184605F0F4FB0346022B0CBFE6
:1006700001230023DBB2002B0BD097F875315B42CE
:10068000DBB287F8753114224FF4C871554803F076
:1006900053F83B46184605F0DCFB0346AE2B0CBF77
:1006A00001230023DBB2002B0BD097F875315B429E
:1006B000DBB287F8753114224FF4C871494803F052
:1006C0003BF83B46184605F0CFFB0346022B0CBF18
:1006D00001230023DBB2002B0BD097F874315B426F
:1006E000DBB287F8743114224FF4C8713D4803F02F
:1006F00023F83B46184605F0B7FB03461C4607F1B6
:100700001003184605F0B0FB03461D4607F1100321
:10071000184605F0C0FB03462B4402339C42ACBF95
:1007200001230023DBB2002B00F0A68097F977317C
:10073000DBB2013BDBB287F8773197F97731002BD9
:1007400036D100230193DC230093B0230022002143
:10075000224800F0A9F9002302934FF6FF7301939A
:1007600064230093282309221F491C4800F0BEFC83
:10077000002302934FF6E07301937823009308233C
:100780000F221A49154800F0B1FC154800F02AFF65
:10079000034603F00403002B0CBF01230023DBB24C
:1007A000002B00F03D810A210C4803F028FDECE706
:1007B00064220021094800F0A9FD034603F001036B
:1007C000002B14BF01230023DBB2002B10D0012328
:1007D00087F875310FE000BFB04800080400002022
:1007E0004401002040010020B8480008C448000827
:1007F000FF2387F87531FF2387F87431A6220A2179
:100800008B4800F083FD03469CB278225A21884829
:1008100000F07CFD03469AB23B462146184603F0A1
:10082000C7F8002301930A2300937823D22265217D
:100830007F4800F039F997F8773187F8763197F8E3
:100840007631002B18DD97F876319BB21A461B01E2
:10085000D31A9BB2B03399B24FF6610301930A23C6
:1008600000930A23D222724800F01EF997F87631DD
:10087000013B87F87631E2E70123C7F8783100239E
:1008800087F8763197F87631142B61DC97F876315A
:1008900007F120021B011344184605F008FB03462C
:1008A000002B14BF01230023DBB2002B02D0002356
:1008B000C7F8783197F8763107F120021B01D41878
:1008C0003B46184605F0C5FA03461D463B4618460A
:1008D00005F0CAFA03461A462946204603F0DCF81A
:1008E0000346C7F87031D7F87031002B2AD097F83B
:1008F000763107F120021B011344184603F036F845
:10090000D7F87031012B03D0D7F87031032B05D104
:1009100097F874315B42DBB287F87431D7F87031E5
:10092000022B03D0D7F87031042B05D197F875311D
:100930005B42DBB287F8753114224FF47A713D487F
:1009400002F0FAFE97F87631013387F8763199E7AD
:10095000D7F87831012B25D1D7F87C31002B21DD58
:10096000D7F87C31013BC7F87C31002302934FF666
:10097000FF730193D2230093052305222E492C48AF
:1009800000F0B4FBD7F87C319BB2C3F1050399B2F8
:10099000002301934FF6FF730093D2233C22244897
:1009A00000F030FCD7F87C3105331946204803F0BD
:1009B00026FC91E51F230193B0230093B02300226E
:1009C00000211B4800F070F81F2302934FF6E073DC
:1009D000019364230093282308221849144800F047
:1009E00085FB1F2302934FF6E07301937823009356
:1009F00008230F2212490E4800F078FB114800F03E
:100A0000F1FD034603F00403002B0CBF0123002378
:100A1000DBB2002B06D00A21054803F0F0FBEDE71E
:100A200000BF00E000BF07F5C077BD46B0BD00BF06
:100A30000400002040010020B0480008D44800080D
:100A4000C44800084401002080B582B000AF78603F
:100A50007B68184603F05CFB7B682433184602F081
:100A60006BFC7B6803F5A073184600F0EFFC7B6815
:100A700003F59E73184602F035FE7B6803F5A673F6
:100A80007A681146184600F027FF7B68054918462A
:100A900003F06CFB786800F08FFC00BF0837BD46A0
:100AA00080BD00BF7338000890B587B002AFF86012
:100AB000084611461A4603467B810B463B81134686
:100AC000FB80FB6803F5A670FC883A897989BB8CAA
:100AD00001933B8C0093234601F095F800BF143737
:100AE000BD4690BD90B587B002AFF860084611468C
:100AF0001A4603467B810B463B811346FB807A896D
:100B0000FB88134498B23A897989BB8C01933B895D
:100B100000930346F86800F053FA3A893B8C13447B
:100B20009BB27C8938897989BA8C019200932346DB
:100B30000246F86800F044FA7A89FB88134499B2B7
:100B40007A89FB8813449CB23A893B8C13449BB24C
:100B50003889BA8C0192009323460246F86800F067
:100B60002FFA3A893B8C134498B27A89FB88134454
:100B70009CB23A893B8C13449BB27989BA8C01921E
:100B8000009323460246F86800F01AFA00BF1437B3
:100B9000BD4690BD80B58AB000AFF86008461146EA
:100BA0001A4603467B810B463B811346FB80FB883C
:100BB000013B7B6200233B620123FB610123BB619C
:100BC000FB885B00FA69D31A7B617A6A3B6A9A42B6
:100BD000C0F29F80FB6803F5A6707B6A9AB27B899E
:100BE000134499B23B6A9AB23B8913449AB23B8E42
:100BF00000F0A4FFFB6803F5A6703B6A9AB27B89FC
:100C0000134499B27B6A9AB23B8913449AB23B8EE1
:100C100000F094FFFB6803F5A6703B6A9BB27A89EB
:100C2000D31A99B27B6A9AB23B8913449AB23B8E2B
:100C300000F084FFFB6803F5A6707B6A9BB27A899B
:100C4000D31A99B23B6A9AB23B8913449AB23B8E4B
:100C500000F074FFFB6803F5A6707B6A9BB27A898B
:100C6000D31A99B23B6A9BB23A89D31A9AB23B8E95
:100C700000F064FFFB6803F5A6703B6A9BB27A89BB
:100C8000D31A99B27B6A9BB23A89D31A9AB23B8E35
:100C900000F054FFFB6803F5A6703B6A9AB27B89AB
:100CA000134499B27B6A9BB23A89D31A9AB23B8EAB
:100CB00000F044FFFB6803F5A6707B6A9AB27B895B
:100CC000134499B23B6A9BB23A89D31A9AB23B8ECB
:100CD00000F034FF7B69002B09DC3B6A01333B6287
:100CE0007A69BB6913447B61BB690233BB617B6971
:100CF000002B7FF76AAF7B6A013B7B62FB690233A3
:100D0000FB61FB885B00FA69D31A7A6913447B6143
:100D10005BE700BF2837BD4680BD90B58DB002AF00
:100D2000F860084611461A4603467B810B463B8114
:100D30001346FB80FB88013B7B6200233B6201235F
:100D4000FB610123BB61FB885B00FA69D31A7B61FD
:100D50007A6A3B6A9A42C0F28F807B6A9BB27A8938
:100D6000D31A99B23B6A9AB23B89134498B27B6A10
:100D70009AB27B8913449CB23B6A9AB23B89134472
:100D80009BB23A8F0192009323460246F86800F026
:100D900017F93B6A9BB27A89D31A99B27B6A9AB2E5
:100DA0003B89134498B23B6A9AB27B8913449CB244
:100DB0007B6A9AB23B8913449BB23A8F01920093AB
:100DC00023460246F86800F0FBF87B6A9BB27A89FA
:100DD000D31A99B23B6A9BB23A89D31A98B27B6A0A
:100DE0009AB27B8913449CB23B6A9BB23A89D31A6C
:100DF0009BB23A8F0192009323460246F86800F0B6
:100E0000DFF83B6A9BB27A89D31A99B27B6A9BB2AC
:100E10003A89D31A98B23B6A9AB27B8913449CB23E
:100E20007B6A9BB23A89D31A9BB23A8F01920093A4
:100E300023460246F86800F0C3F87B69002B09DC02
:100E40003B6A01333B627A69BB6913447B61BB69CE
:100E50000233BB617B69002B7FF77AAF7B6A013B72
:100E60007B62FB690233FB61FB885B00FA69D31A82
:100E70007A6913447B616BE700BF2C37BD4690BD98
:100E800080B58AB000AFF860084611461A4603469E
:100E90007B810B463B811346FB80FA887B89D31A02
:100EA0003B613A8E3B89D31A7B6201233B627B6AAA
:100EB000002B05DA4FF0FF333B627B6A5B427B62BB
:100EC0007B6A5A003B69D31AFB613B89BB617B8912
:100ED0007B61FA887B699A421EDBFB6803F5A6708A
:100EE0007B6999B2BB699AB2BB8E00F027FEFB69A1
:100EF000002B08DDBA693B6A1344BB613B695B00A8
:100F0000FA69D31AFB617B6A5B00FA691344FB61DF
:100F10007B6901337B61DCE700BF2837BD4680BDBC
:100F200080B58AB000AFF860084611461A460346FD
:100F30007B810B463B811346FB80FA887B89D31A61
:100F40007B623A8E3B89D31A3B6101233B627B6A09
:100F5000002B05DA4FF0FF333B627B6A5B427B621A
:100F60007B6A5A003B69D31AFB617B89BB613B8971
:100F70007B613A8E7B699A421EDBFB6803F5A670A3
:100F8000BB6999B27B699AB2BB8E00F0D7FDFB6951
:100F9000002B08DDBA693B6A1344BB613B695B0007
:100FA000FA69D31AFB617B6A5B00FA691344FB613F
:100FB0007B6901337B61DCE700BF2837BD4680BD1C
:100FC00090B587B002AFF860084611461A4603464E
:100FD0007B810B463B811346FB803A8C3B89D31ABD
:100FE0001946F86804F0C5FF0446FA887B89D31ACD
:100FF0001946F86804F0BDFF03469C42B4BF0123C4
:101000000023DBB2002B1BD07A89FB889A420BDDD0
:1010100078893A8CF988BB8C01933B89009303460D
:10102000F868FFF72DFF26E0F8883A897989BB8CAC
:1010300001933B8C00930346F868FFF721FF1AE009
:101040003A893B8C9A420BDD78893A8CF988BB8CC3
:1010500001933B8900930346F868FFF761FF0AE0BC
:10106000F8883A897989BB8C01933B8C00930346BD
:10107000F868FFF755FF00BF1437BD4690BD80B537
:1010800084B000AFF860084611461A4603467B81DB
:101090000B463B811346FB80FB6803F5A670FB887B
:1010A0003A89798900F04AFD00BF1037BD4680BDFE
:1010B00090B587B002AFF860084611461A4603465D
:1010C0007B810B463B811346FB80FB6803F5A670D2
:1010D000FC883A8979897B6A01933B8C009323468B
:1010E00000F04FFD00BF1437BD4690BD80B59AB0EB
:1010F00002AFF860B96011461A460B46FB801346F2
:10110000BB80002387F85F300023BB65002387F88E
:101110005F3097F85F20FB889A426CDA97F85F306F
:10112000BA6813441B78A3F1200213469B001344B2
:10113000334A1344BB65002387F85D3097F85D3070
:10114000042B41DC002387F85E3097F85E30062BD5
:1011500034DC97F85D30BA6D13441B781A4697F863
:101160005E3042FA03F303F00103002B10D097F82E
:101170005E2013469B001A4497F85D3013445B00D1
:1011800007F160021344B7F86C2023F8502C0FE0ED
:1011900097F85E2013469B001A4497F85D3013447D
:1011A0005B0007F160021344B7F8702023F8502C5D
:1011B00097F85E30013387F85E30C6E797F85D3008
:1011C000013387F85D30B9E7FB6803F5A670B7F81F
:1011D0006820B98807F110030193072300930523C2
:1011E00000F0CFFCBB880933BB8097F85F30013338
:1011F00087F85F308DE700BF6037BD4680BD00BF18
:10120000E048000880B58AB004AFF860084611468F
:101210001A4603467B810B463B811346FB807A8945
:10122000394BA3FB0213D9080B469B000B445B0010
:10123000D31A9BB2DBB23033DBB23B757B89324AC7
:10124000A2FB0323DB087B817A892F4BA3FB0213CC
:10125000D9080B469B000B445B00D31A9BB2DBB250
:101260003033DBB2FB747B89274AA2FB0323DB0804
:101270007B817A89244BA3FB0213D9080B469B0080
:101280000B445B00D31A9BB2DBB23033DBB2BB74CE
:101290007B891D4AA2FB0323DB087B817A891A4BD9
:1012A000A3FB0213D9080B469B000B445B00D31A27
:1012B0009BB2DBB23033DBB27B747B89124AA2FB78
:1012C0000323DB087B817A890F4BA3FB0213D90828
:1012D0000B469B000B445B00D31A9BB2DBB230334E
:1012E000DBB23B743A8907F11001BB8C02933B8C53
:1012F0000193FB88009313460522F868FFF7F6FE7A
:1013000000BF1837BD4680BDCDCCCCCC80B584B0F5
:1013100000AFF860B9607A60F86800F00FF8024634
:101320007968BB68CB1AB2FBF3F103FB01F3D21A65
:10133000BB68134418461037BD4680BD80B485B0E5
:1013400000AF78600023FB601A4B1B68002B27D18D
:10135000184B01221A607B68D3F85031DA0E7B6893
:10136000D3F850319B0F534003F00103FB60FB683F
:10137000DB43FB60FB6803F00103FB607B68D3F891
:1013800050315A007B68C3F850217B68D3F8502154
:10139000FB681A437B68C3F85021064B00221A6091
:1013A0007B68D3F8503123F0784318461437BD4694
:1013B00080BC70475801002080B584B000AF7860D1
:1013C0007B680022C3F850217B68D3F85031002B92
:1013D0001AD10123FB60FB68102BF5DC7B6803F559
:1013E000A0731021184600F039F903461A46FB682D
:1013F0009A407B68D3F850311A447B68C3F8502177
:10140000FB680133FB60E6E700BF1037BD4680BDD7
:1014100080B582B000AF786039607B68012B07D15E
:101420003B684FF6FF72934202D1034804F07DFD02
:1014300000BF0837BD4680BD0400002080B500AF66
:101440004FF6FF710120FFF7E3FF80BD80B483B04A
:1014500000AF7860524A524B9B6943F01C03936182
:101460004F4A4F4B9B6943F0010393614D4B4FF043
:1014700000725A604C494C4B5B684C4A1A404C4BCA
:1014800013434B604B4A4B4B1B6823F07F6323F4A1
:101490007F2343F0887343F488331360454A454BF8
:1014A0005B689BB243F0885343F488135360414A0E
:1014B000404B1B6823F0F00313603E4A3D4B1B6812
:1014C00043F0800313603B4B02221A61394A394BC7
:1014D0005B6823F47F435360364A364B5B6843F4C2
:1014E00008435360334B4FF440621A61324A324B27
:1014F0005B6843F4801353602F4A2F4B5B6823F4DF
:1015000060035360264A264B9B6943F40073936142
:10151000234A234B5B6843F440435360204A204BEB
:101520009B6943F0040393611F4A1F4B1B6823F020
:10153000FF031360214B1D221A61204B0022DA6247
:101540001E4B00221A631D4A1C4B9B6843F001038B
:1015500093601A4A194B9B6843F004039360174B3E
:101560009B6803F00403002B14BF01230023DBB2AC
:10157000002B00D0F3E77B684FF496721A807B68EB
:1015800040F23A225A807B6840F642629A807B6839
:1015900040F68862DA8000BF0C37BD4680BC7047D9
:1015A0000010024000000140000801400000FF0F51
:1015B00011110010000C01400010014000240140F6
:1015C00080B483B000AF7860054A054BDB6883F4D4
:1015D0000053D36000BF0C37BD4680BC704700BFCE
:1015E0000010014080B485B000AF78600023FB811B
:1015F000194B9B6803F00203002B0CBF012300234F
:10160000DBB2002B03D0FB8943F00103FB81124BBB
:101610009B6803F48063002B0CBF01230023DBB223
:10162000002B03D0FB8943F00203FB810A4B9B682C
:1016300003F40063002B0CBF01230023DBB2002B5B
:1016400003D0FB8943F00403FB81FB891846143760
:10165000BD4680BC704700BF000C014080B485B01F
:1016600000AF786039600023FB810F4A3B68536309
:101670000D4A0D4B9B6843F0010393600A4B1B68B6
:1016800003F00203002B0CBF01230023DBB2002B6D
:1016900000D0F3E7044BDB6CFB81FB891846143761
:1016A000BD4680BC704700BF0024014080B586B0B5
:1016B00000AF78603A4B5B687B61394B1B683B61DC
:1016C000374BDB68FB60364B40221A61344A344B9F
:1016D0001B6823F460031360314A314B1B6843F4E9
:1016E000801313602E4A2E4BDB6823F02003D36057
:1016F0002B4A2B4B5B6823F460035360284A284B2A
:101700005B6843F480135360254A254BDB6843F440
:101710000053D360224A224B1B6823F4302313600A
:101720001F4A1F4B1B6843F4802313601C4A1C4B49
:101730005B6823F430235360194A194B5B6843F408
:101740008023536001217868FFF788FF0346BB6060
:10175000134A7B695360124A3B691360104AFB6865
:10176000D3607B689B881A46BB68D31A4FF47A72A1
:1017700002FB03F37A68928811467A6812888A1A03
:10178000B3FBF2F3BB60BB68B3F57A7F02D94FF6C7
:10179000FF73BB60BB689BB218461837BD4680BD5F
:1017A000000C014080B586B000AF78603A4B5B68B2
:1017B0007B61394B1B683B61374BDB68FB60364B09
:1017C00040221A61344A344B5B6823F4602353602F
:1017D000314A314B5B6843F4803353602E4A2E4BC1
:1017E000DB6823F48053D3602B4A2B4B1B6823F414
:1017F00060231360284A284B1B6843F4803313602E
:10180000254A254BDB6843F01003D360224A224B64
:101810005B6823F4300353601F4A1F4B5B6843F43B
:10182000800353601C4A1C4B1B6823F43003136075
:10183000194A194B1B6843F4800313600021786830
:10184000FFF70CFF0346BB60134A7B695360124AE3
:101850003B691360104AFB68D3607B68DB881A46DB
:10186000BB68D31A4FF47A7202FB03F37A68D2880A
:1018700011467A6852888A1AB3FBF2F3BB60BB68E0
:10188000B3F57A7F02D94FF6FF73BB60BB689BB29A
:1018900018461837BD4680BD000C014080B485B0A5
:1018A00000AFF860084611461A4603467B810B4696
:1018B0003B811346FB80FB687A891A80FB68FA88B3
:1018C0005A80FB683A899A80FB683A8BDA8000BFBD
:1018D0001437BD4680BC704780B584B002AF7860D5
:1018E0003960904A8F4B9B6943F00C0393618D4A9A
:1018F0008C4B9B6943F0010393618B4B4FF000725B
:101900005A60894A884B5B6843F08073536087490B
:10191000864B5B68864A1A40864B13434B60864A67
:10192000854B1B6823F07F6323F47F2343F0887388
:1019300043F488331360804A7F4B5B689BB243F06B
:10194000885343F488135360786804F05BFB78682D
:1019500004F04AFB786804F02BFB786804F070FB15
:10196000786804F08BFB0A21386802F048FC78683C
:1019700004F056FB0A21386802F041FC786804F054
:101980005FFB6421386802F03AFC786804F03AFBA7
:10199000786804F029FB786804F00AFB6421386851
:1019A00002F02DFC786804F011FB9621386802F0F3
:1019B00026FCCE222821786800F0FAF94FF48E72C6
:1019C0000121786800F0F4F941F2300203217868CF
:1019D00000F0EEF917220721786800F0E9F94FF4DA
:1019E00080521121786800F0E3F900222021786804
:1019F00000F0DEF900222121786800F0D9F9AF2249
:101A00003621786800F0D4F900223721786800F098
:101A1000CFF9DB223821786800F0CAF90022392199
:101A2000786800F0C5F900220221786800F0C0F95A
:101A300041F21242B021786800F0BAF900220B217D
:101A4000786800F0B5F94FF48072E821786800F00A
:101A5000AFF940F60F72B121786800F0A9F90322BE
:101A60005021786800F0A4F940F607025121786807
:101A700000F09EF940F608425221786800F098F98B
:101A800040F203525321786800F092F90322542166
:101A9000786800F08DF940F607025521786800F06B
:101AA00087F903225621786800F082F940F2035248
:101AB0005721786800F07CF900225821786800F0FE
:101AC00077F900225921786800F072F94FF4817299
:101AD000E821786800F06CF92A22FB21786800F090
:101AE00067F940F20112E821786800F061F94022BC
:101AF000F121786800F05CF96421386802F07FFB1E
:101B00002221786800F0FBF800230193DC23009386
:101B1000B02300220021786800F075F800BF083774
:101B2000BD4680BD00100240000001400008014099
:101B30000000FF0F11110010000C014080B586B0AD
:101B400002AFF860084611461A4603467B810B46F1
:101B50003B811346FB807B89013398B23B8901337B
:101B60009BB23A89798900930346F86800F036F908
:101B7000FB881946F86800F0F7F800BF1037BD463B
:101B800080BD80B588B002AFF860084611461A469D
:101B900003467B810B463B811346FB807A89FB8899
:101BA00013449BB2013B98B23A893B8C13449BB2DD
:101BB000013B9BB23A89798900930346F86800F0AB
:101BC0000DF900233B813A893B8C9A4217DA0023B6
:101BD0007B817A89FB889A420DDA7B6A9A1C7A6249
:101BE0001B88FB82FB8A1946F86800F0BDF87B89E8
:101BF00001337B81EDE73B8901333B81E3E700BFA4
:101C00001837BD4680BD80B586B002AFF860084683
:101C100011461A4603467B810B463B811346FB80E7
:101C20007A89FB8813449BB2013B98B23A893B8B7B
:101C300013449BB2013B9BB23A89798900930346D6
:101C4000F86800F0CBF800233B813A893B8B9A423D
:101C500012DA00237B817A89FB889A4208DABB8BEF
:101C60001946F86800F080F87B8901337B81F2E740
:101C70003B8901333B81E8E700BF1037BD4680BD9B
:101C800080B584B000AF78600023FB60786804F012
:101C9000C7F9FB6844F61F629342D4BF01230023B7
:101CA000DBB2002B03D0FB680133FB60F1E77868FF
:101CB00004F0C6F90023FB60FB6844F61F62934200
:101CC000D4BF01230023DBB2002B03D0FB68013318
:101CD000FB60F1E700BF1037BD4680BD80B582B024
:101CE00000AF78600B46FB70786804F0B9F9FB78B8
:101CF000184600F0ACF800BF0837BD4680BD80B57F
:101D000082B000AF78600B467B80786804F0A8F959
:101D10007B881B12DBB2184600F099F8786804F053
:101D200039F9786804F044F97B88DBB2184600F092
:101D30008EF8786804F02EF9786804F039F900BF5D
:101D40000837BD4680BD80B582B000AF78600B46D5
:101D5000FB70786804F092F9FB78184600F077F889
:101D600000BF0837BD4680BD80B582B000AF786047
:101D70000B467B80786804F081F97B881B12DBB20C
:101D8000184600F064F8786804F004F9786804F004
:101D90000FF97B88DBB2184600F059F8786804F038
:101DA000F9F8786804F004F900BF0837BD4680BD33
:101DB00080B582B000AF78600B467B8013463B80D5
:101DC0007B8819467868FFF79AFF3B881946786840
:101DD000FFF7CAFF00BF0837BD4680BD80B584B09D
:101DE00000AFF860084611461A4603467B810B4651
:101DF0003B811346FB80FB881A463621F868FFF7C3
:101E0000D7FF7B891A463721F868FFF7D1FF3B8B54
:101E10001A463821F868FFF7CBFF3B891A4639216B
:101E2000F868FFF7C5FF7B891A462021F868FFF79D
:101E3000BFFF3B891A462121F868FFF7B9FF22212D
:101E4000F868FFF75CFF00BF1037BD4680BD80B467
:101E500083B000AF0346FB710F4B4FF470625A61C1
:101E60000E4B4FF470425A61FB79002B0ED00A4A98
:101E7000FB7903F00F030A49CB5C1B021361074A8D
:101E8000FB791B110649CB5C1B03136100BF0C37A8
:101E9000BD4680BC704700BF00080140000C0140F7
:101EA000C04A000880B400AF2E4A2E4B1B6823F4B2
:101EB000802313602B4A2B4B1B6843F48033136041
:101EC000284B1B680023002B00D0F9E7254A254B3F
:101ED0005B6823F400135360224A224B5B6843F48F
:101EE000E01353601F4A1F4B5B6843F480635360E9
:101EF0001C4A1C4B5B6823F440735360194A194B0E
:101F00005B6843F480335360164A164B1B6843F0FA
:101F100080731360134B1B680023002B00D0F9E77C
:101F2000114A114B1B6843F0020313600E4A0E4B1B
:101F30001B6823F0050313600B4A0B4B1B6843F02F
:101F400010031360074A074B5B6803F001035360FB
:101F5000044A044B5B6843F00203536000BFBD4674
:101F600080BC7047001002400020024080B582B063
:101F700000AF164A164BD31A9B103B6000237B60C0
:101F80007A683B689A4208D2114A7B6852F823303B
:101F900098477B6801337B60F2E70E4A0E4BD31AF9
:101FA0009B103B6000237B607A683B689A4208D2B2
:101FB000094A7B6852F8233098477B6801337B607D
:101FC000F2E700BF0837BD4680BD00BF7842000879
:101FD000784200087C4200087842000880B584B04E
:101FE00000AF1E4BFB601E4BBB601E4A1C4BD31A3E
:101FF0007B607B685A1E7A60002B14BF012300238C
:10200000DBB2002B08D0BB685A1CBA60FA68511CBE
:10201000F96012781A70ECE7134BBB60134A124B4D
:10202000D31A7B607B685A1E7A60002B14BF012391
:102030000023DBB2002B05D0BB685A1CBA6000221B
:102040001A70EFE7FFF72EFFFFF790FF0848FEF743
:10205000FBFC00F0E3FF00F0EDFFFCE798600008F8
:102060000000002004000020040000207401002073
:102070000400002080B400AFFEE700BFF0B5F7B069
:1020800004AF07F580740C2301930A230093032304
:102090000322C149204601F003FC10340C230193B4
:1020A0000A23009303231722BB49204601F0F8FBC3
:1020B00010340C2301930A23009303232B22B649E7
:1020C000204601F0EDFB10340C2301930A2300930A
:1020D00003233F22B049204601F0E2FB10340C23D9
:1020E00001930A23009303235322AB49204601F0B6
:1020F000D7FB10340C2301930A2300930323672298
:10210000A549204601F0CCFB10340C2301930A238F
:10211000009303237B22A049204601F0C1FB103429
:102120000C2301930A23009303238F229A4920460C
:1021300001F0B6FB10340C2301930A230093032310
:10214000A3229549204601F0ABFB04F110000C23BB
:1021500001930A2300930323B7228F4901F0A0FBC8
:1021600007F1F000062301930A230093BE235822AF
:102170008A4901F095FB07F1A00408230193052388
:102180000093002300228649204601F089FB103489
:102190000823019305230093002300228049204651
:1021A00001F07EFB103408230193052300930023E4
:1021B00000227B49204601F073FB10340823019371
:1021C00005230093002300227549204601F068FB97
:1021D00004F110000823019305230093002300223B
:1021E0006F4901F05DFB3C460823019305230093F2
:1021F000002300226B49204601F052FB10340823D3
:10220000019305230093002300226649204601F034
:1022100047FB103408230193052300930023002279
:102220006049204601F03CFB10340823019305234C
:102230000093002300225B49204601F031FB10345B
:1022400008230193052300930023002255492046CB
:1022500001F026FB1034082301930523009300238B
:1022600000225049204601F01BFB10340823019343
:1022700005230093002300224A49204601F010FB69
:1022800010340823019305230093002300224549BD
:10229000204601F005FB1034082301930523009329
:1022A000002300223F49204601F0FAFA04F1100011
:1022B000082301930523009300230022394901F0EC
:1022C000EFFA002387F8A631002387F8C7310023EF
:1022D00087F8C631002387F8C531052387F8C43154
:1022E0000023C7F8C0310023C7F8BC310023C7F86A
:1022F000B8310423C7F8B4310223A7F8B23101235F
:10230000A7F8B031002387F8AF310123C7F8A03117
:1023100000230193B0230093B02300220021224820
:10232000FEF7C2FB002302934FF6FF7301932823AD
:1023300000930A230A221D491B48FEF7D7FE0023FB
:1023400002934FF6FF7301933C2300930A230F225D
:1023500017491548FEF7CAFE002302934FF6FF7394
:102360000193502300930A23102212490E48FEF7CE
:10237000BDFE002302934FF6FF7301936423009385
:102380000A230B220C490848FEF7B0FE4FF47A717D
:10239000054801F034FF11E0D04A0008C04B0008A6
:1023A000384C0008884C000804000020C84D000884
:1023B000D44D0008E44D0008F84D0008D7F8B431BA
:1023C000002B40F364850023C7F8B831002387F859
:1023D000A63100230193DC230093B02300220021C7
:1023E0006A48FEF761FB0023C7F8A831D7F8B4317B
:1023F000C3F10A02D7F8A8319A420EDD07F58072C0
:10240000D7F8A8311B011344184601F06CFAD7F82D
:10241000A8310133C7F8A831E8E707F58073032234
:102420000021184601F0C4FA07F580731033032227
:102430000F21184601F0BCFA07F580732033032200
:102440001E21184601F0B4FA07F5807330330322D9
:102450002D21184601F0ACFA07F5807340330322B2
:102460003C21184601F0A4FA07F58073503303228B
:102470004B21184601F09CFA07F580736033032264
:102480005A21184601F094FA07F58073703303223D
:102490006921184601F08CFA07F580738033032216
:1024A0007821184601F084FA07F5807390330322EF
:1024B0008721184601F07CFA0023C7F8A831D7F825
:1024C000A831092B0DDC3A46D7F8A8311B0113447B
:1024D000184601F04BFAD7F8A8310133C7F8A831F4
:1024E000EDE70023C7F8A831D7F8A831042B0EDC9C
:1024F00007F1A002D7F8A8311B011344184601F0D8
:1025000035FAD7F8A8310133C7F8A831ECE7002332
:1025100002934FF6FF730193D22300930523052204
:102520001B491A48FEF7E2FDD7F8B4319BB2C3F15C
:10253000050399B2002301934FF6FF730093D22352
:102540003C221248FEF75EFE97F8C431C7F8A83166
:10255000D7F8A831002B1DDDD7F8A8319BB21A4659
:102560001B01D31A9BB2B03399B24FF661030193AA
:102570000A2300930A23D2220448FEF795FAD7F8DB
:10258000A831013BC7F8A831E2E700BF04000020F2
:10259000044E0008002387F8A631002387F8C731CE
:1025A000002387F8C5310023C7F8C0310023C7F8DE
:1025B000B8310223A7F8B23107F1F003184601F051
:1025C00092F9D7F8B831002B40F0338407F1F003CB
:1025D000184601F0ABF9CD48FFF704F8034603F0C5
:1025E0000203002B14BF01230023DBB2002B21D0F8
:1025F00007F1F003184603F02CFC0346A42BD4BFCC
:1026000001230023DBB2002B14D007F1F00318469E
:1026100003F01FFC034602339CB207F1F003184697
:1026200003F022FC03461A4607F1F0032146184640
:1026300001F0BEF9B548FEF7D5FF034603F00103EC
:10264000002B14BF01230023DBB2002B21D007F1A4
:10265000F003184603F0FDFB0346012BCCBF01231A
:102660000023DBB2002B14D007F1F003184603F06F
:10267000F0FB0346023B9CB207F1F003184603F05F
:10268000F3FB03461A4607F1F0032146184601F012
:102690008FF900F07FFC0346002B14BF01230023B9
:1026A000DBB2002B69D0002387F8C73197F8C73118
:1026B000042B62DC97F8C73107F1A0021B01134419
:1026C000184603F0F4FB0346002B0CBF0123002344
:1026D000DBB2002B4BD097F8C73107F1A0021B01EA
:1026E0001344184601F0FFF897F8C73107F1A0022C
:1026F0001B01D51807F1F003184603F0AAFB0346A7
:102700001C4607F1F003184603F0B9FB03465B08CB
:10271000DBB29BB223449CB297F8C73107F1A00209
:102720001B011344184603F0AAFB03465B08DBB207
:102730009BB2E31A9CB207F1F003184603F094FB36
:1027400003461E4697F8C73107F1A0021B01134448
:10275000184603F0A0FB03465B08DBB29BB2F31AFA
:102760009BB21A462146284601F022F905E097F867
:10277000C731013387F8C73198E7002387F8C7319D
:1027800097F8C731042B00F3C38097F8C73107F1DE
:10279000A0021B011344184603F066FB0346002BFE
:1027A0000DDD97F8C73107F1A0021B01134418464D
:1027B00003F07DFB0346002B01D0012300E0002342
:1027C000002B00F0828097F8C73107F1A0021B01AF
:1027D000D41897F8C73107F1A0021B01134418461B
:1027E00003F037FB03461D4697F8C73107F1A002F7
:1027F0001B011344184603F037FB0346023B9BB210
:102800001A462946204601F0D3F8002387F8C5313F
:1028100097F8C531092B72DC97F8C53107F580723E
:102820001B01D41897F8C73107F1A0021B0113440C
:10283000184603F00EFB03461D4697F8C73107F113
:10284000A0021B011344184603F00EFB03461A4670
:102850002946204601F0ECF80346002B14BF012363
:102860000023DBB2002B2AD097F8C53107F5807220
:102870001B011344184601F079F897F8C73107F1A6
:10288000A0021B011344184601F070F897F8C731F5
:1028900007F1A0021B011344184603F0DAFA0346BD
:1028A0001C4697F8C73107F1A0021B0113441846D4
:1028B00003F0DAFA03461946204600F02BFB97F89E
:1028C000C531013387F8C531A2E797F8C73107F161
:1028D000A0021B011344184603F0E9FA0346002B3B
:1028E00014BF01230023DBB2002B08D097F8C731B7
:1028F00007F1A0021B011344184601F037F897F8BE
:10290000C731013387F8C7313AE700BF44010020DF
:102910000A2387F8AF31002387F8C63197F8C6310C
:10292000092B00F3228197F8C6313A461B01134464
:10293000184603F099FA0346C72B0CDC97F8C6310A
:102940003A461B011344184603F0B1FA0346002B24
:1029500001D0012300E00023002B00F0DF8097F876
:10296000C6313A461B01D41897F8C6313A461B01C6
:102970001344184603F06DFA03461D4697F8C63116
:102980003A461B011344184603F06EFA034602331D
:102990009BB21A462946204601F00AF897F8C6313C
:1029A0003A461B011344184603F053FA03461C46EB
:1029B00097F8C6313A461B011344184603F05FFAF4
:1029C00003465B08DBB29BB223449CB297F8C63146
:1029D0003A461B011344184603F046FA03461D46C7
:1029E00097F8C6313A461B011344184603F053FAD0
:1029F00003465B08DBB29BB22B449AB207F1F003AB
:102A00002146184601F014F80346002B14BF012399
:102A10000023DBB2002B00F0A28007F1F003184680
:102A200003F017FA03461C4607F1F003184603F0BB
:102A30001BFA03461946204600F06CFA97F8C43199
:102A4000013B87F8C43197F8C6313A461B0113445D
:102A5000184600F08BFF97F8C431002B33D10023C8
:102A60000193DC230093B023002200219A48FEF753
:102A70001BF8002302934FF6FF7301936423009326
:102A80002823092295499448FEF730FB002302933E
:102A90004FF6E07301937823009308230F229049A7
:102AA0008D48FEF723FB00F075FA0346002B0CBFA0
:102AB00001230023DBB2002B00F01C820A21864890
:102AC00001F09DFBEFE7002301930A230093782395
:102AD000D22265218048FDF7E7FF97F8C431C7F897
:102AE000A831D7F8A831002B39DDD7F8A8319BB22F
:102AF0001A461B01D31A9BB2B03399B24FF6610349
:102B000001930A2300930A23D2227348FDF7CCFFD6
:102B1000D7F8A831013BC7F8A831E2E797F8C631EA
:102B20003A461B011344184603F0C1F90346002B33
:102B300014BF01230023DBB2002B07D097F8C63166
:102B40003A461B011344184600F010FF97F8AF31C6
:102B5000002B04DD97F8AF31013B87F8AF3197F8D0
:102B6000C631013387F8C631D8E60023C7F8C03133
:102B70000023C7F8BC310123C7F8B831002387F818
:102B8000C53197F8C531092B00F33B8197F8C53162
:102B900007F580721B011344184603F088F90346B9
:102BA000002B14BF01230023DBB2002B00F0238194
:102BB00097F8AF21D7F8B431C3F10A039A4280F2F3
:102BC0009180002387F8C631002387F8A73197F852
:102BD000C631092B00F3868097F8A731002B40F00F
:102BE000818097F8C6313A461B011344184603F01A
:102BF0005EF90346002B09D1322200213648FEF748
:102C000085FB0346002B01D1012300E00023002BAC
:102C10005CD097F8AF31013387F8AF3197F8C63100
:102C20003A461B011344184600F05DFE97F8C63182
:102C30003A461B01D51897F8C53107F580721B017C
:102C40001344184603F005F903461C4697F8C531AE
:102C500007F580721B011344184603F010F9034670
:102C60005B08DBB29BB223449CB297F8C73107F1F3
:102C7000A0021B011344184603F001F903465B0848
:102C8000DBB29BB2E31A9CB297F8C53107F58072AC
:102C90001B011344184603F0E7F803461E4697F855
:102CA000C73107F1A0021B011344184603F0F3F8E3
:102CB00003465B08DBB29BB233449BB21A46214603
:102CC000284600F075FE012387F8A73197F8C63132
:102CD000013387F8C6317AE7040000200C4E000863
:102CE000184E00080023C7F8B83197F8C53107F52A
:102CF00080721B01D41897F8C53107F580721B014B
:102D00001344184603F0A5F803461A46B7F8B23143
:102D100013449DB297F8C53107F580721B01134427
:102D2000184603F0A1F803461A46B7F8B031134429
:102D30009BB21A462946204600F03AFE97F8C53164
:102D400007F580721B011344184603F082F803460E
:102D50001C4697F8C53107F580721B0113441846CD
:102D600003F08DF80346C3F1B0039C42ACBF0123CE
:102D70000023DBB2002B02D00123C7F8C03197F843
:102D8000C53107F580721B011344184603F061F842
:102D90000346002B0CBF01230023DBB2002B02D023
:102DA0000123C7F8C03197F8C53107F580721B01C0
:102DB0001344184603F058F80346782BCCBF012380
:102DC0000023DBB2002B16D00123C7F8BC3197F8E3
:102DD000C53107F580721B011344184603F044F80F
:102DE0000346022BD4BF01230023DBB2002B02D009
:102DF0000123C7F8BC3197F8C531013387F8C531D5
:102E0000BFE6D7F8C031002B04D0B7F8B2315B422F
:102E1000A7F8B231D7F8BC31002B04D0B7F8B031E5
:102E20005B42A7F8B0310F21364801F0E8F9FFF70F
:102E3000C8BBD7F8B831012B7FF4C0AAD7F8B4319A
:102E4000002B7FF7BBAAD7F8B431013BC7F8B431E8
:102E5000002302934FF6FF730193D22300930523BF
:102E6000052229492748FEF741F9D7F8B4319BB22A
:102E7000C3F1050399B2002301934FF6FF7300934A
:102E8000D2233C221F48FEF7BDF9FFF797BA1F2354
:102E90000193DC230093B023002200211948FDF7A1
:102EA00003FE1F2302934FF6E07301936423009304
:102EB0002823082215491348FEF718F91F23029307
:102EC0004FF6E07301937823009308230F221049F3
:102ED0000C48FEF70BF900F05DF80346002B0CBF21
:102EE00001230023DBB2002B06D00A21054801F0A4
:102EF00086F9F0E700BF00E000BF07F5E677BD46C2
:102F0000F0BD00BF04000020044E0008284E000859
:102F1000184E000880B588B002AF03460A46FB8011
:102F20001346BB80FB88053B9AB2BB88063B99B22F
:102F300007F108000C2301930A2300930B46124962
:102F400000F0AEFC07F10803184600F0CCFC32227A
:102F50004FF4FA610D4800F0EFFB32210C4801F00C
:102F60004EF932224FF4FA71084800F0E5FB3221A5
:102F7000074801F044F907F10803184600F0F6FC91
:102F800000BF1837BD4680BDD84C00084001002066
:102F90000400002080B500AF0E48FEF723FB034677
:102FA00003F00403002B14BF01230023DBB2002B2A
:102FB0000AD0094B1B68002B04D1074B01221A6071
:102FC000012305E0002303E0034B00221A600023E5
:102FD000184680BD440100205C01002080B500AF90
:102FE0000B4B1B6801330A4A1360094B1B68B3F58E
:102FF0007A7F05DD0748FEF7E3FA054B00221A60E9
:10300000012200210448FEF781F900BF80BD00BF06
:1030100060010020440100200400002080B500AFC2
:103020000249034801F0A2F800BF80BDDD2F00086F
:103030000400002080B586B004AF00237B6000232D
:103040000193DC230093B023002200214E48FDF7BA
:103050002BFD002302934FF6E0730193322300937C
:103060003A23052249494848FEF740F800230293D5
:103070004FF6E0730193462300933A230522444917
:103080004148FEF733F8002302934FF6E0730193B3
:103090005A2300933A2305223E493B48FEF726F87F
:1030A000002302934FF6E71301937823009305233F
:1030B0000E2239493448FEF719F80023029341F6ED
:1030C000E37301938C2300930523102233492E4888
:1030D000FEF70CF80023029341F6E3730193A0235B
:1030E0000093052316222E492748FDF7FFFF0023F2
:1030F00002934FF6FF730193C82300930523122216
:1031000028492148FDF7F2FF0A23274A2749284882
:1031100000F080FB7B68002B31D12648FEF762FA75
:103120000346012B0CBF01230023DBB2002B03D08D
:1031300001237B60FCF7FCFF1E48FEF753FA0346B1
:10314000022B0CBF01230023DBB2002B03D0012391
:103150007B60FEF793FF1748FEF744FA0346042B03
:103160000CBF01230023DBB2002B03D001237B60C3
:1031700000F022FD6421044801F041F8CAE700BFD5
:103180000837BD4680BD00BF04000020A8570008D6
:10319000B0570008B8570008C0570008D0570008BB
:1031A000E4570008FC5700088057000858570008EB
:1031B000400100204401002080B487B000AFF860D7
:1031C000B9601346FB80FB687B61BB683B61FB8891
:1031D0005B08FB80FB88002B47D0274B274A5A60AF
:1031E000254B274A5A60244A234B1B6923F00203CC
:1031F0001361214A204B1B6943F0010313617B6972
:103200003A6912881A801C4BDB6803F00103002B1B
:1032100014BF01230023DBB2002B00D0F3E7164BD1
:10322000DB6803F00403002B14BF01230023DBB28F
:10323000002B02D04FF0FF3318E00F4BDB6803F098
:103240001003002B14BF01230023DBB2002B02D09C
:103250006FF001030AE07B6902337B613B69023353
:103260003B61FB88013BFB80B4E7002318461C3719
:10327000BD4680BC704700BF002002402301674567
:10328000AB89EFCD80B483B000AF7860154B164AA0
:103290005A60144B154A5A60124A124B1B6923F0AC
:1032A000010313610F4A0F4B1B6943F002031361C3
:1032B0000C4A7B6853610B4A0A4B1B6943F040037D
:1032C0001361084BDB6803F00103002B14BF0123DB
:1032D0000023DBB2002B00D0F3E700BF0C37BD4664
:1032E00080BC70470020024023016745AB89EFCDC9
:1032F00080B487B000AFF860B9601346FB80FB680C
:103300007B61BB683B61FB885B08FB80FB88002B13
:103310000DD07B691A883B691A803B6902333B6197
:103320007B6902337B61FB88013BFB80EEE700BFDA
:103330001C37BD4680BC704780B485B000AF786054
:103340004FF41653FB60414A7B68136072B67B688A
:103350000022C3F8942000237A68C2F890307A687B
:10336000C2F88C307B6800229A6000237A68536030
:103370007A681360364A364B9B6943F004039361C5
:10338000334A334BDB6943F40033D361314A314B69
:103390001B6823F4807313602E4A2E4B1B6843F482
:1033A000007313602B4A2B4B1B6823F4806313605C
:1033B000284A284B1B6843F400631360254A254BB9
:1033C0001B6823F440531360224A224B1B6823F4EA
:1033D000804313601F4A1F4B1B6843F40043136074
:1033E0001D4BBB60BA68FB6892FBF3F3BB60184AE5
:1033F000174B1B6923F400331361184B0022DA606A
:10340000164B00221A61154B00225A61134ABB6801
:103410009360124A114BDB6843F06C03D3600F4A90
:103420000E4BDB6843F40053D3604FF0E0224FF0C3
:10343000E023D3F8043143F04003C2F8043162B60C
:1034400000BF1437BD4680BC704700BF6801002034
:10345000001002400008014000A24A04004400405D
:1034600090B583B000AF78600B46FB70114BDB6802
:1034700003F00803002B0CBF01230023DBB2002B59
:103480000ED00C4A0B4BDB6843F00803D360094CA9
:103490007B681946786800F0A3F80346636005E08E
:1034A0007B68FA781946786800F071F800BF0C372D
:1034B000BD4690BD0044004080B582B000AF78604A
:1034C0007B688C331946786800F08AF80346184602
:1034D0000837BD4680BD80B586B000AF78603960E2
:1034E0000A237B610023FB743B68002B05DA2D2344
:1034F0003B723B685B423B6001E02B233B727B6984
:10350000002B20DD3A68154B83FB02139910D3176B
:10351000C91A0B469B000B445B00D11ACBB2303367
:10352000D9B207F108027B6913440A461A703B6856
:103530000A4A82FB03129210DB17D31A3B607B69A5
:10354000013B7B61DBE707F108031946786800F06F
:1035500007F800BF1837BD4680BD00BF67666666C6
:1035600080B582B000AF786039603B681B78002B73
:1035700009D03B681B7819467868FFF771FF3B68F4
:1035800001333B60F1E700BF0837BD4680BD80B422
:1035900085B000AFF860B9601346FB71BB689B68EB
:1035A0007F2B94BF01230023DBB2002B13D072B614
:1035B000BB689B685A1CBB689A60BB681B68BA688A
:1035C0001344FA791A73BB681B68013303F07F0256
:1035D000BB681A6062B600BF1437BD4680BC704736
:1035E00080B485B000AF786039600023FB733B681E
:1035F0009B68002B14BF01230023DBB2002B13D0E8
:1036000072B63B689B685A1E3B689A603B685B6871
:103610003A6813441B7BFB733B685B68013303F020
:103620007F023B685A6062B6FB7B18461437BD4682
:1036300080BC704798B500AF284B1B6803F040036F
:10364000002B14BF01230023DBB2002B2CD0244B12
:103650001B689B68002B14BF01230023DBB2002BE7
:103660000BD01E4C1E4B1A681D4B1B68194610468A
:10367000FFF7B6FF0346636016E0184A174BDB6896
:1036800023F00803D360154B1B6803F04003002BA5
:1036900014BF01230023DBB2002B05D00F4A0F4BD0
:1036A0001B6823F0400313600C4B1B6803F02003DE
:1036B000002B14BF01230023DBB2002B0BD0084BDF
:1036C0001868074B1B6803F18C01044B5B68DBB285
:1036D0001A46FFF75CFF00BF98BD00BF00440040E2
:1036E0006801002080B483B000AF78600F4A7B6827
:1036F00013600F4A0E4BDB6943F00203D3610C4A9F
:103700000B4B9B6943F0080393610A4B00221A603C
:10371000084B6022DA61074A064B1B6A43F4807348
:10372000136200BF0C37BD4680BC70476C0100209F
:10373000001002400004004080B485B000AFF86083
:10374000B9607A601A4A1A4B1B6823F00F031360A2
:10375000174A174B1B6843F00A031360154A154BB1
:103760001B6823F001031360124B40F24A429A6235
:103770001049104B9B6A104AB2FBF3F2BB68B2FBD4
:10378000F3F3CB620B4A0B4BDB6A5B08D363094B49
:1037900000225A62074A074B1B6843F0010313607B
:1037A000FB687A681A6000BF1437BD4680BC70475A
:1037B000000C01400004004000A24A0480B400AFA5
:1037C0000A4A0A4B1B6823F001031360084A084B9E
:1037D0001B6823F00F031360054A054B1B6843F079
:1037E0000403136000BFBD4680BC70470004004066
:1037F000000C014080B483B000AF78607B681B6828
:10380000002B01D0012300E0002318460C37BD46F1
:1038100080BC704780B586B000AFF860B9607A6050
:103820003B6000237B617A693B689A421DDAF86845
:10383000FFF7E0FF0346002B14BF01230023DBB298
:10384000002B00D0F3E77B699B00BA68134419682A
:103850007B699B007A6813441B681A46F868FFF777
:103860006BFF7B6901337B61DDE700BF1837BD4625
:1038700080BD80B500AF094B1B681B68002B0BD0C7
:10388000064B1B681A68013A1A60044B1B681B68D8
:10389000002B01D1FFF792FF00BF80BD6C0100201B
:1038A00080B485B000AFF860B96011461A460B4687
:1038B000FB801346BB80FB68FA881A81FB68BA88D4
:1038C0005A81FB683A8B1A80FB68BA8B5A80FB6876
:1038D000BA685A60FB6800221A73FB6818461437EE
:1038E000BD4680BC704790B585B002AF78607B68FC
:1038F0001B7B002B10D17B6819897B6858897B68FA
:103900001C887B685B887A68526801920093234622
:1039100002460548FDF7CCFB7B6801221A7300BF05
:103920000C37BD4690BD00BF0400002090B585B0A7
:1039300002AF78607B681B7B002B10D07B681989F5
:103940007B6858897B681C887B685B887A685268CA
:1039500001920093234602460348FDF7A9FB00BFEE
:103960000C37BD4690BD00BF0400002090B585B067
:1039700002AF78607B681B7B002B0FD07B681989B6
:103980007B6858897B681C887B685B880022019271
:103990000093234602460548FDF786F87B6800221F
:1039A0001A7300BF0C37BD4690BD00BF0400002055
:1039B00090B585B002AF78600B467B8013463B80A4
:1039C0007B681B7B002B27D07B6819897B68588913
:1039D0007B681C887B685B880022019200932346E9
:1039E00002461248FDF760F87B687A881A817B6886
:1039F0003A885A817B6819897B6858897B681C885A
:103A00007B685B887A68526801920093234602467D
:103A10000648FDF74DFB05E07B687A881A817B68D4
:103A20003A885A8100BF0C37BD4690BD0400002083
:103A300080B483B000AF78600B467B8013463B8038
:103A40007B681B7B002B01D1002320E07B887A68F8
:103A5000128993421ADB7A887B681B8919467B6836
:103A60001B880B449A4211DA3B887A685289934248
:103A70000ADB3A887B685B8919467B685B880B4464
:103A80009A4201DA012302E0002300E000231846F5
:103A90000C37BD4680BC704780B483B000AF7860FF
:103AA0000B467B8013463B807B681B7B002B01D140
:103AB00000235EE07B685B893A889A420FD17B885D
:103AC0007A68128993420ADB7A887B681B891946D7
:103AD0007B681B880B449A4201DA012349E07B682A
:103AE0001B897A889A420FD13B887A68528993421F
:103AF0000ADB3A887B685B8919467B685B880B44E4
:103B00009A4201DA022334E03A887B685B891946DD
:103B10007B685B880B44013B9A420FD17B887A68B3
:103B2000128993420ADB7A887B681B8919467B6875
:103B30001B880B449A4201DA03231AE07A887B68D7
:103B40001B8919467B681B880B44013B9A420FD1A5
:103B50003B887A68528993420ADB3A887B685B89A2
:103B600019467B685B880B449A4201DA042300E023
:103B7000002318460C37BD4680BC704780B582B024
:103B800002AF00230193DC230093B0230022002125
:103B90000848FCF789FF4FF6FF730193DC2300937D
:103BA000B023002200210348FCF79CFF00BFBD4664
:103BB00080BD00BF04000020B0B5D4B002AF002328
:103BC000C7F83C310023C7F838313B1D914A1C46E9
:103BD00015460FCD0FC40FCD0FC495E8070084E83C
:103BE00007000023C7F834310E23C7F83031002313
:103BF000C7F82C31D7F8302113465B0013449B00E3
:103C00000433C7F82831D7F83C31772B10D8824AD3
:103C1000D7F83C3132F8131007F13003D7F83C21C4
:103C200023F81210D7F83C310133C7F83C31EAE7EA
:103C30000023C7F83C3100230193DC230093B02319
:103C4000002200217548FCF72FFF0023C7F84431FC
:103C5000D7F844310B2B66DC0023C7F84031D7F886
:103C60004031092B59DCD7F840319BB2D7F83021CD
:103C700092B202FB03F399B2D7F844319BB2D7F862
:103C8000302192B202FB03F398B2D7F830319CB2E4
:103C9000D7F830319BB24FF6FF7201920093234662
:103CA00002465E48FCF71EFFD7F840319BB2D7F8BA
:103CB000302192B202FB03F39BB2013398B2D7F8E2
:103CC00044319BB2D7F8302192B202FB03F39BB28E
:103CD00001339CB2D7F830319BB2023B9DB2D7F88A
:103CE00030319BB2023B9BB207F13002D7F83C1156
:103CF00032F81120019200932B4622460146474894
:103D0000FCF7D2FED7F83C310133C7F83C31D7F885
:103D100040310133C7F84031A1E7D7F844310133CE
:103D2000C7F8443194E70023C7F84431D7F8443149
:103D3000012B75DC0023C7F84031D7F840310A2B3E
:103D400062DCD7F840319BB2D7F8302192B202FB47
:103D500003F399B2D7F844319BB2D7F8302192B22D
:103D600002FB03F39AB2D7F828319BB2134498B2FE
:103D7000D7F830319CB2D7F830319BB24FF6FF7292
:103D800001920093234602462448FCF7ABFED7F885
:103D900040319BB2D7F8302192B202FB03F39BB2C1
:103DA000013398B2D7F844319BB2D7F8302192B2A0
:103DB00002FB03F39AB2D7F828319BB213449BB2AB
:103DC00001339CB2D7F830319BB2023B9DB2D7F899
:103DD00030319BB2023B9BB23A1DD7F8381132F812
:103DE0001120019200932B46224601460B48FCF716
:103DF0005BFED7F838310133C7F83831D7F8403196
:103E00000133C7F8403198E7D7F844310133C7F898
:103E100044318BE7105B00081058000804000020B4
:103E20004FF6E0730193DB230093AF2300220021C0
:103E3000B148FCF757FE0023C7F83831D7F82C31CA
:103E4000002B40F05481AD48FDF730FC03461A4684
:103E5000B02303FB02F3AA4A82FB03129211DB1781
:103E6000D31AC7F82431A548FDF79CFC03461A462F
:103E7000DC2303FB02F3A24A82FB03129211DB173D
:103E8000D31AC7F82031D7F8243119469D48FFF7D7
:103E900022FB9D499B48FFF763FBD7F82031194669
:103EA0009848FFF718FB99499648FFF759FBD7F850
:103EB0002431AF2B00F20981D7F82031DB2B00F23F
:103EC0000481D7F82831D7F820219A4232D3D7F885
:103ED00030315A00D7F8283113441A46D7F8203128
:103EE0009A4227D3D7F8302113469B0013445B0036
:103EF00013441A46D7F824319A421BD9D7F82831EF
:103F0000D7F82021D21AD7F83031B2FBF3F213469A
:103F10009B0013445B001A44D7F83031D7F82411C2
:103F2000B1FBF3F31344C7F83831D7F838117548AB
:103F3000FFF7D1FA75497348FFF712FBD7F8303114
:103F400001339BB21A46920013445B0099B2D7F832
:103F5000303198B2D7F830319BB24FF6FF720192F0
:103F6000009303466E226448FCF7BCFDD7F830315D
:103F70009BB21A46920013445B009BB20B3398B27B
:103F8000D7F830319BB2023B9CB2D7F830319BB2AC
:103F9000023B9BB23A1DD7F8381132F8112001923A
:103FA000009323466F2201465348FCF77DFDD7F866
:103FB000302113465B0013449B001A46D7F820318A
:103FC0009A42C0F08280D7F8302113469B001344F8
:103FD0005B001A46D7F824319A4276D3D7F83031AD
:103FE000D7F82021B2FBF3F3C7F84431D7F83031CA
:103FF000D7F82421B2FBF3F3C7F84031D7F84421B6
:1040000013469B0013445B001A46D7F84031134413
:10401000C7F83C31D7F844310B2B56DCD7F8403188
:10402000092B52DC3B1DD7F8382133F8121007F169
:104030003003D7F83C2123F81210D7F840319BB257
:10404000D7F8302192B202FB03F39BB2013398B24E
:10405000D7F844319BB2D7F8302192B202FB03F378
:104060009BB201339CB2D7F830319BB2023B9DB278
:10407000D7F830319BB2023B9BB207F13002D7F840
:104080003C1132F81120019200932B462246014642
:104090001948FCF709FDD7F830319BB21A46920057
:1040A00013445B009BB20B3399B2D7F83031C3F1A4
:1040B00037039BB25B009AB207F1300301930C23E4
:1040C00000930A230C48FCF7F3FF0C48FDF78AFA2B
:1040D0000346C7F834313221074800F090F8D7F88A
:1040E0003431012B02D0022B00BFA7E600BF07F539
:1040F000A477BD46B0BD00BF0400002044010020ED
:10410000D34D621028000020085B00080C5B0008FB
:1041100080B485B000AF7860114A7B6813600023DB
:10412000FB60FB68072B09DC7A68FB689B00134483
:1041300000225A60FB680133FB60F2E7094A094B31
:104140001B6843F007031360064B074A5A60054B90
:1041500005229A6062B600BF1437BD4680BC704726
:104160007001002010E000E03F19010080B485B02C
:1041700000AF786039600023FB60FB68072B12DC1E
:104180007A68FB689B0013445B68002B07D17A6850
:10419000FB689B0013443A685A60002305E0FB6803
:1041A0000133FB60E9E74FF0FF3318461437BD4693
:1041B00080BC704780B485B000AF78603960002360
:1041C000FB60FB68072B13DC7A68FB689B001344D9
:1041D0005A683B689A4207D17A68FB689B0013448F
:1041E00000225A60002305E0FB680133FB60E8E72A
:1041F0004FF0FF3318461437BD4680BC704780B47B
:1042000083B000AF786039603B68002B09D07B68D1
:1042100000221A607B681A683B689A4201D230BF5C
:10422000F8E700BF0C37BD4680BC704780B582B050
:1042300000AF104B1B681A6801321A6000237B60C4
:104240007B68072B12DC0B4B1A687B689B001344BE
:104250005B68002B06D0074B1A687B689B001344F1
:104260005B6898477B6801337B60E9E700BF0837EC
:10427000BD4680BD700100203D1400080100010012
:104280000100010001000100010001000100010026
:104290000100010001000100010001000100010016
:1042A0000100010001000100010001000100E6FF22
:1042B000E6FFE6FFE6FFE6FFE6FFE6FFE6FFE6FFD6
:1042C000E6FFE6FFE6FFE6FFE6FFE6FFE6FFE6FFC6
:1042D000E6FFE6FFE6FFE6FFE6FF01000100E6FF7E
:1042E000E6FFE6FFE6FFE6FFE6FFE6FFE6FFE6FFA6
:1042F000E6FFE6FFE6FFE6FFE6FFE6FFE6FFE6FF96
:10430000E6FFE6FFE6FFE6FFE6FF01000100E6FF4D
:10431000E6FFE6FFE6FFE6FFE6FFE6FFE6FFE6FF75
:10432000E6FFE6FFE6FFE6FFE6FFE6FFE6FFE6FF65
:10433000E6FFE6FFE6FFE6FFE6FF01000100E6FF1D
:10434000E6FFE6FFE6FFE6FFE6FFE6FFE6FFE6FF45
:10435000E6FFE6FFE6FFE6FFE6FFE6FFE6FFE6FF35
:10436000E6FFE6FFE6FFE6FFE6FF01000100E6FFED
:10437000E6FFE6FFE6FFE6FFE6FFE6FFE6FFE6FF15
:10438000E6FFE6FFE6FFE6FFE6FFE6FFE6FFE6FF05
:10439000E6FFE6FFE6FFE6FFE6FF01000100E6FFBD
:1043A000E6FFE6FFE6FFE6FFE6FFE6FFE6FFE6FFE5
:1043B000E6FFE6FFE6FFE6FFE6FFE6FFE6FFE6FFD5
:1043C000E6FFE6FFE6FFE6FFE6FF01000100E6FF8D
:1043D000E6FFE6FFE6FFE6FFE6FFE6FFE6FFE6FFB5
:1043E000E6FFE6FFE6FFE6FFE6FFE6FFE6FFE6FFA5
:1043F000E6FFE6FFE6FFE6FFE6FF01000100E6FF5D
:10440000E6FFE6FFE6FFE6FFE6FFE6FFE6FFE6FF84
:10441000E6FFE6FFE6FFE6FFE6FFE6FFE6FFE6FF74
:10442000E6FFE6FFE6FFE6FFE6FF01000100010010
:104430000100010001000100010001000100010074
:104440000100010001000100010001000100010064
:104450000100010001000100010001000100010054
:104460000100010001000100010001000100010044
:104470000100010001000100010001000100010034
:104480000100010001000100010001000100C32F33
:10449000C32FC32FC32FC32FC32FC32FC32FC32F8C
:1044A000C32FC32FC32FC32FC32FC32FC32FC32F7C
:1044B000C32FC32FC32FC32FC32F01000100C32F4E
:1044C000C32FC32FC32FC32FC32FC32FC32FC32F5C
:1044D000C32FC32FC32FC32FC32FC32FC32FC32F4C
:1044E000C32FC32FC32FC32FC32F01000100C32F1E
:1044F000C32FC32FC32FC32FC32FC32FC32FC32F2C
:10450000C32FC32FC32FC32FC32FC32FC32FC32F1B
:10451000C32FC32FC32FC32FC32F01000100C32FED
:10452000C32FC32FC32FC32FC32FC32FC32FC32FFB
:10453000C32FC32FC32FC32FC32FC32FC32FC32FEB
:10454000C32FC32FC32FC32FC32F01000100C32FBD
:10455000C32FC32FC32FC32FC32FC32FC32FC32FCB
:10456000C32FC32FC32FC32FC32FC32FC32FC32FBB
:10457000C32FC32FC32FC32FC32F01000100C32F8D
:10458000C32FC32FC32FC32FC32FC32FC32FC32F9B
:10459000C32FC32FC32FC32FC32FC32FC32FC32F8B
:1045A000C32FC32FC32FC32FC32F01000100C32F5D
:1045B000C32FC32FC32FC32FC32FC32FC32FC32F6B
:1045C000C32FC32FC32FC32FC32FC32FC32FC32F5B
:1045D000C32FC32FC32FC32FC32F01000100C32F2D
:1045E000C32FC32FC32FC32FC32FC32FC32FC32F3B
:1045F000C32FC32FC32FC32FC32FC32FC32FC32F2B
:10460000C32FC32FC32FC32FC32F010001000100ED
:104610000100010001000100010001000100010092
:104620000100010001000100010001000100010082
:104630000100010001000100010001000100010072
:104640000100010001000100010001000100010062
:104650000100010001000100010001000100010052
:1046600001000100010001000100010001005F1EC6
:104670005F1E5F1E5F1E5F1E5F1E5F1E5F1E5F1E52
:104680005F1E5F1E5F1E5F1E5F1E5F1E5F1E5F1E42
:104690005F1E5F1E5F1E5F1E5F1E010001005F1E2A
:1046A0005F1E5F1E5F1E5F1E5F1E5F1E5F1E5F1E22
:1046B0005F1E5F1E5F1E5F1E5F1E5F1E5F1E5F1E12
:1046C0005F1E5F1E5F1E5F1E5F1E010001005F1EFA
:1046D0005F1E5F1E5F1E5F1E5F1E5F1E5F1E5F1EF2
:1046E0005F1E5F1E5F1E5F1E5F1E5F1E5F1E5F1EE2
:1046F0005F1E5F1E5F1E5F1E5F1E010001005F1ECA
:104700005F1E5F1E5F1E5F1E5F1E5F1E5F1E5F1EC1
:104710005F1E5F1E5F1E5F1E5F1E5F1E5F1E5F1EB1
:104720005F1E5F1E5F1E5F1E5F1E010001005F1E99
:104730005F1E5F1E5F1E5F1E5F1E5F1E5F1E5F1E91
:104740005F1E5F1E5F1E5F1E5F1E5F1E5F1E5F1E81
:104750005F1E5F1E5F1E5F1E5F1E010001005F1E69
:104760005F1E5F1E5F1E5F1E5F1E5F1E5F1E5F1E61
:104770005F1E5F1E5F1E5F1E5F1E5F1E5F1E5F1E51
:104780005F1E5F1E5F1E5F1E5F1E010001005F1E39
:104790005F1E5F1E5F1E5F1E5F1E5F1E5F1E5F1E31
:1047A0005F1E5F1E5F1E5F1E5F1E5F1E5F1E5F1E21
:1047B0005F1E5F1E5F1E5F1E5F1E010001005F1E09
:1047C0005F1E5F1E5F1E5F1E5F1E5F1E5F1E5F1E01
:1047D0005F1E5F1E5F1E5F1E5F1E5F1E5F1E5F1EF1
:1047E0005F1E5F1E5F1E5F1E5F1E01000100010055
:1047F00001000100010001000100010001000100B1
:1048000001000100010001000100010001000100A0
:10481000010001000100010001000100FFFFFFFF96
:10482000FFFFFFFFFFFFFFFFFFFFFFFFFFFFFFFF98
:10483000FFFFFFFFFFFFFFFFFFFFFFFFFFFFFFFF88
:10484000FFFFFFFFFFFFFFFFFFFFFFFFFFFFFFFF78
:10485000FFFFFFFFFFFFFFFFFFFFFFFFFFFFFFFF68
:10486000FFFFFFFFFFFFFFFFFFFFFFFFFFFFFFFF58
:10487000FFFFFFFFFFFFFFFFFFFFFFFFFFFFFFFF48
:10488000FFFFFFFFFFFFFFFFFFFFFFFFFFFFFFFF38
:10489000FFFFFFFF0000FFFF0000FFFFFFFFFFFF24
:1048A0000000FFFF00000000427269636900000021
:1048B0004C6576656C00000047414D45204F5645DC
:1048C000520000004669726520746F20726573742F
:1048D00061727400564943544F5259210000000040
:1048E000000000000000005F000000070007001447
:1048F0007F147F14242A7F2A122313086462364906
:104900005522500005030000001C224100004122F6
:104910001C00082A1C2A0808083E0808005030001D
:104920000008080808080060600000201008040261
:104930003E5149453E00427F400042615149462177
:1049400041454B311814127F1027454545393C4AE3
:104950004949300171090503364949493606494933
:10496000291E0036360000005636000000081422CA
:1049700041141414141441221408000201510906B0
:10498000324979413E7E1111117E7F494949363EB7
:10499000414141227F4141221C7F494949417F09D0
:1049A0000901013E414151327F0808087F00417FE3
:1049B00041002040413F017F081422417F40404098
:1049C000407F0204027F7F0408107F3E4141413E48
:1049D0007F090909063E4151215E7F091929464692
:1049E0004949493101017F01013F4040403F1F20BB
:1049F00040201F7F2018207F63140814630304786D
:104A00000403615149454300007F414102040810FD
:104A10002041417F00000402010204404040404028
:104A2000000102040020545454787F48444438382C
:104A300044444420384444487F3854545418087E31
:104A4000090102081454543C7F0804047800447D92
:104A500040002040443D00007F10284400417F403A
:104A6000007C041804787C080404783844444438F2
:104A70007C14141408081414187C7C0804040848D6
:104A800054545420043F4440203C4040207C1C208F
:104A900040201C3C4030403C44281028440C5050DE
:104AA000503C4464544C44000836410000007F00F0
:104AB00000004136080008082A1C08081C2A0808BB
:104AC0000008040C020A060E0109050D030B070F6E
:104AD00000000000000000000000000000000000D6
:104AE000000000000000000000000000E0FFE0FF08
:104AF0000000000000000000000000000000E0FFD7
:104B0000E0FFE0FFE0FF0000000000000000E0FF29
:104B1000E0FF0000E0FFE0FF0000E0FFE0FF00003A
:104B20000000E0FFE0FF0000E0FFE0FF0000E0FF2A
:104B3000E0FF00000000E0FFE0FFE0FFE0FFE0FF3B
:104B4000E0FFE0FFE0FF00000000E0FFE0FFE0FF2B
:104B5000E0FFE0FFE0FFE0FFE0FF000000000000FA
:104B6000E0FFE0FF00000000E0FFE0FF00000000C9
:104B700000000000E0FFE0FF00000000E0FFE0FFB9
:104B8000000000000000E0FFE0FF00000000000067
:104B90000000E0FFE0FF0000E0FFE0FFE0FF0000BA
:104BA000000000000000E0FFE0FFE0FF0000000068
:104BB00000000000000000000000000000000000F5
:104BC00000000000000000000000000000000000E5
:104BD000000000000000000000000000FFFFFFFFD9
:104BE00000000000000000000000000000000000C5
:104BF000FFFFFFFF00000000000000000000FFFFBB
:104C0000FFFFFFFFFFFFFFFFFFFFFFFFFFFF0000B2
:104C1000FFFFFFFFFFFFFFFFFFFFFFFFFFFFFFFFA4
:104C2000FFFFFFFFFFFFFFFFFFFFFFFFFFFFFFFF94
:104C3000FFFFFFFFFFFFFFFF00000000E007000095
:104C400000000000E007E007E00700000000E007C8
:104C5000E007E00700000000E007E007E0070000D1
:104C60000000E007E007E0070000E007E007E007DA
:104C7000E007E007E007E007E007E007E0070000E3
:104C80000000E0FF0000000000000000E0FF000066
:104C900000001F001F001F001F001F001F001F003B
:104CA0001F001F001F0000001F001F001F0000004A
:104CB00000001F001F001F00000000001F001F0059
:104CC0001F00000000001F001F001F000000000068
:104CD00000001F00000000000000000000000000B5
:104CE00000F800F8000000000000000000F80000DC
:104CF0000000000000F800F800000000000000F8CC
:104D0000000000F80000000000F800F800000000BB
:104D100000F800000000000000F8000000F800F8B3
:104D2000000000F80000000000000000000000F893
:104D300000F800F800F800000000000000F800F89B
:104D400000F800F800F800F800F800F800F800F8A3
:104D500000F800F800F800F800F800F800F800F893
:104D600000F800F800000000000000F800F800F86B
:104D700000F80000000000000000000000F8000043
:104D800000F800F8000000F800000000000000F843
:104D90000000000000F800F80000000000F800002B
:104DA00000F800000000000000F800F8000000001B
:104DB000000000F8000000000000000000F800F80B
:104DC00000000000000000004D43552047616C6169
:104DD000676100004F6E6C792035206D69737369CF
:104DE0006C65730063616E20626520696E20666C7D
:104DF00069676874000000006174206F6E6520743C
:104E0000696D65004C6576656C00000047414D4555
:104E1000204F5645520000004669726520746F208D
:104E20007265737461727400564943544F5259212C
:104E3000000000000100010001000100010001006C
:104E4000010001000100010001000100010001005A
:104E5000010001000100010001000100010001004A
:104E6000010001000100E6FFE6FFE6FFE6FFE6FFC6
:104E7000E6FFE6FFE6FFE6FFE6FFE6FFE6FFE6FF0A
:104E8000E6FFE6FFE6FFE6FFE6FFE6FFE6FFE6FFFA
:104E9000E6FF01000100E6FFE6FFE6FFE6FFE6FFB2
:104EA000E6FFE6FFE6FFE6FFE6FFE6FFE6FFE6FFDA
:104EB000E6FFE6FFE6FFE6FFE6FFE6FFE6FFE6FFCA
:104EC000E6FF01000100E6FFE6FFE6FFE6FFE6FF82
:104ED000E6FFE6FFE6FFE6FFE6FFE6FFE6FFE6FFAA
:104EE000E6FFE6FFE6FFE6FFE6FFE6FFE6FFE6FF9A
:104EF000E6FF01000100E6FFE6FFE6FFE6FFE6FF52
:104F0000E6FFE6FFE6FFE6FFE6FFE6FFE6FFE6FF79
:104F1000E6FFE6FFE6FFE6FFE6FFE6FFE6FFE6FF69
:104F2000E6FF01000100E6FFE6FFE6FFE6FFE6FF21
:104F3000E6FFE6FFE6FFE6FFE6FFE6FFE6FFE6FF49
:104F4000E6FFE6FFE6FFE6FFE6FFE6FFE6FFE6FF39
:104F5000E6FF01000100E6FFE6FFE6FFE6FFE6FFF1
:104F6000E6FFE6FFE6FFE6FFE6FFE6FFE6FFE6FF19
:104F7000E6FFE6FFE6FFE6FFE6FFE6FFE6FFE6FF09
:104F8000E6FF01000100E6FFE6FFE6FFE6FFE6FFC1
:104F9000E6FFE6FFE6FFE6FFE6FFE6FFE6FFE6FFE9
:104FA000E6FFE6FFE6FFE6FFE6FFE6FFE6FFE6FFD9
:104FB000E6FF01000100E6FFE6FFE6FFE6FFE6FF91
:104FC000E6FFE6FFE6FFE6FFE6FFE6FFE6FFE6FFB9
:104FD000E6FFE6FFE6FFE6FFE6FFE6FFE6FFE6FFA9
:104FE000E6FF0100010001000100010001000100D5
:104FF00001000100010001000100010001000100A9
:105000000100010001000100010001000100010098
:105010000100010001000100010001000100010088
:105020000100010001000100010001000100010078
:105030000100010001000100010001000100010068
:10504000010001000100C32FC32FC32FC32FC32FA3
:10505000C32FC32FC32FC32FC32FC32FC32FC32FC0
:10506000C32FC32FC32FC32FC32FC32FC32FC32FB0
:10507000C32F01000100C32FC32FC32FC32FC32F82
:10508000C32FC32FC32FC32FC32FC32FC32FC32F90
:10509000C32FC32FC32FC32FC32FC32FC32FC32F80
:1050A000C32F01000100C32FC32FC32FC32FC32F52
:1050B000C32FC32FC32FC32FC32FC32FC32FC32F60
:1050C000C32FC32FC32FC32FC32FC32FC32FC32F50
:1050D000C32F01000100C32FC32FC32FC32FC32F22
:1050E000C32FC32FC32FC32FC32FC32FC32FC32F30
:1050F000C32FC32FC32FC32FC32FC32FC32FC32F20
:10510000C32F01000100C32FC32FC32FC32FC32FF1
:10511000C32FC32FC32FC32FC32FC32FC32FC32FFF
:10512000C32FC32FC32FC32FC32FC32FC32FC32FEF
:10513000C32F01000100C32FC32FC32FC32FC32FC1
:10514000C32FC32FC32FC32FC32FC32FC32FC32FCF
:10515000C32FC32FC32FC32FC32FC32FC32FC32FBF
:10516000C32F01000100C32FC32FC32FC32FC32F91
:10517000C32FC32FC32FC32FC32FC32FC32FC32F9F
:10518000C32FC32FC32FC32FC32FC32FC32FC32F8F
:10519000C32F01000100C32FC32FC32FC32FC32F61
:1051A000C32FC32FC32FC32FC32FC32FC32FC32F6F
:1051B000C32FC32FC32FC32FC32FC32FC32FC32F5F
:1051C000C32F0100010001000100010001000100E6
:1051D00001000100010001000100010001000100C7
:1051E00001000100010001000100010001000100B7
:1051F00001000100010001000100010001000100A7
:105200000100010001000100010001000100010096
:105210000100010001000100010001000100010086
:105220000100010001005F1E5F1E5F1E5F1E5F1E0A
:105230005F1E5F1E5F1E5F1E5F1E5F1E5F1E5F1E86
:105240005F1E5F1E5F1E5F1E5F1E5F1E5F1E5F1E76
:105250005F1E010001005F1E5F1E5F1E5F1E5F1E5E
:105260005F1E5F1E5F1E5F1E5F1E5F1E5F1E5F1E56
:105270005F1E5F1E5F1E5F1E5F1E5F1E5F1E5F1E46
:105280005F1E010001005F1E5F1E5F1E5F1E5F1E2E
:105290005F1E5F1E5F1E5F1E5F1E5F1E5F1E5F1E26
:1052A0005F1E5F1E5F1E5F1E5F1E5F1E5F1E5F1E16
:1052B0005F1E010001005F1E5F1E5F1E5F1E5F1EFE
:1052C0005F1E5F1E5F1E5F1E5F1E5F1E5F1E5F1EF6
:1052D0005F1E5F1E5F1E5F1E5F1E5F1E5F1E5F1EE6
:1052E0005F1E010001005F1E5F1E5F1E5F1E5F1ECE
:1052F0005F1E5F1E5F1E5F1E5F1E5F1E5F1E5F1EC6
:105300005F1E5F1E5F1E5F1E5F1E5F1E5F1E5F1EB5
:105310005F1E010001005F1E5F1E5F1E5F1E5F1E9D
:105320005F1E5F1E5F1E5F1E5F1E5F1E5F1E5F1E95
:105330005F1E5F1E5F1E5F1E5F1E5F1E5F1E5F1E85
:105340005F1E010001005F1E5F1E5F1E5F1E5F1E6D
:105350005F1E5F1E5F1E5F1E5F1E5F1E5F1E5F1E65
:105360005F1E5F1E5F1E5F1E5F1E5F1E5F1E5F1E55
:105370005F1E010001005F1E5F1E5F1E5F1E5F1E3D
:105380005F1E5F1E5F1E5F1E5F1E5F1E5F1E5F1E35
:105390005F1E5F1E5F1E5F1E5F1E5F1E5F1E5F1E25
:1053A0005F1E010001000100010001000100010079
:1053B00001000100010001000100010001000100E5
:1053C00001000100010001000100010001000100D5
:1053D00001000100FFFFFFFFFFFFFFFFFFFFFFFFD7
:1053E000FFFFFFFFFFFFFFFFFFFFFFFFFFFFFFFFCD
:1053F000FFFFFFFFFFFFFFFFFFFFFFFFFFFFFFFFBD
:10540000FFFFFFFFFFFFFFFFFFFFFFFFFFFFFFFFAC
:10541000FFFFFFFFFFFFFFFFFFFFFFFFFFFFFFFF9C
:10542000FFFFFFFFFFFFFFFFFFFFFFFFFFFFFFFF8C
:10543000FFFFFFFFFFFFFFFFFFFFFFFFFFFFFFFF7C
:10544000FFFFFFFFFFFFFFFFFFFFFFFF0000FFFF6A
:105450000000FFFFFFFFFFFF0000FFFF0000000054
:10546000000000000000000000000000000000003C
:10547000000000000000000000000000E0FFE0FF6E
:105480000000000000000000000000000000E0FF3D
:10549000E0FFE0FFE0FF0000000000000000E0FF90
:1054A000E0FF0000E0FFE0FF0000E0FFE0FF0000A1
:1054B0000000E0FFE0FF0000E0FFE0FF0000E0FF91
:1054C000E0FF00000000E0FFE0FFE0FFE0FFE0FFA2
:1054D000E0FFE0FFE0FF00000000E0FFE0FFE0FF92
:1054E000E0FFE0FFE0FFE0FFE0FF00000000000061
:1054F000E0FFE0FF00000000E0FFE0FF0000000030
:1055000000000000E0FFE0FF00000000E0FFE0FF1F
:10551000000000000000E0FFE0FF000000000000CD
:105520000000E0FFE0FF0000E0FFE0FFE0FF000020
:10553000000000000000E0FFE0FFE0FF00000000CE
:10554000000000000000000000000000000000005B
:10555000000000000000000000000000000000004B
:10556000000000000000000000000000FFFFFFFF3F
:10557000000000000000000000000000000000002B
:10558000FFFFFFFF00000000000000000000FFFF21
:10559000FFFFFFFFFFFFFFFFFFFFFFFFFFFF000019
:1055A000FFFFFFFFFFFFFFFFFFFFFFFFFFFFFFFF0B
:1055B000FFFFFFFFFFFFFFFFFFFFFFFFFFFFFFFFFB
:1055C000FFFFFFFFFFFFFFFF00000000E0070000FC
:1055D00000000000E007E007E00700000000E0072F
:1055E000E007E00700000000E007E007E007000038
:1055F0000000E007E007E0070000E007E007E00741
:10560000E007E007E007E007E007E007E007000049
:105610000000E0FF0000000000000000E0FF0000CC
:105620000000FF18FF18FF18FF18FF18FF18FF18D9
:10563000FF18FF18FF180000FF18FF18FF180000E0
:105640000000FF18FF18FF1800000000FF18FF18E7
:10565000FF1800000000FF18FF18FF1800000000EE
:105660000000FF1800000000000000000000000023
:1056700000F800F8000000000000000000F8000042
:105680000000000000F800F800000000000000F832
:10569000000000F80000000000F800F80000000022
:1056A00000F800000000000000F8000000F800F81A
:1056B000000000F80000000000000000000000F8FA
:1056C00000F800F800F800000000000000F800F802
:1056D00000F800F800F800F800F800F800F800F80A
:1056E00000F800F800F800F800F800F800F800F8FA
:1056F00000F800F800000000000000F800F800F8D2
:1057000000F80000000000000000000000F80000A9
:1057100000F800F8000000F800000000000000F8A9
:105720000000000000F800F80000000000F8000091
:1057300000F800000000000000F800F80000000081
:10574000000000F8000000000000000000F800F871
:105750000000000000000000E8030000F401000069
:10576000E8030000F4010000E8030000F401000079
:10577000E8030000F4010000E8030000F401000069
:10578000C8000000C8000000C8000000C8000000F9
:10579000C8000000C8000000C8000000C8000000E9
:1057A000C8000000C800000042726561640000008B
:1057B000426F61726400000047616D6573210000F3
:1057C0004C65667420666F722042726963690000DE
:1057D000526967687420666F722047616C61676107
:1057E000000000004669726520666F722053707277
:1057F0006974652064657369676E00007765623A55
:10580000696F70726F672E636F6D2F626267000041
:105810000000000000000000000000000000000088
:10582000000000000000000000000000E0FFE0FFBA
:105830000000000000000000000000000000E0FF89
:10584000E0FFE0FFE0FF0000000000000000E0FFDC
:10585000E0FF0000E0FFE0FF0000E0FFE0FF0000ED
:105860000000E0FFE0FF0000E0FFE0FF0000E0FFDD
:10587000E0FF00000000E0FFE0FFE0FFE0FFE0FFEE
:10588000E0FFE0FFE0FF00000000E0FFE0FFE0FFDE
:10589000E0FFE0FFE0FFE0FFE0FF000000000000AD
:1058A000E0FFE0FF00000000E0FFE0FF000000007C
:1058B00000000000E0FFE0FF00000000E0FFE0FF6C
:1058C000000000000000E0FFE0FF0000000000001A
:1058D0000000E0FFE0FF0000E0FFE0FFE0FF00006D
:1058E000000000000000E0FFE0FFE0FF000000001B
:1058F00000000000000000000000000000000000A8
:105900000000000000000000000000000000000097
:10591000000000000000000000000000FFFFFFFF8B
:105920000000000000000000000000000000000077
:10593000FFFFFFFF00000000000000000000FFFF6D
:10594000FFFFFFFFFFFFFFFFFFFFFFFFFFFF000065
:10595000FFFFFFFFFFFFFFFFFFFFFFFFFFFFFFFF57
:10596000FFFFFFFFFFFFFFFFFFFFFFFFFFFFFFFF47
:10597000FFFFFFFFFFFFFFFF00000000E007000048
:1059800000000000E007E007E00700000000E0077B
:10599000E007E00700000000E007E007E007000084
:1059A0000000E007E007E0070000E007E007E0078D
:1059B000E007E007E007E007E007E007E007000096
:1059C0000000E0FF0000000000000000E0FF000019
:1059D00000001F001F001F001F001F001F001F00EE
:1059E0001F001F001F0000001F001F001F000000FD
:1059F00000001F001F001F00000000001F001F000C
:105A00001F00000000001F001F001F00000000001A
:105A100000001F0000000000000000000000000067
:105A200000F800F8000000000000000000F800008E
:105A30000000000000F800F800000000000000F87E
:105A4000000000F80000000000F800F8000000006E
:105A500000F800000000000000F8000000F800F866
:105A6000000000F80000000000000000000000F846
:105A700000F800F800F800000000000000F800F84E
:105A800000F800F800F800F800F800F800F800F856
:105A900000F800F800F800F800F800F800F800F846
:105AA00000F800F800000000000000F800F800F81E
:105AB00000F80000000000000000000000F80000F6
:105AC00000F800F8000000F800000000000000F8F6
:105AD0000000000000F800F80000000000F80000DE
