:020000040800F2
:1000000000500020E91F000881200008812000081E
:10001000812000088120000881200008812000083C
:10002000812000088120000881200008812000082C
:10003000812000088120000881200008B1460008C6
:10004000812000088120000881200008812000080C
:1000500081200008812000088120000881200008FC
:1000600081200008812000088120000881200008EC
:1000700081200008812000088120000881200008DC
:1000800081200008812000088120000881200008CC
:1000900081200008812000088120000881200008BC
:1000A00081200008812000088120000881200008AC
:1000B000812000088120000881200008812000089C
:1000C000812000088120000881200008812000088C
:1000D00081200008812000084137000881200008A5
:1000E000812000088120000881200008812000086C
:1000F000812000088120000881200008812000085C
:10010000812000088120000881200008812000084B
:10011000812000088120000881200008812000083B
:10012000812000088120000881200008812000082B
:10013000B0B5E4B004AF0423C7F87C310023C7F89E
:100140007831052387F87731012387F8753101234A
:1001500087F8743107F120040A23019318230093D0
:1001600014230322C249204603F032FC10340A2330
:1001700001931823009314231B22BD49204603F04A
:1001800027FC10340A2301931823009314233322ED
:10019000B749204603F01CFC10340A2301931823AE
:1001A000009314234B22B249204603F011FC103473
:1001B0000A2301931823009314236322AC49204699
:1001C00003F006FC10340A23019318230093142330
:1001D0007B22A749204603F0FBFB10340A2301933E
:1001E0001823009314239322A149204603F0F0FB27
:1001F00010340A230193182300931E2303229D49E0
:10020000204603F0E5FB10340A23019318230093E2
:100210001E231B229749204603F0DAFB10340A23E1
:100220000193182300931E2333229249204603F0A2
:10023000CFFB10340A230193182300931E234B2273
:100240008C49204603F0C4FB10340A230193182381
:1002500000931E2363228749204603F0B9FB103424
:100260000A230193182300931E237B2281492046F1
:1002700003F0AEFB10340A230193182300931E23CE
:1002800093227C49204603F0A3FB10340A230193F8
:1002900018230093282303227749204603F098FB74
:1002A00010340A2301931823009328231B22724938
:1002B000204603F08DFB10340A230193182300938A
:1002C000282333226C49204603F082FB10340A2392
:1002D00001931823009328234B226749204603F0FB
:1002E00077FB10340A2301931823009328236322F9
:1002F0006149204603F06CFB10340A230193182354
:10030000009328237B225C49204603F061FB04F123
:1003100010000A230193182300932823932256499F
:1003200003F056FB07F110000323019314230093FD
:10033000C8230022514903F04BFB384603230193A5
:10034000032300936E2378224D4903F041FB0023E1
:100350000193DC230093B02300220021494800F0E0
:10036000A9FB002302934FF6FF7301932823009308
:100370000A2305224449434800F0BEFE4FF4FA71B7
:10038000404804F07EF9D7F87C31002B40F312830B
:10039000A6220A213B4800F0BFFF034699B23B4624
:1003A0006E22184603F09CFB02220021354800F023
:1003B000B3FF0346002B14BF01230023DBB2002B45
:1003C00003D0012387F8753102E0FF2387F87531E8
:1003D0000023C7F87831FF2387F874310023019395
:1003E000B0230093B02300220021264800F062FBD6
:1003F00097F8773187F8763197F87631002B18D057
:1004000097F876319BB21A461B01D31A9BB2B033D0
:1004100099B24FF6610301930A2300930A23D22273
:10042000184800F047FB97F87631013B87F87631A2
:10043000E2E7002387F8763197F87631142B25D838
:1004400097F8763107F120021B011344184603F098
:1004500025FB97F8763107F120021B01134418465B
:1004600003F0D9FA97F87631013387F87631E3E76C
:100470003847000818490008F84A0008D84C000816
:10048000504D000804000020644D00083B4618460B
:1004900003F0C1FA07F11003184603F0BCFA002379
:1004A00002934FF6FF730193D22300930523052295
:1004B000C949CA4800F020FED7F87C319BB2C3F18D
:1004C000050399B2002301934FF6FF730093D223E3
:1004D0003C22C24800F09CFED7F87831002B7FF414
:1004E00052AFBF4801F084F8034603F00203002B2B
:1004F00014BF01230023DBB2002B2AD007F1100325
:10050000184606F05EF903461C4607F1100318462C
:1005100006F06DF90346C3F1B0039C42B4BF01235A
:100520000023DBB2002B14D007F11003184606F0AD
:1005300048F9034602339CB207F11003184606F04F
:100540004BF903461A4607F110032146184603F0FB
:10055000C7FAA34801F04CF8034603F00103002B4F
:1005600014BF01230023DBB2002B21D007F11003BD
:10057000184606F026F90346002B14BF012300237A
:10058000DBB2002B14D007F11003184606F019F95E
:100590000346023B9CB207F11003184606F01CF913
:1005A00003461A4607F110032146184603F098FA4D
:1005B0003B46184606F005F903461C463B461846DE
:1005C00006F015F903465B08DBB29BB223449CB2EC
:1005D0003B46184606F000F903461D463B461846C2
:1005E00006F011F903465B08DBB29BB22B449AB2CA
:1005F00007F110032146184603F0E6FA0346002BE4
:1006000014BF01230023DBB2002B0AD097F874310A
:100610005B42DBB287F874311422C821714803F0C1
:1006200011F907F11003184603F018FA3B46184673
:1006300006F0C7F803461A4697F975319BB2134482
:100640009CB23B46184606F0C7F803461A4697F98F
:1006500074319BB213449AB23B462146184603F0CC
:100660003FFA3B46184606F0ACF80346022B0CBF97
:1006700001230023DBB2002B0BD097F875315B42CE
:10068000DBB287F8753114224FF4C871554803F076
:10069000D9F83B46184606F094F80346AE2B0CBF3B
:1006A00001230023DBB2002B0BD097F875315B429E
:1006B000DBB287F8753114224FF4C871494803F052
:1006C000C1F83B46184606F087F80346022B0CBFDC
:1006D00001230023DBB2002B0BD097F874315B426F
:1006E000DBB287F8743114224FF4C8713D4803F02F
:1006F000A9F83B46184606F06FF803461C4607F17A
:100700001003184606F068F803461D4607F110036B
:10071000184606F078F803462B4402339C42ACBFDF
:1007200001230023DBB2002B00F0A68097F977317C
:10073000DBB2013BDBB287F8773197F97731002BD9
:1007400036D100230193DC230093B0230022002143
:10075000224800F0AFF9002302934FF6FF73019394
:1007600064230093282309221F491C4800F0C4FC7D
:10077000002302934FF6E07301937823009308233C
:100780000F221A49154800F0B7FC154800F030FF59
:10079000034603F00403002B0CBF01230023DBB24C
:1007A000002B00F03D810A210C4803F06AFFECE7C2
:1007B00064220021094800F0AFFD034603F0010365
:1007C000002B14BF01230023DBB2002B10D0012328
:1007D00087F875310FE000BF6C4D00080400002061
:1007E0004401002040010020744D0008804D0008A5
:1007F000FF2387F87531FF2387F87431A6220A2179
:100800008B4800F089FD03469CB278225A21884823
:1008100000F082FD03469AB23B462146184603F09B
:100820005FF9002301930A2300937823D2226521E4
:100830007F4800F03FF997F8773187F8763197F8DD
:100840007631002B18D097F876319BB21A461B01EF
:10085000D31A9BB2B03399B24FF6610301930A23C6
:1008600000930A23D222724800F024F997F87631D7
:10087000013B87F87631E2E70123C7F8783100239E
:1008800087F8763197F87631142B61D897F876315E
:1008900007F120021B011344184605F0C0FF034670
:1008A000002B14BF01230023DBB2002B02D0002356
:1008B000C7F8783197F8763107F120021B01D41878
:1008C0003B46184605F07DFF03461D463B4618464D
:1008D00005F082FF03461A462946204603F074F9C4
:1008E0000346C7F87031D7F87031002B2AD097F83B
:1008F000763107F120021B011344184603F0CEF8AD
:10090000D7F87031012B03D0D7F87031032B05D104
:1009100097F874315B42DBB287F87431D7F87031E5
:10092000022B03D0D7F87031042B05D197F875311D
:100930005B42DBB287F8753114224FF47A713D487F
:1009400002F080FF97F87631013387F8763199E726
:10095000D7F87831012B25D1D7F87C31002B21DD58
:10096000D7F87C31013BC7F87C31002302934FF666
:10097000FF730193D2230093052305222E492C48AF
:1009800000F0BAFBD7F87C319BB2C3F1050399B2F2
:10099000002301934FF6FF730093D2233C22244897
:1009A00000F036FCD7F87C3105331946204803F0B7
:1009B00068FE91E51F230193B0230093B02300222A
:1009C00000211B4800F076F81F2302934FF6E073D6
:1009D000019364230093282308221849144800F047
:1009E0008BFB1F2302934FF6E07301937823009350
:1009F00008230F2212490E4800F07EFB114800F038
:100A0000F7FD034603F00403002B0CBF0123002372
:100A1000DBB2002B06D00A21054803F032FEEDE7D9
:100A200000BF00E000BF07F5C077BD46B0BD00BF06
:100A300004000020400100206C4D0008904D00088B
:100A4000804D00084401002080B582B000AF78607E
:100A50007B68184603F09EFD7B682433184602F03D
:100A6000EFFC7B6803F5A073184600F0F5FC7B688B
:100A700003F59E73184602F0BBFE7B6803F5A47372
:100A8000184603F087FB7B6803F527737A681146E5
:100A9000184600F027FF7B680549184603F0A8FDBB
:100AA000786800F08FFC00BF0837BD4680BD00BFEE
:100AB0008D39000890B587B002AFF860084611463E
:100AC0001A4603467B810B463B811346FB80FB683D
:100AD00003F52770FC883A897989BB8C01933B8C9C
:100AE0000093234601F095F800BF1437BD4690BD32
:100AF00090B587B002AFF860084611461A46034623
:100B00007B810B463B811346FB807A89FB8813442B
:100B100098B23A897989BB8C01933B89009303464B
:100B2000F86800F053FA3A893B8C13449BB27C89F5
:100B300038897989BA8C0192009323460246F86875
:100B400000F044FA7A89FB88134499B27A89FB88C9
:100B500013449CB23A893B8C13449BB23889BA8CBB
:100B60000192009323460246F86800F02FFA3A8972
:100B70003B8C134498B27A89FB8813449CB23A891F
:100B80003B8C13449BB27989BA8C01920093234623
:100B90000246F86800F01AFA00BF1437BD4690BD4F
:100BA00080B58AB000AFF860084611461A46034681
:100BB0007B810B463B811346FB80FB88013B7B62BC
:100BC00000233B620123FB610123BB61FB885B00C7
:100BD000FA69D31A7B617A6A3B6A9A42C0F29F80B3
:100BE000FB6803F527707B6A9AB27B89134499B23C
:100BF0003B6A9AB23B8913449AB23B8E00F0A4FF41
:100C0000FB6803F527703B6A9AB27B89134499B25B
:100C10007B6A9AB23B8913449AB23B8E00F094FFF0
:100C2000FB6803F527703B6A9BB27A89D31A99B2A5
:100C30007B6A9AB23B8913449AB23B8E00F084FFE0
:100C4000FB6803F527707B6A9BB27A89D31A99B245
:100C50003B6A9AB23B8913449AB23B8E00F074FF10
:100C6000FB6803F527707B6A9BB27A89D31A99B225
:100C70003B6A9BB23A89D31A9AB23B8E00F064FF6A
:100C8000FB6803F527703B6A9BB27A89D31A99B245
:100C90007B6A9BB23A89D31A9AB23B8E00F054FF1A
:100CA000FB6803F527703B6A9AB27B89134499B2BB
:100CB0007B6A9BB23A89D31A9AB23B8E00F044FF0A
:100CC000FB6803F527707B6A9AB27B89134499B25B
:100CD0003B6A9BB23A89D31A9AB23B8E00F034FF3A
:100CE0007B69002B09DC3B6A01333B627A69BB6993
:100CF00013447B61BB690233BB617B69002B7FF7C7
:100D00006AAF7B6A013B7B62FB690233FB61FB8854
:100D10005B00FA69D31A7A6913447B615BE700BF11
:100D20002837BD4680BD90B58DB002AFF86008464B
:100D300011461A4603467B810B463B811346FB80D6
:100D4000FB88013B7B6200233B620123FB610123A3
:100D5000BB61FB885B00FA69D31A7B617A6A3B6AE4
:100D60009A42C0F28F807B6A9BB27A89D31A99B279
:100D70003B6A9AB23B89134498B27B6A9AB27B89E8
:100D800013449CB23B6A9AB23B8913449BB23A8F9C
:100D90000192009323460246F86800F017F93B6A77
:100DA0009BB27A89D31A99B27B6A9AB23B8913446F
:100DB00098B23B6A9AB27B8913449CB27B6A9AB21E
:100DC0003B8913449BB23A8F01920093234602461B
:100DD000F86800F0FBF87B6A9BB27A89D31A99B263
:100DE0003B6A9BB23A89D31A98B27B6A9AB27B89E2
:100DF00013449CB23B6A9BB23A89D31A9BB23A8F96
:100E00000192009323460246F86800F0DFF83B6A3F
:100E10009BB27A89D31A99B27B6A9BB23A89D31A68
:100E200098B23B6A9AB27B8913449CB27B6A9BB2AC
:100E30003A89D31A9BB23A8F019200932346024615
:100E4000F86800F0C3F87B69002B09DC3B6A0133CA
:100E50003B627A69BB6913447B61BB690233BB6146
:100E60007B69002B7FF77AAF7B6A013B7B62FB6972
:100E70000233FB61FB885B00FA69D31A7A69134479
:100E80007B616BE700BF2C37BD4690BD80B58AB053
:100E900000AFF860084611461A4603467B810B46B0
:100EA0003B811346FB80FA887B89D31A3B613A8EDB
:100EB0003B89D31A7B6201233B627B6A002B05DAF4
:100EC0004FF0FF333B627B6A5B427B627B6A5A0076
:100ED0003B69D31AFB613B89BB617B897B61FB88E2
:100EE0007A699A421EDCFB6803F527707B6999B228
:100EF000BB699AB2BB8E00F027FEFB69002B08DDB0
:100F0000BA693B6A1344BB613B695B00FA69D31A57
:100F1000FB617B6A5B00FA691344FB617B69013307
:100F20007B61DCE700BF2837BD4680BD80B58AB055
:100F300000AFF860084611461A4603467B810B460F
:100F40003B811346FB80FA887B89D31A7B623A8EF9
:100F50003B89D31A3B6101233B627B6A002B05DA94
:100F60004FF0FF333B627B6A5B427B627B6A5A00D5
:100F70003B69D31AFB617B89BB613B897B613B8EFB
:100F80007A699A421EDCFB6803F52770BB6999B247
:100F90007B699AB2BB8E00F0D7FDFB69002B08DDA0
:100FA000BA693B6A1344BB613B695B00FA69D31AB7
:100FB000FB617B6A5B00FA691344FB617B69013367
:100FC0007B61DCE700BF2837BD4680BD90B587B0A8
:100FD00002AFF860084611461A4603467B810B466D
:100FE0003B811346FB803A8C3B89D31A1946F8683B
:100FF00005F098FC0446FA887B89D31A1946F868EC
:1010000005F090FC03469C42B4BF01230023DBB2F1
:10101000002B1BD07A89FB889A420BD978893A8CAD
:10102000F988BB8C01933B8900930346F868FFF76E
:101030002DFF26E0F8883A897989BB8C01933B8C97
:1010400000930346F868FFF721FF1AE03A893B8CCA
:101050009A420BD978893A8CF988BB8C01933B89E9
:1010600000930346F868FFF761FF0AE0F8883A89C1
:101070007989BB8C01933B8C00930346F868FFF79A
:1010800055FF00BF1437BD4690BD80B584B000AF9A
:10109000F860084611461A4603467B810B463B81A1
:1010A0001346FB80FB6803F52770FB883A89798932
:1010B00000F04AFD00BF1037BD4680BD90B587B037
:1010C00002AFF860084611461A4603467B810B467C
:1010D0003B811346FB80FB6803F52770FC883A8947
:1010E00079897B6A01933B8C0093234600F04FFD86
:1010F00000BF1437BD4690BD80B59AB002AFF8600E
:10110000B96011461A460B46FB801346BB8000238C
:1011100087F85F300023BB65002387F85F3097F8BE
:101120005F20FB889A426CDA97F85F30BA68134404
:101130001B78A3F1200213469B001344334A134447
:10114000BB65002387F85D3097F85D30042B41D8EC
:10115000002387F85E3097F85E30062B34D897F876
:101160005D30BA6D13441B781A4697F85E3042FA28
:1011700003F303F00103002B10D097F85E20134611
:101180009B001A4497F85D3013445B0007F160023E
:101190001344B7F86C2023F8502C0FE097F85E202A
:1011A00013469B001A4497F85D3013445B0007F127
:1011B00060021344B7F8702023F8502C97F85E3083
:1011C000013387F85E30C6E797F85D30013387F862
:1011D0005D30B9E7FB6803F52770B7F86820B98878
:1011E00007F11003019307230093052300F0CFFCC0
:1011F000BB880933BB8097F85F30013387F85F30D5
:101200008DE700BF6037BD4680BD00BFDC4D0008E4
:1012100080B58AB004AFF860084611461A46034606
:101220007B810B463B811346FB807A89394BA3FBBC
:101230000213D9080B469B000B445B00D31A9BB2E8
:10124000DBB23033DBB23B757B89324AA2FB03232E
:10125000DB087B817A892F4BA3FB0213D9080B464D
:101260009B000B445B00D31A9BB2DBB23033DBB282
:10127000FB747B89274AA2FB0323DB087B817A89E5
:10128000244BA3FB0213D9080B469B000B445B00C5
:10129000D31A9BB2DBB23033DBB2BB747B891D4AFD
:1012A000A2FB0323DB087B817A891A4BA3FB021381
:1012B000D9080B469B000B445B00D31A9BB2DBB2F0
:1012C0003033DBB27B747B89124AA2FB0323DB0839
:1012D0007B817A890F4BA3FB0213D9080B469B0035
:1012E0000B445B00D31A9BB2DBB23033DBB23B74EE
:1012F0003A8907F11001BB8C02933B8C0193FB8868
:10130000009313460522F868FFF7F6FE00BF183772
:10131000BD4680BDCDCCCCCC80B584B000AFF860EC
:10132000B9607A60F86800F00FF802467968BB6827
:10133000CB1AB2FBF3F103FB01F3D21ABB681344DF
:1013400018461037BD4680BD80B485B000AF7860C8
:101350000023FB601A4B1B68002B27D1184B01227E
:101360001A607B68D3F8A032DA0E7B68D3F8A0321B
:101370009B0F534003F00103FB60FB68DB43FB6002
:10138000FB6803F00103FB607B68D3F8A0325A00CE
:101390007B68C3F8A0227B68D3F8A022FB681A43BD
:1013A0007B68C3F8A022064B00221A607B68D3F842
:1013B000A03223F0784318461437BD4680BC7047EE
:1013C000A802002080B584B000AF78607B6800225E
:1013D000C3F8A0227B68D3F8A032002B1AD10123D6
:1013E000FB60FB68102BF5DC7B6803F5A073102114
:1013F000184600F039F903461A46FB689A407B68A4
:10140000D3F8A0321A447B68C3F8A022FB680133EA
:10141000FB60E6E700BF1037BD4680BD80B582B0F7
:1014200000AF786039607B68012B07D13B684FF6CD
:10143000FF72934202D1034805F04AFA00BF083711
:10144000BD4680BD0400002080B500AF4FF6FF719F
:101450000120FFF7E3FF80BD80B483B000AF786068
:10146000524B9B69514A43F01C0393614F4B9B695C
:101470004E4A43F0010393614D4B4FF000725A60A6
:101480004C4B5B684C4A1A404A494C4B13434B60E7
:101490004B4B1B6823F07F6323F47F23484A43F0C0
:1014A000887343F488331360454B5B689BB2444AAE
:1014B00043F0885343F488135360414B1B68404A00
:1014C00023F0F00313603E4B1B683D4A43F080035A
:1014D00013603B4B02221A61394B5B68384A23F494
:1014E0007F435360364B5B68354A43F4084353608F
:1014F000334B4FF440621A61324B5B68314A43F41C
:10150000801353602F4B5B682E4A23F460035360B3
:10151000264B9B69254A43F400739361234B5B6818
:10152000224A43F440435360204B9B691F4A43F0D7
:10153000040393611F4B1B681E4A23F0FF031360D3
:10154000214B1D221A61204B0022DA621E4B002221
:101550001A631D4B9B681C4A43F0010393601A4BAE
:101560009B68194A43F004039360174B9B6803F090
:101570000403002B14BF01230023DBB2002B00D097
:10158000F3E77B684FF496721A807B6840F23A2248
:101590005A807B6840F642629A807B6840F6886297
:1015A000DA8000BF0C37BD4680BC70470010024097
:1015B00000000140000801400000FF0F1111001061
:1015C000000C0140001001400024014080B483B0B1
:1015D00000AF7860054BDB68044A83F40053D360A6
:1015E00000BF0C37BD4680BC704700BF00100140F3
:1015F00080B485B000AF78600023FB81194B9B68F5
:1016000003F00203002B0CBF01230023DBB2002BED
:1016100003D0FB8943F00103FB81124B9B6803F469
:101620008063002B0CBF01230023DBB2002B03D00F
:10163000FB8943F00203FB810A4B9B6803F40063C0
:10164000002B0CBF01230023DBB2002B03D0FB894E
:1016500043F00403FB81FB8918461437BD4680BC68
:10166000704700BF000C014080B485B000AF7860C7
:1016700039600023FB810F4A3B6853630D4B9B6825
:101680000C4A43F0010393600A4B1B6803F002030A
:10169000002B0CBF01230023DBB2002B00D0F3E7AB
:1016A000044BDB6CFB81FB8918461437BD4680BCBC
:1016B000704700BF0024014080B586B000AF78605D
:1016C0003A4B5B687B61394B1B683B61374BDB688E
:1016D000FB60364B40221A61344B1B68334A23F4BB
:1016E00060031360314B1B68304A43F4801313606E
:1016F0002E4BDB682D4A23F02003D3602B4B5B6815
:101700002A4A23F460035360284B5B68274A43F45A
:1017100080135360254BDB68244A43F40053D360A5
:10172000224B1B68214A23F4302313601F4B1B6894
:101730001E4A43F4802313601C4B5B681B4A23F44E
:1017400030235360194B5B68184A43F4802353607D
:1017500001217868FFF788FF0346BB60134A7B6965
:101760005360124A3B691360104AFB68D3607B6880
:101770009B881A46BB68D31A4FF47A7202FB03F3B4
:101780007A68928811467A6812888A1AB3FBF2F353
:10179000BB60BB68B3F57A7F02D94FF6FF73BB60BD
:1017A000BB689BB218461837BD4680BD000C01408F
:1017B00080B586B000AF78603A4B5B687B61394B8F
:1017C0001B683B61374BDB68FB60364B40221A617C
:1017D000344B5B68334A23F460235360314B5B68BE
:1017E000304A43F4803353602E4BDB682D4A23F498
:1017F0008053D3602B4B1B682A4A23F46023136069
:10180000284B1B68274A43F480331360254BDB6861
:10181000244A43F01003D360224B5B68214A23F42F
:10182000300353601F4B5B681E4A43F480035360D0
:101830001C4B1B681B4A23F430031360194B1B68B5
:10184000184A43F48003136000217868FFF70CFF07
:101850000346BB60134A7B695360124A3B691360BD
:10186000104AFB68D3607B68DB881A46BB68D31AD2
:101870004FF47A7202FB03F37A68D28811467A68D1
:1018800052888A1AB3FBF2F3BB60BB68B3F57A7F68
:1018900002D94FF6FF73BB60BB689BB2184618377E
:1018A000BD4680BD000C014080B485B000AFF8603B
:1018B000084611461A4603467B810B463B81134678
:1018C000FB80FB687A891A80FB68FA885A80FB687B
:1018D0003A899A80FB683A8BDA8000BF1437BD469C
:1018E00080BC704780B584B002AF78603960904B9F
:1018F0009B698F4A43F00C0393618D4B9B698C4A23
:1019000043F0010393618B4B4FF000725A60894B97
:101910005B68884A43F080735360874B5B68874AF3
:101920001A408549864B13434B60864B1B6823F056
:101930007F6323F47F23834A43F0887343F488331F
:101940001360804B5B689BB27E4A43F0885343F43C
:1019500088135360786805F02FF8786805F01EF852
:10196000786804F0FFFF786805F044F8786805F0BF
:101970005FF80A21386802F084FE786805F02AF8DA
:101980000A21386802F07DFE786805F033F864219A
:10199000386802F076FE786805F00EF8786804F092
:1019A000FDFF786804F0DEFF6421386802F069FE0C
:1019B000786804F0E5FF9621386802F062FECE22D6
:1019C0002821786800F0FAF94FF48E7201217868C6
:1019D00000F0F4F941F230020321786800F0EEF9EA
:1019E00017220721786800F0E9F94FF4805211219D
:1019F000786800F0E3F900222021786800F0DEF931
:101A000000222121786800F0D9F9AF2236217868C8
:101A100000F0D4F900223721786800F0CFF9DB22FA
:101A20003821786800F0CAF900223921786800F07E
:101A3000C5F900220221786800F0C0F941F2124293
:101A4000B021786800F0BAF900220B21786800F024
:101A5000B5F94FF48072E821786800F0AFF940F6EC
:101A60000F72B121786800F0A9F90322502178683B
:101A700000F0A4F940F607025121786800F09EF9C1
:101A800040F608425221786800F098F940F203527B
:101A90005321786800F092F903225421786800F00D
:101AA0008DF940F607025521786800F087F9032286
:101AB0005621786800F082F940F203525721786885
:101AC00000F07CF900225821786800F077F90022B4
:101AD0005921786800F072F94FF48172E821786832
:101AE00000F06CF92A22FB21786800F067F940F2D7
:101AF0000112E821786800F061F94022F12178684C
:101B000000F05CF96421386802F0BBFD222178689E
:101B100000F0FBF800230193DC230093B0230022A4
:101B20000021786800F075F800BF0837BD4680BD19
:101B30000010024000000140000801400000FF0FBB
:101B400011110010000C014080B586B002AFF860A2
:101B5000084611461A4603467B810B463B811346D5
:101B6000FB807B89013398B23B8901339BB23A8970
:101B7000798900930346F86800F036F9FB88194626
:101B8000F86800F0F7F800BF1037BD4680BD80B59B
:101B900088B002AFF860084611461A4603467B81BA
:101BA0000B463B811346FB807A89FB8813449BB22A
:101BB000013B98B23A893B8C13449BB2013B9BB2E8
:101BC0003A89798900930346F86800F00DF90023FB
:101BD0003B813A893B8C9A4217D200237B817A89D8
:101BE000FB889A420DD27B6A9A1C7A621B88FB8220
:101BF000FB8A1946F86800F0BDF87B8901337B81C8
:101C0000EDE73B8901333B81E3E700BF1837BD4671
:101C100080BD80B586B002AFF860084611461A460E
:101C200003467B810B463B811346FB807A89FB8808
:101C300013449BB2013B98B23A893B8B13449BB24D
:101C4000013B9BB23A89798900930346F86800F01A
:101C5000CBF800233B813A893B8B9A4212D2002376
:101C60007B817A89FB889A4208D2BB8B1946F86837
:101C700000F080F87B8901337B81F2E73B890133F7
:101C80003B81E8E700BF1037BD4680BD80B584B01A
:101C900000AF78600023FB60786804F09BFEFB686F
:101CA00044F61F629342D4BF01230023DBB2002B12
:101CB00003D0FB680133FB60F1E7786804F09AFE1B
:101CC0000023FB60FB6844F61F629342D4BF0123EC
:101CD0000023DBB2002B03D0FB680133FB60F1E78C
:101CE00000BF1037BD4680BD80B582B000AF7860C0
:101CF0000B46FB70786804F08DFEFB78184600F008
:101D0000ACF800BF0837BD4680BD80B582B000AFDB
:101D100078600B467B80786804F07CFE7B881B1221
:101D2000DBB2184600F099F8786804F00DFE786888
:101D300004F018FE7B88DBB2184600F08EF8786855
:101D400004F002FE786804F00DFE00BF0837BD46BF
:101D500080BD80B582B000AF78600B46FB707868BC
:101D600004F066FEFB78184600F077F800BF0837ED
:101D7000BD4680BD80B582B000AF78600B467B80E9
:101D8000786804F055FE7B881B12DBB2184600F021
:101D900064F8786804F0D8FD786804F0E3FD7B8887
:101DA000DBB2184600F059F8786804F0CDFD786889
:101DB00004F0D8FD00BF0837BD4680BD80B582B0B5
:101DC00000AF78600B467B8013463B807B881946CA
:101DD0007868FFF79AFF3B8819467868FFF7CAFFD3
:101DE00000BF0837BD4680BD80B584B000AFF86045
:101DF000084611461A4603467B810B463B81134633
:101E0000FB80FB881A463621F868FFF7D7FF7B89ED
:101E10001A463721F868FFF7D1FF3B8B1A46382165
:101E2000F868FFF7CBFF3B891A463921F868FFF7BE
:101E3000C5FF7B891A462021F868FFF7BFFF3B8961
:101E40001A462121F868FFF7B9FF2221F868FFF749
:101E50005CFF00BF1037BD4680BD80B483B000AFCB
:101E60000346FB710F4B4FF470625A610E4B4FF4F7
:101E700070425A61FB79002B0ED0FB7903F00F03FF
:101E80000A4AD35C074A1B021361FB791B11074AFC
:101E9000D35C054A1B03136100BF0C37BD4680BCF1
:101EA000704700BF00080140000C0140BC4F000813
:101EB00080B400AF2E4B1B682D4A23F4802313609F
:101EC0002B4B1B682A4A43F480331360284B1B6852
:101ED0000023002B00D0F9E7254B5B68244A23F44C
:101EE00000135360224B5B68214A43F4E0135360B4
:101EF0001F4B5B681E4A43F4806353601C4B5B6856
:101F00001B4A23F440735360194B5B68184A43F42F
:101F100080335360164B1B68154A43F0807313607F
:101F2000134B1B680023002B00D0F9E7114B1B68F3
:101F3000104A43F0020313600E4B1B680D4A23F056
:101F4000050313600B4B1B680A4A43F01003136030
:101F5000074B5B68064A03F001035360044B5B6860
:101F6000034A43F00203536000BFBD4680BC704784
:101F7000001002400020024080B582B000AF164A37
:101F8000164BD31A9B103B6000237B607A683B683A
:101F90009A4208D2114A7B6852F8233098477B68EE
:101FA00001337B60F2E70E4A0E4BD31A9B103B6065
:101FB00000237B607A683B689A4208D2094A7B68B2
:101FC00052F8233098477B6801337B60F2E700BF0B
:101FD0000837BD4680BD00BFFC460008FC4600082F
:101FE00000470008FC46000880B584B000AF1E4BD7
:101FF000FB601E4BBB601E4A1C4BD31A7B607B6888
:102000005A1E7A60002B14BF01230023DBB2002B81
:1020100008D0FA68531CFB60BB68591CB960127881
:102020001A70ECE7134BBB60134A124BD31A7B6058
:102030007B685A1E7A60002B14BF01230023DBB299
:10204000002B05D0BB685A1CBA6000221A70EFE75B
:10205000FFF72EFFFFF790FF0848FEF7F5FC01F0B1
:1020600015F801F01FF8FCE76E6A00080000002078
:102070000400002004000020C4020020040000200E
:1020800080B400AFFEE700BFF0B5F9B004AFCE4BAF
:10209000C7F8CC31CC4804F0D9FC0346002B14BF60
:1020A00001230023DBB2002B02D0C74BC7F8CC3191
:1020B00007F582740C2301930A2300930323032260
:1020C000D7F8CC11204601F083FC10340C23019387
:1020D0000A23009303231722D7F8CC11204601F0DE
:1020E00077FC10340C2301930A23009303232B2243
:1020F000D7F8CC11204601F06BFC10340C2301936F
:102100000A23009303233F22D7F8CC11204601F085
:102110005FFC10340C2301930A2300930323532202
:10212000D7F8CC11204601F053FC10340C23019356
:102130000A23009303236722D7F8CC11204601F02D
:1021400047FC10340C2301930A23009303237B22C2
:10215000D7F8CC11204601F03BFC10340C2301933E
:102160000A23009303238F22D7F8CC11204601F0D5
:102170002FFC10340C2301930A2300930323A32282
:10218000D7F8CC11204601F023FC04F110000C23F9
:1021900001930A2300930323B722D7F8CC1101F04F
:1021A00017FC07F1F400062301930A230093BE23D2
:1021B0005822864901F00CFC07F1A404082301937E
:1021C00005230093002300228149204601F000FCF2
:1021D00010340823019305230093002300227C4937
:1021E000204601F0F5FB10340823019305230093EA
:1021F000002300227649204601F0EAFB1034082330
:10220000019305230093002300227149204601F029
:10221000DFFB04F110000823019305230093002342
:1022200000226B4901F0D4FB3C1D082301930523D8
:102230000093002300226749204601F0C9FB1034B7
:1022400008230193052300930023002261492046BF
:1022500001F0BEFB103408230193052300930023F3
:1022600000225C49204601F0B3FB1034082301939F
:1022700005230093002300225649204601F0A8FBC5
:1022800010340823019305230093002300225149B1
:10229000204601F09DFB1034082301930523009391
:1022A000002300224B49204601F092FB1034082302
:1022B000019305230093002300224649204601F0A4
:1022C00087FB103408230193052300930023002289
:1022D0004049204601F07CFB10340823019305237C
:1022E0000093002300223B49204601F071FB04F1DA
:1022F0001000082301930523009300230022354991
:1023000001F066FB002387F8AA31002387F8CB3160
:10231000002387F8CA31002387F8C931052387F8DD
:10232000C8310023C7F8C4310023C7F8C0310023E7
:10233000C7F8BC310423C7F8B8310223A7F8B63177
:102340000123A7F8B431002387F8B3310123C7F87C
:10235000A43100230193B0230093B0230022002175
:102360001D48FEF7A7FB002302934FF6FF7301936E
:10237000282300930A230A2218491748FEF7BCFEB7
:10238000002302934FF6FF7301933C2300930A232B
:102390000F2213491048FEF7AFFE002302934FF6B9
:1023A000FF730193502300930A2310220D490A481A
:1023B000FEF7A2FE002302934FF6FF7301936423FE
:1023C00000930A2310E000BF4C0100202C510008AC
:1023D000A4510008F4510008040000203453000800
:1023E00040530008505300080B2278497848FEF704
:1023F00083FE4FF47A71764802F043F9D7F8B8318A
:10240000002B40F372850023C7F8BC31002387F806
:10241000AA3100230193DC230093B0230022002182
:102420006B48FEF747FB0023C7F8AC31D7F8B8314B
:10243000C3F10A03D7F8AC219A420EDA07F582728B
:10244000D7F8AC311B011344184601F0E4FAD7F871
:10245000AC310133C7F8AC31E8E707F582730322EA
:102460000021184601F03CFB07F58273103303226C
:102470000F21184601F034FB07F582732033032245
:102480001E21184601F02CFB07F58273303303221E
:102490002D21184601F024FB07F5827340330322F7
:1024A0003C21184601F01CFB07F5827350330322D0
:1024B0004B21184601F014FB07F5827360330322A9
:1024C0005A21184601F00CFB07F582737033032282
:1024D0006921184601F004FB07F58273803303225B
:1024E0007821184601F0FCFA07F582739033032235
:1024F0008721184601F0F4FA0023C7F8AC31D7F869
:10250000AC31092B0DDC3A1DD7F8AC311B0113445B
:10251000184601F0C3FAD7F8AC310133C7F8AC3133
:10252000EDE70023C7F8AC31D7F8AC31042B0EDC53
:1025300007F1A402D7F8AC311B011344184601F08F
:10254000ADFAD7F8AC310133C7F8AC31ECE7002372
:1025500002934FF6FF730193D223009305230522C4
:102560001C491B48FEF7C8FDD7F8B8319BB2C3F130
:10257000050399B2002301934FF6FF730093D22312
:102580003C221348FEF744FE97F8C831C7F8AC3137
:10259000D7F8AC31002B1FDDD7F8AC319BB21A460F
:1025A0001B01D31A9BB2B03399B24FF6610301936A
:1025B0000A2300930A23D2220548FEF77BFAD7F8B4
:1025C000AC31013BC7F8AC31E2E700BF645300080F
:1025D0000400002070530008002387F8AA3100236C
:1025E00087F8CB31002387F8C9310023C7F8C431FD
:1025F0000023C7F8BC310223A7F8B63107F1F40372
:10260000184601F008FAD7F8BC31002B40F03F849F
:1026100007F1F403184601F021FACD48FEF7E8FF70
:10262000034603F00203002B14BF01230023DBB297
:10263000002B21D007F1F403184604F0C2F803463A
:10264000A42B94BF01230023DBB2002B14D007F18D
:10265000F403184604F0B5F8034602339CB207F1C0
:10266000F403184604F0B8F803461A4607F1F403D9
:102670002146184601F034FAB548FEF7B9FF034683
:1026800003F00103002B14BF01230023DBB2002B56
:1026900021D007F1F403184604F093F80346012B08
:1026A0008CBF01230023DBB2002B14D007F1F4030D
:1026B000184604F086F80346023B9CB207F1F40387
:1026C000184604F089F803461A4607F1F403214638
:1026D000184601F005FA00F095FC0346002B14BFE4
:1026E00001230023DBB2002B69D0002387F8CB3114
:1026F00097F8CB31042B62D897F8CB3107F1A402BD
:102700001B011344184604F08AF80346002B0CBF43
:1027100001230023DBB2002B4BD097F8CB3107F11C
:10272000A4021B011344184601F075F997F8CB3148
:1027300007F1A4021B01D51807F1F403184604F0B1
:1027400040F803461C4607F1F403184604F04FF81E
:1027500003465B08DBB29BB223449CB297F8CB31B3
:1027600007F1A4021B011344184604F040F8034685
:102770005B08DBB29BB2E31A9CB207F1F403184684
:1027800004F02AF803461E4697F8CB3107F1A4025D
:102790001B011344184604F036F803465B08DBB20D
:1027A0009BB2F31A9BB21A462146284601F098F9CB
:1027B00005E097F8CB31013387F8CB3198E7002358
:1027C00087F8CB3197F8CB31042B00F2C38097F810
:1027D000CB3107F1A4021B011344184603F0FCFFA0
:1027E0000346002B0DD097F8CB3107F1A4021B0153
:1027F0001344184604F013F80346002B01D00123BC
:1028000000E00023002B00F0828097F8CB3107F125
:10281000A4021B01D41897F8CB3107F1A4021B01C5
:102820001344184603F0CDFF03461D4697F8CB31FD
:1028300007F1A4021B011344184603F0CDFF034621
:10284000023B9BB21A462946204601F049F9002373
:1028500087F8C93197F8C931092B72D897F8C9316F
:1028600007F582721B01D41897F8CB3107F1A40247
:102870001B011344184603F0A4FF03461D4697F8B6
:10288000CB3107F1A4021B011344184603F0A4FF47
:1028900003461A462946204601F062F90346002BFA
:1028A00014BF01230023DBB2002B2AD097F8C931D3
:1028B00007F582721B011344184601F0EFF897F8F0
:1028C000CB3107F1A4021B011344184601F0E6F8CE
:1028D00097F8CB3107F1A4021B011344184603F00B
:1028E00070FF03461C4697F8CB3107F1A4021B0189
:1028F0001344184603F070FF03461946204600F0C3
:1029000041FB97F8C931013387F8C931A2E797F83D
:10291000CB3107F1A4021B011344184603F07FFFDB
:102920000346002B14BF01230023DBB2002B08D089
:1029300097F8CB3107F1A4021B011344184601F0AC
:10294000ADF897F8CB31013387F8CB313AE700BFC8
:10295000440100200A2387F8B331002387F8CA31E5
:1029600097F8CA31092B00F22D8197F8CA313A1D28
:102970001B011344184603F02FFF0346C72B0CD846
:1029800097F8CA313A1D1B011344184603F047FF5C
:102990000346002B01D0012300E00023002B00F0B0
:1029A000EA8097F8CA313A1D1B01D41897F8CA314A
:1029B0003A1D1B011344184603F003FF03461D464E
:1029C00097F8CA313A1D1B011344184603F004FF5F
:1029D000034602339BB21A462946204601F080F88E
:1029E00097F8CA313A1D1B011344184603F0E9FE5B
:1029F00003461C4697F8CA313A1D1B01134418467A
:102A000003F0F5FE03465B08DBB29BB223449CB2A5
:102A100097F8CA313A1D1B011344184603F0DCFE37
:102A200003461D4697F8CA313A1D1B011344184648
:102A300003F0E9FE03465B08DBB29BB22B449AB27B
:102A400007F1F4032146184601F08AF80346002BEB
:102A500014BF01230023DBB2002B00F0AD8007F18F
:102A6000F403184603F0ADFE03461C4607F1F403D9
:102A7000184603F0B1FE03461946204600F082FADC
:102A800097F8C831013B87F8C83197F8CA313A1D29
:102A90001B011344184601F001F897F8C831002BC8
:102AA0003ED100230193DC230093B02300220021B8
:102AB000A048FDF7FFFF002302934FF6FF73019339
:102AC00064230093282309229B499A48FEF714FBAC
:102AD000002302934FF6E0730193782300930823B9
:102AE0000F2296499348FEF707FB00F08BFA034646
:102AF000002B0CBF01230023DBB2002B04D00A21E2
:102B00008C4801F0BEFDF0E700F07CFA0346002B94
:102B100014BF01230023DBB2002B00F02482F3E773
:102B2000002301930A2300937823D2226521814850
:102B3000FDF7C0FF97F8C831C7F8AC31D7F8AC3112
:102B4000002B39DDD7F8AC319BB21A461B01D31AE2
:102B50009BB2B03399B24FF6610301930A230093FD
:102B60000A23D2227348FDF7A5FFD7F8AC31013B09
:102B7000C7F8AC31E2E797F8CA313A1D1B0113449C
:102B8000184603F04CFE0346002B14BF012300231C
:102B9000DBB2002B07D097F8CA313A1D1B01134452
:102BA000184600F07BFF97F8B331002B04D097F85C
:102BB000B331013B87F8B33197F8CA31013387F855
:102BC000CA31CDE60023C7F8C4310023C7F8C031AD
:102BD0000123C7F8BC31002387F8C93197F8C93100
:102BE000092B00F23C8197F8C93107F582721B016D
:102BF0001344184603F013FE0346002B14BF0123B1
:102C00000023DBB2002B00F0248197F8B321D7F822
:102C1000B831C3F10A039A4280F29280002387F808
:102C2000CA31002387F8AB3197F8CA31092B00F27B
:102C3000878097F8AB31002B40F0828097F8CA313B
:102C40003A1D1B011344184603F0E9FD0346002B0F
:102C500009D1322200213748FEF75EFB0346002BE4
:102C600001D1012300E00023002B5CD097F8B331A1
:102C7000013387F8B33197F8CA313A1D1B01134469
:102C8000184600F0C8FE97F8CA313A1D1B01D51846
:102C900097F8C93107F582721B011344184603F0F7
:102CA00090FD03461C4697F8C93107F582721B0157
:102CB0001344184603F09BFD03465B08DBB29BB24E
:102CC00023449CB297F8CB3107F1A4021B011344B3
:102CD000184603F08CFD03465B08DBB29BB2E31A97
:102CE0009CB297F8C93107F582721B01134418464C
:102CF00003F072FD03461E4697F8CB3107F1A4029C
:102D00001B011344184603F07EFD03465B08DBB24B
:102D10009BB233449BB21A462146284600F0E0FE9F
:102D2000012387F8AB3197F8CA31013387F8CA31EC
:102D30007AE700BF0400002078530008845300089D
:102D40000023C7F8BC3197F8C93107F582721B011F
:102D5000D41897F8C93107F582721B01134418463D
:102D600003F02FFD03461A46B7F8B63113449DB25F
:102D700097F8C93107F582721B011344184603F016
:102D80002BFD03461A46B7F8B43113449BB21A46DA
:102D90002946204600F0A4FE97F8C93107F5827253
:102DA0001B011344184603F00CFD03461C4697F81C
:102DB000C93107F582721B011344184603F017FD51
:102DC0000346C3F1B0039C42ACBF01230023DBB236
:102DD000002B02D00123C7F8C43197F8C93107F599
:102DE00082721B011344184603F0EBFC0346002BD0
:102DF0000CBF01230023DBB2002B02D00123C7F854
:102E0000C43197F8C93107F582721B011344184683
:102E100003F0E2FC0346782B8CBF01230023DBB2D6
:102E2000002B16D00123C7F8C03197F8C93107F538
:102E300082721B011344184603F0CEFC0346022B9A
:102E400094BF01230023DBB2002B02D00123C7F87B
:102E5000C03197F8C931013387F8C931BEE6D7F8D8
:102E6000C431002B04D0B7F8B6315B42A7F8B631B5
:102E7000D7F8C031002B04D0B7F8B4315B42A7F8C3
:102E8000B4310F213B4801F0FCFBFFF7BCBBD7F886
:102E9000BC31012B7FF4B2AAD7F8B831002B7FF7F1
:102EA000ADAAD7F8B831013BC7F8B8310023029377
:102EB0004FF6FF730193D2230093052305222E4979
:102EC0002C48FEF719F9D7F8B8319BB2C3F10503C6
:102ED00099B2002301934FF6FF730093D2233C2253
:102EE0002448FEF795F9FFF789BA1F230193DC23E5
:102EF0000093B023002200211E48FDF7DBFD1F23B5
:102F000002934FF6E0730193642300932823082271
:102F10001A491848FEF7F0F81F2302934FF6E073A2
:102F200001937823009308230F2215491148FEF7D7
:102F3000E3F800F067F80346002B0CBF01230023E1
:102F4000DBB2002B04D00A210A4801F09AFBF0E71B
:102F500000F058F80346002B14BF01230023DBB216
:102F6000002B02D0F4E700BF00E000BF07F5EA77CE
:102F7000BD46F0BD040000207053000894530008C3
:102F80008453000880B588B002AF03460A46FB8030
:102F90001346BB80FB88053B9AB2BB88063B99B2BF
:102FA00007F108000C2301930A2300930B461249F2
:102FB00000F00EFD07F10803184600F02CFD322248
:102FC0004FF4FA610D4800F03DFC32210C4801F04D
:102FD00058FB32224FF4FA71084800F033FC3221DA
:102FE000074801F04EFB07F10803184600F056FDB4
:102FF00000BF1837BD4680BD445200084001002084
:103000000400002080B500AF0E48FEF7F1FA034639
:1030100003F00403002B14BF01230023DBB2002BB9
:103020000AD0094B1B68002B04D1074B01221A6000
:10303000012305E0002303E0034B00221A60002374
:10304000184680BD44010020AC02002080B500AFCE
:103050000B4B1B6801330A4A1360094B1B68B3F51D
:103060007A7F05DD0748FEF7B1FA054B00221A60AA
:10307000012200210448FEF74FF900BF80BD00BFC8
:10308000B0020020440100200400002080B500AF01
:103090000249034801F0ACFA00BF80BD4D30000882
:1030A0000400002080B586B004AF00237B600023BD
:1030B0000193DC230093B023002200217248FDF726
:1030C000F9FC002302934FF6E0730193322300933F
:1030D0003A2305226D496C48FEF70EF8002302934F
:1030E0004FF6E0730193462300933A230522684983
:1030F0006548FEF701F8002302934FF6E073019351
:103100005A2300933A23052262495F48FDF7F4FFF2
:10311000002302934FF6E7130193782300930523CE
:103120000E225D495848FDF7E7FF0023029341F660
:10313000E37301938C2300930523102257495248CF
:10314000FDF7DAFF0023029341F6FF030193A0236A
:10315000009305230F2252494B48FDF7CDFF002372
:1031600002934FF6FF730193C823009305231222A5
:103170004C494548FDF7C0FF0D234B4A4B494C488D
:1031800000F0D5FB00233B603B680C2B13DC474A67
:103190003B6832F813301946464800F022FA464997
:1031A000444800F063FA6421374801F06AFA3B684A
:1031B00001333B60E8E77B68002B61D13F48FEF7B5
:1031C00017FA0346012B0CBF01230023DBB2002BAF
:1031D00013D001237B60FCF7ABFF3848FEF708FAF9
:1031E0000346002B14BF01230023DBB2002B04D0C5
:1031F0006421254801F045FAEFE73048FEF7F8F979
:103200000346022B0CBF01230023DBB2002B13D09B
:1032100001237B60FEF738FF2848FEF7E9F90346F3
:10322000002B14BF01230023DBB2002B04D0642148
:10323000154801F026FAEFE72048FEF7D9F90346D2
:10324000042B0CBF01230023DBB2002B13D001237E
:103250007B6000F049FD1948FEF7CAF90346002BD0
:1032600014BF01230023DBB2002B04D064210648E5
:1032700001F007FAEFE76421034801F002FA9AE748
:1032800000BF0837BD4680BD04000020FC5C00087C
:10329000045D00080C5D0008145D0008245D000852
:1032A000385D0008485D0008BC530008A0530008C2
:1032B00040010020280000205C5D0008440100203F
:1032C00080B487B000AFF860B9601346FB80FB683C
:1032D0007B61BB683B61FB885B08FB80FB88002B44
:1032E00047D0274B274A5A60254B274A5A60244B20
:1032F0001B69234A23F002031361214B1B69204AF7
:1033000043F0010313613A697B6912881A801C4BF0
:10331000DB6803F00103002B14BF01230023DBB2A1
:10332000002B00D0F3E7164BDB6803F00403002BFF
:1033300014BF01230023DBB2002B02D04FF0FF3378
:1033400018E00F4BDB6803F01003002B14BF0123C0
:103350000023DBB2002B02D06FF001030AE07B698F
:1033600002337B613B6902333B61FB88013BFB809D
:10337000B4E7002318461C37BD4680BC704700BF29
:103380000020024023016745AB89EFCD80B483B0B4
:1033900000AF7860154B164A5A60144B154A5A60B4
:1033A000124B1B69114A23F0010313610F4B1B6978
:1033B0000E4A43F0020313610C4A7B6853610B4BC6
:1033C0001B690A4A43F040031361084BDB6803F0B2
:1033D0000103002B14BF01230023DBB2002B00D01C
:1033E000F3E700BF0C37BD4680BC704700200240A9
:1033F00023016745AB89EFCD80B487B000AFF8609B
:10340000B9601346FB80FB687B61BB683B61FB884E
:103410005B08FB80FB88002B0DD07B691A883B6919
:103420001A803B6902333B617B6902337B61FB8815
:10343000013BFB80EEE700BF1C37BD4680BC7047F8
:1034400080B485B000AF78604FF41653FB60414AFA
:103450007B68136072B67B680022C3F89420002357
:103460007A68C2F890307A68C2F88C307B680022A3
:103470009A6000237A6853607A681360364B9B69C0
:10348000354A43F004039361334BDB69324A43F41A
:103490000033D361314B1B68304A23F480731360CF
:1034A0002E4B1B682D4A43F4007313602B4B1B6893
:1034B0002A4A23F480631360284B1B68274A43F48D
:1034C00000631360254B1B68244A23F440531360A8
:1034D000224B1B68214A23F4804313601F4B1B6857
:1034E0001E4A43F4004313601D4BBB60BA68FB687F
:1034F00092FBF3F3BB60184B1B69174A23F40033AC
:103500001361184B0022DA60164B00221A61154B2A
:1035100000225A61134ABB689360124BDB68114A60
:1035200043F06C03D3600F4BDB680E4A43F4005347
:10353000D3604FF0E023D3F804314FF0E02243F0A2
:103540004003C2F8043162B600BF1437BD4680BCE8
:10355000704700BFB8020020001002400008014080
:1035600000A24A040044004080B582B000AF7860F9
:103570000B46FB70124BDB6803F00803002B0CBFFB
:1035800001230023DBB2002B0FD00D4BDB680C4A6C
:1035900043F00803D3607B681946786800F0A6F80A
:1035A00003461A46064B5A6005E07B68FA781946CE
:1035B000786800F072F800BF0837BD4680BD00BFD4
:1035C0000044004080B582B000AF78607B688C33E7
:1035D0001946786800F08AF8034618460837BD4651
:1035E00080BD80B586B000AF786039600A237B610A
:1035F0000023FB743B68002B05DA2D233B723B68EC
:103600005B423B6001E02B233B727B69002B20DD9A
:103610003A68154B83FB02139910D317C91A0B464E
:103620009B000B445B00D11ACBB23033D9B207F107
:1036300008027B6913440A461A703B680A4A82FBF7
:1036400003129210DB17D31A3B607B69013B7B614D
:10365000DBE707F108031946786800F007F800BFB8
:103660001837BD4680BD00BF6766666680B582B00C
:1036700000AF786039603B681B78002B09D03B684D
:103680001B7819467868FFF76FFF3B6801333B6092
:10369000F1E700BF0837BD4680BD80B485B000AFFC
:1036A000F860B9601346FB71BB689B687F2B94BFC1
:1036B00001230023DBB2002B13D072B6BB689B68DA
:1036C0005A1CBB689A60BB681B68BA681344FA79D5
:1036D0001A73BB681B68013303F07F02BB681A6072
:1036E00062B600BF1437BD4680BC704780B485B059
:1036F00000AF786039600023FB733B689B68002B48
:1037000014BF01230023DBB2002B13D072B63B6839
:103710009B685A1E3B689A603B685B683A68134432
:103720001B7BFB733B685B68013303F07F023B68E4
:103730005A6062B6FB7B18461437BD4680BC7047A2
:1037400080B500AF284B1B6803F04003002B14BF6B
:1037500001230023DBB2002B2DD0244B1B689B6878
:10376000002B14BF01230023DBB2002B0CD01F4B16
:103770001A681E4B1B6819461046FFF7B7FF034631
:103780001A46194B5A6016E0174BDB68164A23F0AD
:103790000803D360144B1B6803F04003002B14BFD5
:1037A00001230023DBB2002B05D00F4B1B680E4A10
:1037B00023F0400313600C4B1B6803F02003002B25
:1037C00014BF01230023DBB2002B0BD0074B18687A
:1037D000064B1B6803F18C01034B5B68DBB21A4696
:1037E000FFF75BFF00BF80BD00440040B80200202F
:1037F00080B483B000AF78600F4A7B6813600F4BD2
:10380000DB690E4A43F00203D3610C4B9B690B4A00
:1038100043F0080393610A4B00221A60084B6022B0
:10382000DA61074B1B6A064A43F48073136200BFD8
:103830000C37BD4680BC7047BC020020001002401F
:103840000004004080B483B000AF78600B467B80FA
:1038500013463B801A4B1B68194A23F00F03136071
:10386000174B1B68164A43F00A031360154B1B687D
:10387000144A23F001031360124B40F24A429A6249
:10388000104B9B6A104AB2FBF3F27B880D49B2FBE6
:10389000F3F3CB620B4BDB6A0A4A5B08D363094B39
:1038A00000225A62074B1B68064A43F0010313606B
:1038B0003A887B681A6000BF0C37BD4680BC7047F1
:1038C000000C01400004004000A24A0480B400AF94
:1038D0000A4B1B68094A23F001031360084B1B685D
:1038E000074A23F00F031360054B1B68044A43F09B
:1038F0000403136000BFBD4680BC70470004004055
:10390000000C014080B483B000AF78607B681B6816
:10391000002B14BF01230023DBB2002B01D00123B5
:1039200000E0002318460C37BD4680BC704780B5C8
:1039300086B000AFF860B9607A603B6000237B61BD
:103940007A693B689A421DDAF868FFF7DBFF0346A5
:10395000002B14BF01230023DBB2002B00D0F3E7C0
:103960007B695B00BA68134419887B695B007A68DD
:1039700013441B881A46F868FFF764FF7B6901331C
:103980007B61DDE700BF1837BD4680BD80B500AF65
:103990000E4B1B681B68002B14BF01230023DBB2F6
:1039A000002B10D0094B1B681A68013A1A60074BAC
:1039B0001B681B68002B0CBF01230023DBB2002B0C
:1039C00001D0FFF783FF00BF80BD00BFBC02002015
:1039D00080B485B000AFF860B96011461A460B4656
:1039E000FB801346BB80FB68FA881A81FB68BA88A3
:1039F0005A81FB683A8B1A80FB68BA8B5A80FB6845
:103A0000BA685A60FB6800221A73FB6818461437BC
:103A1000BD4680BC704790B585B002AF78607B68CA
:103A20001B7B002B10D17B6819897B6858897B68C8
:103A30001C887B685B887A685268019200932346F1
:103A400002460548FDF73AFB7B6801221A7300BF66
:103A50000C37BD4690BD00BF0400002090B585B076
:103A600002AF78607B681B7B002B10D07B681989C4
:103A70007B6858897B681C887B685B887A68526899
:103A800001920093234602460348FDF717FB00BF4F
:103A90000C37BD4690BD00BF0400002090B585B036
:103AA00002AF78607B681B7B002B0FD07B68198985
:103AB0007B6858897B681C887B685B880022019240
:103AC0000093234602460548FCF7F4FF7B6800227A
:103AD0001A7300BF0C37BD4690BD00BF0400002024
:103AE00090B585B002AF78600B467B8013463B8073
:103AF0007B681B7B002B27D07B6819897B685889E2
:103B00007B681C887B685B880022019200932346B7
:103B100002461248FCF7CEFF7B687A881A817B68E0
:103B20003A885A817B6819897B6858897B681C8828
:103B30007B685B887A68526801920093234602464C
:103B40000648FDF7BBFA05E07B687A881A817B6836
:103B50003A885A8100BF0C37BD4690BD0400002052
:103B600080B483B000AF78600B467B8013463B8007
:103B70007B681B7B002B01D1002320E07B681B8925
:103B80007A889A421AD37A887B681B8919467B689F
:103B90001B880B449A4211DA7B685B893A889A4207
:103BA0000AD33A887B685B8919467B685B880B443B
:103BB0009A4201DA012302E0002300E000231846C4
:103BC0000C37BD4680BC704780B483B000AF7860CE
:103BD0000B467B8013463B807B681B7B002B01D10F
:103BE00000235EE07B685B893A889A420FD17B684C
:103BF0001B897A889A420AD37A887B681B8919467E
:103C00007B681B880B449A4201DA012349E07B68F8
:103C10001B897A889A420FD17B685B893A889A42DD
:103C20000AD33A887B685B8919467B685B880B44BA
:103C30009A4201DA022334E03A887B685B891946AC
:103C40007B685B880B44013B9A420FD17B681B89E0
:103C50007A889A420AD37A887B681B8919467B68DE
:103C60001B880B449A4201DA03231AE07A887B68A6
:103C70001B8919467B681B880B44013B9A420FD174
:103C80007B685B893A889A420AD33A887B685B8969
:103C900019467B685B880B449A4201DA042300E0F2
:103CA000002318460C37BD4680BC704780B582B0F3
:103CB00002AF00230193DC230093B02300220021F4
:103CC0000848FCF7F7FE4FF6FF730193DC230093DF
:103CD000B023002200210348FCF70AFF00BFBD46C5
:103CE00080BD00BF04000020B0B59AB004AF704B97
:103CF0003B640023FB640023BB646E4B3C461D46C3
:103D00000FCD0FC40FCD0FC495E8070084E807005E
:103D10000023FB630E23BB6300237B64BA6B134653
:103D20005B0013449B0004337B630023FB6400238C
:103D30000193DC230093B023002200215E48FCF7AE
:103D4000B9FE00237B657B6D0B2B51DC00233B65AB
:103D50003B6D092B48DC3B6D9BB2BA6B92B202FB08
:103D600003F399B27B6D9BB2BA6B92B202FB03F381
:103D700098B2BB6B9CB2BB6B9BB24FF6FF720192C9
:103D80000093234602464C48FCF7B2FE3B6D9BB2C3
:103D9000BA6B92B202FB03F39BB2013398B27B6D14
:103DA0009BB2BA6B92B202FB03F39BB201339CB29B
:103DB000BB6B9BB2023B9DB2BB6B9BB2023B9BB207
:103DC000FA6C5200396C0A441288019200932B4617
:103DD000224601463848FCF76DFEFB6C0133FB645C
:103DE0003B6D01333B65B3E77B6D01337B65AAE730
:103DF00000237B657B6D012B60DC00233B653B6D05
:103E00000A2B51DC3B6D9BB2BA6B92B202FB03F3FF
:103E100099B27B6D9BB2BA6B92B202FB03F39AB27A
:103E20007B6B9BB2134498B2BB6B9CB2BB6B9BB2D7
:103E30004FF6FF7201920093234602461E48FCF79C
:103E400057FE3B6D9BB2BA6B92B202FB03F39BB27F
:103E5000013399B27B6D9BB2BA6B92B202FB03F352
:103E60009AB27B6B9BB213449BB2013398B2BB6B8B
:103E70009BB2023B9CB2BB6B9BB2023B9AB2BB6C47
:103E80005B0007F158052B4433F8583C019300922E
:103E9000234602460848FCF70DFEBB6C0133BB64A9
:103EA0003B6D01333B65AAE77B6D01337B65A1E781
:103EB0004C0100201C610008040000200023029334
:103EC0004FF6FF730193D423009300231322A849D4
:103ED000A848FDF711F90023BB647B6C002B40F070
:103EE0004281A548FDF7E8FB03461A46B02303FBD1
:103EF00002F3A24A82FB03129211DB17D31A3B632F
:103F00009D48FDF755FC03461A46DC2303FB02F3EC
:103F10009A4A82FB03129211DB17D31AFB623B6BA6
:103F200019469748FFF75DFB96499548FFF79EFBBA
:103F3000FB6A19469248FFF754FB93499048FFF7F4
:103F400095FB3B6BAF2B00F2DC80FB6ADB2B00F2B6
:103F5000D8807B6BFA6A9A4226D3BB6B5A007B6B84
:103F600013441A46FB6A93421ED8BA6B13469B0051
:103F700013445B0013441A463B6B934214D27B6B91
:103F8000FA6AD21ABB6BB2FBF3F213469B001344DE
:103F90005B001A44BB6B396BB1FBF3F31344BB6496
:103FA000B96C7748FFF71DFB77497548FFF75EFB53
:103FB000BB6B01339BB21A46920013445B0099B26B
:103FC000BB6B98B2BB6B9BB24FF6FF720192009332
:103FD00003466E226748FCF78BFDBB6B9BB21A460B
:103FE000920013445B009BB20B3399B2BB6B9BB244
:103FF000023B98B2BB6B9BB2023B9AB2BB6C5B00BC
:1040000007F15804234433F8583C019300920346C7
:104010006F225848FCF74EFDBA6B13465B00134401
:104020009B001A46FB6A93426BD8BA6B13469B00FF
:1040300013445B001A463B6B934262D8BB6BFA6A2F
:10404000B2FBF3F37B65BB6B3A6BB2FBF3F33B65FF
:104050007A6D13469B0013445B001A463B6D134474
:10406000FB647B6D0B2B4CDC3B6D092B49DCFB6C43
:104070005B003A6C1A44BB6C5B0007F158010B44BF
:1040800033F8583C13803B6D9BB2BA6B92B202FB83
:1040900003F39BB2013398B27B6D9BB2BA6B92B2C1
:1040A00002FB03F39BB201339CB2BB6B9BB2023B9E
:1040B0009DB2BB6B9BB2023B9BB2FA6C5200396C57
:1040C0000A441288019200932B4622460146294851
:1040D000FCF7F0FCBB6B9BB21A46920013445B00EA
:1040E0009BB20B3399B2BB6BC3F137039BB25B003E
:1040F0009AB23B6C01930C2300930A231D48FCF7F2
:10410000DDFF1D48FDF774FA0346FB6332211948B1
:1041100000F0B7FAFB6B022B06D0042B1CD0012B4E
:1041200020D101237B641DE00023FB64FB6C9F2BEB
:104130000CD8FB6C5B003A6C13441449FA6C31F8F0
:1041400012201A80FB6C0133FB64EFE7104800F08B
:1041500081F901237B6405E00D4800F07BF9012320
:104160007B6400BFB9E600BF5837BD46B0BD00BF95
:10417000006100080400002044010020D34D6210BB
:10418000280000201461000818610008085E00087B
:104190004C01002080B584B000AF7860154A7B6880
:1041A000C3F84C21786800F0F7F802467B68C3F842
:1041B00050217B68D3F85031002B03D0786800F091
:1041C000B9F913E00023FB60FB68772B0BD80A4A90
:1041D000FB6832F813107B68FA6823F81210FB684A
:1041E0000133FB60F0E7786800F034F900BF103766
:1041F000BD4680BD00FC00088061000880B489B025
:1042000000AFF860B9607A607B800023FB61BB6817
:10421000BB617B687B617B885B087B8072B67B8837
:10422000002B49D0294B2A4A5A60284B294A5A6008
:10423000264B1B69254A23F002031361234B1B699C
:10424000224A43F0010313617A69BB6912881A801C
:104250001E4BDB6803F00103002B14BF0123002376
:10426000DBB2002B00D0F3E7184BDB6803F004034C
:10427000002B14BF01230023DBB2002B03D04FF02F
:10428000FF33FB6118E0114BDB6803F01003002BD8
:1042900014BF01230023DBB2002B03D06FF0010316
:1042A000FB6109E0BB690233BB617B6902337B615F
:1042B0007B88013B7B80B2E7044B00225A6062B6E8
:1042C000FB6918462437BD4680BC70470020024079
:1042D00023016745AB89EFCD80B483B000AF786030
:1042E000396072B6174B184A5A60164B174A5A6013
:1042F000144B1B69134A23F001031361114B1B6913
:10430000104A43F0020313610E4A3B6853610D4BA0
:104310001B690C4A43F0400313610A4BDB6803F04E
:104320000103002B14BF01230023DBB2002B00D0BC
:10433000F3E7044B00225A6062B600BF0C37BD465B
:1043400080BC70470020024023016745AB89EFCD58
:1043500080B487B000AFF860B9607A607B80BB68DA
:104360007B617B683B617B885B087B807B88002B63
:104370000DD07B691A883B691A803B6902333B6127
:104380007B6902337B617B88013B7B80EEE700BF6A
:104390001C37BD4680BC704780B485B000AF7860E4
:1043A0007B68D3F84C31FB607B68D3F84C217B6889
:1043B000D3F8483113441A46FB68934244D2FB6851
:1043C0001A787B6893F840319A4239D1FB680133FF
:1043D0001A787B6893F841319A4231D1FB680233F5
:1043E0001A787B6893F842319A4229D1FB680333EB
:1043F0001A787B6893F843319A4221D1FB680433E1
:104400001A787B6893F844319A4219D1FB680533D6
:104410001A787B6893F845319A4211D1FB680633CC
:104420001A787B6893F846319A4209D1FB680733C2
:104430001A787B6893F847319A4201D1FB6804E00F
:10444000FB680133FB60AFE7002318461437BD4615
:1044500080BC704780B586B000AF78607B68D3F8C9
:104460005031002B46D04FF4A4737B617B6903F07D
:104470000103002B02D07B6901337B617B68D3F899
:1044800050217B691A447B68D3F84C117B68D3F8C0
:1044900048310B449A421FD80023FB8100233B6123
:1044A0003A697B699A420ED27B68D3F850213B6906
:1044B000D11807F10E0202237868FFF79FFE3B69CF
:1044C00002333B61ECE77B68D3F850217B691A44E7
:1044D0007B68C3F8502113E07B68D3F84C31194650
:1044E0007868FFF7F9FE7B68D3F84C217B68C3F846
:1044F000502105E07B68D3F84C217B68C3F850213C
:104500007B68D3F850117B6803F5A07208237868A4
:10451000FFF774FE7B68D3F8503103F108017A6825
:104520004FF4A0737868FFF769FE00231846183728
:10453000BD4680BD80B582B000AF78607B68D3F89F
:104540005031002B0CD07B68D3F8503103F10801B7
:104550007A684FF4A0737868FFF7FAFE002301E051
:104560004FF0FF3318460837BD4680BD80B582B096
:1045700000AF78607B68D3F84C3119467868FFF754
:10458000ABFE7B680022C3F8502100BF0837BD4650
:1045900080BD00BF80B485B000AF7860114A7B68F1
:1045A00013600023FB60FB68072B09DC7A68FB685B
:1045B0009B00134400225A60FB680133FB60F2E762
:1045C000094B1B68084A43F007031360064B074A70
:1045D0005A60054B05229A6062B600BF1437BD468B
:1045E00080BC7047C002002010E000E03F190100CD
:1045F00080B485B000AF786039600023FB60FB6851
:10460000072B12DC7A68FB689B0013445B68002B65
:1046100007D17A68FB689B0013443A685A6000230C
:1046200005E0FB680133FB60E9E74FF0FF33184614
:104630001437BD4680BC704780B485B000AF786049
:1046400039600023FB60FB68072B13DC7A68FB688A
:104650009B0013445B683A689A4207D17A68FB680A
:104660009B00134400225A60002305E0FB680133DD
:10467000FB60E8E74FF0FF3318461437BD4680BCB7
:10468000704780B483B000AF786039603B68002B1E
:1046900009D07B6800221A607B681B683A689A42DE
:1046A00001D930BFF8E700BF0C37BD4680BC70476A
:1046B00080B582B000AF104B1B681A6801321A60D7
:1046C00000237B607B68072B12DC0B4B1A687B682E
:1046D0009B0013445B68002B06D0074B1A687B686D
:1046E0009B0013445B6898477B6801337B60E9E774
:1046F00000BF0837BD4680BDC00200204914000835
:10470000450C750FC50D5F10750F60125F10450CDD
:10471000450C6012450C6012450C0000C800C80032
:10472000C800C800C800C800C800C800C800C80049
:10473000C800C800C800000001000100010001001D
:104740000100010001000100010001000100010061
:104750000100010001000100010001000100010051
:1047600001000100010001000100E6FFE6FFE6FF95
:10477000E6FFE6FFE6FFE6FFE6FFE6FFE6FFE6FF11
:10478000E6FFE6FFE6FFE6FFE6FFE6FFE6FFE6FF01
:10479000E6FFE6FFE6FF01000100E6FFE6FFE6FFB9
:1047A000E6FFE6FFE6FFE6FFE6FFE6FFE6FFE6FFE1
:1047B000E6FFE6FFE6FFE6FFE6FFE6FFE6FFE6FFD1
:1047C000E6FFE6FFE6FF01000100E6FFE6FFE6FF89
:1047D000E6FFE6FFE6FFE6FFE6FFE6FFE6FFE6FFB1
:1047E000E6FFE6FFE6FFE6FFE6FFE6FFE6FFE6FFA1
:1047F000E6FFE6FFE6FF01000100E6FFE6FFE6FF59
:10480000E6FFE6FFE6FFE6FFE6FFE6FFE6FFE6FF80
:10481000E6FFE6FFE6FFE6FFE6FFE6FFE6FFE6FF70
:10482000E6FFE6FFE6FF01000100E6FFE6FFE6FF28
:10483000E6FFE6FFE6FFE6FFE6FFE6FFE6FFE6FF50
:10484000E6FFE6FFE6FFE6FFE6FFE6FFE6FFE6FF40
:10485000E6FFE6FFE6FF01000100E6FFE6FFE6FFF8
:10486000E6FFE6FFE6FFE6FFE6FFE6FFE6FFE6FF20
:10487000E6FFE6FFE6FFE6FFE6FFE6FFE6FFE6FF10
:10488000E6FFE6FFE6FF01000100E6FFE6FFE6FFC8
:10489000E6FFE6FFE6FFE6FFE6FFE6FFE6FFE6FFF0
:1048A000E6FFE6FFE6FFE6FFE6FFE6FFE6FFE6FFE0
:1048B000E6FFE6FFE6FF01000100E6FFE6FFE6FF98
:1048C000E6FFE6FFE6FFE6FFE6FFE6FFE6FFE6FFC0
:1048D000E6FFE6FFE6FFE6FFE6FFE6FFE6FFE6FFB0
:1048E000E6FFE6FFE6FF0100010001000100010014
:1048F00001000100010001000100010001000100B0
:10490000010001000100010001000100010001009F
:10491000010001000100010001000100010001008F
:10492000010001000100010001000100010001007F
:10493000010001000100010001000100010001006F
:1049400001000100010001000100C32FC32FC32F8C
:10495000C32FC32FC32FC32FC32FC32FC32FC32FC7
:10496000C32FC32FC32FC32FC32FC32FC32FC32FB7
:10497000C32FC32FC32F01000100C32FC32FC32F89
:10498000C32FC32FC32FC32FC32FC32FC32FC32F97
:10499000C32FC32FC32FC32FC32FC32FC32FC32F87
:1049A000C32FC32FC32F01000100C32FC32FC32F59
:1049B000C32FC32FC32FC32FC32FC32FC32FC32F67
:1049C000C32FC32FC32FC32FC32FC32FC32FC32F57
:1049D000C32FC32FC32F01000100C32FC32FC32F29
:1049E000C32FC32FC32FC32FC32FC32FC32FC32F37
:1049F000C32FC32FC32FC32FC32FC32FC32FC32F27
:104A0000C32FC32FC32F01000100C32FC32FC32FF8
:104A1000C32FC32FC32FC32FC32FC32FC32FC32F06
:104A2000C32FC32FC32FC32FC32FC32FC32FC32FF6
:104A3000C32FC32FC32F01000100C32FC32FC32FC8
:104A4000C32FC32FC32FC32FC32FC32FC32FC32FD6
:104A5000C32FC32FC32FC32FC32FC32FC32FC32FC6
:104A6000C32FC32FC32F01000100C32FC32FC32F98
:104A7000C32FC32FC32FC32FC32FC32FC32FC32FA6
:104A8000C32FC32FC32FC32FC32FC32FC32FC32F96
:104A9000C32FC32FC32F01000100C32FC32FC32F68
:104AA000C32FC32FC32FC32FC32FC32FC32FC32F76
:104AB000C32FC32FC32FC32FC32FC32FC32FC32F66
:104AC000C32FC32FC32F010001000100010001000B
:104AD00001000100010001000100010001000100CE
:104AE00001000100010001000100010001000100BE
:104AF00001000100010001000100010001000100AE
:104B0000010001000100010001000100010001009D
:104B1000010001000100010001000100010001008D
:104B2000010001000100010001005F1E5F1E5F1E09
:104B30005F1E5F1E5F1E5F1E5F1E5F1E5F1E5F1E8D
:104B40005F1E5F1E5F1E5F1E5F1E5F1E5F1E5F1E7D
:104B50005F1E5F1E5F1E010001005F1E5F1E5F1E65
:104B60005F1E5F1E5F1E5F1E5F1E5F1E5F1E5F1E5D
:104B70005F1E5F1E5F1E5F1E5F1E5F1E5F1E5F1E4D
:104B80005F1E5F1E5F1E010001005F1E5F1E5F1E35
:104B90005F1E5F1E5F1E5F1E5F1E5F1E5F1E5F1E2D
:104BA0005F1E5F1E5F1E5F1E5F1E5F1E5F1E5F1E1D
:104BB0005F1E5F1E5F1E010001005F1E5F1E5F1E05
:104BC0005F1E5F1E5F1E5F1E5F1E5F1E5F1E5F1EFD
:104BD0005F1E5F1E5F1E5F1E5F1E5F1E5F1E5F1EED
:104BE0005F1E5F1E5F1E010001005F1E5F1E5F1ED5
:104BF0005F1E5F1E5F1E5F1E5F1E5F1E5F1E5F1ECD
:104C00005F1E5F1E5F1E5F1E5F1E5F1E5F1E5F1EBC
:104C10005F1E5F1E5F1E010001005F1E5F1E5F1EA4
:104C20005F1E5F1E5F1E5F1E5F1E5F1E5F1E5F1E9C
:104C30005F1E5F1E5F1E5F1E5F1E5F1E5F1E5F1E8C
:104C40005F1E5F1E5F1E010001005F1E5F1E5F1E74
:104C50005F1E5F1E5F1E5F1E5F1E5F1E5F1E5F1E6C
:104C60005F1E5F1E5F1E5F1E5F1E5F1E5F1E5F1E5C
:104C70005F1E5F1E5F1E010001005F1E5F1E5F1E44
:104C80005F1E5F1E5F1E5F1E5F1E5F1E5F1E5F1E3C
:104C90005F1E5F1E5F1E5F1E5F1E5F1E5F1E5F1E2C
:104CA0005F1E5F1E5F1E0100010001000100010088
:104CB00001000100010001000100010001000100EC
:104CC00001000100010001000100010001000100DC
:104CD0000100010001000100FFFFFFFFFFFFFFFFD8
:104CE000FFFFFFFFFFFFFFFFFFFFFFFFFFFFFFFFD4
:104CF000FFFFFFFFFFFFFFFFFFFFFFFFFFFFFFFFC4
:104D0000FFFFFFFFFFFFFFFFFFFFFFFFFFFFFFFFB3
:104D1000FFFFFFFFFFFFFFFFFFFFFFFFFFFFFFFFA3
:104D2000FFFFFFFFFFFFFFFFFFFFFFFFFFFFFFFF93
:104D3000FFFFFFFFFFFFFFFFFFFFFFFFFFFFFFFF83
:104D4000FFFFFFFFFFFFFFFFFFFFFFFFFFFFFFFF73
:104D50000000FFFF0000FFFFFFFFFFFF0000FFFF5D
:104D60000000000042726963690000004C657665CE
:104D70006C00000047414D45204F56455200000051
:104D80004669726520746F20726573746172740075
:104D9000564943544F52592100000000450C750FED
:104DA000C50D5F10750F60125F10450C450C601249
:104DB000450C6012450C0000C800C800C800C800BF
:104DC000C800C800C800C800C800C800C800C800A3
:104DD000C80000004D414749433432230000000021
:104DE0000000005F00000007000700147F147F141C
:104DF000242A7F2A12231308646236495522500060
:104E000005030000001C2241000041221C00082A6A
:104E10001C2A0808083E080800503000000808084E
:104E20000808006060000020100804023E51494557
:104E30003E00427F400042615149462141454B318D
:104E40001814127F1027454545393C4A494930011D
:104E5000710905033649494936064949291E003674
:104E600036000000563600000008142241141414C5
:104E700014144122140800020151090632497941F3
:104E80003E7E1111117E7F494949363E4141412202
:104E90007F4141221C7F494949417F090901013E67
:104EA000414151327F0808087F00417F4100204086
:104EB000413F017F081422417F404040407F02046F
:104EC000027F7F0408107F3E4141413E7F0909096E
:104ED000063E4151215E7F0919294646494949311B
:104EE00001017F01013F4040403F1F2040201F7FC4
:104EF0002018207F631408146303047804036151AD
:104F000049454300007F4141020408102041417F90
:104F1000000004020102044040404040000102043D
:104F20000020545454787F48444438384444442042
:104F3000384444487F3854545418087E0901020804
:104F40001454543C7F0804047800447D4000204001
:104F5000443D00007F10284400417F40007C04183D
:104F600004787C0804047838444444387C141414CD
:104F700008081414187C7C0804040848545454206D
:104F8000043F4440203C4040207C1C2040201C3CEE
:104F90004030403C44281028440C5050503C44645D
:104FA000544C44000836410000007F0000004136A8
:104FB000080008082A1C08081C2A08080008040C15
:104FC000020A060E0109050D030B070F450C750FAC
:104FD000C50D5F10750F60125F10450C450C601217
:104FE000450C6012450C0000C800C800C800C8008D
:104FF000C800C800C800C800C800C800C800C80071
:10500000C8000000450C750FC50D5F10750F6012CC
:105010005F10450C450C6012450C6012450C0000F9
:10502000C800C800C800C800C800C800C800C80040
:10503000C800C800C800C800C80000000000000088
:105040000000000000000000000000000000000060
:105050000000000000000000E0FFE0FF0000000092
:1050600000000000000000000000E0FFE0FFE0FFA3
:10507000E0FF0000000000000000E0FFE0FF000093
:10508000E0FFE0FF0000E0FFE0FF00000000E0FFC5
:10509000E0FF0000E0FFE0FF0000E0FFE0FF0000B5
:1050A0000000E0FFE0FFE0FFE0FFE0FFE0FFE0FFE7
:1050B000E0FF00000000E0FFE0FFE0FFE0FFE0FFB6
:1050C000E0FFE0FFE0FF000000000000E0FFE0FF85
:1050D00000000000E0FFE0FF000000000000000012
:1050E000E0FFE0FF00000000E0FFE0FF0000000044
:1050F0000000E0FFE0FF0000000000000000E0FF13
:10510000E0FF0000E0FFE0FFE0FF00000000000023
:105110000000E0FFE0FFE0FF0000000000000000F2
:10512000000000000000000000000000000000007F
:10513000000000000000000000000000000000006F
:105140000000000000000000FFFFFFFF0000000063
:10515000000000000000000000000000FFFFFFFF53
:1051600000000000000000000000FFFFFFFFFFFF45
:10517000FFFFFFFFFFFFFFFFFFFF0000FFFFFFFF3D
:10518000FFFFFFFFFFFFFFFFFFFFFFFFFFFFFFFF2F
:10519000FFFFFFFFFFFFFFFFFFFFFFFFFFFFFFFF1F
:1051A000FFFFFFFF00000000E0070000000000001C
:1051B000E007E007E00700000000E007E007E00785
:1051C00000000000E007E007E00700000000E00743
:1051D000E007E0070000E007E007E007E007E0077E
:1051E000E007E007E007E007E00700000000E0FF5D
:1051F0000000000000000000E0FF000000001F00B1
:105200001F001F001F001F001F001F001F001F00A6
:105210001F0000001F001F001F00000000001F00F3
:105220001F001F00000000001F001F001F000000E3
:1052300000001F001F001F000000000000001F00F2
:1052400000000000000000000000000000F800F86E
:10525000000000000000000000F800000000000056
:1052600000F800F800000000000000F8000000F85E
:105270000000000000F800F80000000000F8000046
:105280000000000000F8000000F800F8000000F83E
:105290000000000000000000000000F800F800F826
:1052A00000F800000000000000F800F800F800F826
:1052B00000F800F800F800F800F800F800F800F82E
:1052C00000F800F800F800F800F800F800F800F81E
:1052D00000000000000000F800F800F800F80000EE
:1052E000000000000000000000F8000000F800F8D6
:1052F000000000F800000000000000F800000000BE
:1053000000F800F80000000000F8000000F80000BD
:105310000000000000F800F800000000000000F8A5
:10532000000000000000000000F800F8000000008D
:10533000000000004D43552047616C61676100002B
:105340004F6E6C792035206D697373696C657300DD
:1053500063616E20626520696E20666C696768749F
:10536000000000006174206F6E652074696D650037
:105370004C6576656C00000047414D45204F564511
:10538000520000004669726520746F207265737464
:1053900061727400564943544F5259210000000075
:1053A000450C750FC50D5F10750F60125F10450C31
:1053B000450C6012450C6012450C0000C800C80086
:1053C000C800C800C800C800C800C800C800C8009D
:1053D000C800C800C8000000010001000100010071
:1053E00001000100010001000100010001000100B5
:1053F00001000100010001000100010001000100A5
:1054000001000100010001000100E6FFE6FFE6FFE8
:10541000E6FFE6FFE6FFE6FFE6FFE6FFE6FFE6FF64
:10542000E6FFE6FFE6FFE6FFE6FFE6FFE6FFE6FF54
:10543000E6FFE6FFE6FF01000100E6FFE6FFE6FF0C
:10544000E6FFE6FFE6FFE6FFE6FFE6FFE6FFE6FF34
:10545000E6FFE6FFE6FFE6FFE6FFE6FFE6FFE6FF24
:10546000E6FFE6FFE6FF01000100E6FFE6FFE6FFDC
:10547000E6FFE6FFE6FFE6FFE6FFE6FFE6FFE6FF04
:10548000E6FFE6FFE6FFE6FFE6FFE6FFE6FFE6FFF4
:10549000E6FFE6FFE6FF01000100E6FFE6FFE6FFAC
:1054A000E6FFE6FFE6FFE6FFE6FFE6FFE6FFE6FFD4
:1054B000E6FFE6FFE6FFE6FFE6FFE6FFE6FFE6FFC4
:1054C000E6FFE6FFE6FF01000100E6FFE6FFE6FF7C
:1054D000E6FFE6FFE6FFE6FFE6FFE6FFE6FFE6FFA4
:1054E000E6FFE6FFE6FFE6FFE6FFE6FFE6FFE6FF94
:1054F000E6FFE6FFE6FF01000100E6FFE6FFE6FF4C
:10550000E6FFE6FFE6FFE6FFE6FFE6FFE6FFE6FF73
:10551000E6FFE6FFE6FFE6FFE6FFE6FFE6FFE6FF63
:10552000E6FFE6FFE6FF01000100E6FFE6FFE6FF1B
:10553000E6FFE6FFE6FFE6FFE6FFE6FFE6FFE6FF43
:10554000E6FFE6FFE6FFE6FFE6FFE6FFE6FFE6FF33
:10555000E6FFE6FFE6FF01000100E6FFE6FFE6FFEB
:10556000E6FFE6FFE6FFE6FFE6FFE6FFE6FFE6FF13
:10557000E6FFE6FFE6FFE6FFE6FFE6FFE6FFE6FF03
:10558000E6FFE6FFE6FF0100010001000100010067
:105590000100010001000100010001000100010003
:1055A00001000100010001000100010001000100F3
:1055B00001000100010001000100010001000100E3
:1055C00001000100010001000100010001000100D3
:1055D00001000100010001000100010001000100C3
:1055E00001000100010001000100C32FC32FC32FE0
:1055F000C32FC32FC32FC32FC32FC32FC32FC32F1B
:10560000C32FC32FC32FC32FC32FC32FC32FC32F0A
:10561000C32FC32FC32F01000100C32FC32FC32FDC
:10562000C32FC32FC32FC32FC32FC32FC32FC32FEA
:10563000C32FC32FC32FC32FC32FC32FC32FC32FDA
:10564000C32FC32FC32F01000100C32FC32FC32FAC
:10565000C32FC32FC32FC32FC32FC32FC32FC32FBA
:10566000C32FC32FC32FC32FC32FC32FC32FC32FAA
:10567000C32FC32FC32F01000100C32FC32FC32F7C
:10568000C32FC32FC32FC32FC32FC32FC32FC32F8A
:10569000C32FC32FC32FC32FC32FC32FC32FC32F7A
:1056A000C32FC32FC32F01000100C32FC32FC32F4C
:1056B000C32FC32FC32FC32FC32FC32FC32FC32F5A
:1056C000C32FC32FC32FC32FC32FC32FC32FC32F4A
:1056D000C32FC32FC32F01000100C32FC32FC32F1C
:1056E000C32FC32FC32FC32FC32FC32FC32FC32F2A
:1056F000C32FC32FC32FC32FC32FC32FC32FC32F1A
:10570000C32FC32FC32F01000100C32FC32FC32FEB
:10571000C32FC32FC32FC32FC32FC32FC32FC32FF9
:10572000C32FC32FC32FC32FC32FC32FC32FC32FE9
:10573000C32FC32FC32F01000100C32FC32FC32FBB
:10574000C32FC32FC32FC32FC32FC32FC32FC32FC9
:10575000C32FC32FC32FC32FC32FC32FC32FC32FB9
:10576000C32FC32FC32F010001000100010001005E
:105770000100010001000100010001000100010021
:105780000100010001000100010001000100010011
:105790000100010001000100010001000100010001
:1057A00001000100010001000100010001000100F1
:1057B00001000100010001000100010001000100E1
:1057C000010001000100010001005F1E5F1E5F1E5D
:1057D0005F1E5F1E5F1E5F1E5F1E5F1E5F1E5F1EE1
:1057E0005F1E5F1E5F1E5F1E5F1E5F1E5F1E5F1ED1
:1057F0005F1E5F1E5F1E010001005F1E5F1E5F1EB9
:105800005F1E5F1E5F1E5F1E5F1E5F1E5F1E5F1EB0
:105810005F1E5F1E5F1E5F1E5F1E5F1E5F1E5F1EA0
:105820005F1E5F1E5F1E010001005F1E5F1E5F1E88
:105830005F1E5F1E5F1E5F1E5F1E5F1E5F1E5F1E80
:105840005F1E5F1E5F1E5F1E5F1E5F1E5F1E5F1E70
:105850005F1E5F1E5F1E010001005F1E5F1E5F1E58
:105860005F1E5F1E5F1E5F1E5F1E5F1E5F1E5F1E50
:105870005F1E5F1E5F1E5F1E5F1E5F1E5F1E5F1E40
:105880005F1E5F1E5F1E010001005F1E5F1E5F1E28
:105890005F1E5F1E5F1E5F1E5F1E5F1E5F1E5F1E20
:1058A0005F1E5F1E5F1E5F1E5F1E5F1E5F1E5F1E10
:1058B0005F1E5F1E5F1E010001005F1E5F1E5F1EF8
:1058C0005F1E5F1E5F1E5F1E5F1E5F1E5F1E5F1EF0
:1058D0005F1E5F1E5F1E5F1E5F1E5F1E5F1E5F1EE0
:1058E0005F1E5F1E5F1E010001005F1E5F1E5F1EC8
:1058F0005F1E5F1E5F1E5F1E5F1E5F1E5F1E5F1EC0
:105900005F1E5F1E5F1E5F1E5F1E5F1E5F1E5F1EAF
:105910005F1E5F1E5F1E010001005F1E5F1E5F1E97
:105920005F1E5F1E5F1E5F1E5F1E5F1E5F1E5F1E8F
:105930005F1E5F1E5F1E5F1E5F1E5F1E5F1E5F1E7F
:105940005F1E5F1E5F1E01000100010001000100DB
:10595000010001000100010001000100010001003F
:10596000010001000100010001000100010001002F
:105970000100010001000100FFFFFFFFFFFFFFFF2B
:10598000FFFFFFFFFFFFFFFFFFFFFFFFFFFFFFFF27
:10599000FFFFFFFFFFFFFFFFFFFFFFFFFFFFFFFF17
:1059A000FFFFFFFFFFFFFFFFFFFFFFFFFFFFFFFF07
:1059B000FFFFFFFFFFFFFFFFFFFFFFFFFFFFFFFFF7
:1059C000FFFFFFFFFFFFFFFFFFFFFFFFFFFFFFFFE7
:1059D000FFFFFFFFFFFFFFFFFFFFFFFFFFFFFFFFD7
:1059E000FFFFFFFFFFFFFFFFFFFFFFFFFFFFFFFFC7
:1059F0000000FFFF0000FFFFFFFFFFFF0000FFFFB1
:105A00000000000000000000000000000000000096
:105A10000000000000000000000000000000000086
:105A2000E0FFE0FF000000000000000000000000B8
:105A30000000E0FFE0FFE0FFE0FF000000000000EA
:105A40000000E0FFE0FF0000E0FFE0FF0000E0FFFB
:105A5000E0FF00000000E0FFE0FF0000E0FFE0FFEB
:105A60000000E0FFE0FF00000000E0FFE0FFE0FFDB
:105A7000E0FFE0FFE0FFE0FFE0FF00000000E0FFEC
:105A8000E0FFE0FFE0FFE0FFE0FFE0FFE0FF0000FD
:105A900000000000E0FFE0FF00000000E0FFE0FF8A
:105AA0000000000000000000E0FFE0FF0000000038
:105AB000E0FFE0FF000000000000E0FFE0FF00006A
:105AC000000000000000E0FFE0FF0000E0FFE0FF5A
:105AD000E0FF0000000000000000E0FFE0FFE0FF4A
