:020000040800F2
:1000000000500020C11D0008591E0008591E00089C
:10001000591E0008591E0008591E0008591E0008E4
:10002000591E0008591E0008591E0008591E0008D4
:10003000591E0008591E0008591E0008C145000835
:10004000591E0008591E0008591E0008591E0008B4
:10005000591E0008591E0008591E0008591E0008A4
:10006000591E0008591E0008591E0008591E000894
:10007000591E0008591E0008591E0008591E000884
:10008000591E0008591E0008591E0008591E000874
:10009000591E0008591E0008591E0008591E000864
:1000A000591E0008591E0008591E0008591E000854
:1000B000591E0008591E0008591E0008591E000844
:1000C000591E0008591E0008591E0008591E000834
:1000D000591E0008591E000819350008591E00084D
:1000E000591E0008591E0008591E0008591E000814
:1000F000591E0008591E0008591E0008591E000804
:10010000591E0008591E0008591E0008591E0008F3
:10011000591E0008591E0008591E0008591E0008E3
:10012000591E0008591E0008591E0008591E0008D3
:10013000B0B5E4B004AF0423C7F87C310023C7F89E
:100140007831052387F87731012387F8753101234A
:1001500087F8743107F120040A23019318230093D0
:1001600014230322C249204603F0B6FB10340A23AD
:1001700001931823009314231B22BD49204603F04A
:10018000ABFB10340A23019318230093142333226A
:10019000B749204603F0A0FB10340A23019318232B
:1001A000009314234B22B249204603F095FB1034F0
:1001B0000A2301931823009314236322AC49204699
:1001C00003F08AFB10340A230193182300931423AD
:1001D0007B22A749204603F07FFB10340A230193BA
:1001E0001823009314239322A149204603F074FBA3
:1001F00010340A230193182300931E2303229D49E0
:10020000204603F069FB10340A230193182300935E
:100210001E231B229749204603F05EFB10340A235D
:100220000193182300931E2333229249204603F0A2
:1002300053FB10340A230193182300931E234B22EF
:100240008C49204603F048FB10340A2301931823FD
:1002500000931E2363228749204603F03DFB1034A0
:100260000A230193182300931E237B2281492046F1
:1002700003F032FB10340A230193182300931E234A
:1002800093227C49204603F027FB10340A23019374
:1002900018230093282303227749204603F01CFBF0
:1002A00010340A2301931823009328231B22724938
:1002B000204603F011FB10340A2301931823009306
:1002C000282333226C49204603F006FB10340A230E
:1002D00001931823009328234B226749204603F0FB
:1002E000FBFA10340A230193182300932823632276
:1002F0006149204603F0F0FA10340A2301931823D1
:10030000009328237B225C49204603F0E5FA04F1A0
:1003100010000A230193182300932823932256499F
:1003200003F0DAFA07F1100003230193142300937A
:10033000DC230022514903F0CFFA3846032301930E
:1003400003230093782378224D4903F0C5FA002354
:100350000193F0230093F02300220021494800F08C
:10036000A7FB002302934FF6FF730193282300930A
:100370000A2305224449434800F0BCFE4FF4FA71B9
:10038000404804F006F9D7F87C31002B40F3108385
:10039000E6220A213B4800F0BDFF034699B23B46E6
:1003A0007822184603F020FB02220021354800F095
:1003B000B1FF0346002B14BF01230023DBB2002B47
:1003C00003D0012387F8753102E0FF2387F87531E8
:1003D0000023C7F87831FF2387F874310023019395
:1003E000F0230093F02300220021264800F060FB58
:1003F00097F8773187F8763197F87631002B18D057
:1004000097F876319BB21A461B01D31A9BB2F03390
:1004100099B24FF6610301930A2300930A23E6225F
:10042000184800F045FB97F87631013B87F87631A4
:10043000E2E7002387F8763197F87631142B25D838
:1004400097F8763107F120021B011344184603F098
:10045000A9FA97F8763107F120021B0113441846D8
:1004600003F05DFA97F87631013387F87631E3E7E8
:100470004846000828480008084A0008E84B0008D9
:10048000604C000804000020744C00083B461846ED
:1004900003F045FA07F11003184603F040FA002371
:1004A00002934FF6FF730193E62300930523052281
:1004B000C849C94800F01EFED7F87C319BB2C3F191
:1004C000050399B2002301934FF6FF730093E623CF
:1004D0003C22C14800F09AFED7F87831002B7FF417
:1004E00052AFBE4801F082F8034603F00203002B2E
:1004F00014BF01230023DBB2002B2AD007F1100325
:10050000184606F0C6F803461C4607F110031846C5
:1005100006F0D5F80346C3F1F0039C42B4BF0123B3
:100520000023DBB2002B14D007F11003184606F0AD
:10053000B0F8034602339CB207F11003184606F0E8
:10054000B3F803461A4607F110032146184603F094
:100550004BFAA24801F04AF8034603F00103002BCE
:1005600014BF01230023DBB2002B21D007F11003BD
:10057000184606F08EF80346002B14BF0123002313
:10058000DBB2002B14D007F11003184606F081F8F7
:100590000346023B9CB207F11003184606F084F8AC
:1005A00003461A4607F110032146184603F01CFAC9
:1005B0003B46184606F06DF803461C463B46184677
:1005C00006F07DF803465B08DBB29BB223449CB285
:1005D0003B46184606F068F803461D463B4618465B
:1005E00006F079F803465B08DBB29BB22B449AB263
:1005F00007F110032146184603F06AFA0346002B60
:1006000014BF01230023DBB2002B0AD097F874310A
:100610005B42DBB287F874311422C821704802F0C3
:10062000FDFF07F11003184603F09CF93B461846FE
:1006300006F02FF803461A4697F975319BB213441A
:100640009CB23B46184606F02FF803461A4697F927
:1006500074319BB213449AB23B462146184603F0CC
:10066000C3F93B46184606F014F80346022B0CBFAC
:1006700001230023DBB2002B0BD097F875315B42CE
:10068000DBB287F8753114224FF4C871544802F078
:10069000C5FF3B46184605F0FCFF0346EE2B0CBF9A
:1006A00001230023DBB2002B0BD097F875315B429E
:1006B000DBB287F8753114224FF4C871484802F054
:1006C000ADFF3B46184605F0EFFF0346022B0CBF7B
:1006D00001230023DBB2002B0BD097F874315B426F
:1006E000DBB287F8743114224FF4C8713C4802F031
:1006F00095FF07F11003184605F0D6FF03461C4688
:1007000007F11003184605F0E6FF034623445C1C7E
:100710003B46184605F0C8FF03469C42B4BF012380
:100720000023DBB2002B00F0A58097F97731DBB214
:10073000013BDBB287F8773197F97731002B36D15F
:1007400000230193F0230093F0230022002122488C
:1007500000F0AEF9002302934FF6FF730193642378
:100760000093282309221F491B4800F0C3FC0023E3
:1007700002934FF6E07301937823009308230F222E
:100780001949154800F0B6FC144800F02FFF034645
:1007900003F00403002B0CBF01230023DBB2002B6A
:1007A00000F03C810A210C4803F0F3FEECE76422E0
:1007B0000021094800F0AEFD034603F00103002BC1
:1007C00014BF01230023DBB2002B0FD0012387F8D5
:1007D00075310EE07C4C000804000020440100202C
:1007E00040010020844C0008904C0008FF2387F84B
:1007F0007531FF2387F87431E6220A218B4800F017
:1008000089FD03469CB278225A21884800F082FD77
:1008100003469AB23B462146184603F0E5F800230A
:1008200001930A2300937823E622A5217F4800F054
:100830003FF997F8773187F8763197F87631002BC2
:1008400018D097F876319BB21A461B01D31A9BB287
:10085000F03399B24FF6610301930A2300930A2300
:10086000E622724800F024F997F87631013B87F8C8
:100870007631E2E70123C7F87831002387F8763133
:1008800097F87631142B61D897F8763107F120026A
:100890001B011344184605F02AFF0346002B14BF22
:1008A00001230023DBB2002B02D00023C7F87831EC
:1008B00097F8763107F120021B01D4183B46184601
:1008C00005F0E7FE03461D463B46184605F0ECFEE4
:1008D00003461A462946204603F0FAF80346C7F8AD
:1008E0007031D7F87031002B2AD097F8763107F1A4
:1008F00020021B011344184603F054F8D7F8703156
:10090000012B03D0D7F87031032B05D197F8743140
:100910005B42DBB287F87431D7F87031022B03D019
:10092000D7F87031042B05D197F875315B42DBB2F3
:1009300087F8753114224FF47A713D4802F06EFE4B
:1009400097F87631013387F8763199E7D7F878311F
:10095000012B25D1D7F87C31002B21DDD7F87C3154
:10096000013BC7F87C31002302934FF6FF730193DC
:10097000E6230093052305222E492C4800F0BAFBFC
:10098000D7F87C319BB2C3F1050399B200230193E0
:100990004FF6FF730093E6233C22244800F036FC18
:1009A000D7F87C3105331946204803F0F2FD93E572
:1009B0001F230193F0230093F023002200211B4802
:1009C00000F076F81F2302934FF6E073019364233F
:1009D0000093282308221849144800F08BFB1F239A
:1009E00002934FF6E07301937823009308230F22BC
:1009F00012490E4800F07EFB114800F0F7FD034657
:100A000003F00403002B0CBF01230023DBB2002BF7
:100A100006D00A21054803F0BCFDEDE700BF00E069
:100A200000BF07F5C077BD46B0BD00BF0400002081
:100A3000400100207C4C0008A04C0008904C0008AD
:100A40004401002080B582B000AF78607B68184612
:100A500003F028FD7B682433184602F0DDFB7B6839
:100A600003F5A073184600F0F5FC7B6803F59E7350
:100A7000184602F0A9FD7B6803F5A473184603F03D
:100A800011FB7B6803F527737A681146184600F05E
:100A900027FF7B680549184603F032FD786800F0AF
:100AA0008FFC00BF0837BD4680BD00BF653700081A
:100AB00090B587B002AFF860084611461A46034663
:100AC0007B810B463B811346FB80FB6803F5277057
:100AD000FC883A897989BB8C01933B8C009323462F
:100AE00000F0E3FF00BF1437BD4690BD90B587B05E
:100AF00002AFF860084611461A4603467B810B4652
:100B00003B811346FB807A89FB88134498B23A896B
:100B10007989BB8C01933B8900930346F86800F008
:100B200053FA3A893B8C13449BB27C893889798982
:100B3000BA8C0192009323460246F86800F044FA0A
:100B40007A89FB88134499B27A89FB8813449CB252
:100B50003A893B8C13449BB23889BA8C019200933A
:100B600023460246F86800F02FFA3A893B8C13447A
:100B700098B27A89FB8813449CB23A893B8C13441F
:100B80009BB27989BA8C0192009323460246F86899
:100B900000F01AFA00BF1437BD4690BD80B58AB088
:100BA00000AFF860084611461A4603467B810B46A3
:100BB0003B811346FB80FB88013B7B6200233B6249
:100BC0000123FB610123BB61FB885B00FA69D31A37
:100BD0007B617A6A3B6A9A42C0F29F80FB6803F5A8
:100BE00027707B6A9AB27B89134499B23B6A9AB2A6
:100BF0003B8913449AB23B8E00F0F2FEFB6803F58A
:100C000027703B6A9AB27B89134499B27B6A9AB285
:100C10003B8913449AB23B8E00F0E2FEFB6803F579
:100C200027703B6A9BB27A89D31A99B27B6A9AB2CF
:100C30003B8913449AB23B8E00F0D2FEFB6803F569
:100C400027707B6A9BB27A89D31A99B23B6A9AB2AF
:100C50003B8913449AB23B8E00F0C2FEFB6803F559
:100C600027707B6A9BB27A89D31A99B23B6A9BB28E
:100C70003A89D31A9AB23B8E00F0B2FEFB6803F5B4
:100C800027703B6A9BB27A89D31A99B27B6A9BB26E
:100C90003A89D31A9AB23B8E00F0A2FEFB6803F5A4
:100CA00027703B6A9AB27B89134499B27B6A9BB2E4
:100CB0003A89D31A9AB23B8E00F092FEFB6803F594
:100CC00027707B6A9AB27B89134499B23B6A9BB2C4
:100CD0003A89D31A9AB23B8E00F082FE7B69002BD0
:100CE00009DC3B6A01333B627A69BB6913447B616F
:100CF000BB690233BB617B69002B7FF76AAF7B6AFC
:100D0000013B7B62FB690233FB61FB885B00FA6994
:100D1000D31A7A6913447B615BE700BF2837BD466D
:100D200080BD90B58DB002AFF860084611461A46F6
:100D300003467B810B463B811346FB80FB88013BCE
:100D40007B6200233B620123FB610123BB61FB88C3
:100D50005B00FA69D31A7B617A6A3B6A9A42C0F2F5
:100D60008F807B6A9BB27A89D31A99B23B6A9AB216
:100D70003B89134498B27B6A9AB27B8913449CB234
:100D80003B6A9AB23B8913449BB23A8F019200931B
:100D900023460246F86800F017F93B6A9BB27A894D
:100DA000D31A99B27B6A9AB23B89134498B23B6AD0
:100DB0009AB27B8913449CB27B6A9AB23B891344F2
:100DC0009BB23A8F0192009323460246F86800F0E6
:100DD000FBF87B6A9BB27A89D31A99B23B6A9BB2C1
:100DE0003A89D31A98B27B6A9AB27B8913449CB22F
:100DF0003B6A9BB23A89D31A9BB23A8F0192009315
:100E000023460246F86800F0DFF83B6A9BB27A8915
:100E1000D31A99B27B6A9BB23A89D31A98B23B6AC9
:100E20009AB27B8913449CB27B6A9BB23A89D31AEB
:100E30009BB23A8F0192009323460246F86800F075
:100E4000C3F87B69002B09DC3B6A01333B627A699A
:100E5000BB6913447B61BB690233BB617B69002BB7
:100E60007FF77AAF7B6A013B7B62FB690233FB61F0
:100E7000FB885B00FA69D31A7A6913447B616BE7DC
:100E800000BF2C37BD4690BD80B58AB000AFF8607A
:100E9000084611461A4603467B810B463B811346A2
:100EA000FB80FA887B89D31A3B613A8E3B89D31A3F
:100EB0007B6201233B627B6A002B05DA4FF0FF3334
:100EC0003B627B6A5B427B627B6A5A003B69D31A56
:100ED000FB613B89BB617B897B61FB887A699A42B4
:100EE0001EDCFB6803F527707B6999B2BB699AB277
:100EF000BB8E00F075FDFB69002B08DDBA693B6A0B
:100F00001344BB613B695B00FA69D31AFB617B6ADE
:100F10005B00FA691344FB617B6901337B61DCE7A9
:100F200000BF2837BD4680BD80B58AB000AFF860ED
:100F3000084611461A4603467B810B463B81134601
:100F4000FB80FA887B89D31A7B623A8E3B89D31A5D
:100F50003B6101233B627B6A002B05DA4FF0FF33D4
:100F60003B627B6A5B427B627B6A5A003B69D31AB5
:100F7000FB617B89BB613B897B613B8E7A699A42CD
:100F80001EDCFB6803F52770BB6999B27B699AB2D6
:100F9000BB8E00F025FDFB69002B08DDBA693B6ABA
:100FA0001344BB613B695B00FA69D31AFB617B6A3E
:100FB0005B00FA691344FB617B6901337B61DCE709
:100FC00000BF2837BD4680BD90B587B002AFF8603E
:100FD000084611461A4603467B810B463B81134661
:100FE000FB803A8C3B89D31A1946F86805F002FC5D
:100FF0000446FA887B89D31A1946F86805F0FAFB8B
:1010000003469C42B4BF01230023DBB2002B1BD05C
:101010007A89FB889A420BD978893A8CF988BB8CFB
:1010200001933B8900930346F868FFF72DFF26E004
:10103000F8883A897989BB8C01933B8C00930346ED
:10104000F868FFF721FF1AE03A893B8C9A420BD9E6
:1010500078893A8CF988BB8C01933B8900930346CD
:10106000F868FFF761FF0AE0F8883A897989BB8C54
:1010700001933B8C00930346F868FFF755FF00BFD0
:101080001437BD4690BD80B584B000AFF860084607
:1010900011461A4603467B810B463B811346FB8073
:1010A000FB6803F52770FB883A89798900F098FC82
:1010B00000BF1037BD4680BD90B587B002AFF86065
:1010C000084611461A4603467B810B463B81134670
:1010D000FB80FB6803F52770FC883A8979897B6A75
:1010E00001933B8C0093234600F09DFC00BF143716
:1010F000BD4690BD80B59AB002AFF860B9601146A8
:101100001A460B46FB801346BB80002387F85F30EE
:101110000023BB65002387F85F3097F85F20FB88CA
:101120009A426CDA97F85F30BA6813441B78A3F1DF
:10113000200213469B001344334A1344BB6500232B
:1011400087F85D3097F85D30042B41D8002387F88D
:101150005E3097F85E30062B34D897F85D30BA6D64
:1011600013441B781A4697F85E3042FA03F303F0F3
:101170000103002B10D097F85E2013469B001A4401
:1011800097F85D3013445B0007F160021344B7F831
:101190006C2023F8502C0FE097F85E2013469B003C
:1011A0001A4497F85D3013445B0007F16002134462
:1011B000B7F8702023F8502C97F85E30013387F889
:1011C0005E30C6E797F85D30013387F85D30B9E7E8
:1011D000FB6803F52770B7F86820B98807F110039A
:1011E000019307230093052300F01DFCBB880933FE
:1011F000BB8097F85F30013387F85F308DE700BF21
:101200006037BD4680BD00BFEC4C000880B58AB099
:1012100004AFF860084611461A4603467B810B4628
:101220003B811346FB807A89394BA3FB0213D90813
:101230000B469B000B445B00D31A9BB2DBB23033EE
:10124000DBB23B757B89324AA2FB0323DB087B813F
:101250007A892F4BA3FB0213D9080B469B000B4442
:101260005B00D31A9BB2DBB23033DBB2FB747B89F9
:10127000274AA2FB0323DB087B817A89244BA3FB4B
:101280000213D9080B469B000B445B00D31A9BB298
:10129000DBB23033DBB2BB747B891D4AA2FB032374
:1012A000DB087B817A891A4BA3FB0213D9080B4612
:1012B0009B000B445B00D31A9BB2DBB23033DBB232
:1012C0007B747B89124AA2FB0323DB087B817A892A
:1012D0000F4BA3FB0213D9080B469B000B445B008A
:1012E000D31A9BB2DBB23033DBB23B743A8907F1DD
:1012F0001001BB8C02933B8C0193FB880093134637
:101300000522F868FFF7F6FE00BF1837BD4680BD1E
:10131000CDCCCCCC80B584B000AFF860B9607A6039
:10132000F86800F00FF802467968BB68CB1AB2FB88
:10133000F3F103FB01F3D21ABB68134418461037CC
:10134000BD4680BD80B485B000AF78600023FB60EF
:101350001A4B1B68002B27D1184B01221A607B689F
:10136000D3F8A032DA0E7B68D3F8A0329B0F53403B
:1013700003F00103FB60FB68DB43FB60FB6803F0E9
:101380000103FB607B68D3F8A0325A007B68C3F886
:10139000A0227B68D3F8A022FB681A437B68C3F8BD
:1013A000A022064B00221A607B68D3F8A03223F0FB
:1013B000784318461437BD4680BC7047A802002009
:1013C00080B584B000AF78607B680022C3F8A022AB
:1013D0007B68D3F8A032002B1AD10123FB60FB6895
:1013E000102BF5DC7B6803F5A0731021184600F084
:1013F00039F903461A46FB689A407B68D3F8A03255
:101400001A447B68C3F8A022FB680133FB60E6E75F
:1014100000BF1037BD4680BD80B582B000AF786098
:1014200039607B68012B07D13B684FF6FF7293420E
:1014300002D1034805F0B4F900BF0837BD4680BDAE
:101440000400002080B500AF4FF6FF710120FFF7C8
:10145000E3FF80BD80B483B000AF7860524B9B69DE
:10146000514A43F01C0393614F4B9B694E4A43F032
:10147000010393614D4B4FF000725A604C4B5B6817
:101480004C4A1A404A494C4B13434B604B4B1B6828
:1014900023F07F6323F47F23484A43F0887343F4A7
:1014A00088331360454B5B689BB2444A43F08853D2
:1014B00043F488135360414B1B68404A23F0F00308
:1014C00013603E4B1B683D4A43F0800313603B4B67
:1014D00002221A61394B5B68384A23F47F43536018
:1014E000364B5B68354A43F408435360334B4FF443
:1014F00040621A61324B5B68314A43F48013536097
:101500002F4B5B682E4A23F460035360264B9B6984
:10151000254A43F400739361234B5B68224A43F4EA
:1015200040435360204B9B691F4A43F0040393617F
:101530001F4B1B681E4A23F0FF031360214B1D2223
:101540001A61204B0022DA621E4B00221A631D4BE7
:101550009B681C4A43F0010393601A4B9B68194A2D
:1015600043F004039360174B9B6803F00403002BC4
:1015700014BF01230023DBB2002B00D0F3E77B680C
:101580004FF496721A807B6840F23A225A807B6848
:1015900040F642629A807B6840F68862DA8000BF3B
:1015A0000C37BD4680BC704700100240000001406F
:1015B000000801400000FF0F11110010000C014055
:1015C000001001400024014080B483B000AF786077
:1015D000054BDB68044A83F40053D36000BF0C372B
:1015E000BD4680BC704700BF0010014080B485B08C
:1015F00000AF78600023FB81194B9B6803F0020366
:10160000002B0CBF01230023DBB2002B03D0FB898E
:1016100043F00103FB81124B9B6803F48063002BB2
:101620000CBF01230023DBB2002B03D0FB8943F066
:101630000203FB810A4B9B6803F40063002B0CBF81
:1016400001230023DBB2002B03D0FB8943F004030A
:10165000FB81FB8918461437BD4680BC704700BF2C
:10166000000C014080B485B000AF78603960002381
:10167000FB810F4A3B6853630D4B9B680C4A43F058
:10168000010393600A4B1B6803F00203002B0CBF9D
:1016900001230023DBB2002B00D0F3E7044BDB6C0B
:1016A000FB81FB8918461437BD4680BC704700BFDC
:1016B0000024014080B586B000AF78603A4B5B688B
:1016C0007B61394B1B683B61374BDB68FB60364BFA
:1016D00040221A61344B1B68334A23F460031360C1
:1016E000314B1B68304A43F4801313602E4BDB6888
:1016F0002D4A23F02003D3602B4B5B682A4A23F446
:1017000060035360284B5B68274A43F4801353609F
:10171000254BDB68244A43F40053D360224B1B68FB
:10172000214A23F4302313601F4B1B681E4A43F4E5
:10173000802313601C4B5B681B4A23F430235360E7
:10174000194B5B68184A43F4802353600121786881
:10175000FFF788FF0346BB60134A7B695360124A58
:101760003B691360104AFB68D3607B689B881A460C
:10177000BB68D31A4FF47A7202FB03F37A6892883B
:1017800011467A6812888A1AB3FBF2F3BB60BB6811
:10179000B3F57A7F02D94FF6FF73BB60BB689BB28B
:1017A00018461837BD4680BD000C014080B586B094
:1017B00000AF78603A4B5B687B61394B1B683B61DB
:1017C000374BDB68FB60364B40221A61344B5B6859
:1017D000334A23F460235360314B5B68304A43F44F
:1017E000803353602E4BDB682D4A23F48053D36043
:1017F0002B4B1B682A4A23F460231360284B1B6879
:10180000274A43F480331360254BDB68244A43F0B6
:101810001003D360224B5B68214A23F430035360EA
:101820001F4B5B681E4A43F4800353601C4B1B68CC
:101830001B4A23F430031360194B1B68184A43F406
:101840008003136000217868FFF70CFF0346BB603C
:10185000134A7B695360124A3B691360104AFB6864
:10186000D3607B68DB881A46BB68D31A4FF47A7260
:1018700002FB03F37A68D28811467A6852888A1A82
:10188000B3FBF2F3BB60BB68B3F57A7F02D94FF6C6
:10189000FF73BB60BB689BB218461837BD4680BD5E
:1018A000000C014080B485B000AFF86008461146D6
:1018B0001A4603467B810B463B811346FB80FB683F
:1018C0007A891A80FB68FA885A80FB683A899A807C
:1018D000FB683A8BDA8000BF1437BD4680BC704786
:1018E00080B584B002AF7860396001F05DFF3A4B9B
:1018F0009B69394A43F004039361384B5B6823F0DA
:10190000FF03364A43F011035360786804F094FFF4
:101910001921386802F03DFE786804F07DFF192136
:10192000386802F036FE786804F086FF19213868BE
:1019300002F02FFE0121786800F022F99621386824
:1019400002F027FE1121786800F01AF91921386891
:1019500002F01FFE3A21786800F012F955217868EC
:1019600000F01FF91921386802F013FE362178685B
:1019700000F006F90821786800F013F91921386899
:1019800002F007FE5121786800F0FAF81921386852
:1019900002F0FFFD2121786800F0F2F81321786849
:1019A00000F0EEF82921786800F0EAF8192138688B
:1019B00002F0EFFD2C21786800F0E2F8002301939B
:1019C000F0230093F02300220021786800F06DF8E6
:1019D00000BF0837BD4680BD00100240000801402E
:1019E00080B586B002AFF860084611461A46034635
:1019F0007B810B463B811346FB807B89013398B288
:101A00003B8901339BB23A89798900930346F86890
:101A100000F0E9F8FB881946F86800F0D3F800BF39
:101A20001037BD4680BD80B588B002AFF86008466B
:101A300011461A4603467B810B463B811346FB80C9
:101A40007A89FB8813449BB2013B98B23A893B8C5C
:101A500013449BB2013B9BB23A89798900930346B8
:101A6000F86800F0C0F800233B813A893B8C9A4229
:101A700017D200237B817A89FB889A420DD27B6A38
:101A80009A1C7A621B88FB82FB8A1946F86800F070
:101A900099F87B8901337B81EDE73B8901333B81F9
:101AA000E3E700BF1837BD4680BD80B586B002AF02
:101AB000F860084611461A4603467B810B463B8177
:101AC0001346FB807A89FB8813449BB2013B98B292
:101AD0003A893B8B13449BB2013B9BB23A8979898B
:101AE00000930346F86800F07EF800233B813A89B2
:101AF0003B8B9A4212D200237B817A89FB889A42DF
:101B000008D2BB8B1946F86800F05CF87B8901337A
:101B10007B81F2E73B8901333B81E8E700BF103767
:101B2000BD4680BD80B584B000AF78600023FB6007
:101B3000786804F071FEFB68104A9342D4BF012319
:101B40000023DBB2002B03D0FB680133FB60F2E71C
:101B5000786804F071FE0023FB60FB68074A93423B
:101B6000D4BF01230023DBB2002B03D0FB68013379
:101B7000FB60F2E700BF1037BD4680BD7F38010033
:101B800080B582B000AF78600B46FB70786804F0D7
:101B900063FEFB78184601F045FE00BF0837BD46DE
:101BA00080BD80B582B000AF78600B46FB7078686E
:101BB00004F062FEFB78184601F034FE00BF0837DF
:101BC000BD4680BD80B582B000AF78600B467B809B
:101BD000786804F051FE7B88184601F063FE00BF70
:101BE0000837BD4680BD80B584B000AFF8600846B8
:101BF00011461A4603467B810B463B811346FB8008
:101C00002A21F868FFF7BCFF7B891B12DBB219465B
:101C1000F868FFF7C6FF7B89DBB21946F868FFF763
:101C2000C0FFFB881B12DBB21946F868FFF7B9FF4B
:101C3000FB88DBB21946F868FFF7B3FF2B21F86881
:101C4000FFF79EFF3B891B12DBB21946F868FFF7CE
:101C5000A8FF3B89DBB21946F868FFF7A2FF3B8B70
:101C60001B12DBB21946F868FFF79BFF3B8BDBB218
:101C70001946F868FFF795FF2C21F868FFF780FFF9
:101C800000BF1037BD4680BD80B400AF2E4B1B682F
:101C90002D4A23F4802313602B4B1B682A4A43F4FC
:101CA00080331360284B1B680023002B00D0F9E71A
:101CB000254B5B68244A23F400135360224B5B6876
:101CC000214A43F4E01353601F4B5B681E4A43F400
:101CD000806353601C4B5B681B4A23F44073536062
:101CE000194B5B68184A43F480335360164B1B68EA
:101CF000154A43F080731360134B1B680023002BBD
:101D000000D0F9E7114B1B68104A43F0020313603F
:101D10000E4B1B680D4A23F0050313600B4B1B6829
:101D20000A4A43F010031360074B5B68064A03F04E
:101D300001035360044B5B68034A43F002035360A2
:101D400000BFBD4680BC704700100240002002402A
:101D500080B582B000AF164A164BD31A9B103B6079
:101D600000237B607A683B689A4208D2114A7B68FC
:101D700052F8233098477B6801337B60F2E70E4AC4
:101D80000E4BD31A9B103B6000237B607A683B6844
:101D90009A4208D2094A7B6852F8233098477B68F8
:101DA00001337B60F2E700BF0837BD4680BD00BF4E
:101DB0000C4600080C460008104600080C460008B7
:101DC00080B584B000AF1E4BFB601E4BBB601E4A4B
:101DD0001C4BD31A7B607B685A1E7A60002B14BFA1
:101DE00001230023DBB2002B08D0FA68531CFB60F0
:101DF000BB68591CB96012781A70ECE7134BBB60D2
:101E0000134A124BD31A7B607B685A1E7A60002BF0
:101E100014BF01230023DBB2002B05D0BB685A1C82
:101E2000BA6000221A70EFE7FFF72EFFFFF790FF6E
:101E30000848FEF707FE01F015F801F01FF8FCE76F
:101E4000BA68000800000020040000200400002000
:101E5000C40200200400002080B400AFFEE700BFF1
:101E6000F0B5F9B004AFCE4BC7F8CC31CC4804F094
:101E700013FD0346002B14BF01230023DBB2002B0C
:101E800002D0C74BC7F8CC3107F582740C230193FD
:101E90000A23009303230322D7F8CC11204601F034
:101EA0001BFD10340C2301930A23009303231722F4
:101EB000D7F8CC11204601F00FFD10340C2301930C
:101EC0000A23009303232B22D7F8CC11204601F0DC
:101ED00003FD10340C2301930A23009303233F22B4
:101EE000D7F8CC11204601F0F7FC10340C230193F5
:101EF0000A23009303235322D7F8CC11204601F084
:101F0000EBFC10340C2301930A2300930323672274
:101F1000D7F8CC11204601F0DFFC10340C230193DC
:101F20000A23009303237B22D7F8CC11204601F02B
:101F3000D3FC10340C2301930A23009303238F2234
:101F4000D7F8CC11204601F0C7FC10340C230193C4
:101F50000A2300930323A322D7F8CC11204601F0D3
:101F6000BBFC04F110000C2301930A23009303230C
:101F7000B722D7F8CC1101F0AFFC07F1F40006232B
:101F800001930A230093D2237822864901F0A4FC0E
:101F900007F1A404082301930523009300230022E2
:101FA0008149204601F098FC103408230193052351
:101FB0000093002300227C49204601F08DFC103460
:101FC000082301930523009300230022764920462D
:101FD00001F082FC103408230193052300930023B1
:101FE00000227149204601F077FC04F1100008231B
:101FF000019305230093002300226B4901F06CFC40
:102000003C1D082301930523009300230022674908
:10201000204601F061FC103408230193052300934E
:10202000002300226149204601F056FC10340823A9
:10203000019305230093002300225C49204601F010
:102040004BFC103408230193052300930023002246
:102050005649204601F040FC103408230193052323
:102060000093002300225149204601F035FC103432
:102070000823019305230093002300224B492046A7
:1020800001F02AFC10340823019305230093002358
:1020900000224649204601F01FFC1034082301931A
:1020A00005230093002300224049204601F014FC40
:1020B00010340823019305230093002300223B4999
:1020C000204601F009FC04F11000082301930523C8
:1020D000009300230022354901F0FEFB002387F81E
:1020E000AA31002387F8CB31002387F8CA310023B7
:1020F00087F8C931052387F8C8310023C7F8C431F0
:102100000023C7F8C0310023C7F8BC310423C7F847
:10211000B8310223A7F8B6310123A7F8B431002360
:1021200087F8B3310123C7F8A43100230193F023CA
:102130000093F023002200211D48FEF7B9FC002384
:1021400002934FF6FF730193282300930A230A2278
:1021500018491748FEF7CEFF002302934FF6FF738E
:1021600001933C2300930A230F2213491048FEF7E2
:10217000C1FF002302934FF6FF7301935023009396
:102180000A2310220D490A48FEF7B4FF00230293E8
:102190004FF6FF730193642300930A2310E000BFFE
:1021A0004C0100202C500008A4500008F4500008F6
:1021B0000400002034520008405200085052000829
:1021C0000B2278497848FEF795FF4FF47A717648EC
:1021D00002F0DFF9D7F8B831002B40F37285002305
:1021E000C7F8BC31002387F8AA3100230193F023FC
:1021F0000093F023002200216B48FEF759FC0023D6
:10220000C7F8AC31D7F8B831C3F10A03D7F8AC211D
:102210009A420EDA07F58272D7F8AC311B011344EB
:10222000184601F07CFBD7F8AC310133C7F8AC316C
:10223000E8E707F5827303220021184601F0D4FB7A
:1022400007F58273103303220F21184601F0CCFBEF
:1022500007F58273203303221E21184601F0C4FBC8
:1022600007F58273303303222D21184601F0BCFBA1
:1022700007F58273403303223C21184601F0B4FB7A
:1022800007F58273503303224B21184601F0ACFB53
:1022900007F58273603303225A21184601F0A4FB2C
:1022A00007F58273703303226921184601F09CFB05
:1022B00007F58273803303227821184601F094FBDE
:1022C00007F58273903303228721184601F08CFBB7
:1022D0000023C7F8AC31D7F8AC31092B0DDC3A1D1F
:1022E000D7F8AC311B011344184601F05BFBD7F85B
:1022F000AC310133C7F8AC31EDE70023C7F8AC319E
:10230000D7F8AC31042B0EDC07F1A402D7F8AC31BE
:102310001B011344184601F045FBD7F8AC310133DB
:10232000C7F8AC31ECE7002302934FF6FF7301933B
:10233000E6230093052305221C491B48FEF7DAFE1D
:10234000D7F8B8319BB2C3F1050399B200230193CA
:102350004FF6FF730093E6233C221348FEF756FF27
:1023600097F8C831C7F8AC31D7F8AC31002B1FDD76
:10237000D7F8AC319BB21A461B01D31A9BB2F0338B
:1023800099B24FF6610301930A2300930A23E622D0
:102390000548FEF78DFBD7F8AC31013BC7F8AC31EF
:1023A000E2E700BF645200080400002070520008F9
:1023B000002387F8AA31002387F8CB31002387F860
:1023C000C9310023C7F8C4310023C7F8BC31022348
:1023D000A7F8B63107F1F403184601F0A0FAD7F8D0
:1023E000BC31002B40F03F8407F1F403184601F0A4
:1023F000B9FACD48FFF7FAF8034603F00203002BC1
:1024000014BF01230023DBB2002B21D007F1F4031A
:10241000184604F03EF90346E42B94BF0123002341
:10242000DBB2002B14D007F1F403184604F031F9A5
:10243000034602339CB207F1F403184604F034F962
:1024400003461A4607F1F4032146184601F0CCFA78
:10245000B548FFF7CBF8034603F00103002B14BF88
:1024600001230023DBB2002B21D007F1F40318462F
:1024700004F00FF90346012B8CBF01230023DBB2CC
:10248000002B14D007F1F403184604F002F90346B8
:10249000023B9CB207F1F403184604F005F9034629
:1024A0001A4607F1F4032146184601F09DFA00F0A0
:1024B00095FC0346002B14BF01230023DBB2002B45
:1024C00069D0002387F8CB3197F8CB31042B62D841
:1024D00097F8CB3107F1A4021B011344184604F00E
:1024E00006F90346002B0CBF01230023DBB2002BAF
:1024F0004BD097F8CB3107F1A4021B0113441846C7
:1025000001F00DFA97F8CB3107F1A4021B01D518A1
:1025100007F1F403184604F0BCF803461C4607F123
:10252000F403184604F0CBF803465B08DBB29BB219
:1025300023449CB297F8CB3107F1A4021B0113444A
:10254000184604F0BCF803465B08DBB29BB2E31A02
:102550009CB207F1F403184604F0A6F803461E46A1
:1025600097F8CB3107F1A4021B011344184604F07D
:10257000B2F803465B08DBB29BB2F31A9BB21A4671
:102580002146284601F030FA05E097F8CB310133B7
:1025900087F8CB3198E7002387F8CB3197F8CB3118
:1025A000042B00F2C38097F8CB3107F1A4021B0182
:1025B0001344184604F078F80346002B0DD097F822
:1025C000CB3107F1A4021B011344184604F08FF825
:1025D0000346002B01D0012300E00023002B00F074
:1025E000828097F8CB3107F1A4021B01D41897F829
:1025F000CB3107F1A4021B011344184604F049F83B
:1026000003461D4697F8CB3107F1A4021B01134482
:10261000184604F049F80346023B9BB21A46294685
:10262000204601F0E1F9002387F8C93197F8C93154
:10263000092B72D897F8C93107F582721B01D4189B
:1026400097F8CB3107F1A4021B011344184604F09C
:1026500020F803461D4697F8CB3107F1A4021B0171
:102660001344184604F020F803461A46294620462B
:1026700001F0FAF90346002B14BF01230023DBB25B
:10268000002B2AD097F8C93107F582721B01134439
:10269000184601F087F997F8CB3107F1A4021B0126
:1026A0001344184601F07EF997F8CB3107F1A402E4
:1026B0001B011344184603F0ECFF03461C4697F831
:1026C000CB3107F1A4021B011344184603F0ECFFC1
:1026D00003461946204600F041FB97F8C931013303
:1026E00087F8C931A2E797F8CB3107F1A4021B01A3
:1026F0001344184603F0FBFF0346002B14BF0123CD
:102700000023DBB2002B08D097F8CB3107F1A402ED
:102710001B011344184601F045F997F8CB310133FA
:1027200087F8CB313AE700BF440100200A2387F83D
:10273000B331002387F8CA3197F8CA31092B00F268
:102740002D8197F8CA313A1D1B011344184603F036
:10275000ABFF0346DB2B0CD897F8CA313A1D1B019F
:102760001344184603F0C3FF0346002B01D0012396
:1027700000E00023002B00F0EA8097F8CA313A1DF0
:102780001B01D41897F8CA313A1D1B01134418468F
:1027900003F07FFF03461D4697F8CA313A1D1B011F
:1027A0001344184603F080FF034602339BB21A46D7
:1027B0002946204601F018F997F8CA313A1D1B0145
:1027C0001344184603F065FF03461C4697F8CA31C8
:1027D0003A1D1B011344184603F071FF03465B08C2
:1027E000DBB29BB223449CB297F8CA313A1D1B015D
:1027F0001344184603F058FF03461D4697F8CA31A4
:102800003A1D1B011344184603F065FF03465B089D
:10281000DBB29BB22B449AB207F1F403214618466F
:1028200001F022F90346002B14BF01230023DBB281
:10283000002B00F0AD8007F1F403184603F029FFE8
:1028400003461C4607F1F403184603F02DFF034628
:102850001946204600F082FA97F8C831013B87F804
:10286000C83197F8CA313A1D1B011344184601F0CC
:1028700099F897F8C831002B3ED100230193F0233B
:102880000093F02300220021A048FEF711F9002355
:1028900002934FF6FF7301936423009328230922C8
:1028A0009B499A48FEF726FC002302934FF6E073FB
:1028B00001937823009308230F2296499348FEF74B
:1028C00019FC00F08BFA0346002B0CBF01230023F8
:1028D000DBB2002B04D00A218C4801F05AFEF0E74D
:1028E00000F07CFA0346002B14BF01230023DBB267
:1028F000002B00F02482F3E7002301930A230093C6
:102900007823E622A5218148FEF7D2F897F8C8314E
:10291000C7F8AC31D7F8AC31002B39DDD7F8AC3182
:102920009BB21A461B01D31A9BB2F03399B24FF6F1
:10293000610301930A2300930A23E6227348FEF7FA
:10294000B7F8D7F8AC31013BC7F8AC31E2E797F8FC
:10295000CA313A1D1B011344184603F0C8FE034652
:10296000002B14BF01230023DBB2002B07D097F804
:10297000CA313A1D1B011344184601F013F897F8A9
:10298000B331002B04D097F8B331013B87F8B33152
:1029900097F8CA31013387F8CA31CDE60023C7F86A
:1029A000C4310023C7F8C0310123C7F8BC3100236C
:1029B00087F8C93197F8C931092B00F23C8197F8A3
:1029C000C93107F582721B011344184603F08FFECC
:1029D0000346002B14BF01230023DBB2002B00F0C1
:1029E000248197F8B321D7F8B831C3F10A039A428A
:1029F00080F29280002387F8CA31002387F8AB3138
:102A000097F8CA31092B00F2878097F8AB31002B79
:102A100040F0828097F8CA313A1D1B0113441846D2
:102A200003F065FE0346002B09D13222002137480E
:102A3000FEF770FC0346002B01D1012300E00023C8
:102A4000002B5CD097F8B331013387F8B33197F896
:102A5000CA313A1D1B011344184600F060FF97F875
:102A6000CA313A1D1B01D51897F8C93107F5827292
:102A70001B011344184603F00CFE03461C4697F84E
:102A8000C93107F582721B011344184603F017FE83
:102A900003465B08DBB29BB223449CB297F8CB3170
:102AA00007F1A4021B011344184603F008FE034675
:102AB0005B08DBB29BB2E31A9CB297F8C93107F509
:102AC00082721B011344184603F0EEFD03461E46B6
:102AD00097F8CB3107F1A4021B011344184603F009
:102AE000FAFD03465B08DBB29BB233449BB21A4645
:102AF0002146284600F078FF012387F8AB3197F88C
:102B0000CA31013387F8CA317AE700BF04000020D8
:102B100078520008845200080023C7F8BC3197F8A7
:102B2000C93107F582721B01D41897F8C93107F52E
:102B300082721B011344184603F0ABFD03461A468C
:102B4000B7F8B63113449DB297F8C93107F58272D0
:102B50001B011344184603F0A7FD03461A46B7F8B5
:102B6000B43113449BB21A462946204600F03CFF7C
:102B700097F8C93107F582721B011344184603F018
:102B800088FD03461C4697F8C93107F582721B0180
:102B90001344184603F093FD0346C3F1F0039C422F
:102BA000ACBF01230023DBB2002B02D00123C7F806
:102BB000C43197F8C93107F582721B0113441846D6
:102BC00003F067FD0346002B0CBF01230023DBB29B
:102BD000002B02D00123C7F8C43197F8C93107F59B
:102BE00082721B011344184603F05EFD03468C2BD2
:102BF0008CBF01230023DBB2002B16D00123C7F8C2
:102C0000C03197F8C93107F582721B011344184689
:102C100003F04AFD0346022B94BF01230023DBB2DD
:102C2000002B02D00123C7F8C03197F8C931013316
:102C300087F8C931BEE6D7F8C431002B04D0B7F805
:102C4000B6315B42A7F8B631D7F8C031002B04D0BB
:102C5000B7F8B4315B42A7F8B4310F213B4801F01B
:102C600098FCFFF7BCBBD7F8BC31012B7FF4B2AAAC
:102C7000D7F8B831002B7FF7ADAAD7F8B831013BB0
:102C8000C7F8B831002302934FF6FF730193E62390
:102C90000093052305222E492C48FEF72BFAD7F87E
:102CA000B8319BB2C3F1050399B2002301934FF6EB
:102CB000FF730093E6233C222448FEF7A7FAFFF7B0
:102CC00089BA1F230193F0230093F02300220021EF
:102CD0001E48FDF7EDFE1F2302934FF6E0730193AC
:102CE00064230093282308221A491848FEF702FAA1
:102CF0001F2302934FF6E073019378230093082378
:102D00000F2215491148FEF7F5F900F067F8034660
:102D1000002B0CBF01230023DBB2002B04D00A21BF
:102D20000A4801F036FCF0E700F058F80346002BA3
:102D300014BF01230023DBB2002B02D0F4E700BF55
:102D400000E000BF07F5EA77BD46F0BD04000020B3
:102D500070520008945200088452000880B588B070
:102D600002AF03460A46FB801346BB80FB88053B47
:102D70009AB2BB88063B99B207F108000C23019375
:102D80000A2300930B46124900F0A6FD07F1080341
:102D9000184600F0C4FD32224FF4FA610D4800F0ED
:102DA0003DFC32210C4801F0F4FB32224FF4FA7161
:102DB000084800F033FC3221074801F0EAFB07F134
:102DC0000803184600F0EEFD00BF1837BD4680BD71
:102DD00044510008400100200400002080B500AFED
:102DE0000E48FEF703FC034603F00403002B14BF58
:102DF00001230023DBB2002B0AD0094B1B68002BF8
:102E000004D1074B01221A60012305E0002303E0EF
:102E1000034B00221A600023184680BD44010020A5
:102E2000AC02002080B500AF0B4B1B6801330A4A8F
:102E30001360094B1B68B3F57A7F05DD0748FEF781
:102E4000C3FB054B00221A60012200210448FEF753
:102E500061FA00BF80BD00BFB00200204401002025
:102E60000400002080B500AF0249034801F048FB90
:102E700000BF80BD252E00080400002080B586B06C
:102E800004AF00237B6000230193F0230093F02321
:102E9000002200217248FDF70BFE002302934FF63B
:102EA000E073019332230093502305226D496C484F
:102EB000FEF720F9002302934FF6E07301934623B7
:102EC00000935023052268496548FEF713F9002353
:102ED00002934FF6E07301935A2300935023052287
:102EE00062495F48FEF706F9002302934FF6E713A5
:102EF00001937823009305230E225D495848FEF77D
:102F0000F9F80023029341F6E37301938C230093B5
:102F10000523102257495248FEF7ECF8002302938C
:102F200041F6FF030193A023009305230F2252498A
:102F30004B48FEF7DFF8002302934FF6FF7301932F
:102F4000C8230093052312224C494548FEF7D2F8C6
:102F50000D234B4A4B494C4800F0D5FB00233B6006
:102F60003B680C2B13DC474A3B6832F81330194698
:102F7000464800F022FA4649444800F063FA6421CA
:102F8000374801F006FB3B6801333B60E8E77B68AC
:102F9000002B61D13F48FEF729FB0346012B0CBFF4
:102FA00001230023DBB2002B13D001237B60FDF74C
:102FB000BFF83848FEF71AFB0346002B14BF012365
:102FC0000023DBB2002B04D06421254801F0E1FA94
:102FD000EFE73048FEF70AFB0346022B0CBF012344
:102FE0000023DBB2002B13D001237B60FEF738FFF8
:102FF0002848FEF7FBFA0346002B14BF01230023E9
:10300000DBB2002B04D06421154801F0C2FAEFE7CF
:103010002048FEF7EBFA0346042B0CBF01230023E4
:10302000DBB2002B13D001237B6000F0E1FD1948D7
:10303000FEF7DCFA0346002B14BF01230023DBB2AA
:10304000002B04D06421064801F0A3FAEFE76421C5
:10305000034801F09EFA9AE700BF0837BD4680BDDD
:1030600004000020FC5B0008045C00080C5C000805
:10307000145C0008245C0008385C0008485C000808
:10308000BC520008A0520008400100202800002087
:103090005C5C00084401002080B487B000AFF86099
:1030A000B9601346FB80FB687B61BB683B61FB88B2
:1030B0005B08FB80FB88002B47D0274B274A5A60D0
:1030C000254B274A5A60244B1B69234A23F00203ED
:1030D0001361214B1B69204A43F0010313613A69D4
:1030E0007B6912881A801C4BDB6803F00103002BFC
:1030F00014BF01230023DBB2002B00D0F3E7164BF3
:10310000DB6803F00403002B14BF01230023DBB2B0
:10311000002B02D04FF0FF3318E00F4BDB6803F0B9
:103120001003002B14BF01230023DBB2002B02D0BD
:103130006FF001030AE07B6902337B613B69023374
:103140003B61FB88013BFB80B4E7002318461C373A
:10315000BD4680BC704700BF002002402301674588
:10316000AB89EFCD80B483B000AF7860154B164AC1
:103170005A60144B154A5A60124B1B69114A23F0CE
:10318000010313610F4B1B690E4A43F002031361E5
:103190000C4A7B6853610B4B1B690A4A43F040039E
:1031A0001361084BDB6803F00103002B14BF0123FC
:1031B0000023DBB2002B00D0F3E700BF0C37BD4685
:1031C00080BC70470020024023016745AB89EFCDEA
:1031D00080B487B000AFF860B9601346FB80FB682D
:1031E0007B61BB683B61FB885B08FB80FB88002B35
:1031F0000DD07B691A883B691A803B6902333B61B9
:103200007B6902337B61FB88013BFB80EEE700BFFB
:103210001C37BD4680BC704780B485B000AF786075
:103220004FF41653FB60414A7B68136072B67B68AB
:103230000022C3F8942000237A68C2F890307A689C
:10324000C2F88C307B6800229A6000237A68536051
:103250007A681360364B9B69354A43F004039361E7
:10326000334BDB69324A43F40033D361314B1B6883
:10327000304A23F4807313602E4B1B682D4A43F4AD
:10328000007313602B4B1B682A4A23F4806313607E
:10329000284B1B68274A43F400631360254B1B68C7
:1032A000244A23F440531360224B1B68214A23F421
:1032B000804313601F4B1B681E4A43F40043136096
:1032C0001D4BBB60BA68FB6892FBF3F3BB60184B05
:1032D0001B69174A23F400331361184B0022DA608C
:1032E000164B00221A61154B00225A61134ABB6823
:1032F0009360124BDB68114A43F06C03D3600F4BB1
:10330000DB680E4A43F40053D3604FF0E023D3F858
:1033100004314FF0E02243F04003C2F8043162B6BA
:1033200000BF1437BD4680BC704700BFB802002004
:10333000001002400008014000A24A04004400407E
:1033400080B582B000AF78600B46FB70124BDB6833
:1033500003F00803002B0CBF01230023DBB2002B7A
:103360000FD00D4BDB680C4A43F00803D3607B6839
:103370001946786800F0A6F803461A46064B5A60CC
:1033800005E07B68FA781946786800F072F800BFAB
:103390000837BD4680BD00BF0044004080B582B004
:1033A00000AF78607B688C331946786800F08AF843
:1033B000034618460837BD4680BD80B586B000AFCD
:1033C000786039600A237B610023FB743B68002B23
:1033D00005DA2D233B723B685B423B6001E02B2307
:1033E0003B727B69002B20DD3A68154B83FB02138F
:1033F0009910D317C91A0B469B000B445B00D11AD6
:10340000CBB23033D9B207F108027B6913440A46C4
:103410001A703B680A4A82FB03129210DB17D31A18
:103420003B607B69013B7B61DBE707F108031946E1
:10343000786800F007F800BF1837BD4680BD00BFB0
:103440006766666680B582B000AF786039603B68B9
:103450001B78002B09D03B681B7819467868FFF76A
:103460006FFF3B6801333B60F1E700BF0837BD46A3
:1034700080BD80B485B000AFF860B9601346FB71C1
:10348000BB689B687F2B94BF01230023DBB2002B1A
:1034900013D072B6BB689B685A1CBB689A60BB6845
:1034A0001B68BA681344FA791A73BB681B68013346
:1034B00003F07F02BB681A6062B600BF1437BD46D6
:1034C00080BC704780B485B000AF7860396000235D
:1034D000FB733B689B68002B14BF01230023DBB206
:1034E000002B13D072B63B689B685A1E3B689A60EB
:1034F0003B685B683A6813441B7BFB733B685B6803
:10350000013303F07F023B685A6062B6FB7B1846CA
:103510001437BD4680BC704780B500AF284B1B6890
:1035200003F04003002B14BF01230023DBB2002B68
:103530002DD0244B1B689B68002B14BF0123002354
:10354000DBB2002B0CD01F4B1A681E4B1B681946B0
:103550001046FFF7B7FF03461A46194B5A6016E0AC
:10356000174BDB68164A23F00803D360144B1B6823
:1035700003F04003002B14BF01230023DBB2002B18
:1035800005D00F4B1B680E4A23F0400313600C4B11
:103590001B6803F02003002B14BF01230023DBB2C0
:1035A000002B0BD0074B1868064B1B6803F18C01EE
:1035B000034B5B68DBB21A46FFF75BFF00BF80BDC1
:1035C00000440040B802002080B483B000AF7860AF
:1035D0000F4A7B6813600F4BDB690E4A43F002030E
:1035E000D3610C4B9B690B4A43F0080393610A4B70
:1035F00000221A60084B6022DA61074B1B6A064AF8
:1036000043F48073136200BF0C37BD4680BC704723
:10361000BC020020001002400004004080B483B0CF
:1036200000AF78600B467B8013463B801A4B1B68CB
:10363000194A23F00F031360174B1B68164A43F017
:103640000A031360154B1B68144A23F0010313602F
:10365000124B40F24A429A62104B9B6A104AB2FBEC
:10366000F3F27B880D49B2FBF3F3CB620B4BDB6AC1
:103670000A4A5B08D363094B00225A62074B1B6856
:10368000064A43F0010313603A887B681A6000BF62
:103690000C37BD4680BC7047000C01400004004060
:1036A00000A24A0480B400AF0A4B1B68094A23F009
:1036B00001031360084B1B68074A23F00F031360D4
:1036C000054B1B68044A43F00403136000BFBD466A
:1036D00080BC704700040040000C014080B483B0FF
:1036E00000AF78607B681B68002B14BF01230023A8
:1036F000DBB2002B01D0012300E0002318460C3779
:10370000BD4680BC704780B586B000AFF860B96038
:103710007A603B6000237B617A693B689A421DDADC
:10372000F868FFF7DBFF0346002B14BF01230023DB
:10373000DBB2002B00D0F3E77B695B00BA6813446F
:1037400019887B695B007A6813441B881A46F868FD
:10375000FFF764FF7B6901337B61DDE700BF18374A
:10376000BD4680BD80B500AF0E4B1B681B68002BAB
:1037700014BF01230023DBB2002B10D0094B1B68C0
:103780001A68013A1A60074B1B681B68002B0CBFB4
:1037900001230023DBB2002B01D0FFF783FF00BF22
:1037A00080BD00BFBC02002080B582B000AF1A4BC4
:1037B000DB69194A43F48043D361174B9B69164A6E
:1037C00043F008039361154B5B68144A23F0704380
:1037D00023F470035360114B5B68104A43F030438D
:1037E00043F4300353600E4B9B683B600C4B40F23C
:1037F00047321A6000237B607B681F2B08DC0020A7
:1038000000F010F803463B607B6801337B60F3E710
:1038100000BF0837BD4680BD00100240000C0140CB
:103820000038004080B487B000AF0346FB711A4BEC
:103830007B611A4B3B611A4B9B6803F08003002BA2
:1038400006D07B695A1E7A61002B01D0012300E06B
:103850000023002B00D0EEE73B69FA791A700E4B7B
:103860007B610F4B9B6803F08003002B06D07B69C4
:103870005A1E7A61002B01D0012300E00023002BA7
:1038800000D0EEE73B691B78FB73FB7B18461C37C7
:10389000BD4680BC704700BF40420F000C3800405E
:1038A0000038004080B584B000AF0346FB80094B70
:1038B000FB60FB881B12DBB21846FFF7B3FFFB88E7
:1038C000DBB21846FFF7AEFF002318461037BD469F
:1038D00080BD00BF40420F0080B485B000AFF860EB
:1038E000B96011461A460B46FB801346BB80FB6845
:1038F000FA881A81FB68BA885A81FB683A8B1A8069
:10390000FB68BA8B5A80FB68BA685A60FB68002271
:103910001A73FB6818461437BD4680BC704790B5D3
:1039200085B002AF78607B681B7B002B10D17B6871
:1039300019897B6858897B681C887B685B887A68F2
:10394000526801920093234602460548FDF7B4FBF6
:103950007B6801221A7300BF0C37BD4690BD00BFC3
:103960000400002090B585B002AF78607B681B7BB7
:10397000002B10D07B6819897B6858897B681C886C
:103980007B685B887A6852680192009323460246FE
:103990000348FDF791FB00BF0C37BD4690BD00BF4B
:1039A0000400002090B585B002AF78607B681B7B77
:1039B000002B0FD07B6819897B6858897B681C882D
:1039C0007B685B88002201920093234602460548EB
:1039D000FDF76EF87B6800221A7300BF0C37BD46F6
:1039E00090BD00BF0400002090B585B002AF7860A4
:1039F0000B467B8013463B807B681B7B002B27D0CC
:103A00007B6819897B6858897B681C887B685B8820
:103A1000002201920093234602461248FDF748F81F
:103A20007B687A881A817B683A885A817B68198911
:103A30007B6858897B681C887B685B887A685268D9
:103A400001920093234602460648FDF735FB05E048
:103A50007B687A881A817B683A885A8100BF0C3764
:103A6000BD4690BD0400002080B483B000AF7860F4
:103A70000B467B8013463B807B681B7B002B01D170
:103A8000002320E07B681B897A889A421AD37A88BF
:103A90007B681B8919467B681B880B449A4211DAA4
:103AA0007B685B893A889A420AD33A887B685B894B
:103AB00019467B685B880B449A4201DA012302E0D5
:103AC000002300E0002318460C37BD4680BC704739
:103AD00080B483B000AF78600B467B8013463B8098
:103AE0007B681B7B002B01D100235EE07B685B8938
:103AF0003A889A420FD17B681B897A889A420AD306
:103B00007A887B681B8919467B681B880B449A421C
:103B100001DA012349E07B681B897A889A420FD138
:103B20007B685B893A889A420AD33A887B685B89CA
:103B300019467B685B880B449A4201DA022334E021
:103B40003A887B685B8919467B685B880B44013B3C
:103B50009A420FD17B681B897A889A420AD37A8865
:103B60007B681B8919467B681B880B449A4201DAE3
:103B700003231AE07A887B681B8919467B681B88B7
:103B80000B44013B9A420FD17B685B893A889A4289
:103B90000AD33A887B685B8919467B685B880B444B
:103BA0009A4201DA042300E0002318460C37BD4690
:103BB00080BC704780B582B002AF00230193F02330
:103BC0000093F023002200210848FCF771FF4FF614
:103BD000FF730193F0230093F02300220021034898
:103BE000FCF784FF00BFBD4680BD00BF040000207D
:103BF000B0B59AB004AF704B3B640023FB64002364
:103C0000BB646E4B3C461D460FCD0FC40FCD0FC499
:103C100095E8070084E807000023FB631323BB63D8
:103C200000237B64BA6B13465B0013449B00043390
:103C30007B630023FB6400230193F0230093F023B4
:103C4000002200215E48FCF733FF00237B657B6D7B
:103C50000B2B51DC00233B653B6D092B48DC3B6D96
:103C60009BB2BA6B92B202FB03F399B27B6D9BB22B
:103C7000BA6B92B202FB03F398B2BB6B9CB2BB6B04
:103C80009BB24FF6FF7201920093234602464C48C6
:103C9000FCF72CFF3B6D9BB2BA6B92B202FB03F3B5
:103CA0009BB2013398B27B6D9BB2BA6B92B202FBAE
:103CB00003F39BB201339CB2BB6B9BB2023B9DB240
:103CC000BB6B9BB2023B9BB2FA6C5200396C0A444C
:103CD0001288019200932B46224601463848FCF791
:103CE000E7FEFB6C0133FB643B6D01333B65B3E7DF
:103CF0007B6D01337B65AAE700237B657B6D012B20
:103D000060DC00233B653B6D0A2B51DC3B6D9BB2B5
:103D1000BA6B92B202FB03F399B27B6D9BB2BA6BA2
:103D200092B202FB03F39AB27B6B9BB2134498B23C
:103D3000BB6B9CB2BB6B9BB24FF6FF7201920093C0
:103D4000234602461E48FCF7D1FE3B6D9BB2BA6B80
:103D500092B202FB03F39BB2013399B27B6D9BB22B
:103D6000BA6B92B202FB03F39AB27B6B9BB2134421
:103D70009BB2013398B2BB6B9BB2023B9CB2BB6B54
:103D80009BB2023B9AB2BB6C5B0007F158052B4417
:103D900033F8583C01930092234602460848FCF74A
:103DA00087FEBB6C0133BB643B6D01333B65AAE707
:103DB0007B6D01337B65A1E74C0100201C6000088E
:103DC00004000020002302934FF6FF730193E823C1
:103DD000009300231322AA49AA48FDF78BF9002378
:103DE000BB647B6C002B40F04781A748FDF7DEFCED
:103DF00003461A4613461B019B1A1B01A34A82FB6A
:103E000003129211DB17D31A3B639F48FDF752FC54
:103E100003461A4613461B019B1A1B019B4A82FB51
:103E200003129211DB17D31AFB623B6B19469848B9
:103E3000FFF7C3FA97499648FFF704FBFB6A194658
:103E40009348FFF7BAFA94499148FFF7FBFA3B6BA6
:103E5000EF2B00F2DC80FB6AEF2B00F2D8807B6B4B
:103E6000FA6A9A4226D3BB6B5A007B6B13441A46FC
:103E7000FB6A93421ED8BA6B13469B0013445B0047
:103E800013441A463B6B934214D27B6BFA6AD21AE4
:103E9000BB6BB2FBF3F213469B0013445B001A4466
:103EA000BB6B396BB1FBF3F31344BB64B96C78485B
:103EB000FFF783FA78497648FFF7C4FABB6B013302
:103EC0009BB21A46920013445B0099B2BB6B98B246
:103ED000BB6B9BB24FF6FF720192009303467822B0
:103EE0006848FCF703FEBB6B9BB21A469200134472
:103EF0005B009BB20B3399B2BB6B9BB2023B98B297
:103F0000BB6B9BB2023B9AB2BB6C5B0007F15804DF
:103F1000234433F8583C01930092034679225948D0
:103F2000FCF7C6FDBA6B13465B0013449B001A46B0
:103F3000FB6A93426BD8BA6B13469B0013445B0039
:103F40001A463B6B934262D8BB6BFA6AB2FBF3F33F
:103F50007B65BB6B3A6BB2FBF3F33B657A6D134643
:103F60009B0013445B001A463B6D1344FB647B6D5E
:103F70000B2B4CDC3B6D092B49DCFB6C5B003A6C7A
:103F80001A44BB6C5B0007F158010B4433F8583CF2
:103F900013803B6D9BB2BA6B92B202FB03F39BB2F0
:103FA000013398B27B6D9BB2BA6B92B202FB03F302
:103FB0009BB201339CB2BB6B9BB2023B9DB2BB6B0D
:103FC0009BB2023B9BB2FA6C5200396C0A441288D5
:103FD000019200932B46224601462A48FCF768FDD1
:103FE000BB6B9BB21A46920013445B009BB20B332F
:103FF00099B2BB6BC3F13C039BB25B009AB23B6CC2
:1040000001930C2300930A231E48FDF755F81E4820
:10401000FDF7ECFA0346FB6332211A4800F0B9FAC7
:10402000FB6B022B09D0FB6B042B1ED0FB6B012B0F
:104030007FF4D7AE01237B641DE00023FB64FB6C9F
:104040009F2B0CD8FB6C5B003A6C13441349FA6C41
:1040500031F812201A80FB6C0133FB64EFE7104843
:1040600000F080F901237B6405E00D4800F07AF947
:1040700001237B6400BFB4E600BF5837BD46B0BD26
:10408000006000080400002044010020D34D6210AD
:10409000280000201460000818600008085D00086F
:1040A0004C01002080B584B000AF7860154A7B6871
:1040B000C3F84C21786800F0F7F802467B68C3F833
:1040C00050217B68D3F85031002B03D0786800F082
:1040D000B9F913E00023FB60FB68772B0BD80A4A81
:1040E000FB6832F813107B68FA6823F81210FB683B
:1040F0000133FB60F0E7786800F034F900BF103757
:10410000BD4680BD00FC00088060000880B489B016
:1041100000AFF860B9607A607B800023FB61BB6808
:10412000BB617B687B617B885B087B8072B67B8828
:10413000002B49D0294B2A4A5A60284B294A5A60F9
:10414000264B1B69254A23F002031361234B1B698D
:10415000224A43F0010313617A69BB6912881A800D
:104160001E4BDB6803F00103002B14BF0123002367
:10417000DBB2002B00D0F3E7184BDB6803F004033D
:10418000002B14BF01230023DBB2002B03D04FF020
:10419000FF33FB6118E0114BDB6803F01003002BC9
:1041A00014BF01230023DBB2002B03D06FF0010307
:1041B000FB6109E0BB690233BB617B6902337B6150
:1041C0007B88013B7B80B2E7044B00225A6062B6D9
:1041D000FB6918462437BD4680BC7047002002406A
:1041E00023016745AB89EFCD80B483B000AF786021
:1041F000396072B6174B184A5A60164B174A5A6004
:10420000144B1B69134A23F001031361114B1B6903
:10421000104A43F0020313610E4A3B6853610D4B91
:104220001B690C4A43F0400313610A4BDB6803F03F
:104230000103002B14BF01230023DBB2002B00D0AD
:10424000F3E7044B00225A6062B600BF0C37BD464C
:1042500080BC70470020024023016745AB89EFCD49
:1042600080B487B000AFF860B9607A607B80BB68CB
:104270007B617B683B617B885B087B807B88002B54
:104280000DD07B691A883B691A803B6902333B6118
:104290007B6902337B617B88013B7B80EEE700BF5B
:1042A0001C37BD4680BC704780B485B000AF7860D5
:1042B0007B68D3F84C31FB607B68D3F84C217B687A
:1042C000D3F8483113441A46FB68934244D2FB6842
:1042D0001A787B6893F840319A4239D1FB680133F0
:1042E0001A787B6893F841319A4231D1FB680233E6
:1042F0001A787B6893F842319A4229D1FB680333DC
:104300001A787B6893F843319A4221D1FB680433D1
:104310001A787B6893F844319A4219D1FB680533C7
:104320001A787B6893F845319A4211D1FB680633BD
:104330001A787B6893F846319A4209D1FB680733B3
:104340001A787B6893F847319A4201D1FB6804E000
:10435000FB680133FB60AFE7002318461437BD4606
:1043600080BC704780B586B000AF78607B68D3F8BA
:104370005031002B46D04FF4A4737B617B6903F06E
:104380000103002B02D07B6901337B617B68D3F88A
:1043900050217B691A447B68D3F84C117B68D3F8B1
:1043A00048310B449A421FD80023FB8100233B6114
:1043B0003A697B699A420ED27B68D3F850213B69F7
:1043C000D11807F10E0202237868FFF79FFE3B69C0
:1043D00002333B61ECE77B68D3F850217B691A44D8
:1043E0007B68C3F8502113E07B68D3F84C31194641
:1043F0007868FFF7F9FE7B68D3F84C217B68C3F837
:10440000502105E07B68D3F84C217B68C3F850212C
:104410007B68D3F850117B6803F5A0720823786895
:10442000FFF774FE7B68D3F8503103F108017A6816
:104430004FF4A0737868FFF769FE00231846183719
:10444000BD4680BD80B582B000AF78607B68D3F890
:104450005031002B0CD07B68D3F8503103F10801A8
:104460007A684FF4A0737868FFF7FAFE002301E042
:104470004FF0FF3318460837BD4680BD80B582B087
:1044800000AF78607B68D3F84C3119467868FFF745
:10449000ABFE7B680022C3F8502100BF0837BD4641
:1044A00080BD00BF80B485B000AF7860114A7B68E2
:1044B00013600023FB60FB68072B09DC7A68FB684C
:1044C0009B00134400225A60FB680133FB60F2E753
:1044D000094B1B68084A43F007031360064B074A61
:1044E0005A60054B05229A6062B600BF1437BD467C
:1044F00080BC7047C002002010E000E03F190100BE
:1045000080B485B000AF786039600023FB60FB6841
:10451000072B12DC7A68FB689B0013445B68002B56
:1045200007D17A68FB689B0013443A685A600023FD
:1045300005E0FB680133FB60E9E74FF0FF33184605
:104540001437BD4680BC704780B485B000AF78603A
:1045500039600023FB60FB68072B13DC7A68FB687B
:104560009B0013445B683A689A4207D17A68FB68FB
:104570009B00134400225A60002305E0FB680133CE
:10458000FB60E8E74FF0FF3318461437BD4680BCA8
:10459000704780B483B000AF786039603B68002B0F
:1045A00009D07B6800221A607B681B683A689A42CF
:1045B00001D930BFF8E700BF0C37BD4680BC70475B
:1045C00080B582B000AF104B1B681A6801321A60C8
:1045D00000237B607B68072B12DC0B4B1A687B681F
:1045E0009B0013445B68002B06D0074B1A687B685E
:1045F0009B0013445B6898477B6801337B60E9E765
:1046000000BF0837BD4680BDC00200204514000829
:10461000450C750FC50D5F10750F60125F10450CCE
:10462000450C6012450C6012450C0000C800C80023
:10463000C800C800C800C800C800C800C800C8003A
:10464000C800C800C800000001000100010001000E
:104650000100010001000100010001000100010052
:104660000100010001000100010001000100010042
:1046700001000100010001000100E6FFE6FFE6FF86
:10468000E6FFE6FFE6FFE6FFE6FFE6FFE6FFE6FF02
:10469000E6FFE6FFE6FFE6FFE6FFE6FFE6FFE6FFF2
:1046A000E6FFE6FFE6FF01000100E6FFE6FFE6FFAA
:1046B000E6FFE6FFE6FFE6FFE6FFE6FFE6FFE6FFD2
:1046C000E6FFE6FFE6FFE6FFE6FFE6FFE6FFE6FFC2
:1046D000E6FFE6FFE6FF01000100E6FFE6FFE6FF7A
:1046E000E6FFE6FFE6FFE6FFE6FFE6FFE6FFE6FFA2
:1046F000E6FFE6FFE6FFE6FFE6FFE6FFE6FFE6FF92
:10470000E6FFE6FFE6FF01000100E6FFE6FFE6FF49
:10471000E6FFE6FFE6FFE6FFE6FFE6FFE6FFE6FF71
:10472000E6FFE6FFE6FFE6FFE6FFE6FFE6FFE6FF61
:10473000E6FFE6FFE6FF01000100E6FFE6FFE6FF19
:10474000E6FFE6FFE6FFE6FFE6FFE6FFE6FFE6FF41
:10475000E6FFE6FFE6FFE6FFE6FFE6FFE6FFE6FF31
:10476000E6FFE6FFE6FF01000100E6FFE6FFE6FFE9
:10477000E6FFE6FFE6FFE6FFE6FFE6FFE6FFE6FF11
:10478000E6FFE6FFE6FFE6FFE6FFE6FFE6FFE6FF01
:10479000E6FFE6FFE6FF01000100E6FFE6FFE6FFB9
:1047A000E6FFE6FFE6FFE6FFE6FFE6FFE6FFE6FFE1
:1047B000E6FFE6FFE6FFE6FFE6FFE6FFE6FFE6FFD1
:1047C000E6FFE6FFE6FF01000100E6FFE6FFE6FF89
:1047D000E6FFE6FFE6FFE6FFE6FFE6FFE6FFE6FFB1
:1047E000E6FFE6FFE6FFE6FFE6FFE6FFE6FFE6FFA1
:1047F000E6FFE6FFE6FF0100010001000100010005
:1048000001000100010001000100010001000100A0
:104810000100010001000100010001000100010090
:104820000100010001000100010001000100010080
:104830000100010001000100010001000100010070
:104840000100010001000100010001000100010060
:1048500001000100010001000100C32FC32FC32F7D
:10486000C32FC32FC32FC32FC32FC32FC32FC32FB8
:10487000C32FC32FC32FC32FC32FC32FC32FC32FA8
:10488000C32FC32FC32F01000100C32FC32FC32F7A
:10489000C32FC32FC32FC32FC32FC32FC32FC32F88
:1048A000C32FC32FC32FC32FC32FC32FC32FC32F78
:1048B000C32FC32FC32F01000100C32FC32FC32F4A
:1048C000C32FC32FC32FC32FC32FC32FC32FC32F58
:1048D000C32FC32FC32FC32FC32FC32FC32FC32F48
:1048E000C32FC32FC32F01000100C32FC32FC32F1A
:1048F000C32FC32FC32FC32FC32FC32FC32FC32F28
:10490000C32FC32FC32FC32FC32FC32FC32FC32F17
:10491000C32FC32FC32F01000100C32FC32FC32FE9
:10492000C32FC32FC32FC32FC32FC32FC32FC32FF7
:10493000C32FC32FC32FC32FC32FC32FC32FC32FE7
:10494000C32FC32FC32F01000100C32FC32FC32FB9
:10495000C32FC32FC32FC32FC32FC32FC32FC32FC7
:10496000C32FC32FC32FC32FC32FC32FC32FC32FB7
:10497000C32FC32FC32F01000100C32FC32FC32F89
:10498000C32FC32FC32FC32FC32FC32FC32FC32F97
:10499000C32FC32FC32FC32FC32FC32FC32FC32F87
:1049A000C32FC32FC32F01000100C32FC32FC32F59
:1049B000C32FC32FC32FC32FC32FC32FC32FC32F67
:1049C000C32FC32FC32FC32FC32FC32FC32FC32F57
:1049D000C32FC32FC32F01000100010001000100FC
:1049E00001000100010001000100010001000100BF
:1049F00001000100010001000100010001000100AF
:104A0000010001000100010001000100010001009E
:104A1000010001000100010001000100010001008E
:104A2000010001000100010001000100010001007E
:104A3000010001000100010001005F1E5F1E5F1EFA
:104A40005F1E5F1E5F1E5F1E5F1E5F1E5F1E5F1E7E
:104A50005F1E5F1E5F1E5F1E5F1E5F1E5F1E5F1E6E
:104A60005F1E5F1E5F1E010001005F1E5F1E5F1E56
:104A70005F1E5F1E5F1E5F1E5F1E5F1E5F1E5F1E4E
:104A80005F1E5F1E5F1E5F1E5F1E5F1E5F1E5F1E3E
:104A90005F1E5F1E5F1E010001005F1E5F1E5F1E26
:104AA0005F1E5F1E5F1E5F1E5F1E5F1E5F1E5F1E1E
:104AB0005F1E5F1E5F1E5F1E5F1E5F1E5F1E5F1E0E
:104AC0005F1E5F1E5F1E010001005F1E5F1E5F1EF6
:104AD0005F1E5F1E5F1E5F1E5F1E5F1E5F1E5F1EEE
:104AE0005F1E5F1E5F1E5F1E5F1E5F1E5F1E5F1EDE
:104AF0005F1E5F1E5F1E010001005F1E5F1E5F1EC6
:104B00005F1E5F1E5F1E5F1E5F1E5F1E5F1E5F1EBD
:104B10005F1E5F1E5F1E5F1E5F1E5F1E5F1E5F1EAD
:104B20005F1E5F1E5F1E010001005F1E5F1E5F1E95
:104B30005F1E5F1E5F1E5F1E5F1E5F1E5F1E5F1E8D
:104B40005F1E5F1E5F1E5F1E5F1E5F1E5F1E5F1E7D
:104B50005F1E5F1E5F1E010001005F1E5F1E5F1E65
:104B60005F1E5F1E5F1E5F1E5F1E5F1E5F1E5F1E5D
:104B70005F1E5F1E5F1E5F1E5F1E5F1E5F1E5F1E4D
:104B80005F1E5F1E5F1E010001005F1E5F1E5F1E35
:104B90005F1E5F1E5F1E5F1E5F1E5F1E5F1E5F1E2D
:104BA0005F1E5F1E5F1E5F1E5F1E5F1E5F1E5F1E1D
:104BB0005F1E5F1E5F1E0100010001000100010079
:104BC00001000100010001000100010001000100DD
:104BD00001000100010001000100010001000100CD
:104BE0000100010001000100FFFFFFFFFFFFFFFFC9
:104BF000FFFFFFFFFFFFFFFFFFFFFFFFFFFFFFFFC5
:104C0000FFFFFFFFFFFFFFFFFFFFFFFFFFFFFFFFB4
:104C1000FFFFFFFFFFFFFFFFFFFFFFFFFFFFFFFFA4
:104C2000FFFFFFFFFFFFFFFFFFFFFFFFFFFFFFFF94
:104C3000FFFFFFFFFFFFFFFFFFFFFFFFFFFFFFFF84
:104C4000FFFFFFFFFFFFFFFFFFFFFFFFFFFFFFFF74
:104C5000FFFFFFFFFFFFFFFFFFFFFFFFFFFFFFFF64
:104C60000000FFFF0000FFFFFFFFFFFF0000FFFF4E
:104C70000000000042726963690000004C657665BF
:104C80006C00000047414D45204F56455200000042
:104C90004669726520746F20726573746172740066
:104CA000564943544F52592100000000450C750FDE
:104CB000C50D5F10750F60125F10450C450C60123A
:104CC000450C6012450C0000C800C800C800C800B0
:104CD000C800C800C800C800C800C800C800C80094
:104CE000C80000004D414749433432230000000012
:104CF0000000005F00000007000700147F147F140D
:104D0000242A7F2A12231308646236495522500050
:104D100005030000001C2241000041221C00082A5B
:104D20001C2A0808083E080800503000000808083F
:104D30000808006060000020100804023E51494548
:104D40003E00427F400042615149462141454B317E
:104D50001814127F1027454545393C4A494930010E
:104D6000710905033649494936064949291E003665
:104D700036000000563600000008142241141414B6
:104D800014144122140800020151090632497941E4
:104D90003E7E1111117E7F494949363E41414122F3
:104DA0007F4141221C7F494949417F090901013E58
:104DB000414151327F0808087F00417F4100204077
:104DC000413F017F081422417F404040407F020460
:104DD000027F7F0408107F3E4141413E7F0909095F
:104DE000063E4151215E7F0919294646494949310C
:104DF00001017F01013F4040403F1F2040201F7FB5
:104E00002018207F6314081463030478040361519D
:104E100049454300007F4141020408102041417F81
:104E2000000004020102044040404040000102042E
:104E30000020545454787F48444438384444442033
:104E4000384444487F3854545418087E09010208F5
:104E50001454543C7F0804047800447D40002040F2
:104E6000443D00007F10284400417F40007C04182E
:104E700004787C0804047838444444387C141414BE
:104E800008081414187C7C0804040848545454205E
:104E9000043F4440203C4040207C1C2040201C3CDF
:104EA0004030403C44281028440C5050503C44644E
:104EB000544C44000836410000007F000000413699
:104EC000080008082A1C08081C2A0808450C750F49
:104ED000C50D5F10750F60125F10450C450C601218
:104EE000450C6012450C0000C800C800C800C8008E
:104EF000C800C800C800C800C800C800C800C80072
:104F0000C8000000450C750FC50D5F10750F6012CD
:104F10005F10450C450C6012450C6012450C0000FA
:104F2000C800C800C800C800C800C800C800C80041
:104F3000C800C800C800C800C80000000000000089
:104F40000000000000000000000000000000000061
:104F50000000000000000000E0FFE0FF0000000093
:104F600000000000000000000000E0FFE0FFE0FFA4
:104F7000E0FF0000000000000000E0FFE0FF000094
:104F8000E0FFE0FF0000E0FFE0FF00000000E0FFC6
:104F9000E0FF0000E0FFE0FF0000E0FFE0FF0000B6
:104FA0000000E0FFE0FFE0FFE0FFE0FFE0FFE0FFE8
:104FB000E0FF00000000E0FFE0FFE0FFE0FFE0FFB7
:104FC000E0FFE0FFE0FF000000000000E0FFE0FF86
:104FD00000000000E0FFE0FF000000000000000013
:104FE000E0FFE0FF00000000E0FFE0FF0000000045
:104FF0000000E0FFE0FF0000000000000000E0FF14
:10500000E0FF0000E0FFE0FFE0FF00000000000024
:105010000000E0FFE0FFE0FF0000000000000000F3
:105020000000000000000000000000000000000080
:105030000000000000000000000000000000000070
:105040000000000000000000FFFFFFFF0000000064
:10505000000000000000000000000000FFFFFFFF54
:1050600000000000000000000000FFFFFFFFFFFF46
:10507000FFFFFFFFFFFFFFFFFFFF0000FFFFFFFF3E
:10508000FFFFFFFFFFFFFFFFFFFFFFFFFFFFFFFF30
:10509000FFFFFFFFFFFFFFFFFFFFFFFFFFFFFFFF20
:1050A000FFFFFFFF00000000E0070000000000001D
:1050B000E007E007E00700000000E007E007E00786
:1050C00000000000E007E007E00700000000E00744
:1050D000E007E0070000E007E007E007E007E0077F
:1050E000E007E007E007E007E00700000000E0FF5E
:1050F0000000000000000000E0FF000000001F00B2
:105100001F001F001F001F001F001F001F001F00A7
:105110001F0000001F001F001F00000000001F00F4
:105120001F001F00000000001F001F001F000000E4
:1051300000001F001F001F000000000000001F00F3
:1051400000000000000000000000000000F800F86F
:10515000000000000000000000F800000000000057
:1051600000F800F800000000000000F8000000F85F
:105170000000000000F800F80000000000F8000047
:105180000000000000F8000000F800F8000000F83F
:105190000000000000000000000000F800F800F827
:1051A00000F800000000000000F800F800F800F827
:1051B00000F800F800F800F800F800F800F800F82F
:1051C00000F800F800F800F800F800F800F800F81F
:1051D00000000000000000F800F800F800F80000EF
:1051E000000000000000000000F8000000F800F8D7
:1051F000000000F800000000000000F800000000BF
:1052000000F800F80000000000F8000000F80000BE
:105210000000000000F800F800000000000000F8A6
:10522000000000000000000000F800F8000000008E
:10523000000000004D43552047616C61676100002C
:105240004F6E6C792035206D697373696C657300DE
:1052500063616E20626520696E20666C69676874A0
:10526000000000006174206F6E652074696D650038
:105270004C6576656C00000047414D45204F564512
:10528000520000004669726520746F207265737465
:1052900061727400564943544F5259210000000076
:1052A000450C750FC50D5F10750F60125F10450C32
:1052B000450C6012450C6012450C0000C800C80087
:1052C000C800C800C800C800C800C800C800C8009E
:1052D000C800C800C8000000010001000100010072
:1052E00001000100010001000100010001000100B6
:1052F00001000100010001000100010001000100A6
:1053000001000100010001000100E6FFE6FFE6FFE9
:10531000E6FFE6FFE6FFE6FFE6FFE6FFE6FFE6FF65
:10532000E6FFE6FFE6FFE6FFE6FFE6FFE6FFE6FF55
:10533000E6FFE6FFE6FF01000100E6FFE6FFE6FF0D
:10534000E6FFE6FFE6FFE6FFE6FFE6FFE6FFE6FF35
:10535000E6FFE6FFE6FFE6FFE6FFE6FFE6FFE6FF25
:10536000E6FFE6FFE6FF01000100E6FFE6FFE6FFDD
:10537000E6FFE6FFE6FFE6FFE6FFE6FFE6FFE6FF05
:10538000E6FFE6FFE6FFE6FFE6FFE6FFE6FFE6FFF5
:10539000E6FFE6FFE6FF01000100E6FFE6FFE6FFAD
:1053A000E6FFE6FFE6FFE6FFE6FFE6FFE6FFE6FFD5
:1053B000E6FFE6FFE6FFE6FFE6FFE6FFE6FFE6FFC5
:1053C000E6FFE6FFE6FF01000100E6FFE6FFE6FF7D
:1053D000E6FFE6FFE6FFE6FFE6FFE6FFE6FFE6FFA5
:1053E000E6FFE6FFE6FFE6FFE6FFE6FFE6FFE6FF95
:1053F000E6FFE6FFE6FF01000100E6FFE6FFE6FF4D
:10540000E6FFE6FFE6FFE6FFE6FFE6FFE6FFE6FF74
:10541000E6FFE6FFE6FFE6FFE6FFE6FFE6FFE6FF64
:10542000E6FFE6FFE6FF01000100E6FFE6FFE6FF1C
:10543000E6FFE6FFE6FFE6FFE6FFE6FFE6FFE6FF44
:10544000E6FFE6FFE6FFE6FFE6FFE6FFE6FFE6FF34
:10545000E6FFE6FFE6FF01000100E6FFE6FFE6FFEC
:10546000E6FFE6FFE6FFE6FFE6FFE6FFE6FFE6FF14
:10547000E6FFE6FFE6FFE6FFE6FFE6FFE6FFE6FF04
:10548000E6FFE6FFE6FF0100010001000100010068
:105490000100010001000100010001000100010004
:1054A00001000100010001000100010001000100F4
:1054B00001000100010001000100010001000100E4
:1054C00001000100010001000100010001000100D4
:1054D00001000100010001000100010001000100C4
:1054E00001000100010001000100C32FC32FC32FE1
:1054F000C32FC32FC32FC32FC32FC32FC32FC32F1C
:10550000C32FC32FC32FC32FC32FC32FC32FC32F0B
:10551000C32FC32FC32F01000100C32FC32FC32FDD
:10552000C32FC32FC32FC32FC32FC32FC32FC32FEB
:10553000C32FC32FC32FC32FC32FC32FC32FC32FDB
:10554000C32FC32FC32F01000100C32FC32FC32FAD
:10555000C32FC32FC32FC32FC32FC32FC32FC32FBB
:10556000C32FC32FC32FC32FC32FC32FC32FC32FAB
:10557000C32FC32FC32F01000100C32FC32FC32F7D
:10558000C32FC32FC32FC32FC32FC32FC32FC32F8B
:10559000C32FC32FC32FC32FC32FC32FC32FC32F7B
:1055A000C32FC32FC32F01000100C32FC32FC32F4D
:1055B000C32FC32FC32FC32FC32FC32FC32FC32F5B
:1055C000C32FC32FC32FC32FC32FC32FC32FC32F4B
:1055D000C32FC32FC32F01000100C32FC32FC32F1D
:1055E000C32FC32FC32FC32FC32FC32FC32FC32F2B
:1055F000C32FC32FC32FC32FC32FC32FC32FC32F1B
:10560000C32FC32FC32F01000100C32FC32FC32FEC
:10561000C32FC32FC32FC32FC32FC32FC32FC32FFA
:10562000C32FC32FC32FC32FC32FC32FC32FC32FEA
:10563000C32FC32FC32F01000100C32FC32FC32FBC
:10564000C32FC32FC32FC32FC32FC32FC32FC32FCA
:10565000C32FC32FC32FC32FC32FC32FC32FC32FBA
:10566000C32FC32FC32F010001000100010001005F
:105670000100010001000100010001000100010022
:105680000100010001000100010001000100010012
:105690000100010001000100010001000100010002
:1056A00001000100010001000100010001000100F2
:1056B00001000100010001000100010001000100E2
:1056C000010001000100010001005F1E5F1E5F1E5E
:1056D0005F1E5F1E5F1E5F1E5F1E5F1E5F1E5F1EE2
:1056E0005F1E5F1E5F1E5F1E5F1E5F1E5F1E5F1ED2
:1056F0005F1E5F1E5F1E010001005F1E5F1E5F1EBA
:105700005F1E5F1E5F1E5F1E5F1E5F1E5F1E5F1EB1
:105710005F1E5F1E5F1E5F1E5F1E5F1E5F1E5F1EA1
:105720005F1E5F1E5F1E010001005F1E5F1E5F1E89
:105730005F1E5F1E5F1E5F1E5F1E5F1E5F1E5F1E81
:105740005F1E5F1E5F1E5F1E5F1E5F1E5F1E5F1E71
:105750005F1E5F1E5F1E010001005F1E5F1E5F1E59
:105760005F1E5F1E5F1E5F1E5F1E5F1E5F1E5F1E51
:105770005F1E5F1E5F1E5F1E5F1E5F1E5F1E5F1E41
:105780005F1E5F1E5F1E010001005F1E5F1E5F1E29
:105790005F1E5F1E5F1E5F1E5F1E5F1E5F1E5F1E21
:1057A0005F1E5F1E5F1E5F1E5F1E5F1E5F1E5F1E11
:1057B0005F1E5F1E5F1E010001005F1E5F1E5F1EF9
:1057C0005F1E5F1E5F1E5F1E5F1E5F1E5F1E5F1EF1
:1057D0005F1E5F1E5F1E5F1E5F1E5F1E5F1E5F1EE1
:1057E0005F1E5F1E5F1E010001005F1E5F1E5F1EC9
:1057F0005F1E5F1E5F1E5F1E5F1E5F1E5F1E5F1EC1
:105800005F1E5F1E5F1E5F1E5F1E5F1E5F1E5F1EB0
:105810005F1E5F1E5F1E010001005F1E5F1E5F1E98
:105820005F1E5F1E5F1E5F1E5F1E5F1E5F1E5F1E90
:105830005F1E5F1E5F1E5F1E5F1E5F1E5F1E5F1E80
:105840005F1E5F1E5F1E01000100010001000100DC
:105850000100010001000100010001000100010040
:105860000100010001000100010001000100010030
:105870000100010001000100FFFFFFFFFFFFFFFF2C
:10588000FFFFFFFFFFFFFFFFFFFFFFFFFFFFFFFF28
:10589000FFFFFFFFFFFFFFFFFFFFFFFFFFFFFFFF18
:1058A000FFFFFFFFFFFFFFFFFFFFFFFFFFFFFFFF08
:1058B000FFFFFFFFFFFFFFFFFFFFFFFFFFFFFFFFF8
:1058C000FFFFFFFFFFFFFFFFFFFFFFFFFFFFFFFFE8
:1058D000FFFFFFFFFFFFFFFFFFFFFFFFFFFFFFFFD8
:1058E000FFFFFFFFFFFFFFFFFFFFFFFFFFFFFFFFC8
:1058F0000000FFFF0000FFFFFFFFFFFF0000FFFFB2
:105900000000000000000000000000000000000097
:105910000000000000000000000000000000000087
:10592000E0FFE0FF000000000000000000000000B9
:105930000000E0FFE0FFE0FFE0FF000000000000EB
:105940000000E0FFE0FF0000E0FFE0FF0000E0FFFC
:10595000E0FF00000000E0FFE0FF0000E0FFE0FFEC
:105960000000E0FFE0FF00000000E0FFE0FFE0FFDC
:10597000E0FFE0FFE0FFE0FFE0FF00000000E0FFED
:10598000E0FFE0FFE0FFE0FFE0FFE0FFE0FF0000FE
:1059900000000000E0FFE0FF00000000E0FFE0FF8B
:1059A0000000000000000000E0FFE0FF0000000039
:1059B000E0FFE0FF000000000000E0FFE0FF00006B
:1059C000000000000000E0FFE0FF0000E0FFE0FF5B
:1059D000E0FF0000000000000000E0FFE0FFE0FF4B
:1059E00000000000000000000000000000000000B7
:1059F00000000000000000000000000000000000A7
:105A00000000000000000000000000000000000096
:105A1000FFFFFFFF0000000000000000000000008A
:105A200000000000FFFFFFFF00000000000000007A
:105A30000000FFFFFFFFFFFFFFFFFFFFFFFFFFFF74
:105A4000FFFF0000FFFFFFFFFFFFFFFFFFFFFFFF64
:105A5000FFFFFFFFFFFFFFFFFFFFFFFFFFFFFFFF56
:105A6000FFFFFFFFFFFFFFFFFFFFFFFF0000000042
:105A7000E007000000000000E007E007E00700008A
:105A80000000E007E007E00700000000E007E00793
:105A9000E00700000000E007E007E0070000E00783
:105AA000E007E007E007E007E007E007E007E007BE
:105AB000E00700000000E0FF000000000000000020
:105AC000E0FF00000000FF18FF18FF18FF18FF1884
:105AD000FF18FF18FF18FF18FF180000FF18FF1825
