:020000040800F2
:100000000050002081210008192200081922000850
:1000100019220008192200081922000819220008D4
:1000200019220008192200081922000819220008C4
:10003000192200081922000819220008794800082E
:1000400019220008192200081922000819220008A4
:100050001922000819220008192200081922000894
:100060001922000819220008192200081922000884
:100070001922000819220008192200081922000874
:100080001922000819220008192200081922000864
:100090001922000819220008192200081922000854
:1000A0001922000819220008192200081922000844
:1000B0001922000819220008192200081922000834
:1000C0001922000819220008192200081922000824
:1000D0001922000819220008F53800081922000822
:1000E0001922000819220008192200081922000804
:1000F00019220008192200081922000819220008F4
:1001000019220008192200081922000819220008E3
:1001100019220008192200081922000819220008D3
:1001200019220008192200081922000819220008C3
:10013000B0B5ADF5087D04AF0423C7F80C32002339
:10014000C7F80832052387F80732012387F80532FC
:10015000012387F8043207F120040A2301931823AE
:10016000009332230022C849204603F00BFD1034CF
:100170000A2301931823009332231822C2492046F0
:1001800003F000FD10340A23019318230093322357
:100190003022BD49204603F0F5FC10340A230193B8
:1001A0001823009332234822B749204603F0EAFC83
:1001B00010340A2301931823009332236022B2499A
:1001C000204603F0DFFC10340A2301931823009328
:1001D00032237822AC49204603F0D4FC10340A23A1
:1001E00001931823009332239022A749204603F05D
:1001F000C9FC10340A230193182300933223A82248
:10020000A149204603F0BEFC10340A2301931823B1
:1002100000933223C0229C49204603F0B3FC1034E3
:100220000A230193182300933223D82296492046AB
:1002300003F0A8FC10340A230193182300933C23F5
:1002400000229249204603F09DFC10340A230193BA
:10025000182300933C2318228C49204603F092FC7B
:1002600010340A230193182300933C23302287493A
:10027000204603F087FC10340A23019318230093CF
:100280003C2348228149204603F07CFC10340A2399
:100290000193182300933C2360227C49204603F0FD
:1002A00071FC10340A230193182300933C23782215
:1002B0007649204603F066FC10340A230193182384
:1002C00000933C2390227149204603F05BFC1034DC
:1002D0000A230193182300933C23A8226B4920464C
:1002E00003F050FC10340A230193182300933C239D
:1002F000C0226649204603F045FC10340A230193CE
:10030000182300933C23D8226049204603F03AFC8E
:1003100010340A23019318230093462300225C49DA
:10032000204603F02FFC10340A2301931823009376
:10033000462318225649204603F024FC10340A2391
:10034000019318230093462330225149204603F09D
:1003500019FC10340A2301931823009346234822E2
:100360004B49204603F00EFC10340A230193182356
:100370000093462360224649204603F003FC1034D4
:100380000A230193182300934623782240492046EC
:1003900003F0F8FB10340A2301931823009346233B
:1003A00090223B49204603F0EDFB10340A230193D1
:1003B000182300934623A8223549204603F0E2FB88
:1003C00010340A230193182300934623C022304996
:1003D000204603F0D7FB04F110000A2301931823F1
:1003E00000934623D8222A4903F0CCFB07F11000E2
:1003F00003230193142300934FF49673002225499D
:1004000003F0C0FB38460323019303230093A0238A
:100410007822214903F0B6FB002301934FF4A07327
:100420000093F023002200211C4800F0B5FB0023BC
:1004300002934FF6FF730193282300930A230522AA
:100440001749164800F0CAFE4FF4FA71134804F039
:10045000FCF9D7F80C32002B40F31E83E6220A2168
:100460000E4800F0CBFF034699B23B46A022184647
:1004700003F00EFC02220021084800F0BFFF0346F3
:10048000002B18BF01230DE000490008E04A0008D6
:10049000C04C0008A04E0008184F000804000020BF
:1004A0002C4F000808BF0023DBB2002B03D0012330
:1004B00087F8053202E0FF2387F805320023C7F8EA
:1004C0000832FF2387F8043200230193F0230093BE
:1004D000F02300220021224800F05EFB97F807324B
:1004E00087F8063297F80632002B19D097F80632B3
:1004F0009BB21A461B01D31A9BB2F03399B24FF646
:10050000610301930A2300930A234FF49B7214485A
:1005100000F042FB97F80632013B87F80632E1E72C
:10052000002387F8063297F806321D2B1AD897F861
:10053000063207F120021B011344184603F088FB22
:1005400097F8063207F120021B011344184603F006
:100550003CFB97F80632013387F80632E3E700BF29
:10056000040000203B46184603F02FFB07F1100360
:10057000184603F02AFB002302934FF6FF73019302
:100580004FF49B73009305230522CA49CA4800F023
:1005900025FED7F80C329BB2C3F1050399B20023B4
:1005A00001934FF6FF7300934FF49B733C22C248B4
:1005B00000F0A0FED7F80832002B7FF44AAFBF4806
:1005C00001F088F8034603F00203002B14BF012357
:1005D0000023DBB2002B2AD007F11003184606F0E7
:1005E000A7F903461C4607F11003184606F0B6F9B2
:1005F0000346C3F1F0039C42B4BF01230023DBB2E6
:10060000002B14D007F11003184606F091F90346A9
:1006100002339CB207F11003184606F094F9034622
:100620001A4607F110032146184603F031FBA34890
:1006300001F050F8034603F00103002B14BF01231F
:100640000023DBB2002B21D007F11003184606F07F
:100650006FF90346002B14BF01230023DBB2002BEC
:1006600014D007F11003184606F062F90346023B66
:100670009CB207F11003184606F065F903461A46C6
:1006800007F110032146184603F002FB3B461846CB
:1006900006F04EF903461C463B46184606F05EF946
:1006A00003465B08DBB29BB223449CB23B46184630
:1006B00006F049F903461D463B46184606F05AF92E
:1006C00003465B08DBB29BB22B449AB207F11003DE
:1006D0002146184603F050FB0346002B14BF0123AC
:1006E0000023DBB2002B0AD097F804325B42DBB266
:1006F00087F804321422C821714803F07DF907F10C
:100700001003184603F084FA3B46184606F010F929
:1007100003461A4697F905329BB213449CB23B46F6
:10072000184606F010F903461A4697F904329BB2B0
:1007300013449AB23B462146184603F0A9FA3B46B9
:10074000184606F0F5F80346022B0CBF01230023E0
:10075000DBB2002B0BD097F805325B42DBB287F897
:10076000053214224FF4C871554803F045F93B4651
:10077000184606F0DDF80346EE2B0CBF01230023DC
:10078000DBB2002B0BD097F805325B42DBB287F867
:10079000053214224FF4C871494803F02DF93B4645
:1007A000184606F0D0F80346022B0CBF01230023A5
:1007B000DBB2002B0BD097F804325B42DBB287F838
:1007C000043214224FF4C8713D4803F015F907F1C3
:1007D0001003184606F0B7F803461C4607F110034D
:1007E000184606F0C7F8034623445C1C3B461846EF
:1007F00006F0A9F803469C42B4BF01230023DBB2F4
:10080000002B00F0A98097F90732DBB2013BDBB285
:1008100087F8073297F90732002B37D1002301936D
:100820004FF4A0730093F02300220021224800F02F
:10083000B3F9002302934FF6FF73019364230093EF
:10084000282309221F491C4800F0C8FC00230293FA
:100850004FF6E07301937823009308230F221A497F
:10086000154800F0BBFC154800F034FF034603F0C8
:100870000403002B0CBF01230023DBB2002B00F08C
:1008800041810A210C4803F0E0FFECE764220021DB
:10089000094800F0B3FD034603F00103002B14BF29
:1008A00001230023DBB2002B10D0012387F805328F
:1008B0000FE000BF344F0008040000204401002076
:1008C000400100203C4F0008484F0008FF2387F8F4
:1008D0000532FF2387F80432E6220A218D4800F012
:1008E0008DFD03469CB278225A218A4800F086FD8D
:1008F00003469AB23B462146184603F0C9F9002345
:1009000001930A23009378234FF49B72A521814819
:1009100000F042F997F8073287F8063297F8063266
:10092000002B19D097F806329BB21A461B01D31A36
:100930009BB2F03399B24FF6610301930A230093FF
:100940000A234FF49B72734800F026F997F8063299
:10095000013B87F80632E1E70123C7F8083200239C
:1009600087F8063297F806321D2B61D897F80632C1
:1009700007F120021B011344184606F007F803464E
:10098000002B14BF01230023DBB2002B02D0002375
:10099000C7F8083297F8063207F120021B01D41875
:1009A0003B46184605F0C4FF03461D463B46184625
:1009B00005F0C9FF03461A462946204603F0DCF934
:1009C0000346C7F80032D7F80032002B2AD097F838
:1009D000063207F120021B011344184603F038F9D0
:1009E000D7F80032012B03D0D7F80032032B05D102
:1009F00097F804325B42DBB287F80432D7F8003252
:100A0000022B03D0D7F80032042B05D197F805321A
:100A10005B42DBB287F8053214224FF47A713E480C
:100A200002F0EAFF97F80632013387F8063299E7B9
:100A3000D7F80832012B27D1D7F80C32002B23DD51
:100A4000D7F80C32013BC7F80C32002302934FF663
:100A5000FF7301934FF49B730093052305222F49E5
:100A60002C4800F0BBFBD7F80C329BB2C3F1050356
:100A700099B2002301934FF6FF7300934FF49B73D9
:100A80003C22244800F036FCD7F80C3205331946D6
:100A9000204803F0DAFE8DE51F230193F023009335
:100AA000F023002200211B4800F076F81F23029358
:100AB0004FF6E0730193642300932823082218491A
:100AC000144800F08BFB1F2302934FF6E073019351
:100AD0007823009308230F2212490E4800F07EFB72
:100AE000114800F0F7FD034603F00403002B0CBF90
:100AF00001230023DBB2002B06D00A21054803F0B6
:100B0000A4FEEDE700BF00E000BF07F50477BD4697
:100B1000B0BD00BF0400002040010020344F000899
:100B2000584F0008484F00084401002080B582B0AB
:100B300000AF78607B68184603F010FE7B682433B2
:100B4000184602F057FD7B6803F5A073184600F0C5
:100B5000F5FC7B6803F59E73184602F023FF7B6863
:100B600003F5A473184603F0F9FB7B6803F52773BC
:100B70007A681146184600F027FF7B680549184639
:100B800003F01AFE786800F08FFC00BF0837BD46FE
:100B900080BD00BF413B000890B587B002AFF86050
:100BA000084611461A4603467B810B463B81134695
:100BB000FB80FB6803F52770FC883A897989BB8C38
:100BC00001933B8C0093234601F0E3F800BF1437F8
:100BD000BD4690BD90B587B002AFF860084611469B
:100BE0001A4603467B810B463B811346FB807A897C
:100BF000FB88134498B23A897989BB8C01933B896D
:100C000000930346F86800F053FA3A893B8C13448A
:100C10009BB27C8938897989BA8C019200932346EA
:100C20000246F86800F044FA7A89FB88134499B2C6
:100C30007A89FB8813449CB23A893B8C13449BB25B
:100C40003889BA8C0192009323460246F86800F076
:100C50002FFA3A893B8C134498B27A89FB88134463
:100C60009CB23A893B8C13449BB27989BA8C01922D
:100C7000009323460246F86800F01AFA00BF1437C2
:100C8000BD4690BD80B58AB000AFF86008461146F9
:100C90001A4603467B810B463B811346FB80FB884B
:100CA000013B7B6200233B620123FB610123BB61AB
:100CB000FB885B00FA69D31A7B617A6A3B6A9A42C5
:100CC000C0F29F80FB6803F527707B6A9AB27B892C
:100CD000134499B23B6A9AB23B8913449AB23B8E51
:100CE00000F0F2FFFB6803F527703B6A9AB27B893C
:100CF000134499B27B6A9AB23B8913449AB23B8EF1
:100D000000F0E2FFFB6803F527703B6A9BB27A892B
:100D1000D31A99B27B6A9AB23B8913449AB23B8E3A
:100D200000F0D2FFFB6803F527707B6A9BB27A89DB
:100D3000D31A99B23B6A9AB23B8913449AB23B8E5A
:100D400000F0C2FFFB6803F527707B6A9BB27A89CB
:100D5000D31A99B23B6A9BB23A89D31A9AB23B8EA4
:100D600000F0B2FFFB6803F527703B6A9BB27A89FB
:100D7000D31A99B27B6A9BB23A89D31A9AB23B8E44
:100D800000F0A2FFFB6803F527703B6A9AB27B89EB
:100D9000134499B27B6A9BB23A89D31A9AB23B8EBA
:100DA00000F092FFFB6803F527707B6A9AB27B899B
:100DB000134499B23B6A9BB23A89D31A9AB23B8EDA
:100DC00000F082FF7B69002B09DC3B6A01333B6248
:100DD0007A69BB6913447B61BB690233BB617B6980
:100DE000002B7FF76AAF7B6A013B7B62FB690233B2
:100DF000FB61FB885B00FA69D31A7A6913447B6153
:100E00005BE700BF2837BD4680BD90B58DB002AF0F
:100E1000F860084611461A4603467B810B463B8123
:100E20001346FB80FB88013B7B6200233B6201236E
:100E3000FB610123BB61FB885B00FA69D31A7B610C
:100E40007A6A3B6A9A42C0F28F807B6A9BB27A8947
:100E5000D31A99B23B6A9AB23B89134498B27B6A1F
:100E60009AB27B8913449CB23B6A9AB23B89134481
:100E70009BB23A8F0192009323460246F86800F035
:100E800017F93B6A9BB27A89D31A99B27B6A9AB2F4
:100E90003B89134498B23B6A9AB27B8913449CB253
:100EA0007B6A9AB23B8913449BB23A8F01920093BA
:100EB00023460246F86800F0FBF87B6A9BB27A8909
:100EC000D31A99B23B6A9BB23A89D31A98B27B6A19
:100ED0009AB27B8913449CB23B6A9BB23A89D31A7B
:100EE0009BB23A8F0192009323460246F86800F0C5
:100EF000DFF83B6A9BB27A89D31A99B27B6A9BB2BC
:100F00003A89D31A98B23B6A9AB27B8913449CB24D
:100F10007B6A9BB23A89D31A9BB23A8F01920093B3
:100F200023460246F86800F0C3F87B69002B09DC11
:100F30003B6A01333B627A69BB6913447B61BB69DD
:100F40000233BB617B69002B7FF77AAF7B6A013B81
:100F50007B62FB690233FB61FB885B00FA69D31A91
:100F60007A6913447B616BE700BF2C37BD4690BDA7
:100F700080B58AB000AFF860084611461A460346AD
:100F80007B810B463B811346FB80FA887B89D31A11
:100F90003B613A8E3B89D31A7B6201233B627B6AB9
:100FA000002B05DA4FF0FF333B627B6A5B427B62CA
:100FB0007B6A5A003B69D31AFB613B89BB617B8921
:100FC0007B61FB887A699A421EDCFB6803F5277017
:100FD0007B6999B2BB699AB2BB8E00F075FEFB6962
:100FE000002B08DDBA693B6A1344BB613B695B00B7
:100FF000FA69D31AFB617B6A5B00FA691344FB61EF
:101000007B6901337B61DCE700BF2837BD4680BDCB
:1010100080B58AB000AFF860084611461A4603460C
:101020007B810B463B811346FB80FA887B89D31A70
:101030007B623A8E3B89D31A3B6101233B627B6A18
:10104000002B05DA4FF0FF333B627B6A5B427B6229
:101050007B6A5A003B69D31AFB617B89BB613B8980
:101060007B613B8E7A699A421EDCFB6803F5277030
:10107000BB6999B27B699AB2BB8E00F025FEFB6911
:10108000002B08DDBA693B6A1344BB613B695B0016
:10109000FA69D31AFB617B6A5B00FA691344FB614E
:1010A0007B6901337B61DCE700BF2837BD4680BD2B
:1010B00090B587B002AFF860084611461A4603465D
:1010C0007B810B463B811346FB803A8C3B89D31ACC
:1010D0001946F86805F0DCFC0446FA887B89D31AC7
:1010E0001946F86805F0D4FC03469C42B4BF0123BE
:1010F0000023DBB2002B1BD07A89FB889A420BD9E4
:1011000078893A8CF988BB8C01933B89009303461C
:10111000F868FFF72DFF26E0F8883A897989BB8CBB
:1011200001933B8C00930346F868FFF721FF1AE018
:101130003A893B8C9A420BD978893A8CF988BB8CD6
:1011400001933B8900930346F868FFF761FF0AE0CB
:10115000F8883A897989BB8C01933B8C00930346CC
:10116000F868FFF755FF00BF1437BD4690BD80B546
:1011700084B000AFF860084611461A4603467B81EA
:101180000B463B811346FB80FB6803F52770FB8809
:101190003A89798900F098FD00BF1037BD4680BDBF
:1011A00090B587B002AFF860084611461A4603466C
:1011B0007B810B463B811346FB80FB6803F5277060
:1011C000FC883A8979897B6A01933B8C009323469A
:1011D00000F09DFD00BF1437BD4690BD80B59AB0AC
:1011E00002AFF860B96011461A460B46FB80134601
:1011F000BB80002387F85F300023BB65002387F89E
:101200005F3097F85F20FB889A426CDA97F85F307E
:10121000BA6813441B78A3F1200213469B001344C1
:10122000334A1344BB65002387F85D3097F85D307F
:10123000042B41D8002387F85E3097F85E30062BE8
:1012400034D897F85D30BA6D13441B781A4697F876
:101250005E3042FA03F303F00103002B10D097F83D
:101260005E2013469B001A4497F85D3013445B00E0
:1012700007F160021344B7F86C2023F8502C0FE0FC
:1012800097F85E2013469B001A4497F85D3013448C
:101290005B0007F160021344B7F8702023F8502C6C
:1012A00097F85E30013387F85E30C6E797F85D3017
:1012B000013387F85D30B9E7FB6803F52770B7F8AD
:1012C0006820B98807F110030193072300930523D1
:1012D00000F01DFDBB880933BB8097F85F300133F8
:1012E00087F85F308DE700BF6037BD4680BD00BF27
:1012F000A44F000880B58AB004AFF86008461146D4
:101300001A4603467B810B463B811346FB807A8954
:10131000394BA3FB0213D9080B469B000B445B001F
:10132000D31A9BB2DBB23033DBB23B757B89324AD6
:10133000A2FB0323DB087B817A892F4BA3FB0213DB
:10134000D9080B469B000B445B00D31A9BB2DBB25F
:101350003033DBB2FB747B89274AA2FB0323DB0813
:101360007B817A89244BA3FB0213D9080B469B008F
:101370000B445B00D31A9BB2DBB23033DBB2BB74DD
:101380007B891D4AA2FB0323DB087B817A891A4BE8
:10139000A3FB0213D9080B469B000B445B00D31A36
:1013A0009BB2DBB23033DBB27B747B89124AA2FB87
:1013B0000323DB087B817A890F4BA3FB0213D90837
:1013C0000B469B000B445B00D31A9BB2DBB230335D
:1013D000DBB23B743A8907F11001BB8C02933B8C62
:1013E0000193FB88009313460522F868FFF7F6FE89
:1013F00000BF1837BD4680BDCDCCCCCC80B584B005
:1014000000AFF860B9607A60F86800F00FF8024643
:101410007968BB68CB1AB2FBF3F103FB01F3D21A74
:10142000BB68134418461037BD4680BD80B485B0F4
:1014300000AF78600023FB601A4B1B68002B27D19C
:10144000184B01221A607B68D3F8A032DA0E7B6851
:10145000D3F8A0329B0F534003F00103FB60FB68FD
:10146000DB43FB60FB6803F00103FB607B68D3F8A0
:10147000A0325A007B68C3F8A0227B68D3F8A02270
:10148000FB681A437B68C3F8A022064B00221A604F
:101490007B68D3F8A03223F0784318461437BD4652
:1014A00080BC7047A802002080B584B000AF78608F
:1014B0007B680022C3F8A0227B68D3F8A032002BFF
:1014C0001AD10123FB60FB68102BF5DC7B6803F568
:1014D000A0731021184600F039F903461A46FB683C
:1014E0009A407B68D3F8A0321A447B68C3F8A022E4
:1014F000FB680133FB60E6E700BF1037BD4680BDE7
:1015000080B582B000AF786039607B68012B07D16D
:101510003B684FF6FF72934202D1034805F08EFA02
:1015200000BF0837BD4680BD0400002080B500AF75
:101530004FF6FF710120FFF7E3FF80BD80B483B059
:1015400000AF7860524B9B69514A43F01C03936192
:101550004F4B9B694E4A43F0010393614D4B4FF053
:1015600000725A604C4B5B684C4A1A404A494C4BDB
:1015700013434B604B4B1B6823F07F6323F47F23A3
:10158000484A43F0887343F488331360454B5B68E3
:101590009BB2444A43F0885343F488135360414B51
:1015A0001B68404A23F0F00313603E4B1B683D4A22
:1015B00043F0800313603B4B02221A61394B5B6896
:1015C000384A23F47F435360364B5B68354A43F413
:1015D00008435360334B4FF440621A61324B5B68EF
:1015E000314A43F4801353602F4B5B682E4A23F437
:1015F00060035360264B9B69254A43F40073936153
:10160000234B5B68224A43F440435360204B9B6961
:101610001F4A43F0040393611F4B1B681E4A23F0CB
:10162000FF031360214B1D221A61204B0022DA6256
:101630001E4B00221A631D4B9B681C4A43F001039A
:1016400093601A4B9B68194A43F004039360174B4D
:101650009B6803F00403002B14BF01230023DBB2BB
:10166000002B00D0F3E77B684FF402721A807B688E
:101670004FF4A0725A807B6840F6AC529A807B6827
:1016800040F6D862DA8000BF0C37BD4680BC704798
:101690000010024000000140000801400000FF0F60
:1016A00011110010000C0140001001400024014005
:1016B00080B483B000AF7860054BDB68044A83F4E4
:1016C0000053D36000BF0C37BD4680BC704700BFDD
:1016D0000010014080B485B000AF78600023FB812A
:1016E000194B9B6803F00203002B0CBF012300235E
:1016F000DBB2002B03D0FB8943F00103FB81124BCB
:101700009B6803F48063002B0CBF01230023DBB232
:10171000002B03D0FB8943F00203FB810A4B9B683B
:1017200003F40063002B0CBF01230023DBB2002B6A
:1017300003D0FB8943F00403FB81FB89184614376F
:10174000BD4680BC704700BF000C014080B485B02E
:1017500000AF786039600023FB810F4A3B68536318
:101760000D4B9B680C4A43F0010393600A4B1B68C6
:1017700003F00203002B0CBF01230023DBB2002B7C
:1017800000D0F3E7044BDB6CFB81FB891846143770
:10179000BD4680BC704700BF0024014080B586B0C4
:1017A00000AF78603A4B5B683B61394B1B68FB606C
:1017B000374BDB68BB60364B40221A61344B1B68E9
:1017C000334A23F460031360314B1B68304A43F4FF
:1017D000801313602E4BDB682D4A23F02003D36067
:1017E0002B4B5B682A4A23F460035360284B5B68E9
:1017F000274A43F480135360254BDB68244A43F4A3
:101800000053D360224B1B68214A23F4302313601A
:101810001F4B1B681E4A43F4802313601C4B5B68FC
:101820001B4A23F430235360194B5B68184A43F476
:101830008023536001217868FFF788FF03467B61AE
:10184000134A3B695360124AFB681360104ABB6835
:10185000D3607B681B881A467B699B1A4FF47A72A7
:1018600002FB03F37A68928811467A6812888A1A12
:10187000B3FBF2F37B617B69B3F57A7F02D94FF654
:10188000FF737B617B699BB218461837BD4680BDEC
:10189000000C014080B586B000AF78603A4B5B68C1
:1018A0003B61394B1B68FB60374BDB68BB60364BD9
:1018B00040221A61344B5B68334A23F4602353603F
:1018C000314B5B68304A43F4803353602E4BDB6806
:1018D0002D4A23F48053D3602B4B1B682A4A23F4F0
:1018E00060231360284B1B68274A43F4803313603E
:1018F000254BDB68244A43F01003D360224B5B681E
:10190000214A23F4300353601F4B5B681E4A43F4A3
:10191000800353601C4B1B681B4A23F43003136085
:10192000194B1B68184A43F4800313600021786840
:10193000FFF70CFF03467B61134A3B695360124A71
:10194000FB681360104ABB68D3607B685B881A46EB
:101950007B699B1A4FF47A7202FB03F37A68D28890
:1019600011467A6852888A1AB3FBF2F37B617B696D
:10197000B3F57A7F02D94FF6FF737B617B699BB227
:1019800018461837BD4680BD000C014080B485B0B4
:1019900000AFF860084611461A4603467B810B46A5
:1019A0003B811346FB80FB687A891A80FB68FA88C2
:1019B0005A80FB683A899A80FB683A8BDA8000BFCC
:1019C0001437BD4680BC704780B584B002AF7860E4
:1019D0003960B74B9B69B64A43F00C039361B44B33
:1019E0009B69B34A43F001039361B24B4FF000721D
:1019F0005A60B04B5B68AF4A43F080735360AE4BA4
:101A00005B68AE4A1A40AC49AD4B13434B60AD4BDB
:101A10001B6823F07F6323F47F23AA4A43F0887373
:101A200043F488331360A74B5B689BB2A54A43F02D
:101A3000885343F488135360786805F073F8786826
:101A400005F062F8786805F043F8786805F088F8E2
:101A5000786805F0A3F80A21386802F0F6FE786885
:101A600005F06EF80A21386802F0EFFE786805F09C
:101A700077F86421386802F0E8FE786805F052F8DB
:101A8000786805F041F8786805F022F86421386834
:101A900002F0DBFE786805F029F89621386802F03C
:101AA000D4FE42F204021121786800F047FA4FF4A4
:101AB0004C421321786800F041FA4FF41852152176
:101AC000786800F03BFA42F22A521421786800F05C
:101AD00035FA33221221786800F030FA4CF60442CD
:101AE0001321786800F02AFA4CF606421321786830
:101AF00000F024FA4CF64F421321786800F01EFAE9
:101B000046F24F721321786800F018FA42F203028D
:101B10001121786800F012FA42F2096230217868E7
:101B200000F00CFA42F22C423121786800F006FAFB
:101B300041F623723221786800F000FA42F2254221
:101B40003321786800F0FAF942F2262234217868CD
:101B500000F0F4F942F223523521786800F0EEF9F2
:101B600041F61A423621786800F0E8F941F21D3258
:101B70003721786800F0E2F940F6113238217868B0
:101B800000F0DCF941F210223921786800F0D6F932
:101B900041F215323A21786800F0D0F943F2196227
:101BA0003B21786800F0CAF94FF450623C21786814
:101BB00000F0C4F90D223D21786800F0BFF907223A
:101BC0001621786800F0BAF913220221786800F033
:101BD000B5F903220321786800F0B0F940F227122A
:101BE0000121786800F0AAF940F2033208217868F0
:101BF00000F0A4F90B220A21786800F09FF9032273
:101C00000B21786800F09AF900220C21786800F026
:101C100095F900224121786800F090F900225021C6
:101C2000786800F08BF905226021786800F086F969
:101C30000B227021786800F081F900227121786808
:101C400000F07CF900227821786800F077F9002212
:101C50007A21786800F072F907227921786800F01B
:101C60006DF951220721786800F068F953220721A5
:101C7000786800F063F900227921786800F05EF955
:101C80006421386802F0E1FD2221786800F0FDF857
:101C9000002301934FF4A0730093F023002200214E
:101CA000786800F076F800BF0837BD4680BD00BFF9
:101CB0000010024000000140000801400000FF0F3A
:101CC00011110010000C014080B586B002AFF86021
:101CD000084611461A4603467B810B463B81134654
:101CE000FB807B89013398B23B8901339BB23A89EF
:101CF000798900930346F86800F036F9FB881946A5
:101D0000F86800F0F7F800BF1037BD4680BD80B519
:101D100088B002AFF860084611461A4603467B8138
:101D20000B463B811346FB807A89FB8813449BB2A8
:101D3000013B98B23A893B8C13449BB2013B9BB266
:101D40003A89798900930346F86800F00DF9002379
:101D50003B813A893B8C9A4217D200237B817A8956
:101D6000FB889A420DD27B6A9A1C7A621B88FB829E
:101D7000FB8A1946F86800F0BDF87B8901337B8146
:101D8000EDE73B8901333B81E3E700BF1837BD46F0
:101D900080BD80B586B002AFF860084611461A468D
:101DA00003467B810B463B811346FB807A89FB8887
:101DB00013449BB2013B98B23A893B8B13449BB2CC
:101DC000013B9BB23A89798900930346F86800F099
:101DD000CBF800233B813A893B8B9A4212D20023F5
:101DE0007B817A89FB889A4208D2BB8B1946F868B6
:101DF00000F080F87B8901337B81F2E73B89013376
:101E00003B81E8E700BF1037BD4680BD80B584B098
:101E100000AF78600023FB60786804F091FEFB68F7
:101E200044F61F629342D4BF01230023DBB2002B90
:101E300003D0FB680133FB60F1E7786804F090FEA3
:101E40000023FB60FB6844F61F629342D4BF01236A
:101E50000023DBB2002B03D0FB680133FB60F1E70A
:101E600000BF1037BD4680BD80B582B000AF78603E
:101E70000B46FB70786804F083FEFB78184600F090
:101E8000ADF800BF0837BD4680BD80B582B000AF59
:101E900078600B467B80786804F072FE7B881B12AA
:101EA000DBB2184600F09AF8786804F003FE786810
:101EB00004F00EFE7B88DBB2184600F08FF87868DD
:101EC00004F0F8FD786804F003FE00BF0837BD4653
:101ED00080BD80B582B000AF78600B46FB7078683B
:101EE00004F05CFEFB78184600F078F800BF083775
:101EF000BD4680BD80B582B000AF78600B467B8068
:101F0000786804F04BFE7B881B12DBB2184600F0A9
:101F100065F8786804F0CEFD786804F0D9FD7B8818
:101F2000DBB2184600F05AF8786804F0C3FD786810
:101F300004F0CEFD00BF0837BD4680BD80B582B03D
:101F400000AF78600B467B8013463B807B88194648
:101F50007868FFF79AFF3B8819467868FFF7CAFF51
:101F600000BF0837BD4680BD80B584B000AFF860C3
:101F7000084611461A4603467B810B463B811346B1
:101F8000FB80FB881B021AB2B7F90A3013431BB25D
:101F90009BB21A464621F868FFF7D0FF3B8B1A46E2
:101FA0004721F868FFF7CAFF3B891A464821F868BD
:101FB000FFF7C4FF7B891A462021F868FFF7BEFFB0
:101FC0003B891A462121F868FFF7B8FF2221F868FB
:101FD000FFF75BFF00BF1037BD4680BD80B483B004
:101FE00000AF0346FB710F4B4FF470625A610E4B0A
:101FF0004FF470425A61FB79002B0ED0FB7903F04D
:102000000F030A4AD35C074A1B021361FB791B11B9
:10201000064AD35C044A1B03136100BF0C37BD465C
:1020200080BC704700080140000C0140845100084A
:1020300080B400AF344B1B68334A23F48023136011
:10204000314B1B68304A43F4803313602E4B1B68BE
:1020500043F40033002B0CBF01230023DBB2002B21
:1020600000D0F3E7284B5B68274A23F40013536042
:10207000254B5B68244A43F4E0135360224B5B68B2
:10208000214A43F4806353601F4B5B681E4A23F46C
:10209000407353601C4B5B681B4A43F480335360AE
:1020A000194B1B68184A43F080731360164B1B686A
:1020B00043F08073002B0CBF01230023DBB2002B05
:1020C00000D0F3E7114B1B68104A43F00203136082
:1020D0000E4B1B680D4A23F0050313600B4B1B6866
:1020E0000A4A43F010031360074B5B68064A03F08B
:1020F00001035360044B5B68034A43F002035360DF
:1021000000BFBD4680BC7047001002400020024066
:1021100080B582B000AF164A164BD31A9B103B60B5
:1021200000237B607A683B689A4208D2114A7B6838
:1021300052F8233098477B6801337B60F2E70E4A00
:102140000E4BD31A9B103B6000237B607A683B6880
:102150009A4208D2094A7B6852F8233098477B6834
:1021600001337B60F2E700BF0837BD4680BD00BF8A
:10217000C4480008C4480008C8480008C44800080B
:1021800080B584B000AF1E4BFB601E4BBB601E4A87
:102190001C4BD31A7B607B685A1E7A60002B14BFDD
:1021A00001230023DBB2002B08D0FA68531CFB602C
:1021B000BB68591CB96012781A70ECE7134BBB600E
:1021C000134A124BD31A7B607B685A1E7A60002B2D
:1021D00014BF01230023DBB2002B05D0BB685A1CBF
:1021E000BA6000221A70EFE7FFF722FFFFF790FFB7
:1021F0000848FEF79BFC01F021F801F02BF8FCE702
:10220000DA6B000800000020040000200400002019
:10221000C40200200400002080B400AFFEE700BF2D
:10222000F0B5F9B004AFCE4BC7F8CC31CC4804F0D0
:10223000C3FC0346002B14BF01230023DBB2002B99
:1022400002D0C74BC7F8CC3107F582740C23019339
:102250000A23009303230322D7F8CC11204601F070
:1022600091FC10340C2301930A23009303231722BB
:10227000D7F8CC11204601F085FC10340C230193D3
:102280000A23009303232B22D7F8CC11204601F018
:1022900079FC10340C2301930A23009303233F227B
:1022A000D7F8CC11204601F06DFC10340C230193BB
:1022B0000A23009303235322D7F8CC11204601F0C0
:1022C00061FC10340C2301930A230093032367223B
:1022D000D7F8CC11204601F055FC10340C230193A3
:1022E0000A23009303237B22D7F8CC11204601F068
:1022F00049FC10340C2301930A23009303238F22FB
:10230000D7F8CC11204601F03DFC10340C2301938A
:102310000A2300930323A322D7F8CC11204601F00F
:1023200031FC04F110000C2301930A2300930323D2
:10233000B722D7F8CC1101F025FC07F1F4000623F1
:1023400001930A2300934FF491737822854901F099
:1023500019FC07F1A404082301930523009300232B
:1023600000228149204601F00DFC1034082301931E
:1023700005230093002300227B49204601F002FC44
:10238000103408230193052300930023002276498B
:10239000204601F0F7FB1034082301930523009336
:1023A000002300227049204601F0ECFB04F11000EC
:1023B0000823019305230093002300226A4901F0BA
:1023C000E1FB3C1D08230193052300930023002219
:1023D0006649204601F0D6FB1034082301930523FB
:1023E0000093002300226149204601F0CBFB10340A
:1023F0000823019305230093002300225B49204614
:1024000001F0C0FB1034082301930523009300233F
:1024100000225649204601F0B5FB103408230193F1
:1024200005230093002300225049204601F0AAFB17
:1024300010340823019305230093002300224B4905
:10244000204601F09FFB10340823019305230093DD
:10245000002300224549204601F094FB1034082354
:10246000019305230093002300224049204601F0F8
:1024700089FB1034082301930523009300230022D5
:102480003A49204601F07EFB04F110000823019335
:102490000523009300230022344901F073FB00233D
:1024A00087F8AA31002387F8CB31002387F8CA3197
:1024B000002387F8C931052387F8C8310023C7F8FE
:1024C000C4310023C7F8C0310023C7F8BC3104234E
:1024D000C7F8B8310223A7F8B6310123A7F8B43101
:1024E000002387F8B3310123C7F8A43100230193F7
:1024F000F0230093F023002200211D48FEF74CFB3F
:10250000002302934FF6FF730193282300930A23BD
:102510000A2218491648FEF761FE002302934FF67F
:10252000FF7301933C2300930A230F2212491048A2
:10253000FEF754FE002302934FF6FF7301935023DE
:1025400000930A2310220D490948FEF747FE002395
:1025500002934FF6FF7301936423009310E000BFD2
:102560004C010020F45200086C530008BC530008D2
:1025700004000020FC540008085500081855000805
:102580000A230B2279497A48FEF728FE4FF47A7124
:10259000774802F05AF9D7F8B831002B40F37B8521
:1025A0000023C7F8BC31002387F8AA310023019328
:1025B0004FF4A0730093F023002200216C48FEF733
:1025C000EBFA0023C7F8AC31D7F8B831C3F10A03EE
:1025D000D7F8AC219A420EDA07F58272D7F8AC31FF
:1025E0001B011344184601F0F0FAD7F8AC3101335F
:1025F000C7F8AC31E8E707F58273032200211846DB
:1026000001F046FB07F58273103303220F211846B1
:1026100001F03EFB07F58273203303221E2118468A
:1026200001F036FB07F58273303303222D21184663
:1026300001F02EFB07F58273403303223C2118463C
:1026400001F026FB07F58273503303224B21184615
:1026500001F01EFB07F58273603303225A211846EE
:1026600001F016FB07F582737033032269211846C7
:1026700001F00EFB07F582738033032278211846A0
:1026800001F006FB07F58273903303228721184679
:1026900001F0FEFA0023C7F8AC31D7F8AC31092BB2
:1026A0000DDC3A1DD7F8AC311B011344184601F07C
:1026B000CFFAD7F8AC310133C7F8AC31EDE70023DE
:1026C000C7F8AC31D7F8AC31042B0EDC07F1A4020B
:1026D000D7F8AC311B011344184601F0B9FAD7F80A
:1026E000AC310133C7F8AC31ECE7002302934FF66D
:1026F000FF7301934FF49B730093052305221D493B
:102700001B48FEF76BFDD7F8B8319BB2C3F1050348
:1027100099B2002301934FF6FF7300934FF49B731C
:102720003C221348FEF7E6FD97F8C831C7F8AC31F4
:10273000D7F8AC31002B1FDDD7F8AC319BB21A466D
:102740001B01D31A9BB2F03399B24FF66103019388
:102750000A2300930A234FF49B720548FEF71CFAE4
:10276000D7F8AC31013BC7F8AC31E1E72C55000894
:102770000400002038550008002387F8AA31002300
:1027800087F8CB31002387F8C9310023C7F8C4315B
:102790000023C7F8BC310223A7F8B63107F1F403D0
:1027A000184601F012FAD7F8BC31002B40F04384F0
:1027B00007F1F403184601F02BFACD48FEF78AFF23
:1027C000034603F00203002B14BF01230023DBB2F6
:1027D000002B21D007F1F403184604F0A9F80346B2
:1027E000E42B94BF01230023DBB2002B14D007F1AC
:1027F000F403184604F09CF8034602339CB207F138
:10280000F403184604F09FF803461A4607F1F40350
:102810002146184601F03CFAB548FEF75BFF034637
:1028200003F00103002B14BF01230023DBB2002BB4
:1028300021D007F1F403184604F07AF80346012B7F
:102840008CBF01230023DBB2002B14D007F1F4036B
:10285000184604F06DF80346023B9CB207F1F403FE
:10286000184604F070F803461A4607F1F4032146AF
:10287000184601F00DFA00F09DFC0346002B14BF32
:1028800001230023DBB2002B69D0002387F8CB3172
:1028900097F8CB31042B62D897F8CB3107F1A4021B
:1028A0001B011344184604F071F80346002B0CBFBB
:1028B00001230023DBB2002B4BD097F8CB3107F17B
:1028C000A4021B011344184601F07FF997F8CB319D
:1028D00007F1A4021B01D51807F1F403184604F010
:1028E00027F803461C4607F1F403184604F036F8AF
:1028F00003465B08DBB29BB223449CB297F8CB3112
:1029000007F1A4021B011344184604F027F80346FC
:102910005B08DBB29BB2E31A9CB207F1F4031846E2
:1029200004F011F803461E4697F8CB3107F1A402D4
:102930001B011344184604F01DF803465B08DBB284
:102940009BB2F31A9BB21A462146284601F0A0F921
:1029500005E097F8CB31013387F8CB3198E70023B6
:1029600087F8CB3197F8CB31042B00F2C38097F86E
:10297000CB3107F1A4021B011344184603F0E3FF17
:102980000346002B0DD097F8CB3107F1A4021B01B1
:102990001344184603F0FAFF0346002B01D001232D
:1029A00000E00023002B00F0828097F8CB3107F184
:1029B000A4021B01D41897F8CB3107F1A4021B0124
:1029C0001344184603F0B4FF03461D4697F8CB3175
:1029D00007F1A4021B011344184603F0B4FF034699
:1029E000023B9BB21A462946204601F051F90023CA
:1029F00087F8C93197F8C931092B72D897F8C931CE
:102A000007F582721B01D41897F8CB3107F1A402A5
:102A10001B011344184603F08BFF03461D4697F82D
:102A2000CB3107F1A4021B011344184603F08BFFBE
:102A300003461A462946204601F06AF90346002B50
:102A400014BF01230023DBB2002B2AD097F8C93131
:102A500007F582721B011344184601F0F9F897F844
:102A6000CB3107F1A4021B011344184601F0F0F822
:102A700097F8CB3107F1A4021B011344184603F069
:102A800057FF03461C4697F8CB3107F1A4021B0100
:102A90001344184603F057FF03461946204600F03A
:102AA00049FB97F8C931013387F8C931A2E797F894
:102AB000CB3107F1A4021B011344184603F066FF53
:102AC0000346002B14BF01230023DBB2002B08D0E8
:102AD00097F8CB3107F1A4021B011344184601F00B
:102AE000B7F897F8CB31013387F8CB313AE700BF1D
:102AF000440100200A2387F8B331002387F8CA3144
:102B000097F8CA31092B00F2318197F8CA313A1D82
:102B10001B011344184603F016FF0346B3F5967FD6
:102B20000CD297F8CA313A1D1B011344184603F022
:102B30002DFF0346002B01D0012300E00023002BD2
:102B400000F0ED8097F8CA313A1D1B01D41897F8B0
:102B5000CA313A1D1B011344184603F0E9FE03462F
:102B60001D4697F8CA313A1D1B011344184603F05D
:102B7000EAFE034602339BB21A462946204601F07C
:102B800087F897F8CA313A1D1B011344184603F021
:102B9000CFFE03461C4697F8CA313A1D1B01134469
:102BA000184603F0DBFE03465B08DBB29BB223440E
:102BB0009CB297F8CA313A1D1B011344184603F022
:102BC000C2FE03461D4697F8CA313A1D1B01134445
:102BD000184603F0CFFE03465B08DBB29BB22B44E2
:102BE0009AB207F1F4032146184601F091F8034622
:102BF000002B14BF01230023DBB2002B00F0B080B8
:102C000007F1F403184603F093FE03461C4607F150
:102C1000F403184603F097FE03461946204600F0D9
:102C200089FA97F8C831013B87F8C83197F8CA315B
:102C30003A1D1B011344184601F00AF897F8C831F1
:102C4000002B3FD1002301934FF4A0730093F02396
:102C500000220021A148FDF79FFF002302934FF6B9
:102C6000FF73019364230093282309229C499B4806
:102C7000FEF7B4FA002302934FF6E0730193782332
:102C8000009308230F2297499448FEF7A7FA00F013
:102C900091FA0346002B0CBF01230023DBB2002B6B
:102CA00004D00A218D4801F0D0FDF0E700F082FA4F
:102CB0000346002B14BF01230023DBB2002B00F0DE
:102CC0002982F3E7002301930A23009378234FF42A
:102CD0009B72A5218148FDF75FFF97F8C831C7F8BF
:102CE000AC31D7F8AC31002B3ADDD7F8AC319BB220
:102CF0001A461B01D31A9BB2F03399B24FF6610307
:102D000001930A2300930A234FF49B727348FDF743
:102D100043FFD7F8AC31013BC7F8AC31E1E797F896
:102D2000CA313A1D1B011344184603F02FFE034617
:102D3000002B14BF01230023DBB2002B07D097F830
:102D4000CA313A1D1B011344184600F081FF97F861
:102D5000B331002B04D097F8B331013B87F8B3317E
:102D600097F8CA31013387F8CA31C9E60023C7F89A
:102D7000C4310023C7F8C0310123C7F8BC31002398
:102D800087F8C93197F8C931092B00F23C8197F8CF
:102D9000C93107F582721B011344184603F0F6FD92
:102DA0000346002B14BF01230023DBB2002B00F0ED
:102DB000248197F8B321D7F8B831C3F10A039A42B6
:102DC00080F29280002387F8CA31002387F8AB3164
:102DD00097F8CA31092B00F2878097F8AB31002BA6
:102DE00040F0828097F8CA313A1D1B0113441846FF
:102DF00003F0CCFD0346002B09D1322200213748D5
:102E0000FEF7FCFA0346002B01D1012300E000236A
:102E1000002B5CD097F8B331013387F8B33197F8C2
:102E2000CA313A1D1B011344184600F0CEFE97F834
:102E3000CA313A1D1B01D51897F8C93107F58272BE
:102E40001B011344184603F073FD03461C4697F814
:102E5000C93107F582721B011344184603F07EFD49
:102E600003465B08DBB29BB223449CB297F8CB319C
:102E700007F1A4021B011344184603F06FFD03463B
:102E80005B08DBB29BB2E31A9CB297F8C93107F535
:102E900082721B011344184603F055FD03461E467B
:102EA00097F8CB3107F1A4021B011344184603F035
:102EB00061FD03465B08DBB29BB233449BB21A460A
:102EC0002146284600F0E4FE012387F8AB3197F84D
:102ED000CA31013387F8CA317AE700BF0400002005
:102EE000405500084C5500080023C7F8BC3197F83E
:102EF000C93107F582721B01D41897F8C93107F55B
:102F000082721B011344184603F012FD03461A4651
:102F1000B7F8B63113449DB297F8C93107F58272FC
:102F20001B011344184603F00EFD03461A46B7F87A
:102F3000B43113449BB21A462946204600F0A8FE3D
:102F400097F8C93107F582721B011344184603F044
:102F5000EFFC03461C4697F8C93107F582721B0146
:102F60001344184603F0FAFC0346C3F1F0039C42F5
:102F7000ACBF01230023DBB2002B02D00123C7F832
:102F8000C43197F8C93107F582721B011344184602
:102F900003F0CEFC0346002B0CBF01230023DBB261
:102FA000002B02D00123C7F8C43197F8C93107F5C7
:102FB00082721B011344184603F0C5FC0346DC2B48
:102FC0008CBF01230023DBB2002B16D00123C7F8EE
:102FD000C03197F8C93107F582721B0113441846B6
:102FE00003F0B1FC0346022B94BF01230023DBB2A4
:102FF000002B02D00123C7F8C03197F8C931013343
:1030000087F8C931BEE6D7F8C431002B04D0B7F831
:10301000B6315B42A7F8B631D7F8C031002B04D0E7
:10302000B7F8B4315B42A7F8B4310F213D4801F045
:103030000CFCFFF7B8BBD7F8BC31012B7FF4ABAA6F
:10304000D7F8B831002B7FF7A6AAD7F8B831013BE3
:10305000C7F8B831002302934FF6FF7301934FF482
:103060009B730093052305222F492E48FEF7B6F8DF
:10307000D7F8B8319BB2C3F1050399B2002301938D
:103080004FF6FF7300934FF49B733C222548FEF7E5
:1030900031F9FFF780BA1F2301934FF4A073009317
:1030A000F023002200211F48FDF776FD1F23029325
:1030B0004FF6E073019364230093282308221B49F1
:1030C0001848FEF78BF81F2302934FF6E073019325
:1030D0007823009308230F2215491248FEF77EF843
:1030E00000F068F80346002B0CBF01230023DBB27D
:1030F000002B04D00A210B4801F0A7FBF0E700F0F9
:1031000059F80346002B14BF01230023DBB2002B28
:1031100002D0F4E700BF00E000BF07F5EA77BD4644
:10312000F0BD00BF04000020385500085C550008C1
:103130004C55000880B588B002AF03460A46FB80B4
:103140001346BB80FB88053B9AB2BB88063B9BB20B
:1031500007F108000C2101910A210091124900F0A9
:1031600011FD07F10803184600F02FFD32224FF43D
:10317000FA610E4800F040FC32210D4801F065FB79
:1031800032224FF4FA71094800F036FC3221084827
:1031900001F05BFB07F10803184600F059FD00BF82
:1031A0001837BD4680BD00BF0C5400084001002008
:1031B0000400002080B500AF0E48FEF78BFA0346EE
:1031C00003F00403002B14BF01230023DBB2002B08
:1031D0000AD0094B1B68002B04D1074B01221A604F
:1031E000012305E0002303E0034B00221A600023C3
:1031F000184680BD44010020AC02002080B500AF1D
:103200000B4B1B6801330A4A1360094B1B68B3F56B
:103210007A7F05DD0748FEF74BFA054B00221A605E
:10322000012200210448FEF7E9F800BF80BD00BF7D
:10323000B0020020440100200400002080B500AF4F
:103240000249034801F0B8FA00BF80BDFD31000813
:103250000400002080B586B004AF00237B6000230B
:1032600001934FF4A0730093F023002200217348D0
:10327000FDF792FC002302934FF6E0730193322393
:103280000093502305226E496C48FDF7A7FF0023E9
:1032900002934FF6E07301934623009350230522D7
:1032A00068496648FDF79AFF002302934FF6E073E2
:1032B00001935A2300935023052263495F48FDF789
:1032C0008DFF002302934FF6E713019378230093B9
:1032D00005230E225D495948FDF780FF0023029324
:1032E00041F6E37301938C23009305231022584980
:1032F0005248FDF773FF0023029341F6FF03019349
:10330000A023009305230F2252494C48FDF766FF86
:10331000002302934FF6FF730193C8230093052304
:1033200012224D494548FDF759FF0D234B4A4C49A0
:103330004C4800F0D6FB00233B603B680C2B13DCB1
:10334000474A3B6832F813301946474800F023FAE1
:103350004649454800F064FA6421384801F075FA9E
:103360003B6801333B60E8E77B68002B61D1404854
:10337000FEF7B0F90346012B0CBF01230023DBB29B
:10338000002B13D001237B60FCF7D2FE3848FEF7F8
:10339000A1F90346002B14BF01230023DBB2002B4D
:1033A00004D06421254801F050FAEFE73048FEF7D9
:1033B00091F90346022B0CBF01230023DBB2002B43
:1033C00013D001237B60FEF72BFF2948FEF782F91B
:1033D0000346002B14BF01230023DBB2002B04D0D3
:1033E0006421164801F031FAEFE72148FEF772F93F
:1033F0000346042B0CBF01230023DBB2002B13D0A8
:1034000001237B6000F04AFD1948FEF763F903468B
:10341000002B14BF01230023DBB2002B04D0642156
:10342000064801F012FAEFE76421044801F00DFAB2
:103430009AE700BF0837BD4680BD00BF04000020EA
:10344000C45E0008CC5E0008D45E0008DC5E0008A4
:10345000EC5E0008005F0008105F0008845500085B
:10346000685500084001002028000020245F000863
:103470004401002080B487B000AFF860B960134603
:10348000FB80FB687B61BB683B61FB885B08FB8062
:10349000FB88002B47D0274B274A5A60254B274AE9
:1034A0005A60244B1B69234A23F002031361214B0A
:1034B0001B69204A43F0010313613B691A887B6949
:1034C0001A801C4BDB6803F00103002B14BF01239F
:1034D0000023DBB2002B00D0F3E7164BDB6803F0D0
:1034E0000403002B14BF01230023DBB2002B02D006
:1034F0004FF0FF3318E00F4BDB6803F01003002B95
:1035000014BF01230023DBB2002B02D06FF00103B4
:103510000AE07B6902337B613B6902333B61FB88D4
:10352000013BFB80B4E7002318461C37BD4680BC36
:10353000704700BF0020024023016745AB89EFCDF3
:1035400080B483B000AF7860154B164A5A60144BB4
:10355000154A5A60124B1B69114A23F0010313618B
:103560000F4B1B690E4A43F0020313610C4A7B6840
:1035700053610B4B1B690A4A43F040031361084B2C
:10358000DB6803F00103002B14BF01230023DBB22F
:10359000002B00D0F3E700BF0C37BD4680BC70475E
:1035A0000020024023016745AB89EFCD80B487B08E
:1035B00000AFF860B9601346FB80FB687B61BB68B5
:1035C0003B61FB885B08FB80FB88002B0DD07B698F
:1035D0001A883B691A803B6902333B617B6902337D
:1035E0007B61FB88013BFB80EEE700BF1C37BD46DB
:1035F00080BC704780B485B000AF78604FF416533C
:10360000FB60414A7B68136072B67B680022C3F896
:10361000942000237A68C2F890307A68C2F88C301F
:103620007B6800229A6000237A6853607A6813608E
:10363000364B9B69354A43F004039361334BDB6996
:10364000324A43F40033D361314B1B68304A23F4D0
:10365000807313602E4B1B682D4A43F40073136074
:103660002B4B1B682A4A23F480631360284B1B688A
:10367000274A43F400631360254B1B68244A23F454
:1036800040531360224B1B68214A23F4804313608C
:103690001F4B1B681E4A43F4004313601D4BBB6065
:1036A000BA68FB6892FBF3F3BB60184B1B69174ABF
:1036B00023F400331361184B0022DA60164B00220A
:1036C0001A61154B00225A61134ABB689360124B72
:1036D000DB68114A43F06C03D3600F4BDB680E4A82
:1036E00043F40053D3604FF0E023D3F804314FF09C
:1036F000E02243F04003C2F8043162B600BF143741
:10370000BD4680BC704700BFB802002000100240D8
:103710000008014000A24A040044004080B582B085
:1037200000AF78600B46FB70124BDB6803F00803B8
:10373000002B0CBF01230023DBB2002B0FD00D4B5D
:10374000DB680C4A43F00803D3607B68194678684D
:1037500000F0A6F803461A46064B5A6005E07B685F
:10376000FA781946786800F072F800BF0837BD464D
:1037700080BD00BF0044004080B582B000AF7860DB
:103780007B688C331946786800F08AF8034618463F
:103790000837BD4680BD80B586B000AF786039601F
:1037A0000A237B610023FB743B68002B05DA2D2381
:1037B0003B723B685B423B6001E02B233B727B69C1
:1037C000002B20DD3A68154B83FB02139910D317A9
:1037D000C91A0B469B000B445B00D11ACBB23033A5
:1037E000D9B207F108027B6913440A461A703B6894
:1037F0000A4A82FB03129210DB17D31A3B607B69E3
:10380000013B7B61DBE707F108031946786800F0AC
:1038100007F800BF1837BD4680BD00BF6766666603
:1038200080B582B000AF786039603B681B78002BB0
:1038300009D03B681B7819467868FFF76FFF3B6833
:1038400001333B60F1E700BF0837BD4680BD80B45F
:1038500085B000AFF860B9601346FB71BB689B6828
:103860007F2B94BF01230023DBB2002B13D072B651
:10387000BB689B685A1CBB689A60BB681B68BA68C7
:103880001344FA791A73BB681B68013303F07F0293
:10389000BB681A6062B600BF1437BD4680BC704773
:1038A00080B485B000AF786039600023FB733B685B
:1038B0009B68002B14BF01230023DBB2002B13D025
:1038C00072B63B689B685A1E3B689A603B685B68AF
:1038D0003A6813441B7BFB733B685B68013303F05E
:1038E0007F023B685A6062B6FB7B18461437BD46C0
:1038F00080BC704780B500AF284B1B6803F04003C5
:10390000002B14BF01230023DBB2002B2DD0244B4E
:103910001B689B68002B14BF01230023DBB2002B24
:103920000CD01F4B1B681E4A126811461846FFF741
:10393000B7FF03461A46194B5A6016E0174BDB686F
:10394000164A23F00803D360144B1B6803F04003AE
:10395000002B14BF01230023DBB2002B05D00F4B3B
:103960001B680E4A23F0400313600C4B1B6803F0E6
:103970002003002B14BF01230023DBB2002B0AD04D
:10398000074B1868064B1B688C33044A5268D2B246
:103990001946FFF75CFF00BF80BD00BF0044004038
:1039A000B802002080B483B000AF78600F4A7B6813
:1039B00013600F4BDB690E4A43F00203D3610C4BDB
:1039C0009B690B4A43F0080393610A4B00221A607B
:1039D000084B6022DA61074B1B6A064A43F4807386
:1039E000136200BF0C37BD4680BC7047BC0200208C
:1039F000001002400004004080B483B000AF786043
:103A00000B467B8013463B801A4B1B68194A23F0F8
:103A10000F031360174B1B68164A43F00A03136029
:103A2000154B1B68144A23F001031360124B40F23C
:103A30004A429A62104B9B6A104AB2FBF3F27B88AF
:103A40000D49B2FBF3F3CB620B4BDB6A0A4A5B080E
:103A5000D363094B00225A62074B1B68064A43F0A6
:103A6000010313603A887B681A6000BF0C37BD46BB
:103A700080BC7047000C01400004004000A24A04D2
:103A800080B400AF0A4B1B68094A23F0010313609E
:103A9000084B1B68074A23F00F031360054B1B6894
:103AA000044A43F00403136000BFBD4680BC704766
:103AB00000040040000C014080B483B000AF786087
:103AC0007B681B68002B14BF01230023DBB2002B93
:103AD00001D0012300E0002318460C37BD4680BC0E
:103AE000704780B586B000AFF860B9607A603B601F
:103AF00000237B617A693B689A421DDAF868FFF718
:103B0000DBFF0346002B14BF01230023DBB2002B95
:103B100000D0F3E77B695B00BA68134419887B69BE
:103B20005B007A6813441B881A46F868FFF764FF45
:103B30007B6901337B61DDE700BF1837BD4680BD7F
:103B400080B500AF0E4B1B681B68002B14BF012310
:103B50000023DBB2002B10D0094B1B681A68013A16
:103B60001A60074B1B681B68002B0CBF0123002346
:103B7000DBB2002B01D0FFF783FF00BF80BD00BF89
:103B8000BC02002080B485B000AFF860B960114677
:103B90001A460B46FB801346BB80FB68FA881A81E5
:103BA000FB68BA885A81FB683A8B1A80FB68BA8B2B
:103BB0005A80FB68BA685A60FB6800221A73FB6877
:103BC00018461437BD4680BC704790B585B002AF2B
:103BD00078607B681B7B002B10D17B6819897B6820
:103BE00058897B681C887B685B887A685268019278
:103BF0000093234602460548FDF7D2FA7B6801226E
:103C00001A7300BF0C37BD4690BD00BF04000020F2
:103C100090B585B002AF78607B681B7B002B10D01D
:103C20007B6819897B6858897B681C887B685B88FE
:103C30007A68526801920093234602460348FDF7D2
:103C4000AFFA00BF0C37BD4690BD00BF0400002096
:103C500090B585B002AF78607B681B7B002B0ED0DF
:103C60007B6819897B685A897B6818887B685B88C0
:103C700000240194009303460448FCF78DFF7B6801
:103C800000221A7300BF0C37BD4690BD040000200F
:103C900090B585B002AF78600B467B8013463B80C1
:103CA0007B681B7B002B26D07B6819897B685A892F
:103CB0007B6818887B685B88002401940093034626
:103CC0001248FCF769FF7B687A881A817B683A881A
:103CD0005A817B6819897B6858897B681C887B6856
:103CE0005B887A685268019200932346024607482F
:103CF000FDF756FA05E07B687A881A817B683A8876
:103D00005A8100BF0C37BD4690BD00BF04000020A3
:103D100080B483B000AF78600B467B8013463B8055
:103D20007B681B7B002B01D1002320E07B681B8973
:103D30007A889A421AD37A887B681B8919467B68ED
:103D40001B880B449A4211DA7B685B893A889A4255
:103D50000AD33A887B685B8919467B685B880B4489
:103D60009A4201DA012302E0002300E00023184612
:103D70000C37BD4680BC704780B483B000AF78601C
:103D80000B467B8013463B807B681B7B002B01D15D
:103D900000235EE07B685B893A889A420FD17B689A
:103DA0001B897A889A420AD37A887B681B891946CC
:103DB0007B681B880B449A4201DA012349E07B6847
:103DC0001B897A889A420FD17B685B893A889A422C
:103DD0000AD33A887B685B8919467B685B880B4409
:103DE0009A4201DA022334E03A887B685B891946FB
:103DF0007B685B880B44013B9A420FD17B681B892F
:103E00007A889A420AD37A887B681B8919467B682C
:103E10001B880B449A4201DA03231AE07A887B68F4
:103E20001B8919467B681B880B44013B9A420FD1C2
:103E30007B685B893A889A420AD33A887B685B89B7
:103E400019467B685B880B449A4201DA042300E040
:103E5000002318460C37BD4680BC704780B582B041
:103E600002AF002301934FF4A0730093F0230022CC
:103E700000210948FCF790FE4FF6FF7301934FF4C1
:103E8000A0730093F023002200210348FCF7A2FE58
:103E900000BFBD4680BD00BF04000020B0B59AB091
:103EA00004AF704B3B640023FB640023BB646E4B88
:103EB0003C461D460FCD0FC40FCD0FC495E807003B
:103EC00084E807000023FB631323BB6300237B64A8
:103ED000BA6B13465B0013449B0004337B630023DF
:103EE000FB64002301934FF4A0730093F02300229E
:103EF00000215E48FCF750FE00237B657B6D0B2B99
:103F000050DC00233B653B6D092B47DC3B6D9BB2CE
:103F1000BA6B92B202FB03F399B27B6D9BB2BA6BA0
:103F200092B202FB03F39AB2BB6B98B2BB6B9BB22B
:103F30004FF6FF740194009303464C48FCF74AFE89
:103F40003B6D9BB2BA6B92B202FB03F39BB201339F
:103F500098B27B6D9BB2BA6B92B202FB03F39BB239
:103F600001339CB2BB6B9BB2023B9DB2BB6B9BB25D
:103F7000023B9BB2FA6C5200396C0A4412880192DF
:103F800000932B46224601463848FCF705FEFB6CA1
:103F90000133FB643B6D01333B65B4E77B6D01335B
:103FA0007B65ABE700237B657B6D012B60DC002329
:103FB0003B653B6D0A2B50DC3B6D9BB2BA6B92B2FA
:103FC00002FB03F399B27B6D9BB2BA6B92B202FB18
:103FD00003F39AB27B6B9BB213449AB2BB6B98B259
:103FE000BB6B9BB24FF6FF740194009303461F48CE
:103FF000FCF7F0FD3B6D9BB2BA6B92B202FB03F390
:104000009BB2013399B27B6D9BB2BA6B92B202FB49
:1040100003F39AB27B6B9BB213449BB2013398B209
:10402000BB6B9BB2023B9CB2BB6B9BB2023B9AB296
:10403000BB6C5B0007F158052B4433F8583C0193E7
:104040000092234602460948FCF7A6FDBB6C0133EB
:10405000BB643B6D01333B65ABE77B6D01337B6537
:10406000A2E700BF4C010020E46200080400002029
:10407000002302934FF6FF7301934FF49C73009358
:1040800000231322AC49AD48FDF7A8F80023BB6418
:104090007B6C002B40F04C81A948FDF77FFB034669
:1040A0001A4613461B019B1A1B01A64A82FB0312E8
:1040B0009211DB17D31A3B63A148FDF7EBFB0346D4
:1040C0001A4613469B0013449B019E4A82FB03122F
:1040D0009211DB17D31AFB623B6B19469A48FFF724
:1040E0005AFB9A499848FFF79BFBFB6A194696488A
:1040F000FFF751FB96499448FFF792FB3B6BEF2B80
:1041000000F2DD80FB6AB3F5A07F80F0D8807B6B86
:10411000FA6A9A4226D3BB6B5A007B6B13441A4649
:10412000FB6A93421ED8BA6B13469B0013445B0094
:1041300013441A463B6B934214D27B6BFA6AD21A31
:10414000BB6BB2FBF3F213469B0013445B001A44B3
:10415000BB6B396BB1FBF3F31344BB64B96C7A48A6
:10416000FFF719FB7A497848FFF75AFBBB6B01331D
:104170009BB21A46920013445B0099B2BB6B9AB291
:10418000BB6B9BB24FF6FF70019000931346A022C9
:104190006A48FCF71FFDBB6B9BB21A4692001344A2
:1041A0005B009BB20B3399B2BB6B9BB2023B98B2E4
:1041B000BB6B9BB2023B9AB2BB6C5B0007F158042D
:1041C000234433F8583C019300920346A1225B48F4
:1041D000FCF7E2FCBA6B13465B0013449B001A46E3
:1041E000FB6A93426BD8BA6B13469B0013445B0087
:1041F0001A463B6B934262D8BB6BFA6AB2FBF3F38D
:104200007B65BB6B3A6BB2FBF3F33B657A6D134690
:104210009B0013445B001A463B6D1344FB647B6DAB
:104220000B2B4CDC3B6D092B49DCFB6C5B003A6CC7
:104230001A44BB6C5B0007F158010B4433F8583C3F
:1042400013803B6D9BB2BA6B92B202FB03F39BB23D
:10425000013398B27B6D9BB2BA6B92B202FB03F34F
:104260009BB201339CB2BB6B9BB2023B9DB2BB6B5A
:104270009BB2023B9BB2FA6C5200396C0A44128822
:10428000019200932B46224601462C48FCF784FC01
:10429000BB6B9BB21A46920013445B009BB20B337C
:1042A00099B2BB6BC3F150039BB25B009AB23B6CFB
:1042B00001930C2300930A232048FCF771FF204848
:1042C000FDF708FA0346FB6332211C4800F0BDFAF3
:1042D000FB6B042B25D0FB6B042B3FF7D9AEFB6B9C
:1042E000012B03D0FB6B022B03D020E001237B6466
:1042F0001DE00023FB64FB6C9F2B0CD8FB6C5B0068
:104300003A6C13441349FA6C31F812201A80FB6C92
:104310000133FB64EFE7104800F080F901237B6470
:1043200005E00D4800F07AF901237B6400BFAFE699
:1043300000BF5837BD46B0BDC86200080400002069
:1043400044010020D34D621028000020DC620008E8
:10435000E0620008D05F00084C01002080B584B006
:1043600000AF7860154A7B68C3F84C21786800F08C
:10437000F7F802467B68C3F850217B68D3F85031C8
:10438000002B03D0786800F0B9F913E00023FB603C
:10439000FB68772B0BD80A4AFB6832F813107B684E
:1043A000FA6823F81210FB680133FB60F0E77868C5
:1043B00000F034F900BF1037BD4680BD00FC000896
:1043C0004863000880B489B000AFF860B9607A60D3
:1043D0007B800023FB61BB68BB617B687B617B8862
:1043E0005B087B8072B67B88002B49D0294B2A4A18
:1043F0005A60284B294A5A60264B1B69254A23F0EC
:1044000002031361234B1B69224A43F0010313612A
:104410007B691A88BB691A801E4BDB6803F00103B5
:10442000002B14BF01230023DBB2002B00D0F3E7E5
:10443000184BDB6803F00403002B14BF0123002397
:10444000DBB2002B03D04FF0FF33FB6118E0114BC0
:10445000DB6803F01003002B14BF01230023DBB241
:10446000002B03D06FF00103FB6109E0BB6902334D
:10447000BB617B6902337B617B88013B7B80B2E758
:10448000044B00225A6062B6FB6918462437BD46C9
:1044900080BC70470020024023016745AB89EFCD07
:1044A00080B483B000AF7860396072B6174B184A99
:1044B0005A60164B174A5A60144B1B69134A23F073
:1044C00001031361114B1B69104A43F0020313618E
:1044D0000E4A3B6853610D4B1B690C4A43F0400385
:1044E00013610A4BDB6803F00103002B14BF0123A7
:1044F0000023DBB2002B00D0F3E7044B00225A600C
:1045000062B600BF0C37BD4680BC70470020024039
:1045100023016745AB89EFCD80B487B000AFF86069
:10452000B9607A607B80BB687B617B683B617B881C
:104530005B087B807B88002B0DD07B691A883B69E8
:104540001A803B6902333B617B6902337B617B8864
:10455000013B7B80EEE700BF1C37BD4680BC704747
:1045600080B485B000AF78607B68D3F84C31FB60D5
:104570007B68D3F84C217B68D3F8483113441A4642
:10458000FB68934244D2FB681A787B6893F8403109
:104590009A4239D1FB6801331A787B6893F841312C
:1045A0009A4231D1FB6802331A787B6893F8423122
:1045B0009A4229D1FB6803331A787B6893F8433118
:1045C0009A4221D1FB6804331A787B6893F844310E
:1045D0009A4219D1FB6805331A787B6893F8453104
:1045E0009A4211D1FB6806331A787B6893F84631FA
:1045F0009A4209D1FB6807331A787B6893F84731F0
:104600009A4201D1FB6804E0FB680133FB60AFE72D
:10461000002318461437BD4680BC704780B586B06D
:1046200000AF78607B68D3F85031002B46D04FF450
:10463000A4737B617B6903F00103002B02D07B69CB
:1046400001337B617B68D3F850217B691A447B6816
:10465000D3F84C117B68D3F848310B449A421FD8E9
:104660000023FB8100233B613A697B699A420ED2A9
:104670007B68D3F850213B69D11807F10E02022361
:104680007868FFF79FFE3B6902333B61ECE77B688C
:10469000D3F850217B691A447B68C3F8502113E09A
:1046A0007B68D3F84C3119467868FFF7F9FE7B68D0
:1046B000D3F84C217B68C3F8502105E07B68D3F820
:1046C0004C217B68C3F850217B68D3F850117B687C
:1046D00003F5A07208237868FFF774FE7B68D3F8AF
:1046E000503103F108017A684FF4A0737868FFF73E
:1046F00069FE002318461837BD4680BD80B582B0DC
:1047000000AF78607B68D3F85031002B0CD07B6809
:10471000D3F8503103F108017A684FF4A073786838
:10472000FFF7FAFE002301E04FF0FF331846083789
:10473000BD4680BD80B582B000AF78607B68D3F89D
:104740004C3119467868FFF7ABFE7B680022C3F84E
:10475000502100BF0837BD4680BD00BF80B485B082
:1047600000AF7860114A7B6813600023FB60FB6830
:10477000072B09DC7A68FB689B00134400225A600F
:10478000FB680133FB60F2E7094B1B68084A43F002
:1047900007031360064B074A5A60054B05229A60CF
:1047A00062B600BF1437BD4680BC7047C00200200F
:1047B00010E000E03F19010080B485B000AF7860E0
:1047C00039600023FB60FB68072B12DC7A68FB680A
:1047D0009B0013445B68002B07D17A68FB689B0041
:1047E00013443A685A60002305E0FB680133FB601C
:1047F000E9E74FF0FF3318461437BD4680BC7047D9
:1048000080B485B000AF786039600023FB60FB683E
:10481000072B13DC7A68FB689B0013445B683A68DB
:104820009A4207D17A68FB689B00134400225A60C1
:10483000002305E0FB680133FB60E8E74FF0FF333E
:1048400018461437BD4680BC704780B483B000AFB3
:10485000786039603B68002B09D07B6800221A60C1
:104860007B681B683A689A4201D930BFF8E700BFFD
:104870000C37BD4680BC704780B582B000AF104B8E
:104880001B681A6801321A6000237B607B68072B63
:1048900012DC0B4B1A687B689B0013445B68002B8F
:1048A00006D0074B1A687B689B0013445B689847E7
:1048B0007B6801337B60E9E700BF0837BD4680BDF8
:1048C000C00200202D150008450C750FC50D5F10A6
:1048D000750F60125F10450C450C6012450C60129C
:1048E000450C0000C800C800C800C800C800C800C7
:1048F000C800C800C800C800C800C800C800000040
:10490000010001000100010001000100010001009F
:10491000010001000100010001000100010001008F
:10492000010001000100010001000100010001007F
:104930000100E6FFE6FFE6FFE6FFE6FFE6FFE6FF33
:10494000E6FFE6FFE6FFE6FFE6FFE6FFE6FFE6FF3F
:10495000E6FFE6FFE6FFE6FFE6FFE6FFE6FF010013
:104960000100E6FFE6FFE6FFE6FFE6FFE6FFE6FF03
:10497000E6FFE6FFE6FFE6FFE6FFE6FFE6FFE6FF0F
:10498000E6FFE6FFE6FFE6FFE6FFE6FFE6FF0100E3
:104990000100E6FFE6FFE6FFE6FFE6FFE6FFE6FFD3
:1049A000E6FFE6FFE6FFE6FFE6FFE6FFE6FFE6FFDF
:1049B000E6FFE6FFE6FFE6FFE6FFE6FFE6FF0100B3
:1049C0000100E6FFE6FFE6FFE6FFE6FFE6FFE6FFA3
:1049D000E6FFE6FFE6FFE6FFE6FFE6FFE6FFE6FFAF
:1049E000E6FFE6FFE6FFE6FFE6FFE6FFE6FF010083
:1049F0000100E6FFE6FFE6FFE6FFE6FFE6FFE6FF73
:104A0000E6FFE6FFE6FFE6FFE6FFE6FFE6FFE6FF7E
:104A1000E6FFE6FFE6FFE6FFE6FFE6FFE6FF010052
:104A20000100E6FFE6FFE6FFE6FFE6FFE6FFE6FF42
:104A3000E6FFE6FFE6FFE6FFE6FFE6FFE6FFE6FF4E
:104A4000E6FFE6FFE6FFE6FFE6FFE6FFE6FF010022
:104A50000100E6FFE6FFE6FFE6FFE6FFE6FFE6FF12
:104A6000E6FFE6FFE6FFE6FFE6FFE6FFE6FFE6FF1E
:104A7000E6FFE6FFE6FFE6FFE6FFE6FFE6FF0100F2
:104A80000100E6FFE6FFE6FFE6FFE6FFE6FFE6FFE2
:104A9000E6FFE6FFE6FFE6FFE6FFE6FFE6FFE6FFEE
:104AA000E6FFE6FFE6FFE6FFE6FFE6FFE6FF0100C2
:104AB00001000100010001000100010001000100EE
:104AC00001000100010001000100010001000100DE
:104AD00001000100010001000100010001000100CE
:104AE00001000100010001000100010001000100BE
:104AF00001000100010001000100010001000100AE
:104B0000010001000100010001000100010001009D
:104B10000100C32FC32FC32FC32FC32FC32FC32FF6
:104B2000C32FC32FC32FC32FC32FC32FC32FC32FF5
:104B3000C32FC32FC32FC32FC32FC32FC32F0100D6
:104B40000100C32FC32FC32FC32FC32FC32FC32FC6
:104B5000C32FC32FC32FC32FC32FC32FC32FC32FC5
:104B6000C32FC32FC32FC32FC32FC32FC32F0100A6
:104B70000100C32FC32FC32FC32FC32FC32FC32F96
:104B8000C32FC32FC32FC32FC32FC32FC32FC32F95
:104B9000C32FC32FC32FC32FC32FC32FC32F010076
:104BA0000100C32FC32FC32FC32FC32FC32FC32F66
:104BB000C32FC32FC32FC32FC32FC32FC32FC32F65
:104BC000C32FC32FC32FC32FC32FC32FC32F010046
:104BD0000100C32FC32FC32FC32FC32FC32FC32F36
:104BE000C32FC32FC32FC32FC32FC32FC32FC32F35
:104BF000C32FC32FC32FC32FC32FC32FC32F010016
:104C00000100C32FC32FC32FC32FC32FC32FC32F05
:104C1000C32FC32FC32FC32FC32FC32FC32FC32F04
:104C2000C32FC32FC32FC32FC32FC32FC32F0100E5
:104C30000100C32FC32FC32FC32FC32FC32FC32FD5
:104C4000C32FC32FC32FC32FC32FC32FC32FC32FD4
:104C5000C32FC32FC32FC32FC32FC32FC32F0100B5
:104C60000100C32FC32FC32FC32FC32FC32FC32FA5
:104C7000C32FC32FC32FC32FC32FC32FC32FC32FA4
:104C8000C32FC32FC32FC32FC32FC32FC32F010085
:104C9000010001000100010001000100010001000C
:104CA00001000100010001000100010001000100FC
:104CB00001000100010001000100010001000100EC
:104CC00001000100010001000100010001000100DC
:104CD00001000100010001000100010001000100CC
:104CE00001000100010001000100010001000100BC
:104CF00001005F1E5F1E5F1E5F1E5F1E5F1E5F1E48
:104D00005F1E5F1E5F1E5F1E5F1E5F1E5F1E5F1EBB
:104D10005F1E5F1E5F1E5F1E5F1E5F1E5F1E010027
:104D200001005F1E5F1E5F1E5F1E5F1E5F1E5F1E17
:104D30005F1E5F1E5F1E5F1E5F1E5F1E5F1E5F1E8B
:104D40005F1E5F1E5F1E5F1E5F1E5F1E5F1E0100F7
:104D500001005F1E5F1E5F1E5F1E5F1E5F1E5F1EE7
:104D60005F1E5F1E5F1E5F1E5F1E5F1E5F1E5F1E5B
:104D70005F1E5F1E5F1E5F1E5F1E5F1E5F1E0100C7
:104D800001005F1E5F1E5F1E5F1E5F1E5F1E5F1EB7
:104D90005F1E5F1E5F1E5F1E5F1E5F1E5F1E5F1E2B
:104DA0005F1E5F1E5F1E5F1E5F1E5F1E5F1E010097
:104DB00001005F1E5F1E5F1E5F1E5F1E5F1E5F1E87
:104DC0005F1E5F1E5F1E5F1E5F1E5F1E5F1E5F1EFB
:104DD0005F1E5F1E5F1E5F1E5F1E5F1E5F1E010067
:104DE00001005F1E5F1E5F1E5F1E5F1E5F1E5F1E57
:104DF0005F1E5F1E5F1E5F1E5F1E5F1E5F1E5F1ECB
:104E00005F1E5F1E5F1E5F1E5F1E5F1E5F1E010036
:104E100001005F1E5F1E5F1E5F1E5F1E5F1E5F1E26
:104E20005F1E5F1E5F1E5F1E5F1E5F1E5F1E5F1E9A
:104E30005F1E5F1E5F1E5F1E5F1E5F1E5F1E010006
:104E400001005F1E5F1E5F1E5F1E5F1E5F1E5F1EF6
:104E50005F1E5F1E5F1E5F1E5F1E5F1E5F1E5F1E6A
:104E60005F1E5F1E5F1E5F1E5F1E5F1E5F1E0100D6
:104E7000010001000100010001000100010001002A
:104E8000010001000100010001000100010001001A
:104E9000010001000100010001000100010001000A
:104EA000FFFFFFFFFFFFFFFFFFFFFFFFFFFFFFFF12
:104EB000FFFFFFFFFFFFFFFFFFFFFFFFFFFFFFFF02
:104EC000FFFFFFFFFFFFFFFFFFFFFFFFFFFFFFFFF2
:104ED000FFFFFFFFFFFFFFFFFFFFFFFFFFFFFFFFE2
:104EE000FFFFFFFFFFFFFFFFFFFFFFFFFFFFFFFFD2
:104EF000FFFFFFFFFFFFFFFFFFFFFFFFFFFFFFFFC2
:104F0000FFFFFFFFFFFFFFFFFFFFFFFFFFFFFFFFB1
:104F1000FFFFFFFFFFFFFFFF0000FFFF0000FFFF9D
:104F2000FFFFFFFF0000FFFF000000004272696307
:104F3000690000004C6576656C00000047414D45F6
:104F4000204F5645520000004669726520746F205C
:104F50007265737461727400564943544F525921FB
:104F600000000000450C750FC50D5F10750F601235
:104F70005F10450C450C6012450C6012450C00009A
:104F8000C800C800C800C800C800C800C800C800E1
:104F9000C800C800C800C800C80000004D4147490B
:104FA00043343223000000000000005F00000007CF
:104FB000000700147F147F14242A7F2A1223130869
:104FC000646236495522500005030000001C22414E
:104FD000000041221C00082A1C2A0808083E080874
:104FE0000050300000080808080800606000002039
:104FF000100804023E5149453E00427F4000426194
:105000005149462141454B311814127F102745451F
:1050100045393C4A49493001710905033649494936
:1050200036064949291E0036360000005636000073
:10503000000814224114141414144122140800020C
:1050400001510906324979413E7E1111117E7F4995
:105050004949363E414141227F4141221C7F494915
:1050600049417F090901013E414151327F08080849
:105070007F00417F41002040413F017F08142241D1
:105080007F404040407F0204027F7F0408107F3E43
:105090004141413E7F090909063E4151215E7F0998
:1050A000192946464949493101017F01013F4040E4
:1050B000403F1F2040201F7F2018207F63140814CA
:1050C000630304780403615149454300007F414173
:1050D000020408102041417F000004020102044044
:1050E00040404040000102040020545454787F485E
:1050F0004444383844444420384444487F38545465
:105100005418087E090102081454543C7F08040412
:105110007800447D40002040443D00007F1028443A
:1051200000417F40007C041804787C08040478382F
:10513000444444387C14141408081414187C7C0863
:105140000404084854545420043F4440203C404048
:10515000207C1C2040201C3C4030403C442810282F
:10516000440C5050503C4464544C440008364100B8
:1051700000007F0000004136080008082A1C0808CB
:105180001C2A08080008040C020A060E0109050D75
:10519000030B070F450C750FC50D5F10750F6012DF
:1051A0005F10450C450C6012450C6012450C000068
:1051B000C800C800C800C800C800C800C800C800AF
:1051C000C800C800C800C800C8000000450C750F22
:1051D000C50D5F10750F60125F10450C450C601215
:1051E000450C6012450C0000C800C800C800C8008B
:1051F000C800C800C800C800C800C800C800C8006F
:10520000C8000000000000000000000000000000D6
:10521000000000000000000000000000000000008E
:10522000E0FFE0FF000000000000000000000000C0
:105230000000E0FFE0FFE0FFE0FF000000000000F2
:105240000000E0FFE0FF0000E0FFE0FF0000E0FF03
:10525000E0FF00000000E0FFE0FF0000E0FFE0FFF3
:105260000000E0FFE0FF00000000E0FFE0FFE0FFE3
:10527000E0FFE0FFE0FFE0FFE0FF00000000E0FFF4
:10528000E0FFE0FFE0FFE0FFE0FFE0FFE0FF000005
:1052900000000000E0FFE0FF00000000E0FFE0FF92
:1052A0000000000000000000E0FFE0FF0000000040
:1052B000E0FFE0FF000000000000E0FFE0FF000072
:1052C000000000000000E0FFE0FF0000E0FFE0FF62
:1052D000E0FF0000000000000000E0FFE0FFE0FF52
:1052E00000000000000000000000000000000000BE
:1052F00000000000000000000000000000000000AE
:10530000000000000000000000000000000000009D
:10531000FFFFFFFF00000000000000000000000091
:1053200000000000FFFFFFFF000000000000000081
:105330000000FFFFFFFFFFFFFFFFFFFFFFFFFFFF7B
:10534000FFFF0000FFFFFFFFFFFFFFFFFFFFFFFF6B
:10535000FFFFFFFFFFFFFFFFFFFFFFFFFFFFFFFF5D
:10536000FFFFFFFFFFFFFFFFFFFFFFFF0000000049
:10537000E007000000000000E007E007E007000091
:105380000000E007E007E00700000000E007E0079A
:10539000E00700000000E007E007E0070000E0078A
:1053A000E007E007E007E007E007E007E007E007C5
:1053B000E00700000000E0FF000000000000000027
:1053C000E0FF000000001F001F001F001F001F0063
:1053D0001F001F001F001F001F0000001F001F00F4
:1053E0001F00000000001F001F001F000000000041
:1053F0001F001F001F00000000001F001F001F00F3
:105400000000000000001F0000000000000000007D
:105410000000000000F800F800000000000000009C
:1054200000F800000000000000F800F80000000094
:10543000000000F8000000F80000000000F800F88C
:105440000000000000F800000000000000F800006C
:1054500000F800F8000000F8000000000000000064
:10546000000000F800F800F800F80000000000005C
:1054700000F800F800F800F800F800F800F800F86C
:1054800000F800F800F800F800F800F800F800F85C
:1054900000F800F800F800F800000000000000F834
:1054A00000F800F800F80000000000000000000014
:1054B00000F8000000F800F8000000F8000000000C
:1054C000000000F80000000000F800F800000000F4
:1054D00000F8000000F800000000000000F800F8EC
:1054E00000000000000000F80000000000000000C4
:1054F00000F800F800000000000000004D435520B7
:1055000047616C61676100004F6E6C792035206DDA
:10551000697373696C65730063616E2062652069ED
:105520006E20666C69676874000000006174206F0B
:105530006E652074696D65004C6576656C000000D1
:1055400047414D45204F564552000000466972655F
:1055500020746F20726573746172740056494354ED
:105560004F52592100000000450C750FC50D5F100A
:10557000750F60125F10450C450C6012450C6012EF
:10558000450C0000C800C800C800C800C800C8001A
:10559000C800C800C800C800C800C800C800000093
:1055A00001000100010001000100010001000100F3
:1055B00001000100010001000100010001000100E3
:1055C00001000100010001000100010001000100D3
:1055D0000100E6FFE6FFE6FFE6FFE6FFE6FFE6FF87
:1055E000E6FFE6FFE6FFE6FFE6FFE6FFE6FFE6FF93
:1055F000E6FFE6FFE6FFE6FFE6FFE6FFE6FF010067
:105600000100E6FFE6FFE6FFE6FFE6FFE6FFE6FF56
:10561000E6FFE6FFE6FFE6FFE6FFE6FFE6FFE6FF62
:10562000E6FFE6FFE6FFE6FFE6FFE6FFE6FF010036
:105630000100E6FFE6FFE6FFE6FFE6FFE6FFE6FF26
:10564000E6FFE6FFE6FFE6FFE6FFE6FFE6FFE6FF32
:10565000E6FFE6FFE6FFE6FFE6FFE6FFE6FF010006
:105660000100E6FFE6FFE6FFE6FFE6FFE6FFE6FFF6
:10567000E6FFE6FFE6FFE6FFE6FFE6FFE6FFE6FF02
:10568000E6FFE6FFE6FFE6FFE6FFE6FFE6FF0100D6
:105690000100E6FFE6FFE6FFE6FFE6FFE6FFE6FFC6
:1056A000E6FFE6FFE6FFE6FFE6FFE6FFE6FFE6FFD2
:1056B000E6FFE6FFE6FFE6FFE6FFE6FFE6FF0100A6
:1056C0000100E6FFE6FFE6FFE6FFE6FFE6FFE6FF96
:1056D000E6FFE6FFE6FFE6FFE6FFE6FFE6FFE6FFA2
:1056E000E6FFE6FFE6FFE6FFE6FFE6FFE6FF010076
:1056F0000100E6FFE6FFE6FFE6FFE6FFE6FFE6FF66
:10570000E6FFE6FFE6FFE6FFE6FFE6FFE6FFE6FF71
:10571000E6FFE6FFE6FFE6FFE6FFE6FFE6FF010045
:105720000100E6FFE6FFE6FFE6FFE6FFE6FFE6FF35
:10573000E6FFE6FFE6FFE6FFE6FFE6FFE6FFE6FF41
:10574000E6FFE6FFE6FFE6FFE6FFE6FFE6FF010015
:105750000100010001000100010001000100010041
:105760000100010001000100010001000100010031
:105770000100010001000100010001000100010021
:105780000100010001000100010001000100010011
:105790000100010001000100010001000100010001
:1057A00001000100010001000100010001000100F1
:1057B0000100C32FC32FC32FC32FC32FC32FC32F4A
:1057C000C32FC32FC32FC32FC32FC32FC32FC32F49
:1057D000C32FC32FC32FC32FC32FC32FC32F01002A
:1057E0000100C32FC32FC32FC32FC32FC32FC32F1A
:1057F000C32FC32FC32FC32FC32FC32FC32FC32F19
:10580000C32FC32FC32FC32FC32FC32FC32F0100F9
:105810000100C32FC32FC32FC32FC32FC32FC32FE9
:10582000C32FC32FC32FC32FC32FC32FC32FC32FE8
:10583000C32FC32FC32FC32FC32FC32FC32F0100C9
:105840000100C32FC32FC32FC32FC32FC32FC32FB9
:10585000C32FC32FC32FC32FC32FC32FC32FC32FB8
:10586000C32FC32FC32FC32FC32FC32FC32F010099
:105870000100C32FC32FC32FC32FC32FC32FC32F89
:10588000C32FC32FC32FC32FC32FC32FC32FC32F88
:10589000C32FC32FC32FC32FC32FC32FC32F010069
:1058A0000100C32FC32FC32FC32FC32FC32FC32F59
:1058B000C32FC32FC32FC32FC32FC32FC32FC32F58
:1058C000C32FC32FC32FC32FC32FC32FC32F010039
:1058D0000100C32FC32FC32FC32FC32FC32FC32F29
:1058E000C32FC32FC32FC32FC32FC32FC32FC32F28
:1058F000C32FC32FC32FC32FC32FC32FC32F010009
:105900000100C32FC32FC32FC32FC32FC32FC32FF8
:10591000C32FC32FC32FC32FC32FC32FC32FC32FF7
:10592000C32FC32FC32FC32FC32FC32FC32F0100D8
:10593000010001000100010001000100010001005F
:10594000010001000100010001000100010001004F
:10595000010001000100010001000100010001003F
:10596000010001000100010001000100010001002F
:10597000010001000100010001000100010001001F
:10598000010001000100010001000100010001000F
:1059900001005F1E5F1E5F1E5F1E5F1E5F1E5F1E9B
:1059A0005F1E5F1E5F1E5F1E5F1E5F1E5F1E5F1E0F
:1059B0005F1E5F1E5F1E5F1E5F1E5F1E5F1E01007B
:1059C00001005F1E5F1E5F1E5F1E5F1E5F1E5F1E6B
:1059D0005F1E5F1E5F1E5F1E5F1E5F1E5F1E5F1EDF
:1059E0005F1E5F1E5F1E5F1E5F1E5F1E5F1E01004B
:1059F00001005F1E5F1E5F1E5F1E5F1E5F1E5F1E3B
:105A00005F1E5F1E5F1E5F1E5F1E5F1E5F1E5F1EAE
:105A10005F1E5F1E5F1E5F1E5F1E5F1E5F1E01001A
:105A200001005F1E5F1E5F1E5F1E5F1E5F1E5F1E0A
:105A30005F1E5F1E5F1E5F1E5F1E5F1E5F1E5F1E7E
:105A40005F1E5F1E5F1E5F1E5F1E5F1E5F1E0100EA
:105A500001005F1E5F1E5F1E5F1E5F1E5F1E5F1EDA
:105A60005F1E5F1E5F1E5F1E5F1E5F1E5F1E5F1E4E
:105A70005F1E5F1E5F1E5F1E5F1E5F1E5F1E0100BA
:105A800001005F1E5F1E5F1E5F1E5F1E5F1E5F1EAA
:105A90005F1E5F1E5F1E5F1E5F1E5F1E5F1E5F1E1E
:105AA0005F1E5F1E5F1E5F1E5F1E5F1E5F1E01008A
:105AB00001005F1E5F1E5F1E5F1E5F1E5F1E5F1E7A
:105AC0005F1E5F1E5F1E5F1E5F1E5F1E5F1E5F1EEE
:105AD0005F1E5F1E5F1E5F1E5F1E5F1E5F1E01005A
