:020000040800F2
:1000000000500020E52000087D2100087D21000827
:100010007D2100087D2100087D2100087D21000848
:100020007D2100087D2100087D2100087D21000838
:100030007D2100087D2100087D210008A9470008D6
:100040007D2100087D2100087D2100087D21000818
:100050007D2100087D2100087D2100087D21000808
:100060007D2100087D2100087D2100087D210008F8
:100070007D2100087D2100087D2100087D210008E8
:100080007D2100087D2100087D2100087D210008D8
:100090007D2100087D2100087D2100087D210008C8
:1000A0007D2100087D2100087D2100087D210008B8
:1000B0007D2100087D2100087D2100087D210008A8
:1000C0007D2100087D2100087D2100087D21000898
:1000D0007D2100087D210008393800087D210008B5
:1000E0007D2100087D2100087D2100087D21000878
:1000F0007D2100087D2100087D2100087D21000868
:100100007D2100087D2100087D2100087D21000857
:100110007D2100087D2100087D2100087D21000847
:100120007D2100087D2100087D2100087D21000837
:10013000B0B5E4B004AF0423C7F87C310023C7F89E
:100140007831052387F87731012387F8753101234A
:1001500087F8743107F120040A23019318230093D0
:1001600014230322C249204603F0AEFC10340A23B4
:1001700001931823009314231B22BD49204603F04A
:10018000A3FC10340A230193182300931423332271
:10019000B749204603F098FC10340A230193182332
:1001A000009314234B22B249204603F08DFC1034F7
:1001B0000A2301931823009314236322AC49204699
:1001C00003F082FC10340A230193182300931423B4
:1001D0007B22A749204603F077FC10340A230193C1
:1001E0001823009314239322A149204603F06CFCAA
:1001F00010340A230193182300931E2303229D49E0
:10020000204603F061FC10340A2301931823009365
:100210001E231B229749204603F056FC10340A2364
:100220000193182300931E2333229249204603F0A2
:100230004BFC10340A230193182300931E234B22F6
:100240008C49204603F040FC10340A230193182304
:1002500000931E2363228749204603F035FC1034A7
:100260000A230193182300931E237B2281492046F1
:1002700003F02AFC10340A230193182300931E2351
:1002800093227C49204603F01FFC10340A2301937B
:1002900018230093282303227749204603F014FCF7
:1002A00010340A2301931823009328231B22724938
:1002B000204603F009FC10340A230193182300930D
:1002C000282333226C49204603F0FEFB10340A2316
:1002D00001931823009328234B226749204603F0FB
:1002E000F3FB10340A23019318230093282363227D
:1002F0006149204603F0E8FB10340A2301931823D8
:10030000009328237B225C49204603F0DDFB04F1A7
:1003100010000A230193182300932823932256499F
:1003200003F0D2FB07F11000032301931423009381
:10033000C8230022514903F0C7FB38460323019329
:10034000032300936E2378224D4903F0BDFB002365
:100350000193DC230093B02300220021494800F0E0
:10036000A9FB002302934FF6FF7301932823009308
:100370000A2305224449434800F0BEFE4FF4FA71B7
:10038000404804F0FAF9D7F87C31002B40F312838F
:10039000A6220A213B4800F0BFFF034699B23B4624
:1003A0006E22184603F018FC02220021354800F0A6
:1003B000B3FF0346002B14BF01230023DBB2002B45
:1003C00003D0012387F8753102E0FF2387F87531E8
:1003D0000023C7F87831FF2387F874310023019395
:1003E000B0230093B02300220021264800F062FBD6
:1003F00097F8773187F8763197F87631002B18DD4A
:1004000097F876319BB21A461B01D31A9BB2B033D0
:1004100099B24FF6610301930A2300930A23D22273
:10042000184800F047FB97F87631013B87F87631A2
:10043000E2E7002387F8763197F87631142B25DC34
:1004400097F8763107F120021B011344184603F098
:10045000A1FB97F8763107F120021B0113441846DF
:1004600003F055FB97F87631013387F87631E3E7EF
:1004700030480008104A0008F04B0008D04D000832
:10048000484E0008040000205C4E00083B46184619
:1004900003F03DFB07F11003184603F038FB00237F
:1004A00002934FF6FF730193D22300930523052295
:1004B000C949CA4800F020FED7F87C319BB2C3F18D
:1004C000050399B2002301934FF6FF730093D223E3
:1004D0003C22C24800F09CFED7F87831002B7FF414
:1004E00052AFBF4801F084F8034603F00203002B2B
:1004F00014BF01230023DBB2002B2AD007F1100325
:10050000184606F0DAF903461C4607F110031846B0
:1005100006F0E9F90346C3F1B0039C42B4BF0123DE
:100520000023DBB2002B14D007F11003184606F0AD
:10053000C4F9034602339CB207F11003184606F0D3
:10054000C7F903461A4607F110032146184603F07F
:1005500043FBA34801F04CF8034603F00103002BD2
:1005600014BF01230023DBB2002B21D007F11003BD
:10057000184606F0A2F90346002BCCBF0123002346
:10058000DBB2002B14D007F11003184606F095F9E2
:100590000346023B9CB207F11003184606F098F997
:1005A00003461A4607F110032146184603F014FBD0
:1005B0003B46184606F081F903461C463B46184662
:1005C00006F091F903465B08DBB29BB223449CB270
:1005D0003B46184606F07CF903461D463B46184646
:1005E00006F08DF903465B08DBB29BB22B449AB24E
:1005F00007F110032146184603F062FB0346002B67
:1006000014BF01230023DBB2002B0AD097F874310A
:100610005B42DBB287F874311422C821714803F0C1
:100620008DF907F11003184603F094FA3B4618467B
:1006300006F043F903461A4697F975319BB2134405
:100640009CB23B46184606F043F903461A4697F912
:1006500074319BB213449AB23B462146184603F0CC
:10066000BBFA3B46184606F028F90346022B0CBF9E
:1006700001230023DBB2002B0BD097F875315B42CE
:10068000DBB287F8753114224FF4C871554803F076
:1006900055F93B46184606F010F90346AE2B0CBF41
:1006A00001230023DBB2002B0BD097F875315B429E
:1006B000DBB287F8753114224FF4C871494803F052
:1006C0003DF93B46184606F003F90346022B0CBFE2
:1006D00001230023DBB2002B0BD097F874315B426F
:1006E000DBB287F8743114224FF4C8713D4803F02F
:1006F00025F93B46184606F0EBF803461C4607F181
:100700001003184606F0E4F803461D4607F11003EF
:10071000184606F0F4F803462B4402339C42ACBF63
:1007200001230023DBB2002B00F0A68097F977317C
:10073000DBB2013BDBB287F8773197F97731002BD9
:1007400036D100230193DC230093B0230022002143
:10075000224800F0AFF9002302934FF6FF73019394
:1007600064230093282309221F491C4800F0C4FC7D
:10077000002302934FF6E07301937823009308233C
:100780000F221A49154800F0B7FC154800F030FF59
:10079000034603F00403002B0CBF01230023DBB24C
:1007A000002B00F03D810A210C4803F0E6FFECE746
:1007B00064220021094800F0AFFD034603F0010365
:1007C000002B14BF01230023DBB2002B10D0012328
:1007D00087F875310FE000BF644E00080400002068
:1007E00044010020400100206C4E0008784E0008B3
:1007F000FF2387F87531FF2387F87431A6220A2179
:100800008B4800F089FD03469CB278225A21884823
:1008100000F082FD03469AB23B462146184603F09B
:10082000DBF9002301930A2300937823D222652168
:100830007F4800F03FF997F8773187F8763197F8DD
:100840007631002B18DD97F876319BB21A461B01E2
:10085000D31A9BB2B03399B24FF6610301930A23C6
:1008600000930A23D222724800F024F997F87631D7
:10087000013B87F87631E2E70123C7F8783100239E
:1008800087F8763197F87631142B61DC97F876315A
:1008900007F120021B011344184606F03CF80346FA
:1008A000002B14BF01230023DBB2002B02D0002356
:1008B000C7F8783197F8763107F120021B01D41878
:1008C0003B46184605F0F9FF03461D463B461846D1
:1008D00005F0FEFF03461A462946204603F0F0F9CC
:1008E0000346C7F87031D7F87031002B2AD097F83B
:1008F000763107F120021B011344184603F04AF930
:10090000D7F87031012B03D0D7F87031032B05D104
:1009100097F874315B42DBB287F87431D7F87031E5
:10092000022B03D0D7F87031042B05D197F875311D
:100930005B42DBB287F8753114224FF47A713D487F
:1009400002F0FCFF97F87631013387F8763199E7AA
:10095000D7F87831012B25D1D7F87C31002B21DD58
:10096000D7F87C31013BC7F87C31002302934FF666
:10097000FF730193D2230093052305222E492C48AF
:1009800000F0BAFBD7F87C319BB2C3F1050399B2F2
:10099000002301934FF6FF730093D2233C22244897
:1009A00000F036FCD7F87C3105331946204803F0B7
:1009B000E4FE91E51F230193B0230093B0230022AE
:1009C00000211B4800F076F81F2302934FF6E073D6
:1009D000019364230093282308221849144800F047
:1009E0008BFB1F2302934FF6E07301937823009350
:1009F00008230F2212490E4800F07EFB114800F038
:100A0000F7FD034603F00403002B0CBF0123002372
:100A1000DBB2002B06D00A21054803F0AEFEEDE75D
:100A200000BF00E000BF07F5C077BD46B0BD00BF06
:100A30000400002040010020644E0008884E000899
:100A4000784E00084401002080B582B000AF786085
:100A50007B68184603F01AFE7B682433184602F0C0
:100A60006DFD7B6803F5A073184600F0F5FC7B680C
:100A700003F59E73184602F037FF7B6803F5A473F5
:100A8000184603F003FC7B6803F527737A68114668
:100A9000184600F027FF7B680549184603F024FE3E
:100AA000786800F08FFC00BF0837BD4680BD00BFEE
:100AB000853A000890B587B002AFF8600846114645
:100AC0001A4603467B810B463B811346FB80FB683D
:100AD00003F52770FC883A897989BB8C01933B8C9C
:100AE0000093234601F014F900BF1437BD4690BDB2
:100AF00090B587B002AFF860084611461A46034623
:100B00007B810B463B811346FB807A89FB8813442B
:100B100098B23A897989BB8C01933B89009303464B
:100B2000F86800F053FA3A893B8C13449BB27C89F5
:100B300038897989BA8C0192009323460246F86875
:100B400000F044FA7A89FB88134499B27A89FB88C9
:100B500013449CB23A893B8C13449BB23889BA8CBB
:100B60000192009323460246F86800F02FFA3A8972
:100B70003B8C134498B27A89FB8813449CB23A891F
:100B80003B8C13449BB27989BA8C01920093234623
:100B90000246F86800F01AFA00BF1437BD4690BD4F
:100BA00080B58AB000AFF860084611461A46034681
:100BB0007B810B463B811346FB80FB88013B7B62BC
:100BC00000233B620123FB610123BB61FB885B00C7
:100BD000FA69D31A7B617A6A3B6A9A42C0F29F80B3
:100BE000FB6803F527707B6A9AB27B89134499B23C
:100BF0003B6A9AB23B8913449AB23B8E01F023F8C8
:100C0000FB6803F527703B6A9AB27B89134499B25B
:100C10007B6A9AB23B8913449AB23B8E01F013F877
:100C2000FB6803F527703B6A9BB27A89D31A99B2A5
:100C30007B6A9AB23B8913449AB23B8E01F003F867
:100C4000FB6803F527707B6A9BB27A89D31A99B245
:100C50003B6A9AB23B8913449AB23B8E00F0F3FF91
:100C6000FB6803F527707B6A9BB27A89D31A99B225
:100C70003B6A9BB23A89D31A9AB23B8E00F0E3FFEB
:100C8000FB6803F527703B6A9BB27A89D31A99B245
:100C90007B6A9BB23A89D31A9AB23B8E00F0D3FF9B
:100CA000FB6803F527703B6A9AB27B89134499B2BB
:100CB0007B6A9BB23A89D31A9AB23B8E00F0C3FF8B
:100CC000FB6803F527707B6A9AB27B89134499B25B
:100CD0003B6A9BB23A89D31A9AB23B8E00F0B3FFBB
:100CE0007B69002B09DC3B6A01333B627A69BB6993
:100CF00013447B61BB690233BB617B69002B7FF7C7
:100D00006AAF7B6A013B7B62FB690233FB61FB8854
:100D10005B00FA69D31A7A6913447B615BE700BF11
:100D20002837BD4680BD90B58DB002AFF86008464B
:100D300011461A4603467B810B463B811346FB80D6
:100D4000FB88013B7B6200233B620123FB610123A3
:100D5000BB61FB885B00FA69D31A7B617A6A3B6AE4
:100D60009A42C0F28F807B6A9BB27A89D31A99B279
:100D70003B6A9AB23B89134498B27B6A9AB27B89E8
:100D800013449CB23B6A9AB23B8913449BB23A8F9C
:100D90000192009323460246F86800F017F93B6A77
:100DA0009BB27A89D31A99B27B6A9AB23B8913446F
:100DB00098B23B6A9AB27B8913449CB27B6A9AB21E
:100DC0003B8913449BB23A8F01920093234602461B
:100DD000F86800F0FBF87B6A9BB27A89D31A99B263
:100DE0003B6A9BB23A89D31A98B27B6A9AB27B89E2
:100DF00013449CB23B6A9BB23A89D31A9BB23A8F96
:100E00000192009323460246F86800F0DFF83B6A3F
:100E10009BB27A89D31A99B27B6A9BB23A89D31A68
:100E200098B23B6A9AB27B8913449CB27B6A9BB2AC
:100E30003A89D31A9BB23A8F019200932346024615
:100E4000F86800F0C3F87B69002B09DC3B6A0133CA
:100E50003B627A69BB6913447B61BB690233BB6146
:100E60007B69002B7FF77AAF7B6A013B7B62FB6972
:100E70000233FB61FB885B00FA69D31A7A69134479
:100E80007B616BE700BF2C37BD4690BD80B58AB053
:100E900000AFF860084611461A4603467B810B46B0
:100EA0003B811346FB80FA887B89D31A3B613A8EDB
:100EB0003B89D31A7B6201233B627B6A002B05DAF4
:100EC0004FF0FF333B627B6A5B427B627B6A5A0076
:100ED0003B69D31AFB613B89BB617B897B61FA88E3
:100EE0007B699A421EDBFB6803F527707B6999B228
:100EF000BB699AB2BB8E00F0A6FEFB69002B08DD31
:100F0000BA693B6A1344BB613B695B00FA69D31A57
:100F1000FB617B6A5B00FA691344FB617B69013307
:100F20007B61DCE700BF2837BD4680BD80B58AB055
:100F300000AFF860084611461A4603467B810B460F
:100F40003B811346FB80FA887B89D31A7B623A8EF9
:100F50003B89D31A3B6101233B627B6A002B05DA94
:100F60004FF0FF333B627B6A5B427B627B6A5A00D5
:100F70003B69D31AFB617B89BB613B897B613A8EFC
:100F80007B699A421EDBFB6803F52770BB6999B247
:100F90007B699AB2BB8E00F056FEFB69002B08DD20
:100FA000BA693B6A1344BB613B695B00FA69D31AB7
:100FB000FB617B6A5B00FA691344FB617B69013367
:100FC0007B61DCE700BF2837BD4680BD90B587B0A8
:100FD00002AFF860084611461A4603467B810B466D
:100FE0003B811346FB803A8C3B89D31A1946F8683B
:100FF00005F014FD0446FA887B89D31A1946F8686F
:1010000005F00CFD03469C42B4BF01230023DBB274
:10101000002B1BD07A89FB889A420BDD78893A8CA9
:10102000F988BB8C01933B8900930346F868FFF76E
:101030002DFF26E0F8883A897989BB8C01933B8C97
:1010400000930346F868FFF721FF1AE03A893B8CCA
:101050009A420BDD78893A8CF988BB8C01933B89E5
:1010600000930346F868FFF761FF0AE0F8883A89C1
:101070007989BB8C01933B8C00930346F868FFF79A
:1010800055FF00BF1437BD4690BD80B584B000AF9A
:10109000F860084611461A4603467B810B463B81A1
:1010A0001346FB80FB6803F52770FB883A89798932
:1010B00000F0C9FD00BF1037BD4680BD90B587B0B8
:1010C00002AFF860084611461A4603467B810B467C
:1010D0003B811346FB80FB6803F52770FC883A8947
:1010E00079897B6A01933B8C0093234600F0CEFD07
:1010F00000BF1437BD4690BD80B59AB002AFF8600E
:10110000B96011461A460B46FB801346BB8000238C
:1011100087F85F300023BB65002387F85F3097F8BE
:101120005F20FB889A426CDA97F85F30BA68134404
:101130001B78A3F1200213469B001344334A134447
:10114000BB65002387F85D3097F85D30042B41DCE8
:10115000002387F85E3097F85E30062B34DC97F872
:101160005D30BA6D13441B781A4697F85E3042FA28
:1011700003F303F00103002B10D097F85E20134611
:101180009B001A4497F85D3013445B0007F160023E
:101190001344B7F86C2023F8502C0FE097F85E202A
:1011A00013469B001A4497F85D3013445B0007F127
:1011B00060021344B7F8702023F8502C97F85E3083
:1011C000013387F85E30C6E797F85D30013387F862
:1011D0005D30B9E7FB6803F52770B7F86820B98878
:1011E00007F11003019307230093052300F04EFD40
:1011F000BB880933BB8097F85F30013387F85F30D5
:101200008DE700BF6037BD4680BD00BFD44E0008EB
:1012100080B58AB004AFF860084611461A46034606
:101220007B810B463B811346FB807A89394BA3FBBC
:101230000213D9080B469B000B445B00D31A9BB2E8
:10124000DBB23033DBB23B757B89324AA2FB03232E
:10125000DB087B817A892F4BA3FB0213D9080B464D
:101260009B000B445B00D31A9BB2DBB23033DBB282
:10127000FB747B89274AA2FB0323DB087B817A89E5
:10128000244BA3FB0213D9080B469B000B445B00C5
:10129000D31A9BB2DBB23033DBB2BB747B891D4AFD
:1012A000A2FB0323DB087B817A891A4BA3FB021381
:1012B000D9080B469B000B445B00D31A9BB2DBB2F0
:1012C0003033DBB27B747B89124AA2FB0323DB0839
:1012D0007B817A890F4BA3FB0213D9080B469B0035
:1012E0000B445B00D31A9BB2DBB23033DBB23B74EE
:1012F0003A8907F11001BB8C02933B8C0193FB8868
:10130000009313460522F868FFF7F6FE00BF183772
:10131000BD4680BDCDCCCCCC80B584B000AFF860EC
:10132000B9607A60F86800F00FF802467968BB6827
:10133000CB1AB2FBF3F103FB01F3D21ABB681344DF
:1013400018461037BD4680BD80B485B000AF7860C8
:101350000023FB601A4B1B68002B27D1184B01227E
:101360001A607B68D3F8A032DA0E7B68D3F8A0321B
:101370009B0F534003F00103FB60FB68DB43FB6002
:10138000FB6803F00103FB607B68D3F8A0325A00CE
:101390007B68C3F8A0227B68D3F8A022FB681A43BD
:1013A0007B68C3F8A022064B00221A607B68D3F842
:1013B000A03223F0784318461437BD4680BC7047EE
:1013C000A802002080B584B000AF78607B6800225E
:1013D000C3F8A0227B68D3F8A032002B1AD10123D6
:1013E000FB60FB68102BF5DC7B6803F5A073102114
:1013F000184600F039F903461A46FB689A407B68A4
:10140000D3F8A0321A447B68C3F8A022FB680133EA
:10141000FB60E6E700BF1037BD4680BD80B582B0F7
:1014200000AF786039607B68012B07D13B684FF6CD
:10143000FF72934202D1034805F0C6FA00BF083795
:10144000BD4680BD0400002080B500AF4FF6FF719F
:101450000120FFF7E3FF80BD80B483B000AF786068
:10146000524A524B9B6943F01C0393614F4A4F4BC6
:101470009B6943F0010393614D4B4FF000725A603A
:101480004C494C4B5B684C4A1A404C4B13434B60E5
:101490004B4A4B4B1B6823F07F6323F47F2343F0BD
:1014A000887343F488331360454A454B5B689BB2AD
:1014B00043F0885343F488135360414A404B1B6800
:1014C00023F0F00313603E4A3D4B1B6843F080035A
:1014D00013603B4B02221A61394A394B5B6823F493
:1014E0007F435360364A364B5B6843F4084353608E
:1014F000334B4FF440621A61324A324B5B6843F41B
:10150000801353602F4A2F4B5B6823F460035360B2
:10151000264A264B9B6943F400739361234A234B6D
:101520005B6843F440435360204A204B9B6943F07F
:10153000040393611F4A1F4B1B6823F0FF031360D2
:10154000214B1D221A61204B0022DA621E4B002221
:101550001A631D4A1C4B9B6843F0010393601A4AAF
:10156000194B9B6843F004039360174B9B6803F08F
:101570000403002B14BF01230023DBB2002B00D097
:10158000F3E77B684FF496721A807B6840F23A2248
:101590005A807B6840F642629A807B6840F6886297
:1015A000DA8000BF0C37BD4680BC70470010024097
:1015B00000000140000801400000FF0F1111001061
:1015C000000C0140001001400024014080B483B0B1
:1015D00000AF7860054A054BDB6883F40053D360A5
:1015E00000BF0C37BD4680BC704700BF00100140F3
:1015F00080B485B000AF78600023FB81194B9B68F5
:1016000003F00203002B0CBF01230023DBB2002BED
:1016100003D0FB8943F00103FB81124B9B6803F469
:101620008063002B0CBF01230023DBB2002B03D00F
:10163000FB8943F00203FB810A4B9B6803F40063C0
:10164000002B0CBF01230023DBB2002B03D0FB894E
:1016500043F00403FB81FB8918461437BD4680BC68
:10166000704700BF000C014080B485B000AF7860C7
:1016700039600023FB810F4A3B6853630D4A0D4BD1
:101680009B6843F0010393600A4B1B6803F002035D
:10169000002B0CBF01230023DBB2002B00D0F3E7AB
:1016A000044BDB6CFB81FB8918461437BD4680BCBC
:1016B000704700BF0024014080B586B000AF78605D
:1016C0003A4B5B687B61394B1B683B61374BDB688E
:1016D000FB60364B40221A61344A344B1B6823F4BA
:1016E00060031360314A314B1B6843F4801313606D
:1016F0002E4A2E4BDB6823F02003D3602B4A2B4B62
:101700005B6823F460035360284A284B5B6843F40A
:1017100080135360254A254BDB6843F40053D360A4
:10172000224A224B1B6823F4302313601F4A1F4BAD
:101730001B6843F4802313601C4A1C4B5B6823F432
:1017400030235360194A194B5B6843F4802353607C
:1017500001217868FFF788FF0346BB60134A7B6965
:101760005360124A3B691360104AFB68D3607B6880
:101770009B881A46BB68D31A4FF47A7202FB03F3B4
:101780007A68928811467A6812888A1AB3FBF2F353
:10179000BB60BB68B3F57A7F02D94FF6FF73BB60BD
:1017A000BB689BB218461837BD4680BD000C01408F
:1017B00080B586B000AF78603A4B5B687B61394B8F
:1017C0001B683B61374BDB68FB60364B40221A617C
:1017D000344A344B5B6823F460235360314A314B05
:1017E0005B6843F4803353602E4A2E4BDB6823F44E
:1017F0008053D3602B4A2B4B1B6823F46023136068
:10180000284A284B1B6843F480331360254A254B34
:10181000DB6843F01003D360224A224B5B6823F459
:10182000300353601F4A1F4B5B6843F480035360CF
:101830001C4A1C4B1B6823F430031360194A194BD4
:101840001B6843F48003136000217868FFF70CFFE6
:101850000346BB60134A7B695360124A3B691360BD
:10186000104AFB68D3607B68DB881A46BB68D31AD2
:101870004FF47A7202FB03F37A68D28811467A68D1
:1018800052888A1AB3FBF2F3BB60BB68B3F57A7F68
:1018900002D94FF6FF73BB60BB689BB2184618377E
:1018A000BD4680BD000C014080B485B000AFF8603B
:1018B000084611461A4603467B810B463B81134678
:1018C000FB80FB687A891A80FB68FA885A80FB687B
:1018D0003A899A80FB683A8BDA8000BF1437BD469C
:1018E00080BC704780B584B002AF78603960CC4A64
:1018F000CB4B9B6943F00C039361C94AC84B9B696E
:1019000043F001039361C74B4FF000725A60C54A20
:10191000C44B5B6843F080735360C349C24B5B6840
:10192000C24A1A40C24B13434B60C24AC14B1B68A8
:1019300023F07F6323F47F2343F0887343F48833D9
:101940001360BC4ABB4B5B689BB243F0885343F4C3
:1019500088135360786805F0ABF8786805F09AF85A
:10196000786805F07BF8786805F0C0F8786805F0CD
:10197000DBF80A21386802F000FF786805F0A6F865
:101980000A21386802F0F9FE786805F0AFF86421A2
:10199000386802F0F2FE786805F08AF8786805F099
:1019A00079F8786805F05AF86421386802F0E5FEA5
:1019B000786805F061F89621386802F0DEFE4FF491
:1019C0008E720121786800F078FA4FF4807202215B
:1019D000786800F072FA41F230020321786800F072
:1019E0006CFA40F608020821786800F066FA0022D6
:1019F0000C21786800F061FA40F601620F217868E6
:101A000000F05BFA4FF420621021786800F055FA7C
:101A100041F238021121786800F04FFA0322FF21C9
:101A2000786800F04AFA41F21142B021786800F07B
:101A300044FA40F20222B121786800F03EFA40F206
:101A40001332B221786800F038FA00223021786829
:101A500000F033FADB223121786800F02EFA002200
:101A60003221786800F029FA00223321786800F0EA
:101A700024FADB223421786800F01FFA0022352195
:101A8000786800F01AFAAF223621786800F015FA6B
:101A900000223721786800F010FADB2238217868BC
:101AA00000F00BFA00223921786800F006FA0322D0
:101AB000FF21786800F001FA00225021786800F0D8
:101AC000FCF94FF440725121786800F0F6F940F2C9
:101AD00003125221786800F0F0F942F2110253210A
:101AE000786800F0EAF940F203725421786800F057
:101AF000E4F900225521786800F0DFF94FF48062A4
:101B00005621786800F0D9F940F207125721786819
:101B100000F0D3F942F211025821786800F0CDF9B3
:101B200040F203725921786800F0C7F900222021A1
:101B3000786800F0C2F900222121786800F0BDF930
:101B400041F217020721786800F0B7F94FF480726C
:101B5000E821786800F0B1F940F60F72B121786899
:101B600000F0ABF903225021786800F0A6F940F6A6
:101B700007025121786800F0A0F940F6084252218E
:101B8000786800F09AF940F203525321786800F027
:101B900094F903225421786800F08FF940F6070287
:101BA0005521786800F089F903225621786800F001
:101BB00084F940F203525721786800F07EF9002240
:101BC0005821786800F079F900225921786800F0EE
:101BD00074F94FF48172E821786800F06EF92A22D6
:101BE000FB21786800F069F940F20112E821786879
:101BF00000F063F94022F121786800F05EF9642179
:101C0000386802F0BAFD2221786800F0FDF8002360
:101C10000193DC230093B023002200210CE000BFDD
:101C20000010024000000140000801400000FF0FCA
:101C300011110010000C0140786800F069F800BF35
:101C40000837BD4680BD80B586B002AFF860084653
:101C500011461A4603467B810B463B811346FB80A7
:101C60007B89013398B23B8901339BB23A897989E8
:101C700000930346F86800F036F9FB881946F868C7
:101C800000F0F7F800BF1037BD4680BD80B588B0C2
:101C900002AFF860084611461A4603467B810B46A0
:101CA0003B811346FB807A89FB8813449BB2013B3E
:101CB00098B23A893B8C13449BB2013B9BB23A8960
:101CC000798900930346F86800F00DF900233B8101
:101CD0003A893B8C9A4217DA00237B817A89FB8808
:101CE0009A420DDA7B6A9A1C7A621B88FB82FB8A15
:101CF0001946F86800F0BDF87B8901337B81EDE778
:101D00003B8901333B81E3E700BF1837BD4680BD07
:101D100080B586B002AFF860084611461A46034601
:101D20007B810B463B811346FB807A89FB881344F9
:101D30009BB2013B98B23A893B8B13449BB2013B67
:101D40009BB23A89798900930346F86800F0CBF892
:101D500000233B813A893B8B9A4212DA00237B8134
:101D60007A89FB889A4208DABB8B1946F86800F03A
:101D700080F87B8901337B81F2E73B8901333B812A
:101D8000E8E700BF1037BD4680BD80B584B000AF26
:101D900078600023FB60786804F098FEFB6844F6E6
:101DA0001F629342D4BF01230023DBB2002B03D078
:101DB000FB680133FB60F1E7786804F097FE0023CD
:101DC000FB60FB6844F61F629342D4BF01230023EB
:101DD000DBB2002B03D0FB680133FB60F1E700BFEF
:101DE0001037BD4680BD80B582B000AF78600B462D
:101DF000FB70786804F08AFEFB78184600F0ACF8B7
:101E000000BF0837BD4680BD80B582B000AF7860A6
:101E10000B467B80786804F079FE7B881B12DBB26E
:101E2000184600F099F8786804F00AFE786804F023
:101E300015FE7B88DBB2184600F08EF8786804F057
:101E4000FFFD786804F00AFE00BF0837BD4680BD7C
:101E500080B582B000AF78600B46FB70786804F004
:101E600063FEFB78184600F077F800BF0837BD46E0
:101E700080BD80B582B000AF78600B467B8078680B
:101E800004F052FE7B881B12DBB2184600F064F8A7
:101E9000786804F0D5FD786804F0E0FD7B88DBB25B
:101EA000184600F059F8786804F0CAFD786804F024
:101EB000D5FD00BF0837BD4680BD80B582B000AFFC
:101EC00078600B467B8013463B807B881946786898
:101ED000FFF79AFF3B8819467868FFF7CAFF00BFF3
:101EE0000837BD4680BD80B584B000AFF8600846B5
:101EF00011461A4603467B810B463B811346FB8005
:101F0000FB881A463621F868FFF7D7FF7B891A4607
:101F10003721F868FFF7D1FF3B8B1A463821F86864
:101F2000FFF7CBFF3B891A463921F868FFF7C5FF59
:101F30007B891A462021F868FFF7BFFF3B891A46C4
:101F40002121F868FFF7B9FF2221F868FFF75CFF4D
:101F500000BF1037BD4680BD80B483B000AF0346DC
:101F6000FB710F4B4FF470625A610E4B4FF470428D
:101F70005A61FB79002B0ED0094AFB7903F00F035D
:101F80000949CB5C1B021361064AFB791B11064908
:101F9000CB5C1B03136100BF0C37BD4680BC704790
:101FA00000080140000C0140B450000880B400AFAC
:101FB0002E4A2E4B1B6823F4802313602B4A2B4B95
:101FC0001B6843F480331360284B1B680023002BED
:101FD00000D0F9E7254A254B5B6823F400135360D2
:101FE000224A224B5B6843F4E01353601F4A1F4BA5
:101FF0005B6843F4806353601C4A1C4B5B6823F4AA
:1020000040735360194A194B5B6843F48033536043
:10201000164A164B1B6843F080731360134B1B6802
:102020000023002B00D0F9E7114A114B1B6843F045
:10203000020313600E4A0E4B1B6823F00503136066
:102040000B4A0B4B1B6843F010031360074A074B06
:102050005B6803F001035360044A044B5B6843F080
:102060000203536000BFBD4680BC704700100240B1
:102070000020024080B582B000AF164A164BD31A3A
:102080009B103B6000237B607A683B689A4208D2D1
:10209000114A7B6852F8233098477B6801337B6094
:1020A000F2E70E4A0E4BD31A9B103B6000237B6075
:1020B0007A683B689A4208D2094A7B6852F8233012
:1020C00098477B6801337B60F2E700BF0837BD4665
:1020D00080BD00BFF4470008F4470008F847000837
:1020E000F447000880B584B000AF1E4BFB601E4B68
:1020F000BB601E4A1C4BD31A7B607B685A1E7A60F9
:10210000002B14BF01230023DBB2002B08D0BB68D7
:102110005A1CBA60FA68511CF96012781A70ECE720
:10212000134BBB60134A124BD31A7B607B685A1E59
:102130007A60002B14BF01230023DBB2002B05D0F3
:10214000BB685A1CBA6000221A70EFE7FFF72EFF37
:10215000FFF790FF0848FEF777FC01F015F801F053
:102160001FF8FCE7666B0008000000200400002058
:1021700004000020C40200200400002080B400AF4E
:10218000FEE700BFF0B5F9B004AFCE4BC7F8CC31D5
:10219000CC4804F0D7FC0346002B14BF01230023D6
:1021A000DBB2002B02D0C74BC7F8CC3107F58274E5
:1021B0000C2301930A23009303230322D7F8CC11A5
:1021C000204601F081FC10340C2301930A23009374
:1021D00003231722D7F8CC11204601F075FC1034E8
:1021E0000C2301930A23009303232B22D7F8CC114D
:1021F000204601F069FC10340C2301930A2300935C
:1022000003233F22D7F8CC11204601F05DFC1034A7
:102210000C2301930A23009303235322D7F8CC11F4
:10222000204601F051FC10340C2301930A23009343
:1022300003236722D7F8CC11204601F045FC103467
:102240000C2301930A23009303237B22D7F8CC119C
:10225000204601F039FC10340C2301930A2300932B
:1022600003238F22D7F8CC11204601F02DFC103427
:102270000C2301930A2300930323A322D7F8CC1144
:10228000204601F021FC04F110000C2301930A23E5
:1022900000930323B722D7F8CC1101F015FC07F106
:1022A000F400062301930A230093BE235822864993
:1022B00001F00AFC07F1A40408230193052300930D
:1022C000002300228149204601F0FEFB1034082340
:1022D000019305230093002300227C49204601F04E
:1022E000F3FB1034082301930523009300230022FD
:1022F0007649204601F0E8FB1034082301930523BA
:102300000093002300227149204601F0DDFB04F117
:1023100010000823019305230093002300226B493A
:1023200001F0D2FB3C1D08230193052300930023F9
:1023300000226749204601F0C7FB103408230193AF
:1023400005230093002300226149204601F0BCFBD5
:1023500010340823019305230093002300225C49D5
:10236000204601F0B1FB10340823019305230093AC
:10237000002300225649204601F0A6FB1034082312
:10238000019305230093002300225149204601F0C8
:102390009BFB1034082301930523009300230022A4
:1023A0004B49204601F090FB10340823019305238C
:1023B0000093002300224649204601F085FB10349B
:1023C000082301930523009300230022404920465F
:1023D00001F07AFB103408230193052300930023B6
:1023E00000223B49204601F06FFB04F11000082356
:1023F00001930523009300230022354901F064FB7B
:10240000002387F8AA31002387F8CB31002387F80F
:10241000CA31002387F8C931052387F8C831002362
:10242000C7F8C4310023C7F8C0310023C7F8BC3156
:102430000423C7F8B8310223A7F8B6310123A7F85F
:10244000B431002387F8B3310123C7F8A431002346
:102450000193B0230093B023002200211D48FEF712
:1024600029FB002302934FF6FF7301932823009367
:102470000A230A2218491748FEF73EFE002302935A
:102480004FF6FF7301933C2300930A230F22134955
:102490001048FEF731FE002302934FF6FF730193BD
:1024A000502300930A2310220D490A48FEF724FE08
:1024B000002302934FF6FF730193642300930A23D2
:1024C00010E000BF4C010020245200089C5200087C
:1024D000EC520008040000202C5400083854000876
:1024E000485400080B2278497848FEF705FE4FF45F
:1024F0007A71764802F041F9D7F8B831002B40F3F1
:1025000072850023C7F8BC31002387F8AA31002365
:102510000193DC230093B023002200216B48FEF7D7
:10252000C9FA0023C7F8AC31D7F8B831C3F10A02B1
:10253000D7F8AC319A420EDD07F58272D7F8AC318C
:102540001B011344184601F0E2FAD7F8AC3101330D
:10255000C7F8AC31E8E707F582730322002118467B
:1025600001F03AFB07F58273103303220F2118465E
:1025700001F032FB07F58273203303221E21184637
:1025800001F02AFB07F58273303303222D21184610
:1025900001F022FB07F58273403303223C211846E9
:1025A00001F01AFB07F58273503303224B211846C2
:1025B00001F012FB07F58273603303225A2118469B
:1025C00001F00AFB07F58273703303226921184674
:1025D00001F002FB07F5827380330322782118464D
:1025E00001F0FAFA07F58273903303228721184627
:1025F00001F0F2FA0023C7F8AC31D7F8AC31092B5F
:102600000DDC3A1DD7F8AC311B011344184601F01C
:10261000C1FAD7F8AC310133C7F8AC31EDE700238C
:10262000C7F8AC31D7F8AC31042B0EDC07F1A402AB
:10263000D7F8AC311B011344184601F0ABFAD7F8B8
:10264000AC310133C7F8AC31ECE7002302934FF60D
:10265000FF730193D2230093052305221C491B48D5
:10266000FEF74AFDD7F8B8319BB2C3F1050399B222
:10267000002301934FF6FF730093D2233C221348AB
:10268000FEF7C6FD97F8C831C7F8AC31D7F8AC31C2
:10269000002B1FDDD7F8AC319BB21A461B01D31AB1
:1026A0009BB2B03399B24FF6610301930A230093B2
:1026B0000A23D2220548FEF7FDF9D7F8AC31013BD9
:1026C000C7F8AC31E2E700BF5C540008040000200A
:1026D00068540008002387F8AA31002387F8CB311B
:1026E000002387F8C9310023C7F8C4310023C7F895
:1026F000BC310223A7F8B63107F1F403184601F004
:1027000006FAD7F8BC31002B40F03F8407F1F40300
:10271000184601F01FFACD48FEF76AFF034603F0A2
:102720000203002B14BF01230023DBB2002B21D0B6
:1027300007F1F403184604F0C0F80346A42BD4BFF5
:1027400001230023DBB2002B14D007F1F403184659
:1027500004F0B3F8034602339CB207F1F4031846C1
:1027600004F0B6F803461A4607F1F403214618466A
:1027700001F032FAB548FEF73BFF034603F00103D0
:10278000002B14BF01230023DBB2002B21D007F163
:10279000F403184604F091F80346012BCCBF012343
:1027A0000023DBB2002B14D007F1F403184604F029
:1027B00084F80346023B9CB207F1F403184604F088
:1027C00087F803461A4607F1F4032146184601F03C
:1027D00003FA00F095FC0346002B14BF01230023ED
:1027E000DBB2002B69D0002387F8CB3197F8CB31CF
:1027F000042B62DC97F8CB3107F1A4021B011344D0
:10280000184604F088F80346002B0CBF0123002370
:10281000DBB2002B4BD097F8CB3107F1A4021B01A0
:102820001344184601F073F997F8CB3107F1A4026D
:102830001B01D51807F1F403184604F03EF80346CF
:102840001C4607F1F403184604F04DF803465B08F4
:10285000DBB29BB223449CB297F8CB3107F1A402C0
:102860001B011344184604F03EF803465B08DBB234
:102870009BB2E31A9CB207F1F403184604F028F85F
:1028800003461E4697F8CB3107F1A4021B011344FF
:10289000184604F034F803465B08DBB29BB2F31A27
:1028A0009BB21A462146284601F096F905E097F8B2
:1028B000CB31013387F8CB3198E7002387F8CB3150
:1028C00097F8CB31042B00F3C38097F8CB3107F195
:1028D000A4021B011344184603F0FAFF0346002B21
:1028E0000DDD97F8CB3107F1A4021B011344184604
:1028F00004F011F80346002B01D0012300E000236F
:10290000002B00F0828097F8CB3107F1A4021B0165
:10291000D41897F8CB3107F1A4021B0113441846D1
:1029200003F0CBFF03461D4697F8CB3107F1A40215
:102930001B011344184603F0CBFF0346023B9BB236
:102940001A462946204601F047F9002387F8C93185
:1029500097F8C931092B72DC97F8C93107F58272F3
:102960001B01D41897F8CB3107F1A4021B011344C3
:10297000184603F0A2FF03461D4697F8CB3107F136
:10298000A4021B011344184603F0A2FF03461A4693
:102990002946204601F060F90346002B14BF0123AD
:1029A0000023DBB2002B2AD097F8C93107F58272D9
:1029B0001B011344184601F0EDF897F8CB3107F1ED
:1029C000A4021B011344184601F0E4F897F8CB3138
:1029D00007F1A4021B011344184603F06EFF0346DF
:1029E0001C4697F8CB3107F1A4021B01134418468B
:1029F00003F06EFF03461946204600F041FB97F8AE
:102A0000C931013387F8C931A2E797F8CB3107F113
:102A1000A4021B011344184603F07DFF0346002B5C
:102A200014BF01230023DBB2002B08D097F8CB3171
:102A300007F1A4021B011344184601F0ABF897F804
:102A4000CB31013387F8CB313AE700BF4401002096
:102A50000A2387F8B331002387F8CA3197F8CA31BF
:102A6000092B00F32D8197F8CA313A1D1B0113443D
:102A7000184603F02DFF0346C72B0CDC97F8CA312C
:102A80003A1D1B011344184603F045FF0346002B73
:102A900001D0012300E00023002B00F0EA8097F82A
:102AA000CA313A1D1B01D41897F8CA313A1D1B01CF
:102AB0001344184603F001FF03461D4697F8CA3138
:102AC0003A1D1B011344184603F002FF034602336C
:102AD0009BB21A462946204601F07EF897F8CA3183
:102AE0003A1D1B011344184603F0E7FE03461C463B
:102AF00097F8CA313A1D1B011344184603F0F3FE40
:102B000003465B08DBB29BB223449CB297F8CA3100
:102B10003A1D1B011344184603F0DAFE03461D4616
:102B200097F8CA313A1D1B011344184603F0E7FE1B
:102B300003465B08DBB29BB22B449AB207F1F40365
:102B40002146184601F088F80346002B14BF0123E4
:102B50000023DBB2002B00F0AD8007F1F403184630
:102B600003F0ABFE03461C4607F1F403184603F0DE
:102B7000AFFE03461946204600F082FA97F8C831A6
:102B8000013B87F8C83197F8CA313A1D1B0113443D
:102B9000184600F0FFFF97F8C831002B3ED1002304
:102BA0000193DC230093B02300220021A048FDF70D
:102BB00081FF002302934FF6FF7301936423009378
:102BC000282309229B499A48FEF796FA002302938C
:102BD0004FF6E07301937823009308230F22964960
:102BE0009348FEF789FA00F08BFA0346002B0CBFDE
:102BF00001230023DBB2002B04D00A218C4801F012
:102C0000BCFDF0E700F07CFA0346002B14BF012363
:102C10000023DBB2002B00F02482F3E700230193B2
:102C20000A2300937823D22265218148FDF742FFD1
:102C300097F8C831C7F8AC31D7F8AC31002B39DD83
:102C4000D7F8AC319BB21A461B01D31A9BB2B033F2
:102C500099B24FF6610301930A2300930A23D2220B
:102C60007348FDF727FFD7F8AC31013BC7F8AC310B
:102C7000E2E797F8CA313A1D1B011344184603F0E6
:102C80004AFE0346002B14BF01230023DBB2002BB6
:102C900007D097F8CA313A1D1B011344184600F0BB
:102CA00079FF97F8B331002B04DD97F8B331013B7E
:102CB00087F8B33197F8CA31013387F8CA31CDE6C6
:102CC0000023C7F8C4310023C7F8C0310123C7F877
:102CD000BC31002387F8C93197F8C931092B00F3BB
:102CE0003C8197F8C93107F582721B0113441846DD
:102CF00003F011FE0346002B14BF01230023DBB2B7
:102D0000002B00F0248197F8B321D7F8B831C3F134
:102D10000A039A4280F29280002387F8CA31002386
:102D200087F8AB3197F8CA31092B00F3878097F801
:102D3000AB31002B40F0828097F8CA313A1D1B015D
:102D40001344184603F0E7FD0346002B09D1322255
:102D500000213748FEF7E0FA0346002B01D101239A
:102D600000E00023002B5CD097F8B331013387F8E3
:102D7000B33197F8CA313A1D1B011344184600F0CD
:102D8000C6FE97F8CA313A1D1B01D51897F8C9310C
:102D900007F582721B011344184603F08EFD0346AB
:102DA0001C4697F8C93107F582721B011344184677
:102DB00003F099FD03465B08DBB29BB223449CB24F
:102DC00097F8CB3107F1A4021B011344184603F016
:102DD0008AFD03465B08DBB29BB2E31A9CB297F80C
:102DE000C93107F582721B011344184603F070FDC8
:102DF00003461E4697F8CB3107F1A4021B0113448A
:102E0000184603F07CFD03465B08DBB29BB23344FB
:102E10009BB21A462146284600F0DEFE012387F8C1
:102E2000AB3197F8CA31013387F8CA317AE700BF6E
:102E300004000020705400087C5400080023C7F8E8
:102E4000BC3197F8C93107F582721B01D41897F885
:102E5000C93107F582721B011344184603F02DFD9A
:102E600003461A46B7F8B63113449DB297F8C931F4
:102E700007F582721B011344184603F029FD03462F
:102E80001A46B7F8B43113449BB21A462946204675
:102E900000F0A2FE97F8C93107F582721B011344B6
:102EA000184603F00AFD03461C4697F8C93107F59A
:102EB00082721B011344184603F015FD0346C3F14B
:102EC000B0039C42ACBF01230023DBB2002B02D035
:102ED0000123C7F8C43197F8C93107F582721B0185
:102EE0001344184603F0E9FC0346002B0CBF0123F2
:102EF0000023DBB2002B02D00123C7F8C43197F8BE
:102F0000C93107F582721B011344184603F0E0FC37
:102F10000346782BCCBF01230023DBB2002B16D055
:102F20000123C7F8C03197F8C93107F582721B0138
:102F30001344184603F0CCFC0346022BD4BF0123F4
:102F40000023DBB2002B02D00123C7F8C03197F871
:102F5000C931013387F8C931BEE6D7F8C431002B37
:102F600004D0B7F8B6315B42A7F8B631D7F8C03114
:102F7000002B04D0B7F8B4315B42A7F8B4310F216D
:102F80003B4801F0FAFBFFF7BCBBD7F8BC31012B83
:102F90007FF4B2AAD7F8B831002B7FF7ADAAD7F8E3
:102FA000B831013BC7F8B831002302934FF6FF73E5
:102FB0000193D2230093052305222E492C48FEF7C6
:102FC0009BF8D7F8B8319BB2C3F1050399B200233F
:102FD00001934FF6FF730093D2233C222448FEF75F
:102FE00017F9FFF789BA1F230193DC230093B0235D
:102FF000002200211E48FDF75DFD1F2302934FF6BE
:10300000E073019364230093282308221A49184887
:10301000FEF772F81F2302934FF6E07301937823B3
:10302000009308230F2215491148FEF765F800F0B8
:1030300067F80346002B0CBF01230023DBB2002BF3
:1030400004D00A210A4801F098FBF0E700F058F894
:103050000346002B14BF01230023DBB2002B02D058
:10306000F4E700BF00E000BF07F5EA77BD46F0BD1A
:1030700004000020685400088C5400087C540008A8
:1030800080B588B002AF03460A46FB801346BB807A
:10309000FB88053B9AB2BB88063B99B207F1080052
:1030A0000C2301930A2300930B46124900F00CFDF8
:1030B00007F10803184600F02AFD32224FF4FA61A6
:1030C0000D4800F03BFC32210C4801F056FB322247
:1030D0004FF4FA71084800F031FC3221074801F042
:1030E0004CFB07F10803184600F054FD00BF1837E9
:1030F000BD4680BD3C530008400100200400002074
:1031000080B500AF0E48FEF773FA034603F00403E0
:10311000002B14BF01230023DBB2002B0AD0094B84
:103120001B68002B04D1074B01221A60012305E024
:10313000002303E0034B00221A600023184680BDE1
:1031400044010020AC02002080B500AF0B4B1B688F
:1031500001330A4A1360094B1B68B3F57A7F05DD1A
:103160000748FEF733FA054B00221A6001220021BE
:103170000448FEF7D1F800BF80BD00BFB0020020B8
:10318000440100200400002080B500AF024903483C
:1031900001F0AAFA00BF80BD4931000804000020F8
:1031A00080B586B004AF00237B6000230193DC234D
:1031B0000093B023002200217248FDF77BFC00231E
:1031C00002934FF6E0730193322300933A230522D2
:1031D0006D496C48FDF790FF002302934FF6E073B2
:1031E0000193462300933A23052268496548FDF779
:1031F00083FF002302934FF6E07301935A23009359
:103200003A23052262495F48FDF776FF00230293C7
:103210004FF6E71301937823009305230E225D49AF
:103220005848FDF769FF0023029341F6E3730193C9
:103230008C2300930523102257495248FDF75CFF69
:103240000023029341F6FF030193A023009305237B
:103250000F2252494B48FDF74FFF002302934FF6D0
:10326000FF730193C8230093052312224C4945485C
:10327000FDF742FF0D234B4A4B494C4800F0D3FB6E
:1032800000233B603B680C2B13DC474A3B6832F859
:1032900013301946464800F020FA4649444800F0E9
:1032A00061FA6421374801F068FA3B6801333B60FA
:1032B000E8E77B68002B61D13F48FEF799F90346A8
:1032C000012B0CBF01230023DBB2002B13D0012301
:1032D0007B60FCF72DFF3848FEF78AF90346002B88
:1032E00014BF01230023DBB2002B04D06421254846
:1032F00001F043FAEFE73048FEF77AF90346022B74
:103300000CBF01230023DBB2002B13D001237B6011
:10331000FEF738FF2848FEF76BF90346002B14BF71
:1033200001230023DBB2002B04D06421154801F0F7
:1033300024FAEFE72048FEF75BF90346042B0CBFA5
:1033400001230023DBB2002B13D001237B6000F0AC
:1033500047FD1948FEF74CF90346002B14BF012323
:103360000023DBB2002B04D06421064801F005FAEB
:10337000EFE76421034801F000FA9AE700BF08373D
:10338000BD4680BD04000020F45D0008FC5D00081F
:10339000045E00080C5E00081C5E0008305E000839
:1033A000405E0008B4540008985400084001002012
:1033B00028000020545E00084401002080B487B03B
:1033C00000AFF860B9601346FB80FB687B61BB68A7
:1033D0003B61FB885B08FB80FB88002B47D0274BB9
:1033E000274A5A60254B274A5A60244A234B1B69B7
:1033F00023F002031361214A204B1B6943F00103B0
:1034000013617B693A6912881A801C4BDB6803F0F0
:103410000103002B14BF01230023DBB2002B00D0DB
:10342000F3E7164BDB6803F00403002B14BF012302
:103430000023DBB2002B02D04FF0FF3318E00F4B1C
:10344000DB6803F01003002B14BF01230023DBB261
:10345000002B02D06FF001030AE07B6902337B612D
:103460003B6902333B61FB88013BFB80B4E70023EF
:1034700018461C37BD4680BC704700BF0020024084
:1034800023016745AB89EFCD80B483B000AF78608E
:10349000154B164A5A60144B154A5A60124A124B81
:1034A0001B6923F0010313610F4A0F4B1B6943F0A3
:1034B000020313610C4A7B6853610B4A0A4B1B6978
:1034C00043F040031361084BDB6803F00103002B5A
:1034D00014BF01230023DBB2002B00D0F3E700BFB1
:1034E0000C37BD4680BC7047002002402301674571
:1034F000AB89EFCD80B487B000AFF860B9601346F8
:10350000FB80FB687B61BB683B61FB885B08FB80E1
:10351000FB88002B0DD07B691A883B691A803B69B8
:1035200002333B617B6902337B61FB88013BFB809B
:10353000EEE700BF1C37BD4680BC704780B485B045
:1035400000AF78604FF41653FB60414A7B6813600C
:1035500072B67B680022C3F8942000237A68C2F810
:1035600090307A68C2F88C307B6800229A60002321
:103570007A6853607A681360364A364B9B6943F029
:1035800004039361334A334BDB6943F40033D36163
:10359000314A314B1B6823F4807313602E4A2E4B43
:1035A0001B6843F4007313602B4A2B4B1B6823F4F6
:1035B00080631360284A284B1B6843F40063136040
:1035C000254A254B1B6823F440531360224A224BA3
:1035D0001B6823F4804313601F4A1F4B1B6843F48E
:1035E000004313601D4BBB60BA68FB6892FBF3F3AA
:1035F000BB60184A174B1B6923F400331361184B47
:103600000022DA60164B00221A61154B00225A6123
:10361000134ABB689360124A114BDB6843F06C039A
:10362000D3600F4A0E4BDB6843F40053D3604FF076
:10363000E0224FF0E023D3F8043143F04003C2F816
:10364000043162B600BF1437BD4680BC704700BF6E
:10365000B8020020001002400008014000A24A0405
:103660000044004090B583B000AF78600B46FB701B
:10367000114BDB6803F00803002B0CBF0123002370
:10368000DBB2002B0ED00C4A0B4BDB6843F0080377
:10369000D360094C7B681946786800F0A3F80346AC
:1036A000636005E07B68FA781946786800F071F885
:1036B00000BF0C37BD4690BD0044004080B582B0CD
:1036C00000AF78607B688C331946786800F08AF820
:1036D000034618460837BD4680BD80B586B000AFAA
:1036E000786039600A237B610023FB743B68002B00
:1036F00005DA2D233B723B685B423B6001E02B23E4
:103700003B727B69002B20DD3A68154B83FB02136B
:103710009910D317C91A0B469B000B445B00D11AB2
:10372000CBB23033D9B207F108027B6913440A46A1
:103730001A703B680A4A82FB03129210DB17D31AF5
:103740003B607B69013B7B61DBE707F108031946BE
:10375000786800F007F800BF1837BD4680BD00BF8D
:103760006766666680B582B000AF786039603B6896
:103770001B78002B09D03B681B7819467868FFF747
:1037800071FF3B6801333B60F1E700BF0837BD467E
:1037900080BD80B485B000AFF860B9601346FB719E
:1037A000BB689B687F2B94BF01230023DBB2002BF7
:1037B00013D072B6BB689B685A1CBB689A60BB6822
:1037C0001B68BA681344FA791A73BB681B68013323
:1037D00003F07F02BB681A6062B600BF1437BD46B3
:1037E00080BC704780B485B000AF7860396000233A
:1037F000FB733B689B68002B14BF01230023DBB2E3
:10380000002B13D072B63B689B685A1E3B689A60C7
:103810003B685B683A6813441B7BFB733B685B68DF
:10382000013303F07F023B685A6062B6FB7B1846A7
:103830001437BD4680BC704798B500AF284B1B6855
:1038400003F04003002B14BF01230023DBB2002B45
:103850002CD0244B1B689B68002B14BF0123002332
:10386000DBB2002B0BD01E4C1E4B1A681D4B1B6885
:1038700019461046FFF7B6FF0346636016E0184A84
:10388000174BDB6823F00803D360154B1B6803F06C
:103890004003002B14BF01230023DBB2002B05D013
:1038A0000F4A0F4B1B6823F0400313600C4B1B683F
:1038B00003F02003002B14BF01230023DBB2002BF5
:1038C0000BD0084B1868074B1B6803F18C01044BA5
:1038D0005B68DBB21A46FFF75CFF00BF98BD00BF14
:1038E00000440040B802002080B483B000AF78608C
:1038F0000F4A7B6813600F4A0E4BDB6943F00203EB
:10390000D3610C4A0B4B9B6943F0080393610A4B4C
:1039100000221A60084B6022DA61074A064B1B6AD4
:1039200043F48073136200BF0C37BD4680BC704700
:10393000BC020020001002400004004080B483B0AC
:1039400000AF78600B467B8013463B801A4A1A4BC7
:103950001B6823F00F031360174A174B1B6843F0D3
:103960000A031360154A154B1B6823F0010313600B
:10397000124B40F24A429A621049104B9B6A104A1D
:10398000B2FBF3F27B88B2FBF3F3CB620B4A0B4B37
:10399000DB6A5B08D363094B00225A62074A074B74
:1039A0001B6843F0010313603A887B681A6000BF0C
:1039B0000C37BD4680BC7047000C0140000400403D
:1039C00000A24A0480B400AF0A4A0A4B1B6823F0E5
:1039D00001031360084A084B1B6823F00F031360B0
:1039E000054A054B1B6843F00403136000BFBD4646
:1039F00080BC704700040040000C014080B483B0DC
:103A000000AF78607B681B68002B14BF0123002384
:103A1000DBB2002B01D0012300E0002318460C3755
:103A2000BD4680BC704780B586B000AFF860B96015
:103A30007A603B6000237B617A693B689A421DDAB9
:103A4000F868FFF7DBFF0346002B14BF01230023B8
:103A5000DBB2002B00D0F3E77B695B00BA6813444C
:103A600019887B695B007A6813441B881A46F868DA
:103A7000FFF764FF7B6901337B61DDE700BF183727
:103A8000BD4680BD80B500AF0E4B1B681B68002B88
:103A900014BF01230023DBB2002B10D0094B1B689D
:103AA0001A68013A1A60074B1B681B68002B0CBF91
:103AB00001230023DBB2002B01D0FFF783FF00BFFF
:103AC00080BD00BFBC02002080B485B000AFF860AC
:103AD000B96011461A460B46FB801346BB80FB6853
:103AE000FA881A81FB68BA885A81FB683A8B1A8077
:103AF000FB68BA8B5A80FB68BA685A60FB68002280
:103B00001A73FB6818461437BD4680BC704790B5E1
:103B100085B002AF78607B681B7B002B10D17B687F
:103B200019897B6858897B681C887B685B887A6800
:103B3000526801920093234602460548FDF7BEFAFB
:103B40007B6801221A7300BF0C37BD4690BD00BFD1
:103B50000400002090B585B002AF78607B681B7BC5
:103B6000002B10D07B6819897B6858897B681C887A
:103B70007B685B887A68526801920093234602460C
:103B80000348FDF79BFA00BF0C37BD4690BD00BF50
:103B90000400002090B585B002AF78607B681B7B85
:103BA000002B0FD07B6819897B6858897B681C883B
:103BB0007B685B88002201920093234602460548F9
:103BC000FCF778FF7B6800221A7300BF0C37BD46F4
:103BD00090BD00BF0400002090B585B002AF7860B2
:103BE0000B467B8013463B807B681B7B002B27D0DA
:103BF0007B6819897B6858897B681C887B685B882F
:103C0000002201920093234602461248FCF752FF1D
:103C10007B687A881A817B683A885A817B6819891F
:103C20007B6858897B681C887B685B887A685268E7
:103C300001920093234602460648FDF73FFA05E04D
:103C40007B687A881A817B683A885A8100BF0C3772
:103C5000BD4690BD0400002080B483B000AF786002
:103C60000B467B8013463B807B681B7B002B01D17E
:103C7000002320E07B887A68128993421ADB7A88D5
:103C80007B681B8919467B681B880B449A4211DAB2
:103C90003B887A68528993420ADB3A887B685B8961
:103CA00019467B685B880B449A4201DA012302E0E3
:103CB000002300E0002318460C37BD4680BC704747
:103CC00080B483B000AF78600B467B8013463B80A6
:103CD0007B681B7B002B01D100235EE07B685B8946
:103CE0003A889A420FD17B887A68128993420ADB1C
:103CF0007A887B681B8919467B681B880B449A422B
:103D000001DA012349E07B681B897A889A420FD146
:103D10003B887A68528993420ADB3A887B685B89E0
:103D200019467B685B880B449A4201DA022334E02F
:103D30003A887B685B8919467B685B880B44013B4A
:103D40009A420FD17B887A68128993420ADB7A887B
:103D50007B681B8919467B681B880B449A4201DAF1
:103D600003231AE07A887B681B8919467B681B88C5
:103D70000B44013B9A420FD13B887A6852899342A7
:103D80000ADB3A887B685B8919467B685B880B4451
:103D90009A4201DA042300E0002318460C37BD469E
:103DA00080BC704780B582B002AF00230193DC2352
:103DB0000093B023002200210848FCF77BFE4FF659
:103DC000FF730193DC230093B023002200210348FA
:103DD000FCF78EFE00BFBD4680BD00BF0400002082
:103DE000B0B59AB004AF704B3B640023FB64002372
:103DF000BB646E4B3C461D460FCD0FC40FCD0FC4A8
:103E000095E8070084E807000023FB630E23BB63EB
:103E100000237B64BA6B13465B0013449B0004339E
:103E20007B630023FB6400230193DC230093B02316
:103E3000002200215E48FCF73DFE00237B657B6D80
:103E40000B2B51DC00233B653B6D092B48DC3B6DA4
:103E50009BB2BA6B92B202FB03F399B27B6D9BB239
:103E6000BA6B92B202FB03F398B2BB6B9CB2BB6B12
:103E70009BB24FF6FF7201920093234602464C48D4
:103E8000FCF736FE3B6D9BB2BA6B92B202FB03F3BA
:103E90009BB2013398B27B6D9BB2BA6B92B202FBBC
:103EA00003F39BB201339CB2BB6B9BB2023B9DB24E
:103EB000BB6B9BB2023B9BB2FA6C5200396C0A445A
:103EC0001288019200932B46224601463848FCF79F
:103ED000F1FDFB6C0133FB643B6D01333B65B3E7E4
:103EE0007B6D01337B65AAE700237B657B6D012B2E
:103EF00060DC00233B653B6D0A2B51DC3B6D9BB2C4
:103F0000BA6B92B202FB03F399B27B6D9BB2BA6BB0
:103F100092B202FB03F39AB27B6B9BB2134498B24A
:103F2000BB6B9CB2BB6B9BB24FF6FF7201920093CE
:103F3000234602461E48FCF7DBFD3B6D9BB2BA6B85
:103F400092B202FB03F39BB2013399B27B6D9BB239
:103F5000BA6B92B202FB03F39AB27B6B9BB213442F
:103F60009BB2013398B2BB6B9BB2023B9CB2BB6B62
:103F70009BB2023B9AB2BB6C5B0007F158052B4425
:103F800033F8583C01930092234602460848FCF758
:103F900091FDBB6C0133BB643B6D01333B65AAE70C
:103FA0007B6D01337B65A1E74C01002014620008A2
:103FB00004000020002302934FF6FF730193D423E3
:103FC000009300231322A849A848FDF795F8002381
:103FD000BB647B6C002B40F04281A548FDF7E8FBF9
:103FE00003461A46B02303FB02F3A24A82FB0312E4
:103FF0009211DB17D31A3B639D48FDF75DFB034627
:104000001A46DC2303FB02F39A4A82FB0312921145
:10401000DB17D31AFB623B6B19469748FFF75DFB32
:1040200096499548FFF79EFBFB6A19469248FFF7B1
:1040300054FB93499048FFF795FB3B6BAF2B00F285
:10404000DC80FB6ADB2B00F2D8807B6BFA6A9A4239
:1040500026D3BB6B5A007B6B13441A46FB6A9A4209
:104060001ED3BA6B13469B0013445B0013441A46DD
:104070003B6B9A4214D97B6BFA6AD21ABB6BB2FBC8
:10408000F3F213469B0013445B001A44BB6B396B7D
:10409000B1FBF3F31344BB64B96C7748FFF71DFB26
:1040A00077497548FFF75EFBBB6B01339BB21A463D
:1040B000920013445B0099B2BB6B98B2BB6B9BB28E
:1040C0004FF6FF720192009303466E226748FCF799
:1040D0000FFDBB6B9BB21A46920013445B009BB270
:1040E0000B3399B2BB6B9BB2023B98B2BB6B9BB2DA
:1040F000023B9AB2BB6C5B0007F15804234433F8CF
:10410000583C0193009203466F225848FCF7D2FCBA
:10411000BA6B13465B0013449B001A46FB6A9A4233
:104120006BD3BA6B13469B0013445B001A463B6B80
:104130009A4262D3BB6BFA6AB2FBF3F37B65BB6B4B
:104140003A6BB2FBF3F33B657A6D13469B00134465
:104150005B001A463B6D1344FB647B6D0B2B4CDC00
:104160003B6D092B49DCFB6C5B003A6C1A44BB6C61
:104170005B0007F158010B4433F8583C13803B6D4A
:104180009BB2BA6B92B202FB03F39BB2013398B2BB
:104190007B6D9BB2BA6B92B202FB03F39BB201330D
:1041A0009CB2BB6B9BB2023B9DB2BB6B9BB2023B12
:1041B0009BB2FA6C5200396C0A4412880192009347
:1041C0002B46224601462948FCF774FCBB6B9BB288
:1041D0001A46920013445B009BB20B3399B2BB6B3F
:1041E000C3F137039BB25B009AB23B6C01930C2383
:1041F00000930A231D48FCF761FF1D48FDF7F8F9FD
:104200000346FB633221194800F0B7FAFB6B022B1F
:1042100006D0042B1CD0012B20D101237B641DE090
:104220000023FB64FB6C9F2B0CD8FB6C5B003A6C8F
:1042300013441449FA6C31F812201A80FB6C0133D4
:10424000FB64EFE7104800F081F901237B6405E08F
:104250000D4800F07BF901237B6400BFB9E600BF85
:104260005837BD46B0BD00BFF8610008040000200B
:1042700044010020D34D6210280000200C62000889
:1042800010620008005F00084C01002080B584B077
:1042900000AF7860154A7B68C3F84C21786800F05D
:1042A000F7F802467B68C3F850217B68D3F8503199
:1042B000002B03D0786800F0B9F913E00023FB600D
:1042C000FB68772B0BD80A4AFB6832F813107B681F
:1042D000FA6823F81210FB680133FB60F0E7786896
:1042E00000F034F900BF1037BD4680BD00FC000867
:1042F0007862000880B489B000AFF860B9607A6075
:104300007B800023FB61BB68BB617B687B617B8832
:104310005B087B8072B67B88002B49D0294B2A4AE8
:104320005A60284B294A5A60264A264B1B6923F0BB
:1043300002031361234A234B1B6943F001031361FA
:10434000BB697A6912881A801E4BDB6803F001038F
:10435000002B14BF01230023DBB2002B00D0F3E7B6
:10436000184BDB6803F00403002B14BF0123002368
:10437000DBB2002B03D04FF0FF33FB6118E0114B91
:10438000DB6803F01003002B14BF01230023DBB212
:10439000002B03D06FF00103FB6109E0BB6902331E
:1043A000BB617B6902337B617B88013B7B80B2E729
:1043B000044B00225A6062B6FB6918462437BD469A
:1043C00080BC70470020024023016745AB89EFCDD8
:1043D00080B483B000AF7860396072B6174B184A6A
:1043E0005A60164B174A5A60144A144B1B6923F043
:1043F00001031361114A114B1B6943F0020313615E
:104400000E4A3B6853610D4A0C4B1B6943F0400355
:1044100013610A4BDB6803F00103002B14BF012377
:104420000023DBB2002B00D0F3E7044B00225A60DC
:1044300062B600BF0C37BD4680BC7047002002400A
:1044400023016745AB89EFCD80B487B000AFF8603A
:10445000B9607A607B80BB687B617B683B617B88ED
:104460005B087B807B88002B0DD07B691A883B69B9
:104470001A803B6902333B617B6902337B617B8835
:10448000013B7B80EEE700BF1C37BD4680BC704718
:1044900080B485B000AF78607B68D3F84C31FB60A6
:1044A0007B68D3F84C217B68D3F8483113441A4613
:1044B000FB689A4244D9FB681A787B6893F84031CC
:1044C0009A4239D1FB6801331A787B6893F84131FD
:1044D0009A4231D1FB6802331A787B6893F84231F3
:1044E0009A4229D1FB6803331A787B6893F84331E9
:1044F0009A4221D1FB6804331A787B6893F84431DF
:104500009A4219D1FB6805331A787B6893F84531D4
:104510009A4211D1FB6806331A787B6893F84631CA
:104520009A4209D1FB6807331A787B6893F84731C0
:104530009A4201D1FB6804E0FB680133FB60AFE7FE
:10454000002318461437BD4680BC704780B586B03E
:1045500000AF78607B68D3F85031002B46D04FF421
:10456000A4737B617B6903F00103002B02D07B699C
:1045700001337B617B68D3F850217B691A447B68E7
:10458000D3F84C117B68D3F848310B449A421FD8BA
:104590000023FB8100233B613A697B699A420ED27A
:1045A0007B68D3F850213B69D11807F10E02022332
:1045B0007868FFF79FFE3B6902333B61ECE77B685D
:1045C000D3F850217B691A447B68C3F8502113E06B
:1045D0007B68D3F84C3119467868FFF7F9FE7B68A1
:1045E000D3F84C217B68C3F8502105E07B68D3F8F1
:1045F0004C217B68C3F850217B68D3F850117B684D
:1046000003F5A07208237868FFF774FE7B68D3F87F
:10461000503103F108017A684FF4A0737868FFF70E
:1046200069FE002318461837BD4680BD80B582B0AC
:1046300000AF78607B68D3F85031002B0CD07B68DA
:10464000D3F8503103F108017A684FF4A073786809
:10465000FFF7FAFE002301E04FF0FF33184608375A
:10466000BD4680BD80B582B000AF78607B68D3F86E
:104670004C3119467868FFF7ABFE7B680022C3F81F
:10468000502100BF0837BD4680BD00BF80B485B053
:1046900000AF7860114A7B6813600023FB60FB6801
:1046A000072B09DC7A68FB689B00134400225A60E0
:1046B000FB680133FB60F2E7094A094B1B6843F0D2
:1046C00007031360064B074A5A60054B05229A60A0
:1046D00062B600BF1437BD4680BC7047C0020020E0
:1046E00010E000E03F19010080B485B000AF7860B1
:1046F00039600023FB60FB68072B12DC7A68FB68DB
:104700009B0013445B68002B07D17A68FB689B0011
:1047100013443A685A60002305E0FB680133FB60EC
:10472000E9E74FF0FF3318461437BD4680BC7047A9
:1047300080B485B000AF786039600023FB60FB680F
:10474000072B13DC7A68FB689B0013445A683B68AC
:104750009A4207D17A68FB689B00134400225A6092
:10476000002305E0FB680133FB60E8E74FF0FF330F
:1047700018461437BD4680BC704780B483B000AF84
:10478000786039603B68002B09D07B6800221A6092
:104790007B681A683B689A4201D230BFF8E700BFD5
:1047A0000C37BD4680BC704780B582B000AF104B5F
:1047B0001B681A6801321A6000237B607B68072B34
:1047C00012DC0B4B1A687B689B0013445B68002B60
:1047D00006D0074B1A687B689B0013445B689847B8
:1047E0007B6801337B60E9E700BF0837BD4680BDC9
:1047F000C002002049140008450C750FC50D5F105C
:10480000750F60125F10450C450C6012450C60126C
:10481000450C0000C800C800C800C800C800C80097
:10482000C800C800C800C800C800C800C800000010
:104830000100010001000100010001000100010070
:104840000100010001000100010001000100010060
:104850000100010001000100010001000100010050
:104860000100E6FFE6FFE6FFE6FFE6FFE6FFE6FF04
:10487000E6FFE6FFE6FFE6FFE6FFE6FFE6FFE6FF10
:10488000E6FFE6FFE6FFE6FFE6FFE6FFE6FF0100E4
:104890000100E6FFE6FFE6FFE6FFE6FFE6FFE6FFD4
:1048A000E6FFE6FFE6FFE6FFE6FFE6FFE6FFE6FFE0
:1048B000E6FFE6FFE6FFE6FFE6FFE6FFE6FF0100B4
:1048C0000100E6FFE6FFE6FFE6FFE6FFE6FFE6FFA4
:1048D000E6FFE6FFE6FFE6FFE6FFE6FFE6FFE6FFB0
:1048E000E6FFE6FFE6FFE6FFE6FFE6FFE6FF010084
:1048F0000100E6FFE6FFE6FFE6FFE6FFE6FFE6FF74
:10490000E6FFE6FFE6FFE6FFE6FFE6FFE6FFE6FF7F
:10491000E6FFE6FFE6FFE6FFE6FFE6FFE6FF010053
:104920000100E6FFE6FFE6FFE6FFE6FFE6FFE6FF43
:10493000E6FFE6FFE6FFE6FFE6FFE6FFE6FFE6FF4F
:10494000E6FFE6FFE6FFE6FFE6FFE6FFE6FF010023
:104950000100E6FFE6FFE6FFE6FFE6FFE6FFE6FF13
:10496000E6FFE6FFE6FFE6FFE6FFE6FFE6FFE6FF1F
:10497000E6FFE6FFE6FFE6FFE6FFE6FFE6FF0100F3
:104980000100E6FFE6FFE6FFE6FFE6FFE6FFE6FFE3
:10499000E6FFE6FFE6FFE6FFE6FFE6FFE6FFE6FFEF
:1049A000E6FFE6FFE6FFE6FFE6FFE6FFE6FF0100C3
:1049B0000100E6FFE6FFE6FFE6FFE6FFE6FFE6FFB3
:1049C000E6FFE6FFE6FFE6FFE6FFE6FFE6FFE6FFBF
:1049D000E6FFE6FFE6FFE6FFE6FFE6FFE6FF010093
:1049E00001000100010001000100010001000100BF
:1049F00001000100010001000100010001000100AF
:104A0000010001000100010001000100010001009E
:104A1000010001000100010001000100010001008E
:104A2000010001000100010001000100010001007E
:104A3000010001000100010001000100010001006E
:104A40000100C32FC32FC32FC32FC32FC32FC32FC7
:104A5000C32FC32FC32FC32FC32FC32FC32FC32FC6
:104A6000C32FC32FC32FC32FC32FC32FC32F0100A7
:104A70000100C32FC32FC32FC32FC32FC32FC32F97
:104A8000C32FC32FC32FC32FC32FC32FC32FC32F96
:104A9000C32FC32FC32FC32FC32FC32FC32F010077
:104AA0000100C32FC32FC32FC32FC32FC32FC32F67
:104AB000C32FC32FC32FC32FC32FC32FC32FC32F66
:104AC000C32FC32FC32FC32FC32FC32FC32F010047
:104AD0000100C32FC32FC32FC32FC32FC32FC32F37
:104AE000C32FC32FC32FC32FC32FC32FC32FC32F36
:104AF000C32FC32FC32FC32FC32FC32FC32F010017
:104B00000100C32FC32FC32FC32FC32FC32FC32F06
:104B1000C32FC32FC32FC32FC32FC32FC32FC32F05
:104B2000C32FC32FC32FC32FC32FC32FC32F0100E6
:104B30000100C32FC32FC32FC32FC32FC32FC32FD6
:104B4000C32FC32FC32FC32FC32FC32FC32FC32FD5
:104B5000C32FC32FC32FC32FC32FC32FC32F0100B6
:104B60000100C32FC32FC32FC32FC32FC32FC32FA6
:104B7000C32FC32FC32FC32FC32FC32FC32FC32FA5
:104B8000C32FC32FC32FC32FC32FC32FC32F010086
:104B90000100C32FC32FC32FC32FC32FC32FC32F76
:104BA000C32FC32FC32FC32FC32FC32FC32FC32F75
:104BB000C32FC32FC32FC32FC32FC32FC32F010056
:104BC00001000100010001000100010001000100DD
:104BD00001000100010001000100010001000100CD
:104BE00001000100010001000100010001000100BD
:104BF00001000100010001000100010001000100AD
:104C0000010001000100010001000100010001009C
:104C1000010001000100010001000100010001008C
:104C200001005F1E5F1E5F1E5F1E5F1E5F1E5F1E18
:104C30005F1E5F1E5F1E5F1E5F1E5F1E5F1E5F1E8C
:104C40005F1E5F1E5F1E5F1E5F1E5F1E5F1E0100F8
:104C500001005F1E5F1E5F1E5F1E5F1E5F1E5F1EE8
:104C60005F1E5F1E5F1E5F1E5F1E5F1E5F1E5F1E5C
:104C70005F1E5F1E5F1E5F1E5F1E5F1E5F1E0100C8
:104C800001005F1E5F1E5F1E5F1E5F1E5F1E5F1EB8
:104C90005F1E5F1E5F1E5F1E5F1E5F1E5F1E5F1E2C
:104CA0005F1E5F1E5F1E5F1E5F1E5F1E5F1E010098
:104CB00001005F1E5F1E5F1E5F1E5F1E5F1E5F1E88
:104CC0005F1E5F1E5F1E5F1E5F1E5F1E5F1E5F1EFC
:104CD0005F1E5F1E5F1E5F1E5F1E5F1E5F1E010068
:104CE00001005F1E5F1E5F1E5F1E5F1E5F1E5F1E58
:104CF0005F1E5F1E5F1E5F1E5F1E5F1E5F1E5F1ECC
:104D00005F1E5F1E5F1E5F1E5F1E5F1E5F1E010037
:104D100001005F1E5F1E5F1E5F1E5F1E5F1E5F1E27
:104D20005F1E5F1E5F1E5F1E5F1E5F1E5F1E5F1E9B
:104D30005F1E5F1E5F1E5F1E5F1E5F1E5F1E010007
:104D400001005F1E5F1E5F1E5F1E5F1E5F1E5F1EF7
:104D50005F1E5F1E5F1E5F1E5F1E5F1E5F1E5F1E6B
:104D60005F1E5F1E5F1E5F1E5F1E5F1E5F1E0100D7
:104D700001005F1E5F1E5F1E5F1E5F1E5F1E5F1EC7
:104D80005F1E5F1E5F1E5F1E5F1E5F1E5F1E5F1E3B
:104D90005F1E5F1E5F1E5F1E5F1E5F1E5F1E0100A7
:104DA00001000100010001000100010001000100FB
:104DB00001000100010001000100010001000100EB
:104DC00001000100010001000100010001000100DB
:104DD000FFFFFFFFFFFFFFFFFFFFFFFFFFFFFFFFE3
:104DE000FFFFFFFFFFFFFFFFFFFFFFFFFFFFFFFFD3
:104DF000FFFFFFFFFFFFFFFFFFFFFFFFFFFFFFFFC3
:104E0000FFFFFFFFFFFFFFFFFFFFFFFFFFFFFFFFB2
:104E1000FFFFFFFFFFFFFFFFFFFFFFFFFFFFFFFFA2
:104E2000FFFFFFFFFFFFFFFFFFFFFFFFFFFFFFFF92
:104E3000FFFFFFFFFFFFFFFFFFFFFFFFFFFFFFFF82
:104E4000FFFFFFFFFFFFFFFF0000FFFF0000FFFF6E
:104E5000FFFFFFFF0000FFFF0000000042726963D8
:104E6000690000004C6576656C00000047414D45C7
:104E7000204F5645520000004669726520746F202D
:104E80007265737461727400564943544F525921CC
:104E900000000000450C750FC50D5F10750F601206
:104EA0005F10450C450C6012450C6012450C00006B
:104EB000C800C800C800C800C800C800C800C800B2
:104EC000C800C800C800C800C80000004D414749DC
:104ED00043343223000000000000005F00000007A0
:104EE000000700147F147F14242A7F2A122313083A
:104EF000646236495522500005030000001C22411F
:104F0000000041221C00082A1C2A0808083E080844
:104F10000050300000080808080800606000002009
:104F2000100804023E5149453E00427F4000426164
:104F30005149462141454B311814127F10274545F0
:104F400045393C4A49493001710905033649494907
:104F500036064949291E0036360000005636000044
:104F600000081422411414141414412214080002DD
:104F700001510906324979413E7E1111117E7F4966
:104F80004949363E414141227F4141221C7F4949E6
:104F900049417F090901013E414151327F0808081A
:104FA0007F00417F41002040413F017F08142241A2
:104FB0007F404040407F0204027F7F0408107F3E14
:104FC0004141413E7F090909063E4151215E7F0969
:104FD000192946464949493101017F01013F4040B5
:104FE000403F1F2040201F7F2018207F631408149B
:104FF000630304780403615149454300007F414144
:10500000020408102041417F000004020102044014
:1050100040404040000102040020545454787F482E
:105020004444383844444420384444487F38545435
:105030005418087E090102081454543C7F080404E3
:105040007800447D40002040443D00007F1028440B
:1050500000417F40007C041804787C080404783800
:10506000444444387C14141408081414187C7C0834
:105070000404084854545420043F4440203C404019
:10508000207C1C2040201C3C4030403C4428102800
:10509000440C5050503C4464544C44000836410089
:1050A00000007F0000004136080008082A1C08089C
:1050B0001C2A08080008040C020A060E0109050D46
:1050C000030B070F450C750FC50D5F10750F6012B0
:1050D0005F10450C450C6012450C6012450C000039
:1050E000C800C800C800C800C800C800C800C80080
:1050F000C800C800C800C800C8000000450C750FF3
:10510000C50D5F10750F60125F10450C450C6012E5
:10511000450C6012450C0000C800C800C800C8005B
:10512000C800C800C800C800C800C800C800C8003F
:10513000C8000000000000000000000000000000A7
:10514000000000000000000000000000000000005F
:10515000E0FFE0FF00000000000000000000000091
:105160000000E0FFE0FFE0FFE0FF000000000000C3
:105170000000E0FFE0FF0000E0FFE0FF0000E0FFD4
:10518000E0FF00000000E0FFE0FF0000E0FFE0FFC4
:105190000000E0FFE0FF00000000E0FFE0FFE0FFB4
:1051A000E0FFE0FFE0FFE0FFE0FF00000000E0FFC5
:1051B000E0FFE0FFE0FFE0FFE0FFE0FFE0FF0000D6
:1051C00000000000E0FFE0FF00000000E0FFE0FF63
:1051D0000000000000000000E0FFE0FF0000000011
:1051E000E0FFE0FF000000000000E0FFE0FF000043
:1051F000000000000000E0FFE0FF0000E0FFE0FF33
:10520000E0FF0000000000000000E0FFE0FFE0FF22
:10521000000000000000000000000000000000008E
:10522000000000000000000000000000000000007E
:10523000000000000000000000000000000000006E
:10524000FFFFFFFF00000000000000000000000062
:1052500000000000FFFFFFFF000000000000000052
:105260000000FFFFFFFFFFFFFFFFFFFFFFFFFFFF4C
:10527000FFFF0000FFFFFFFFFFFFFFFFFFFFFFFF3C
:10528000FFFFFFFFFFFFFFFFFFFFFFFFFFFFFFFF2E
:10529000FFFFFFFFFFFFFFFFFFFFFFFF000000001A
:1052A000E007000000000000E007E007E007000062
:1052B0000000E007E007E00700000000E007E0076B
:1052C000E00700000000E007E007E0070000E0075B
:1052D000E007E007E007E007E007E007E007E00796
:1052E000E00700000000E0FF0000000000000000F8
:1052F000E0FF000000001F001F001F001F001F0034
:105300001F001F001F001F001F0000001F001F00C4
:105310001F00000000001F001F001F000000000011
:105320001F001F001F00000000001F001F001F00C3
:105330000000000000001F0000000000000000004E
:105340000000000000F800F800000000000000006D
:1053500000F800000000000000F800F80000000065
:10536000000000F8000000F80000000000F800F85D
:105370000000000000F800000000000000F800003D
:1053800000F800F8000000F8000000000000000035
:10539000000000F800F800F800F80000000000002D
:1053A00000F800F800F800F800F800F800F800F83D
:1053B00000F800F800F800F800F800F800F800F82D
:1053C00000F800F800F800F800000000000000F805
:1053D00000F800F800F800000000000000000000E5
:1053E00000F8000000F800F8000000F800000000DD
:1053F000000000F80000000000F800F800000000C5
:1054000000F8000000F800000000000000F800F8BC
:1054100000000000000000F8000000000000000094
:1054200000F800F800000000000000004D43552087
:1054300047616C61676100004F6E6C792035206DAB
:10544000697373696C65730063616E2062652069BE
:105450006E20666C69676874000000006174206FDC
:105460006E652074696D65004C6576656C000000A2
:1054700047414D45204F5645520000004669726530
:1054800020746F20726573746172740056494354BE
:105490004F52592100000000450C750FC50D5F10DB
:1054A000750F60125F10450C450C6012450C6012C0
:1054B000450C0000C800C800C800C800C800C800EB
:1054C000C800C800C800C800C800C800C800000064
:1054D00001000100010001000100010001000100C4
:1054E00001000100010001000100010001000100B4
:1054F00001000100010001000100010001000100A4
:105500000100E6FFE6FFE6FFE6FFE6FFE6FFE6FF57
:10551000E6FFE6FFE6FFE6FFE6FFE6FFE6FFE6FF63
:10552000E6FFE6FFE6FFE6FFE6FFE6FFE6FF010037
:105530000100E6FFE6FFE6FFE6FFE6FFE6FFE6FF27
:10554000E6FFE6FFE6FFE6FFE6FFE6FFE6FFE6FF33
:10555000E6FFE6FFE6FFE6FFE6FFE6FFE6FF010007
:105560000100E6FFE6FFE6FFE6FFE6FFE6FFE6FFF7
:10557000E6FFE6FFE6FFE6FFE6FFE6FFE6FFE6FF03
:10558000E6FFE6FFE6FFE6FFE6FFE6FFE6FF0100D7
:105590000100E6FFE6FFE6FFE6FFE6FFE6FFE6FFC7
:1055A000E6FFE6FFE6FFE6FFE6FFE6FFE6FFE6FFD3
:1055B000E6FFE6FFE6FFE6FFE6FFE6FFE6FF0100A7
:1055C0000100E6FFE6FFE6FFE6FFE6FFE6FFE6FF97
:1055D000E6FFE6FFE6FFE6FFE6FFE6FFE6FFE6FFA3
:1055E000E6FFE6FFE6FFE6FFE6FFE6FFE6FF010077
:1055F0000100E6FFE6FFE6FFE6FFE6FFE6FFE6FF67
:10560000E6FFE6FFE6FFE6FFE6FFE6FFE6FFE6FF72
:10561000E6FFE6FFE6FFE6FFE6FFE6FFE6FF010046
:105620000100E6FFE6FFE6FFE6FFE6FFE6FFE6FF36
:10563000E6FFE6FFE6FFE6FFE6FFE6FFE6FFE6FF42
:10564000E6FFE6FFE6FFE6FFE6FFE6FFE6FF010016
:105650000100E6FFE6FFE6FFE6FFE6FFE6FFE6FF06
:10566000E6FFE6FFE6FFE6FFE6FFE6FFE6FFE6FF12
:10567000E6FFE6FFE6FFE6FFE6FFE6FFE6FF0100E6
:105680000100010001000100010001000100010012
:105690000100010001000100010001000100010002
:1056A00001000100010001000100010001000100F2
:1056B00001000100010001000100010001000100E2
:1056C00001000100010001000100010001000100D2
:1056D00001000100010001000100010001000100C2
:1056E0000100C32FC32FC32FC32FC32FC32FC32F1B
:1056F000C32FC32FC32FC32FC32FC32FC32FC32F1A
:10570000C32FC32FC32FC32FC32FC32FC32F0100FA
:105710000100C32FC32FC32FC32FC32FC32FC32FEA
:10572000C32FC32FC32FC32FC32FC32FC32FC32FE9
:10573000C32FC32FC32FC32FC32FC32FC32F0100CA
:105740000100C32FC32FC32FC32FC32FC32FC32FBA
:10575000C32FC32FC32FC32FC32FC32FC32FC32FB9
:10576000C32FC32FC32FC32FC32FC32FC32F01009A
:105770000100C32FC32FC32FC32FC32FC32FC32F8A
:10578000C32FC32FC32FC32FC32FC32FC32FC32F89
:10579000C32FC32FC32FC32FC32FC32FC32F01006A
:1057A0000100C32FC32FC32FC32FC32FC32FC32F5A
:1057B000C32FC32FC32FC32FC32FC32FC32FC32F59
:1057C000C32FC32FC32FC32FC32FC32FC32F01003A
:1057D0000100C32FC32FC32FC32FC32FC32FC32F2A
:1057E000C32FC32FC32FC32FC32FC32FC32FC32F29
:1057F000C32FC32FC32FC32FC32FC32FC32F01000A
:105800000100C32FC32FC32FC32FC32FC32FC32FF9
:10581000C32FC32FC32FC32FC32FC32FC32FC32FF8
:10582000C32FC32FC32FC32FC32FC32FC32F0100D9
:105830000100C32FC32FC32FC32FC32FC32FC32FC9
:10584000C32FC32FC32FC32FC32FC32FC32FC32FC8
:10585000C32FC32FC32FC32FC32FC32FC32F0100A9
:105860000100010001000100010001000100010030
:105870000100010001000100010001000100010020
:105880000100010001000100010001000100010010
:105890000100010001000100010001000100010000
:1058A00001000100010001000100010001000100F0
:1058B00001000100010001000100010001000100E0
:1058C00001005F1E5F1E5F1E5F1E5F1E5F1E5F1E6C
:1058D0005F1E5F1E5F1E5F1E5F1E5F1E5F1E5F1EE0
:1058E0005F1E5F1E5F1E5F1E5F1E5F1E5F1E01004C
:1058F00001005F1E5F1E5F1E5F1E5F1E5F1E5F1E3C
:105900005F1E5F1E5F1E5F1E5F1E5F1E5F1E5F1EAF
:105910005F1E5F1E5F1E5F1E5F1E5F1E5F1E01001B
:1059200001005F1E5F1E5F1E5F1E5F1E5F1E5F1E0B
:105930005F1E5F1E5F1E5F1E5F1E5F1E5F1E5F1E7F
:105940005F1E5F1E5F1E5F1E5F1E5F1E5F1E0100EB
:1059500001005F1E5F1E5F1E5F1E5F1E5F1E5F1EDB
:105960005F1E5F1E5F1E5F1E5F1E5F1E5F1E5F1E4F
:105970005F1E5F1E5F1E5F1E5F1E5F1E5F1E0100BB
:1059800001005F1E5F1E5F1E5F1E5F1E5F1E5F1EAB
:105990005F1E5F1E5F1E5F1E5F1E5F1E5F1E5F1E1F
:1059A0005F1E5F1E5F1E5F1E5F1E5F1E5F1E01008B
:1059B00001005F1E5F1E5F1E5F1E5F1E5F1E5F1E7B
:1059C0005F1E5F1E5F1E5F1E5F1E5F1E5F1E5F1EEF
:1059D0005F1E5F1E5F1E5F1E5F1E5F1E5F1E01005B
:1059E00001005F1E5F1E5F1E5F1E5F1E5F1E5F1E4B
:1059F0005F1E5F1E5F1E5F1E5F1E5F1E5F1E5F1EBF
:105A00005F1E5F1E5F1E5F1E5F1E5F1E5F1E01002A
:105A100001005F1E5F1E5F1E5F1E5F1E5F1E5F1E1A
:105A20005F1E5F1E5F1E5F1E5F1E5F1E5F1E5F1E8E
:105A30005F1E5F1E5F1E5F1E5F1E5F1E5F1E0100FA
:105A4000010001000100010001000100010001004E
:105A5000010001000100010001000100010001003E
:105A6000010001000100010001000100010001002E
:105A7000FFFFFFFFFFFFFFFFFFFFFFFFFFFFFFFF36
:105A8000FFFFFFFFFFFFFFFFFFFFFFFFFFFFFFFF26
:105A9000FFFFFFFFFFFFFFFFFFFFFFFFFFFFFFFF16
:105AA000FFFFFFFFFFFFFFFFFFFFFFFFFFFFFFFF06
:105AB000FFFFFFFFFFFFFFFFFFFFFFFFFFFFFFFFF6
:105AC000FFFFFFFFFFFFFFFFFFFFFFFFFFFFFFFFE6
:105AD000FFFFFFFFFFFFFFFFFFFFFFFFFFFFFFFFD6
